:020000040800F2
:100000000000022081300008B5050008B70500088F
:10001000B9050008BB050008BD0500080000000088
:100020000000000000000000000000009116000821
:10003000BF0500080000000031170008E1130008A8
:10004000D1300008D1300008D1300008D13000088C
:10005000D1300008D1300008C1050008D1300008B7
:10006000D1300008D1300008D1300008D13000086C
:10007000D1300008D1300008D1300008D13000085C
:10008000D1300008D1300008D1300008D13000084C
:10009000D1300008D1300008D1300008D505000863
:1000A000D1300008D1300008D1300008D13000082C
:1000B000D1300008D1300008D1300008D13000081C
:1000C000D1300008D1300008D1300008D13000080C
:1000D000D1300008D1300008D1300008D1300008FC
:1000E000D1300008D1300008D1300008D1300008EC
:1000F000D1300008D1300008D1300008D1300008DC
:10010000D1300008D1300008D1300008D1300008CB
:10011000D1300008D1300008ED050008D1300008CA
:10012000D1300008D1300008D1300008D1300008AB
:10013000D13000080000000000000000D1300008AD
:10014000D1300008D1300008D1300008D13000088B
:10015000D1300008D1300008D1300008D13000087B
:10016000D1300008D1300008D1300008D13000086B
:10017000D1300008D130000800000000000000006D
:08018000D1300008D130000865
:1001900053B94AB9002908BF00281CBF4FF0FF31EE
:1001A0004FF0FF3000F00CB8ADF1080C6DE904CE53
:1001B00002F0CAFFDDF804E0DDE9022304B0704775
:1001C000704700BF10B5054C237833B9044B13B109
:1001D0000448AFF300800123237010BD10000020FD
:1001E000000000000434000808B5034B1BB10349AC
:1001F0000348AFF3008008BD000000001400002099
:1002000004340008F0B58BB00024059406940794DC
:10021000089409940194304B1A6B42F080021A63DF
:100220001A6B02F080020192019A02941A6B42F05A
:1002300004021A631A6B02F004020292029A0394F7
:100240001A6B42F001021A631A6B02F00102039268
:10025000039A04941A6B42F002021A631B6B03F0B8
:1002600002030493049B1D4E22464FF4F241304694
:1002700000F054FB012705974FF488130693079469
:10028000174D05A9284600F053FA4FF4F2430593A1
:1002900006970794089405A9304600F049FA4FF4F0
:1002A000807305934FF404130693079405A9284619
:1002B00000F03EFA22460521062000F01BFA062037
:1002C00000F028FA22460521172000F013FA172023
:1002D00000F020FA0BB0F0BD0038024000040240EC
:1002E0000000024008B5012001F012F9FBE7000010
:1002F00008B50268034B9A4200D008BD00F0A2F98D
:10030000FBE700BF0010004072B6FEE708B50E48DC
:100310000E4B03604FF48273436000238360C3601D
:10032000036143614FF400728261C36103624362FF
:100330004FF4005383628023C36200F053FE00B980
:1003400008BDFFF7E1FF00BF30000020003800408B
:1003500000B595B03022002108A802F0BAFE0023B3
:10036000039304930593069307930193204A116C1A
:1003700041F080511164126C02F080520192019A96
:1003800002931C4B1A6842F480421A601B6803F403
:1003900080430293029B012308934FF48033099317
:1003A00002230E934FF480020F9204221092A8228F
:1003B000119212930723139308A800F0C5FA98B975
:1003C0000F23039302230493002305934FF4A053B8
:1003D00006934FF480530793052103A800F01EFDF8
:1003E00020B915B05DF804FBFFF78EFFFFF78CFF17
:1003F000003802400070004008B500F009F9FFF72E
:10040000A7FFFFF7FFFEFFF781FF00F0F5FF054AAA
:100410000021054801F01EF8044B186000F0FEFFB3
:10042000FEE700BF24340008E50200082C0000208D
:1004300000B583B0002200920D4B596C41F480410D
:100440005964596C01F48041009100990192196C32
:1004500041F0805119641B6C03F080530193019BA0
:100460000F216FF0010000F045F903B05DF804FBC7
:1004700000380240F0B589B000230393049305933C
:100480000693079302681F4B9A4201D009B0F0BD52
:100490000024009403F500331A6C42F480421A647D
:1004A0001A6C02F480420092009A01941A6B42F096
:1004B00004021A631A6B02F004020192019A029478
:1004C0001A6B42F002021A631B6B03F002030293E1
:1004D000029B0C2303930227049703260696052507
:1004E00007950DEB0301084800F022F94FF48063F3
:1004F0000393049705940696079503A9034800F013
:1005000017F9C3E700380040000802400004024029
:1005100030B589B0044600230193214B1A6C42F098
:1005200010021A641B6C03F010030193019B02A9D3
:1005300003A800F039FD069BCBB900F025FD03466A
:10054000184AA2FB03239B0C013B1748174A026081
:1005500040F2E732C260436000230361836083613D
:1005600000F010FF054630B1284609B030BD00F05C
:100570000BFD4300E4E70C4800F09AFD0546002817
:10058000F2D1362000F0C6F80F2C01D90125EBE797
:1005900000222146362000F0ADF8054B1C60E3E751
:1005A0000038024083DE1B4388000020001000401A
:1005B00008000020FEE7FEE7FEE7FEE7FEE77047E3
:1005C00008B50120024B187000F0B0F908BD00BF5B
:1005D000D100002008B5044B01221A704FF480703E
:1005E00000F0A4F908BD00BFD000002008B5024803
:1005F00000F0A6FD08BD00BF88000020034AD2F825
:10060000883043F47003C2F88830704700ED00E092
:1006100008B50B4B1A6842F400721A601A6842F46B
:1006200080621A601A6842F480721A60032000F037
:100630004FF80F20FFF76CFFFFF7FAFE002008BD10
:10064000003C0240034A1168034B1B780B441360C3
:10065000704700BFD400002004000020014B186840
:10066000704700BFD4000020002808DB0901C9B290
:1006700000F1604000F5614080F80013704700F021
:100680000F000901C9B2014B1954704714ED00E085
:1006900000B500F00700C0F1070CBCF1040F28BF43
:1006A0004FF0040C031D062B0FD9C31E4FF0FF3E65
:1006B0000EFA0CF021EA000199400EFA03FE22EA3C
:1006C0000E0241EA02005DF804FB0023EEE70000A1
:1006D000074AD36823F4E0631B041B0C000200F4F8
:1006E000E060034343F0BF6343F40033D3607047DB
:1006F00000ED00E010B50446054BD868C0F30220B9
:10070000FFF7C6FF01462046FFF7AEFF10BD00BF52
:1007100000ED00E0002807DB00F01F024009012384
:100720009340024A42F82030704700BF00E100E0E9
:1007300000230F2B00F2E98070B582B065E0856878
:100740004FEA430E032404FA0EF425EA0405CC68AC
:1007500004FA0EF42C438460446824EA02044A68D4
:10076000C2F300129A40224342605CE0DC08083485
:1007700050F8242003F00705AD004FF00F0E0EFADD
:1007800005FE22EA0E0E0A69AA4042EA0E0240F86D
:1007900024205CE0072200E0002202FA0EF22A4345
:1007A00002345A4D45F82420594A94686FEA0C02E5
:1007B00024EA0C054E6816F4801F01D04CEA0405AB
:1007C000534CA560E46802EA04054E6816F4001F65
:1007D00001D04CEA04054E4CE560646802EA040569
:1007E0004E6816F4003F01D04CEA0405484C6560A1
:1007F000246822404D6815F4803F01D04CEA040281
:10080000434C226001330F2B7DD801229A400C68A3
:1008100004EA020C32EA0404F4D14C6804F0030444
:10082000013C012C8BD94A6802F00302032A09D04B
:10083000C4685D000322AA4024EA02048A68AA4030
:100840002243C2604A6802F00302022A8ED0046882
:100850004FEA430E032202FA0EF224EA02044A6827
:1008600002F0030202FA0EF2224302604A6812F416
:10087000403FC7D000220192264A546C44F4804481
:100880005464526C02F480420192019A9C08A51CA7
:100890001E4A52F8255003F0030E4FEA8E0E0F2227
:1008A00002FA0EF225EA02051B4A90423FF474AFA9
:1008B00002F5806290421AD002F58062904218D010
:1008C00002F58062904216D002F58062904214D008
:1008D00002F58062904212D002F58062904210D000
:1008E00002F5806290423FF455AF082255E701229D
:1008F00053E7022251E703224FE704224DE7052286
:100900004BE7062249E702B070BD7047003801404E
:10091000003C014000380240000002400AB1816101
:1009200070470904816170477047000008B5054BA6
:100930005B69034200D108BD024B5861FFF7F4FF29
:10094000F9E700BF003C0140002800F0E08170B5ED
:1009500082B00446036813F0010F3BD09F4B9B68A5
:1009600003F00C03042B2CD09C4B9B6803F00C036E
:10097000082B21D06368B3F5803F4FD0B3F5A02F8B
:1009800052D0964B1A6822F480321A601A6822F408
:1009900080221A606368002B50D0FFF75FFE054687
:1009A0008E4B1B6813F4003F14D1FFF757FE401B1A
:1009B0006428F5D90320B1E1884B5B6813F4800FFC
:1009C000D8D0864B1B6813F4003F03D06368002B1C
:1009D00000F09F81236813F0020F54D07F4B9B6877
:1009E00013F00C0F3ED07D4B9B6803F00C03082BDB
:1009F00033D0E368002B68D0794B01221A60FFF7EF
:100A00002DFE0546754B1B6813F0020F54D1FFF7FE
:100A100025FE401B0228F5D903207FE16F4A1368A9
:100A200043F480331360B5E76C4B1A6842F48022BC
:100A30001A601A6842F480321A60ABE7FFF70EFEC4
:100A40000546664B1B6813F4003FC3D0FFF706FE54
:100A5000401B6428F5D9032060E1604B5B6813F408
:100A6000800FC6D15D4B1B6813F0020F03D0E36803
:100A7000012B40F05081594A136823F0F803216993
:100A800043EAC1031360236813F0080F42D063697F
:100A90006BB3534B0122C3F8802EFFF7DFFD0546F1
:100AA0004E4B5B6F13F0020F34D1FFF7D7FD401BA5
:100AB0000228F5D9032031E1484A136823F0F803EE
:100AC000216943EAC1031360DDE7454B00221A6048
:100AD000FFF7C4FD0546414B1B6813F0020FD2D04F
:100AE000FFF7BCFD401B0228F5D9032016E13C4B63
:100AF0000022C3F8802EFFF7B1FD0546374B5B6F30
:100B000013F0020F06D0FFF7A9FD401B0228F5D90C
:100B1000032003E1236813F0040F77D02F4B1B6CE5
:100B200013F0805F33D1002301932C4B1A6C42F0F9
:100B300080521A641B6C03F080530193019B0125C2
:100B4000284B1B6813F4807F23D0A368012B34D07B
:100B5000052B38D0214B1A6F22F001021A671A6F49
:100B600022F004021A67A368002B3DD0FFF776FD40
:100B700006461A4B1B6F13F0020F46D1FFF76EFDAE
:100B8000801B41F288339842F3D90320C6E0002548
:100B9000D6E7144A136843F480731360FFF75EFDD1
:100BA0000646104B1B6813F4807FCED1FFF756FD2D
:100BB000801B0228F5D90320B0E0084A136F43F0E8
:100BC00001031367CFE7054B1A6F42F004021A675F
:100BD0001A6F42F001021A67C5E700BF00380240F1
:100BE0000000474200700040FFF738FD0646524BB8
:100BF0001B6F13F0020F08D0FFF730FD801B41F28E
:100C000088339842F3D9032088E0EDB9A369002B1B
:100C100000F08380484A926802F00C02082A51D002
:100C2000022B17D0454B00221A66FFF717FD04462A
:100C3000414B1B6813F0007F42D0FFF70FFD001BF4
:100C40000228F5D9032069E03B4A136C23F0805356
:100C50001364DBE7394B00221A66FFF7FFFC0546F9
:100C6000354B1B6813F0007F06D0FFF7F7FC401BE5
:100C70000228F5D9032051E0E369226A1343626A2E
:100C800043EA8213A26A5208013A43EA0243E26A43
:100C900043EA0263284A5360284B01221A66FFF791
:100CA000DDFC0446244B1B6813F0007F06D1FFF7E0
:100CB000D5FC001B0228F5D903202FE000202DE0F1
:100CC00000202BE0012B2BD01B4B5B6803F4800131
:100CD000E269914226D103F03F02216A8A4223D180
:100CE000616A47F6C0721A40B2EB811F1ED103F44D
:100CF0004031A26A5208013AB1EB024F18D103F019
:100D00007063E26AB3EB026F14D1002006E00120A9
:100D10007047012002E0012000E0002002B070BD19
:100D20000120FBE70120F9E70120F7E70120F5E7C3
:100D30000120F3E70120F1E70038024000004742BC
:100D400008B5334B9B6803F00C03042B5BD0082BD6
:100D50005BD12F4B5A6802F03F025B6813F4800F9F
:100D60002CD02B4B5868C0F388104FEA401CBCEBCA
:100D7000000C6EEB0E0E4FEA8E1343EA9C634FEAB3
:100D80008C11B1EB0C0163EB0E03DB0043EA5173F2
:100D9000C90011EB000C43F10003590200234FEA94
:100DA0004C2041EADC51FFF7F3F9194B5B68C3F3C0
:100DB000014301335B00B0FBF3F027E0144B5868AC
:100DC000C0F388104FEA401CBCEB000C6EEB0E0E1B
:100DD0004FEA8E1343EA9C634FEA8C11B1EB0C018E
:100DE00063EB0E03DB0043EA5173C90011EB000C07
:100DF00043F10003990200234FEA8C2041EA9C5101
:100E0000FFF7C6F9D1E7034800E0034808BD00BF7B
:100E10000038024000127A000024F400002800F09C
:100E20009B8070B50D4604464F4B1B6803F00703CB
:100E30008B4208D2CBB24C4A1370136803F00703FD
:100E40008B4240F08B80236813F0020F17D013F011
:100E5000040F04D0454A936843F4E0539360236839
:100E600013F0080F04D0414A936843F46043936041
:100E70003E4A936823F0F003A1680B439360236814
:100E800013F0010F32D06368012B21D09A1E012A82
:100E900025D9364A126812F0020F61D033498A68A8
:100EA00022F0030213438B60FFF7D8FB06462F4B5B
:100EB0009B6803F00C036268B3EB820F16D0FFF758
:100EC000CDFB801B41F288339842F0D9032042E0E9
:100ED000264A126812F4003FE0D101203BE0234A89
:100EE000126812F0007FD9D1012034E01E4B1B683C
:100EF00003F00703AB4207D9EAB21B4B1A701B6819
:100F000003F00703AB422DD1236813F0040F06D082
:100F1000164A936823F4E053E1680B439360236817
:100F200013F0080F07D0114A936823F46043216936
:100F300043EAC1039360FFF703FF0C4B9B68C3F3C5
:100F400003130B4AD35CD8400A4B18600A4B18684D
:100F5000FFF7DEFA002070BD012070470120FAE79C
:100F60000120F8E70120F6E7003C0240003802408B
:100F7000503400080000002008000020014B1868D1
:100F8000704700BF0000002008B5FFF7F7FF044BD3
:100F90009B68C3F38223034AD35CD84008BD00BFDB
:100FA00000380240483400080F2303600B4B9A6856
:100FB00002F0030242609A6802F0F00282609A68CE
:100FC00002F4E052C2609B68DB0803F4E053036163
:100FD000034B1B6803F007030B60704700380240A7
:100FE000003C0240002860D010B50446436A33B983
:100FF0004368B3F5827F05D00023C36102E000237C
:101000000361436194F85130002B44D0022384F8EB
:1010100051302268136823F040031360636803F4BF
:101020008273A26802F404421343E26802F400628D
:101030001343226902F002021343626902F00102C3
:101040001343A26902F400721343E26902F038020A
:101050001343226A02F080021343A26A02F4005290
:10106000216813430B60638B03F00403626A02F090
:101070001002216813434B60A36AB3F5005F10D0E0
:101080002268D36923F40063D361002060650123E3
:1010900084F8513010BD84F850302046FFF7EAF94B
:1010A000B4E72368A28D1A61EAE701207047704710
:1010B00090F83D30DBB2012B37D1022380F83D3070
:1010C0000268D36843F00103D3600368194A93426E
:1010D00020D0B3F1804F1DD0A2F57C42934219D0AD
:1010E00002F58062934215D002F58062934211D0DE
:1010F00002F5784293420DD002F57052934209D026
:10110000A2F59432934205D01A6842F001021A60A7
:10111000002070479A6802F00702062A07D01A6872
:1011200042F001021A600020704701207047002041
:10113000704700BF0000014070477047704770471C
:1011400010B5044603681A6912F0020F11D0DA686C
:1011500012F0020F0DD06FF002021A610123037723
:1011600003689B6913F0030F70D0FFF7E6FF0023BD
:10117000237723681A6912F0040F12D0DA6812F08C
:10118000040F0ED06FF004021A6102232377236844
:101190009B6913F4407F5FD02046FFF7CEFF00230A
:1011A000237723681A6912F0080F12D0DA6812F058
:1011B000080F0ED06FF008021A610423237723680A
:1011C000DB6913F0030F4ED02046FFF7B6FF002374
:1011D000237723681A6912F0100F12D0DA6812F020
:1011E000100F0ED06FF010021A61082323772368C6
:1011F000DB6913F4407F3DD02046FFF79EFF0023BC
:10120000237723681A6912F0010F03D0DA6812F00D
:10121000010F36D123681A6912F0800F03D0DA6803
:1012200012F0800F34D123681A6912F0400F03D0F6
:10123000DA6812F0400F32D123681A6912F0200FD9
:1012400003D0DA6812F0200F30D110BDFFF774FF21
:101250002046FFF773FF8AE72046FFF76DFF204621
:10126000FFF76CFF9BE72046FFF766FF2046FFF77E
:1012700065FFACE72046FFF75FFF2046FFF75EFF04
:10128000BDE76FF001021A612046FFF731F8C1E7B0
:101290006FF080021A61204600F0A1F8C3E76FF0FA
:1012A00040021A612046FFF74AFFC5E76FF02002AF
:1012B0001A61204600F092F8C7E700000368304A40
:1012C000904212D0B0F1804F0FD0A2F57C429042F4
:1012D0000BD002F58062904207D002F58062904206
:1012E00003D002F57842904203D123F070034A689C
:1012F0001343234A90422AD0B0F1804F27D0A2F561
:101300007C42904223D002F5806290421FD002F5C9
:10131000806290421BD002F57842904217D002F5CD
:101320007052904213D002F5806290420FD002F5C5
:10133000806290420BD0A2F59832904207D002F51D
:101340008062904203D002F58062904203D123F480
:101350004073CA68134323F080034A691343036050
:101360008B68C3620B688362054B984203D003F518
:101370008063984201D10B69036301234361704785
:101380000000014040B310B5044690F83D30F3B181
:10139000022384F83D30214651F8040BFFF78EFFFD
:1013A000012384F8463084F83E3084F83F3084F8D6
:1013B000403084F8413084F8423084F8433084F877
:1013C000443084F8453084F83D30002010BD80F86A
:1013D0003C30FFF76CFEDBE7012070477047704739
:1013E00008B54FF0E0231B6901F0C8FB012800D1CC
:1013F00008BD00F0CFF9FBE7EFF305832BB9064BEF
:10140000186828B901221A6070476FF0050070470C
:101410004FF0FF30704700BF90070020EFF30583C7
:1014200073B90A4B1B68012B0DD110B50024084B72
:10143000DC77064B02221A6001F0FEF8204610BD50
:101440006FF0050070474FF0FF30704790070020A5
:1014500000ED00E0F0B587B000240594EFF30584BB
:1014600074BB68B322B31568936903B918235C1E73
:10147000372C49D8546814F0010F47D156696EB122
:101480004FEA960C94682CB1D7685B2F02D9176984
:1014900007B1C6B92CB14FF0FF340EE04FF0800C0D
:1014A000F0E7D4688CB9146994B14FF0FF3404E0CC
:1014B0001546002418234FF0800C012C0AD0ACB143
:1014C000059807B0F0BD0124F7E74FF0FF34F4E7CB
:1014D0000024F2E7146992680292019400930B468B
:1014E0006246294601F03AF80590E9E705AA01921B
:1014F00000930B461FFA8CF2294601F06AF8012886
:10150000DED000230593DBE70020DAE70020D8E7F0
:1015100008B5EFF3058333B908B9002008BD01F021
:10152000EDF90020FAE76FF00500F7E7034B0360E1
:10153000034B0B6080231360704700BF340700200B
:1015400034050020034B0360034B0B604FF48073A2
:1015500013607047D8040020D800002000F1080371
:1015600043604FF0FF328260C36003610023036079
:10157000704700230361704743684B609A688A6034
:10158000516099600861036801330360704730B4AB
:101590000D68B5F1FF3F11D000F108031C465B68F0
:1015A0001A68AA42FAD963684B6099608C606160DE
:1015B000086103680133036030BC70470469F2E7D7
:1015C0000369416882688A60416851605A68824252
:1015D00006D0002202611A68013A1A601868704742
:1015E00082685A60F5E7000082B0002301930D4B3A
:1015F0001B68B3F1FF3F08D04FF0500383F311880D
:10160000BFF36F8FBFF34F8FFEE74FF0500383F3AD
:101610001188BFF36F8FBFF34F8F019B002BFCD05E
:1016200002B070470C00002008480068006880F392
:1016300008884FF0000080F3148862B661B6BFF3EB
:101640004F8FBFF36F8F00DF00BF000008ED00E099
:10165000DFF80C00016841F4700101607047000080
:1016600088ED00E04FF0807340F8043C21F0010168
:1016700040F8081C054B40F80C3C40F8202C6FF05B
:10168000020340F8243C4438704700BFE9150008C5
:10169000074B19680868B0E8F04F80F30988BFF37A
:1016A0006F8F4FF0000080F311887047AFF3008018
:1016B000F84800204FF0500383F31188BFF36F8F79
:1016C000BFF34F8F0B4A136801331360012B00D017
:1016D00070474FF0E023D3F8043D13F0FF0FF7D02D
:1016E0004FF0500383F31188BFF36F8FBFF34F8F19
:1016F000FEE700BF0C000020094B1B6843B94FF008
:10170000500383F31188BFF36F8FBFF34F8FFEE752
:10171000013B034A13600BB983F31188704700BF84
:101720000C0000200000000000000000000000008D
:10173000EFF30980BFF36F8F154B1A681EF0100F7F
:1017400008BF20ED108A20E9F04F10602DE9090054
:101750004FF0500080F31188BFF34F8FBFF36F8FAE
:1017600001F0F2F84FF0000080F3118809BC19680D
:101770000868B0E8F04F1EF0100F08BFB0EC108AF8
:1017800080F30988BFF36F8F704700BFAFF300800D
:10179000F848002008B54FF0500383F31188BFF3D9
:1017A0006F8FBFF34F8F00F0A1FF28B14FF0E02300
:1017B0004FF08052C3F8042D002383F3118808BD35
:1017C0004FF0E022002313619361054B1B6805492C
:1017D000A1FB03139B09013B53610723136170476E
:1017E00000000020D34D62104FF0E023D3F8002D0D
:1017F0003D4B9A421CD04FF0E023D3F8002D3B4BD9
:101800009A421ED030B583B0394B1A78D2B20192C9
:10181000FF221A701B78DBB28DF803309DF803307D
:1018200003F05003334A1370334B07221A601BE056
:101830004FF0500383F31188BFF36F8FBFF34F8FC7
:10184000FEE74FF0500383F31188BFF36F8FBFF3B0
:101850004F8FFEE7284A1368013B13609DF8033061
:101860005B00DBB28DF803309DF8033013F0800F7E
:10187000F0D1214B1B68032B08D04FF0500383F3AA
:101880001188BFF36F8FBFF34F8FFEE71B021A4A19
:10189000136003F4E0631360019BDBB2144A13701E
:1018A0004FF0E024D4F8203D43F47003C4F8203D09
:1018B000D4F8203D43F07043C4F8203DFFF780FF8B
:1018C00000250E4B1D60FFF7C3FED4F8343F43F0F4
:1018D0004043C4F8343FFFF7A7FE01F035F8FFF7A7
:1018E00083FE284603B030BD71C20F4170C20F4164
:1018F00000E400E098070020940700200C0000207E
:10190000EFF305830F2B0FD9114A9B5CDBB2114A11
:1019100012789A4208D94FF0500383F31188BFF32D
:101920006F8FBFF34F8FFEE74FF0E023D3F80C3DEE
:1019300003F4E063084A1268934208D94FF0500359
:1019400083F31188BFF36F8FBFF34F8FFEE77047AC
:10195000F0E300E09807002094070020124A12F0FC
:10196000070F1ED0D11D21F00701C1F5705313449C
:101970000A460E480260002141601344083B23F0F0
:1019800007030B48036059601960991A516013608E
:10199000084B1960084B1960084B4FF000421A6061
:1019A00070474FF47053E4E7BC070020B4070020F1
:1019B000B0070020A8070020AC0700209C070020EB
:1019C000164B1A461B688342FBD3516802EB010C8D
:1019D000844509D0416800EB010C634509D00360E0
:1019E000904219D010607047406801445160104621
:1019F000F0E710B40A4C2468A3420BD05B6819448A
:101A0000416013681B680360904200D010605DF86D
:101A1000044B70470460F7E7704700BFB40700202D
:101A2000B007002038B5044600F052FE384B1B6862
:101A3000B3B1384B1B681C4250D1002C50D004F17C
:101A4000080214F0070F02D022F007020832002A21
:101A500055D0314B1B68934253D330490C6804E096
:101A6000FFF77CFFE5E721461C466368934202D2FC
:101A70002368002BF7D1264B1B68A34243D00D6887
:101A8000083523680B6063689B1A102B10D9A018C7
:101A900010F0070F08D04FF0500383F31188BFF305
:101AA0006F8FBFF34F8FFEE743606260FFF788FFE1
:101AB000626819490B689B1A0B60194909688B42C7
:101AC00001D217490B60134B1B681343636000235B
:101AD0002360144A13680133136002E0002500E01C
:101AE000002500F08FFE15F0070F0ED04FF05003C9
:101AF00083F31188BFF36F8FBFF34F8FFEE700258D
:101B0000EFE70025EDE70025EBE7284638BD00BFED
:101B1000B00700209C070020AC070020B40700207D
:101B2000A8070020A4070020002834D038B50446B8
:101B3000A0F1080550F8043C174A1268134208D176
:101B40004FF0500383F31188BFF36F8FBFF34F8FB4
:101B5000FEE750F8081C41B14FF0500383F31188A1
:101B6000BFF36F8FBFF34F8FFEE723EA020340F806
:101B7000043C00F0ADFD54F8041C084A13680B4403
:101B800013602846FFF71CFF054A136801331360F2
:101B900000F038FE38BD70479C070020AC070020DD
:101BA000A007002010B50446FFF784FDA26BE36B8D
:101BB0009A4204D00024FFF79FFD204610BD012467
:101BC000F9E710B50446FFF775FDA36B23B90124AF
:101BD000FFF792FD204610BD0024F9E770B50446DA
:101BE0001546866B026C5AB903681BB1002001369A
:101BF000A66370BD806800F0D1FF0023A360F6E704
:101C00006DB9406801F092FA6368226C1344636016
:101C1000A268934219D3236863602846E7E7C06847
:101C200001F084FAE368226C51429B1AE360226857
:101C3000934202D2A3680B44E360022D01D000203E
:101C4000D5E726B1013E0020D1E72846CFE70020A6
:101C5000CDE70346026C6AB110B50846D968114455
:101C6000D9609C68A14201D31968D960D96801F094
:101C70005DFA10BD704738B50546FFF71BFD95F8B6
:101C8000454064B201E0013C64B2002C0ADD6B6A9D
:101C900043B105F1240000F0D7FE0028F3D000F096
:101CA00067FFF0E7FF2385F84530FFF725FDFFF7D5
:101CB00001FD95F8444064B201E0013C64B2002C9F
:101CC0000ADD2B6943B105F1100000F0BDFE0028CC
:101CD000F3D000F04DFFF0E7FF2385F84430FFF725
:101CE0000BFD38BD38B5E0B10D460446FFF7E2FC08
:101CF0002368E26B216C01FB0230A0600020A0632E
:101D00006360013A02FB0133E360FF2384F844304F
:101D100084F84530FDB9236963B9FFF7EDFC012074
:101D200038BD4FF0500383F31188BFF36F8FBFF3BB
:101D30004F8FFEE704F1100000F086FE0028ECD083
:101D40004FF0E0234FF08052C3F8042DBFF34F8FC4
:101D5000BFF36F8FE1E704F11000FFF7FFFB04F121
:101D60002400FFF7FBFBD8E738B51D46049C0B4663
:101D700049B92460E063236401212046FFF7B2FFE4
:101D800084F84C5038BD2260F4E740B94FF050035E
:101D900083F31188BFF36F8FBFF34F8FFEE710B54A
:101DA00084B01C46844653B192B189B94FF05003B8
:101DB00083F31188BFF36F8FBFF34F8FFEE74FF0B0
:101DC000500383F31188BFF36F8FBFF34F8FFEE78C
:101DD0006AB150230393039B502B13D04FF0500351
:101DE00083F31188BFF36F8FBFF34F8FFEE7002996
:101DF000EFD04FF0500383F31188BFF36F8FBFF321
:101E00004F8FFEE7039B012384F8463000949DF832
:101E100018306046FFF7A8FF204604B010BDF0B5AB
:101E200085B0019288B10F461D460446B1B1022D1E
:101E300020D1E36B012B1DD04FF0500383F31188A9
:101E4000BFF36F8FBFF34F8FFEE74FF0500383F365
:101E50001188BFF36F8FBFF34F8FFEE7036C002B2A
:101E6000E5D04FF0500383F31188BFF36F8FBFF3BA
:101E70004F8FFEE700F082FE064658B9019B002B0B
:101E800048D04FF0500383F31188BFF36F8FBFF337
:101E90004F8FFEE700263DE02A4639462046FFF7F1
:101EA0009DFE636A7BB948B14FF0E0234FF080524A
:101EB000C3F8042DBFF34F8FBFF36F8FFFF71CFCE8
:101EC000012005B0F0BD04F1240000F0BDFD0028A4
:101ED000F4D04FF0E0234FF08052C3F8042DBFF34D
:101EE0004F8FBFF36F8FE9E7FFF706FC0020E8E7AD
:101EF00002A800F0EFFD012619E0002384F8443029
:101F000021E0002384F8453023E02046FFF7B3FEAC
:101F100000F078FCFFF7CEFBA26BE36B9A42BBD3D9
:101F2000022DB9D0019B002BDED0002EE0D0FFF7B0
:101F3000E3FB00F0CDFBFFF7BDFB94F8442052B269
:101F4000B2F1FF3FD9D094F8452052B2B2F1FF3F31
:101F5000D7D0FFF7D1FB01A902A800F0C7FDD8B97F
:101F60002046FFF71FFE0028CFD0019904F1100092
:101F700000F036FD2046FFF77EFE00F043FC00280F
:101F8000C8D14FF0E0234FF08052C3F8042DBFF3C7
:101F90004F8FBFF36F8FBDE72046FFF76CFE00F059
:101FA00031FC00208DE72DE9F84390B10F4616462D
:101FB0001C460546B1B1022C20D1EB6B012B1DD084
:101FC0004FF0500383F31188BFF36F8FBFF34F8F30
:101FD000FEE74FF0500383F31188BFF36F8FBFF319
:101FE0004F8FFEE7036C002BE5D04FF0500383F3D7
:101FF0001188BFF36F8FBFF34F8FFEE7FFF780FCB1
:10200000EFF311884FF0500383F31188BFF36F8F04
:10201000BFF34F8FAA6BEB6B9A4206D3022C04D00E
:10202000002088F31188BDE8F88395F845904FFAB1
:1020300089F9AB6B224639462846FFF7CFFDB9F147
:10204000FF3F06D009F101035BB285F8453001205E
:10205000E7E76B6A0BB90120E3E705F1240000F024
:10206000F3FC18B126B101203060DAE70120D8E78F
:102070000120D6E7F0B585B0019290B10F46044635
:10208000C1B100F07BFD064600BB019B002B5ED07A
:102090004FF0500383F31188BFF36F8FBFF34F8F5F
:1020A000FEE74FF0500383F31188BFF36F8FBFF348
:1020B0004F8FFEE7036C002BE3D04FF0500383F308
:1020C0001188BFF36F8FBFF34F8FFEE700263EE00E
:1020D00039462046FFF7BDFD013DA563236923B9BD
:1020E000FFF70AFB012005B0F0BD04F1100000F07D
:1020F000ABFC0028F4D04FF0E0234FF08052C3F83F
:10210000042DBFF34F8FBFF36F8FE9E7FFF7F4FAAA
:102110000020E8E702A800F0DDFC012621E0002312
:1021200084F8443029E0002384F845302BE0204631
:10213000FFF7A1FD00F066FB09E02046FFF79BFDDD
:1021400000F060FB2046FFF73CFD00283FD1FFF781
:10215000B1FAA56B002DBBD1019B002BD6D0002E70
:10216000D8D0FFF7C9FA00F0B3FAFFF7A3FA94F852
:1021700044305BB2B3F1FF3FD1D094F845305BB24D
:10218000B3F1FF3FCFD0FFF7B7FA01A902A800F0E3
:10219000ADFC0028D1D12046FFF713FD0028C6D0A2
:1021A000019904F1240000F01BFC2046FFF763FDB9
:1021B00000F028FB0028CAD14FF0E0234FF08052F6
:1021C000C3F8042DBFF34F8FBFF36F8FBFE700201D
:1021D00089E700000023072B0CD8074A52F8332068
:1021E0000AB10133F7E7044A42F8331002EBC302A5
:1021F00050607047704700BFBC43002070B5044674
:102200000D461646FFF756FA94F844305BB2B3F128
:10221000FF3F0DD094F845305BB2B3F1FF3F0BD0D8
:10222000FFF76AFAA36B5BB12046FFF724FD70BD90
:10223000002384F84430EDE7002384F84530EFE7CD
:102240003246294604F1240000F0E2FBECE70000EE
:10225000084B1B681B6823B9074B4FF0FF321A600D
:102260007047044B1B68DB68DB685A68024B1A60D6
:10227000704700BF6C440020044400202DE9F04763
:1022800080460D4617469946089EDDF824A00A9C14
:102290009200A521206B00F01CFF236B07F1804208
:1022A000013A03EB820727F00707A5B34FF0000CB4
:1022B000BCF10F0F09D815F80C3004EB0C0282F8B2
:1022C000343013B10CF1010CF2E7002384F84330F1
:1022D000372E00D93726E662E66400252565201DE5
:1022E000FFF747F904F11800FFF743F92461C6F13D
:1022F0003806A6616462656584F858504A464146CE
:102300003846FFF7AFF92060BAF1000F01D0CAF8E4
:102310000040BDE8F087002384F83430D8E700009F
:1023200038B5002407E004EB840293000E481844FB
:10233000FFF714F90134372CF5D90C4D2846FFF777
:102340000DF90B4C2046FFF709F90A48FFF706F98B
:102350000948FFF703F90948FFF700F9084B1D602A
:10236000084B1C6038BD00BF984400208444002006
:1023700070440020544400204044002028440020A1
:102380006C4400206844002010B50446FFF792F921
:10239000224A136801331360214B1B685BB1214B48
:1023A0001B686BB91E4B1B68DA6AE36A9A4207D84E
:1023B0001B4B1C6004E01A4B1C601368012B29D0D6
:1023C000194A1368013313606364E06A174B1B6892
:1023D000984201D9154B186000EB8000211D144B69
:1023E00003EB8000FFF7C8F8FFF786F90D4B1B6879
:1023F0007BB10B4B1B68DA6AE36A9A4209D24FF051
:10240000E0234FF08052C3F8042DBFF34F8FBFF38A
:102410006F8F10BDFFF784FFD2E700BF2444002078
:10242000F848002018440020084400201C440020E4
:102430009844002010B5044690F8593063B1012B40
:1024400011D0022B0ED04FF0500383F31188BFF34D
:102450006F8FBFF34F8FFEE7006BFFF765FB2046E2
:10246000FFF762FB10BDFFF75FFBFBE70F4B1B683D
:10247000D3B110B5FFF71EF90D4BDB68DC68201DEA
:10248000FFF79EF80B4A1368013B1360074A136875
:10249000013B1360FFF730F92046FFF7CBFF034BFA
:1024A0001B68002BE6D110BD704700BF3C440020E4
:1024B000404400202444002008B5FFF7D7FF074B15
:1024C0001B68012BF9D94FF0E0234FF08052C3F87D
:1024D000042DBFF34F8FBFF36F8FEEE798440020BA
:1024E00070B504460D46174B1E68174B186804302C
:1024F000FFF766F8B4F1FF3F0DD03444124B1B6870
:102500005C60A64210D9114B18680F4B1968043152
:10251000FFF73DF870BD002DEFD00B4B196804316B
:102520000B48FFF729F8F5E70A4B1868064B1968BE
:102530000431FFF72CF8084B1B68A342EAD9064B7D
:102540001C60E7E720440020F84800206844002091
:10255000284400206C4400200444002030B587B09B
:102560000B9C7CB10C9DB5B15C250495049D5C2D44
:102570001AD04FF0500383F31188BFF36F8FBFF36E
:102580004F8FFEE74FF0500383F31188BFF36F8F37
:10259000BFF34F8FFEE74FF0500383F31188BFF373
:1025A0006F8FBFF34F8FFEE7049D0C9D2C630224B9
:1025B00085F8594000240394029505AC01940A9CC7
:1025C0000094FFF75BFE0C98FFF7DEFE059807B05E
:1025D00030BD2DE9F04385B00746884614461E46B7
:1025E0009000FFF71FFA08B381465C20FFF71AFA44
:1025F0000546A8B1C0F83090002380F85930039305
:1026000002900D9B01930C9B00933346224641465A
:102610003846FFF733FE2846FFF7B6FE012007E0F5
:102620004846FFF781FA4FF0FF3001E04FF0FF30EE
:1026300005B0BDE8F083000010B588B00024059413
:10264000069407AA06A905A8FEF770FF059B02934A
:10265000069B019300942346079A17491748FFF7F2
:102660007DFF174B1860C0B100F04CFB012815D15D
:102670004FF0500383F31188BFF36F8FBFF34F8F79
:10268000104B4FF0FF321A600F4B01221A600F4BB4
:1026900000221A60FFF7A8F803E00020B0F1FF3F26
:1026A00001D008B010BD4FF0500383F31188BFF381
:1026B0006F8FBFF34F8FFEE760340008B924000826
:1026C000004400200444002018440020204400203E
:1026D000024A136801331360704700BFFC430020B7
:1026E000014B1868704700BF20440020F8B53A4BF2
:1026F0001B68002B69D1394B1D6801351D60C5B9B8
:10270000374B1B681B6843B14FF0500383F31188AC
:10271000BFF36F8FBFF34F8FFEE7314A1168314B24
:10272000186810601960304A136801331360FFF7AE
:102730008FFD2E4B1B68AB423DD900272C4B1B68ED
:10274000DB6A03EB83039A002A4B9B58012B00D9C9
:102750000127294B1B68002B3CD001273AE00127B9
:102760001F4B1B681B6843B31D4B1B68DB68DC6891
:1027700063689D4226D3261D3046FEF721FFA36ADB
:102780001BB104F11800FEF71BFFE36A1B4A126835
:10279000934201D9194A136003EB83039A0031462F
:1027A00014481044FEF7E8FEE26A114B1B68DB6A2E
:1027B0009A42D4D2D4E70027D2E70C4B4FF0FF3235
:1027C0001A60BBE7094A1360B8E70D4A1368013382
:1027D000136000273846F8BDFC4300202044002049
:1027E0006C440020684400200C4400200444002075
:1027F000F848002098440020104400201C44002089
:102800001444002038B5354B1B6843B94FF05003D2
:1028100083F31188BFF36F8FBFF34F8FFEE7FEF78F
:1028200049FF2E4B1A68013A1A601B68002B4FD1E2
:102830002B4B1B680BB900244BE00024294B1B6871
:102840001BB3284BDB68DC6804F11800FEF7B8FE08
:10285000251D2846FEF7B4FEE06A234B1B6898420C
:1028600001D9214B186000EB800029461F4B03EB78
:102870008000FEF781FEE26A1D4B1B68DB6A9A420C
:10288000DCD31C4B01221A60D8E70CB1FFF7E0FC47
:10289000194B1C6884B9174B1C68D4B14FF0E02366
:1028A0004FF08052C3F8042DBFF34F8FBFF36F8FEB
:1028B00001240EE0013C07D0FFF718FF0028F9D0F3
:1028C0000C4B01221A60F5E70B4B00221A60E2E77D
:1028D0000024FEF711FF204638BD00BFFC43002056
:1028E00024440020544400201C440020984400202C
:1028F000F8480020104400201444002010B5A8B16E
:102900000446104B1B6843B14FF0500383F311880A
:10291000BFF36F8FBFF34F8FFEE7FFF7D9FE0021A4
:102920002046FFF7DDFDFFF76DFF48B94FF0E023CC
:102930004FF08052C3F8042DBFF34F8FBFF36F8F5A
:1029400010BD00BFFC430020204B1B681BB1204B77
:1029500001221A6070471E4B00221A601D4B1B6833
:1029600003EB83018A001C498A585AB90BB1013B19
:10297000F6E74FF0500383F31188BFF36F8FBFF377
:102980004F8FFEE7084603EB83018A00024451683B
:102990004968516003EB830C4FEA8C020832024411
:1029A00091420BD003EB830291000B4A0A44526818
:1029B000D1680A4A1160074A136070474868624646
:1029C0009100054A0A445060ECE700BFFC43002038
:1029D000104400201C44002098440020F8480020A7
:1029E00058B110B50C46094A11681831FEF7CFFDF1
:1029F00001212046FFF774FD10BD4FF0500383F313
:102A00001188BFF36F8FBFF34F8FFEE7F8480020A8
:102A100038B570B10D4614460A4A11681831FEF7F0
:102A2000ABFD0CB14FF0FF3521462846FFF758FDAE
:102A300038BD4FF0500383F31188BFF36F8FBFF39E
:102A40004F8FFEE7F848002038B5C368DC6824B330
:102A500004F118052846FEF7B3FD184B1B682BBB85
:102A6000251D2846FEF7ACFDE06A154B1B68984211
:102A700001D9134B186000EB80002946114B03EB82
:102A80008000FEF779FDE26A0F4B1B68DB6A9A4211
:102A900011D901200D4B186038BD4FF0500383F35E
:102AA0001188BFF36F8FBFF34F8FFEE729460848A9
:102AB000FEF762FDE7E70020EEE700BFFC430020E1
:102AC0001C44002098440020F848002010440020B6
:102AD00054440020034B1B680360034B1B68436096
:102AE000704700BF0C44002020440020F8B5C8B156
:102AF0000C460546F9B1FEF7DDFD1B4B19686B6806
:102B0000C81A2268B2F1FF3F26D0184E36682F68E7
:102B1000B74201D08B4224D9824215D800232360CA
:102B200001241AE04FF0500383F31188BFF36F8F35
:102B3000BFF34F8FFEE74FF0500383F31188BFF3CD
:102B40006F8FBFF34F8FFEE75B1A13442360284655
:102B5000FFF7C0FF002400E00024FEF7CDFD204673
:102B6000F8BD0124F9E700BF204400200C440020F8
:102B7000014B01221A60704710440020054B1B686E
:102B800033B1054B1B680BB1002070470220704722
:102B90000120704718440020FC43002000283BD04F
:102BA00038B504461E4B1B68834208D04FF05003D3
:102BB00083F31188BFF36F8FBFF34F8FFEE7036D71
:102BC00043B94FF0500383F31188BFF36F8FBFF306
:102BD0004F8FFEE7013B0365C16AC26C91421DD075
:102BE0000BB1002038BD051D2846FEF7E9FCE06C5E
:102BF000E062C0F13803A3610A4B1B68984201D917
:102C0000084B186000EB80002946074B03EB80005F
:102C1000FEF7B2FC0120E5E7002070470020E1E765
:102C2000F84800201C44002098440020064B1A68F5
:102C300013682BB90123036023B9D3681868704760
:102C40000023F8E700207047FC49002008B54160E8
:102C5000006191420CD8D21A83699A4201D30120B3
:102C600008BD011D094B1868FEF791FC0020F7E72D
:102C70009A4201D2994206D2011D054B1868FEF70F
:102C800086FC0020ECE70120EAE700BFF8490020BD
:102C9000FC49002030B583B0FEF70CFD114B1B68DA
:102CA0001BB1FEF729FD03B030BD0F4D2846FEF7DE
:102CB00055FC0E4C2046FEF751FC0D4B1D600D4B94
:102CC0001C60002300930C4B0C4A10210A20FFF7D4
:102CD0005CF8044B18600028E3D00949FFF77AFA42
:102CE000DFE700BFF4490020144A0020004A00201A
:102CF000FC490020F8490020FC4800204C490020F5
:102D00006834000810B588B0FFF7C4FF124B1B6889
:102D1000CBB100240594069407AA06A905A8FEF7DE
:102D200011FC059B0293069B01930223009323460B
:102D3000079A0A490A48FFF711FC0A4B186010B1BC
:102D4000012008B010BD4FF0500383F31188BFF38A
:102D50006F8FBFF34F8FFEE7F449002070340008F7
:102D600069300008F0490020B8B19C460346184875
:102D7000006858B300B585B000910192029305290F
:102D80001CDCFFF7FBFE022810D000231A46694620
:102D90000F480068FFF743F815E04FF0500383F346
:102DA0001188BFF36F8FBFF34F8FFEE70023069AA2
:102DB000694607480068FFF732F804E000236246DE
:102DC0006946FFF7F0F805B05DF804FB0020704796
:102DD000F449002070B582B01B4B1B681A6862B3BF
:102DE000DB681E68DC68251D2846FEF7E9FB236AC0
:102DF0002046984794F8283013F0040FECD0A369CC
:102E000033449E4207D26360246129460E4B186802
:102E1000FEF7BDFBE0E7002100910B46324620465D
:102E2000FFF7A2FF0028D7D14FF0500383F311889A
:102E3000BFF36F8FBFF34F8FFEE7044A106802495C
:102E40000860136002B070BDFC490020F849002002
:102E500038B50546FFF744FC0446074B1B68834220
:102E600005D800232B60044B1C60204638BDFFF7BB
:102E7000B1FF01232B60F6E7EC49002070B582B06A
:102E800006460D4617490968C968CC68201DFEF73B
:102E900097FB94F828C01CF0040F08D12CF0010C0B
:102EA00084F828C0236A2046984702B070BDA16903
:102EB00033462A4631442046FFF7C8FE0028F1D0A9
:102EC000002100910B4632462046FFF74DFF0028B7
:102ED000E8D14FF0500383F31188BFF36F8FBFF336
:102EE0004F8FFEE7FC49002070B582B006460C46C5
:102EF000FFF7EEFB01A8FFF7ABFF019B33BB0546D5
:102F0000E4B9B04213D22246711B124B1868FFF786
:102F100075F9FFF777FCD8B94FF0E0234FF08052F6
:102F2000C3F8042DBFF34F8FBFF36F8F10E0FFF78F
:102F300069FC29463046FFF7A1FF09E0064A1268FE
:102F400012680AB90124DEE71C46DCE7FFF75AFCE9
:102F500002B070BDF4490020F849002010B588B0D7
:102F600002E0049B002B0FDA002204A93D4B1868F5
:102F7000FFF780F8002873D0049B002BF1DA079943
:102F80000698059B9847ECE7069C636913B1201DE2
:102F9000FEF716FB03A8FFF75BFF049B092BE3D8A2
:102FA000DFE803F00505053037500505303794F8A4
:102FB000283043F0010384F82830059BA1690246BC
:102FC00019442046FFF742FE0028CDD0236A204650
:102FD000984794F8283013F0040FC5D0A269002157
:102FE00000910B46059802442046FFF7BDFE0028DD
:102FF000BAD14FF0500383F31188BFF36F8FBFF343
:103000004F8FFEE794F8283023F0010384F828302E
:10301000AAE794F8283043F0010384F82830059992
:10302000A16131B10346024601442046FFF70EFE7E
:103030009AE74FF0500383F31188BFF36F8FBFF30C
:103040004F8FFEE794F8283013F0020F04D023F0DE
:10305000010384F8283087E72046FEF765FD83E703
:1030600008B010BDF449002000B583B001A8FFF7F7
:10307000DDFD0199FFF738FFFFF770FFF6E700006D
:10308000DFF834D00D480E490E4A002302E0D45830
:10309000C4500433C4188C42F9D30B4A0B4C0023A0
:1030A00001E013600432A242FBD3FDF7A7FA00F05F
:1030B00019F8FDF7A1F97047000002200000002078
:1030C000100000208834000810000020284A00204A
:1030D000FEE702440346934200D1704703F8011B08
:1030E000F9E7000070B50D4D0D4C641BA4100026CF
:1030F000A64209D10B4D0C4C00F084F9641BA410BE
:103100000026A64205D170BD55F8043B984701360C
:10311000EEE755F8043B98470136F2E780340008A3
:103120008034000880340008843400080A44914246
:1031300000F1FF3300D1704710B511F8014B03F8CF
:10314000014F9142F9D110BD2DE9F047089D0C4681
:10315000002B4ED194468C458646B2FA82F262D953
:103160004AB1C2F12003914020FA03F30CFA02FCA9
:10317000194300FA02FE4FEA1C471FFA8CF6B1FB16
:10318000F7F44FEA1E4307FB141143EA014304FB23
:1031900006F199420AD91CEB030304F1FF3080F0D9
:1031A0001381994240F21081023C6344591A1FFA7C
:1031B0008EF3B1FBF7F007FB101143EA014300FB6C
:1031C00006F69E420AD91CEB030300F1FF3180F0A2
:1031D000FD809E4240F2FA80634402389B1B40EA25
:1031E000044000211DB1D3400022C5E90032BDE8F2
:1031F000F0878B4205D90DB1C5E9000100210846D1
:10320000F5E7B3FA83F1002946D1A34202D39042F5
:10321000C0F0F180861A64EB03030120002DE6D094
:10322000C5E90063E3E7002A40F09180A1EB0C04BC
:103230004FEA1C481FFA8CF70121B4FBF8F64FEA5D
:103240001E4308FB164443EA044307FB06F098427A
:1032500008D91CEB030306F1FF3402D2984200F2B6
:10326000CE8026461C1A1FFA8EF3B4FBF8F008FB3A
:10327000104443EA044300FB07F79F4208D91CEBC4
:10328000030300F1FF3402D29F4200F2B1802046D6
:10329000DB1B40EA0640A5E7C1F120068B4022FA7D
:1032A00006F71F4320FA06FC04FA01F343EA0C0375
:1032B000F44000FA01F8380C4FEA1349B4FBF0FE71
:1032C0001FFA87FC00FB1E4449EA04440EFB0CF97C
:1032D000A14502FA01F20AD93C190EF1FF3A80F039
:1032E0008580A14540F28280AEF1020E3C44A4EB01
:1032F00009041FFA83F9B4FBF0F300FB134449EA15
:10330000044403FB0CFCA44507D93C1903F1FF302E
:1033100068D2A44566D9023B3C4443EA0E40A0FB78
:103320000293A4EB0C049C42CE469C4652D34FD051
:1033300055B1B8EB0E0364EB0C0404FA06F6CB406F
:10334000CC401E43C5E900640021BDE8F087C2F10E
:10335000200320FA03F10CFA02FC24FA03F3944050
:103360000C434FEA1C4800FA02FE1FFA8CF7B3FB2D
:10337000F8F008FB1031230C43EA014300FB07F18E
:10338000994208D91CEB030300F1FF362CD2994275
:103390002AD9023863445B1AA4B2B3FBF8F108FBE4
:1033A000113344EA034401FB07F3A34208D91CEBA1
:1033B000040401F1FF3613D2A34211D90239644447
:1033C000E41A41EA004138E70446EFE6084605E71B
:1033D000C845ADD2B9EB020E63EB070C0138A7E785
:1033E0003146EDE7034698E73046D4E7D6467EE718
:1033F000634402384CE70646234608460EE7023E81
:1034000063442FE7F8B500BFF8BC08BC9E46704780
:0C341000F8B500BFF8BC08BC9E46704731
:10341C006C65645461736B001C3400080000000080
:10342C00000000000000000000000000000200008E
:10343C001800000000000000000000000000000068
:10344C00010203040000000000000000010203045C
:10345C000607080949444C4500000000546D7251A0
:0C346C0000000000546D722053766300D5
:08347800D0FCFF7F0100000001
:04348000E901000856
:04348400C501000876
:103488000024F4000100000010000000AAAAAAAA63
:04000005080030813E
:00000001FF
