:020000040800F2
:100000000000022005710008650C0008670C00085C
:10001000690C00086B0C00086D0C00080000000063
:100020000000000000000000000000006157000810
:100030006F0C00080000000001580008C1540008BF
:100040005571000855710008557100085571000878
:100050005571000855710008710C000855710008B1
:100060005571000855710008557100085571000858
:100070005571000855710008850C00089D0C00089A
:100080005571000855710008557100085571000838
:10009000557100085571000855710008AD0C000835
:1000A0005571000855710008557100085571000818
:1000B0005571000855710008557100085571000808
:1000C00055710008557100085571000855710008F8
:1000D00055710008557100085571000855710008E8
:1000E00055710008557100085571000855710008D8
:1000F00055710008557100085571000855710008C8
:1001000055710008557100085571000855710008B7
:100110005571000855710008C50C0008557100089C
:100120005571000855710008557100085571000897
:100130005571000800000000000000005571000823
:100140005571000855710008557100085571000877
:100150005571000855710008557100085571000867
:100160005571000855710008557100085571000857
:1001700055710008557100080000000000000000E3
:080180005571000855710008DB
:1001900010B5054C237833B9044B13B10448AFF3C1
:1001A00000800123237010BDE80000200000000043
:1001B0005082000808B5034B1BB103490348AFF355
:1001C000008008BD00000000EC0000205082000804
:1001D00001F0FF01102A2BDB10F0070F08D010F8F8
:1001E000013B013A8B422DD010F0070F42B3F6D1FC
:1001F000F0B441EA012141EA014122F007047FF015
:1002000000070023F0E80256083C85EA010586EA6B
:10021000010685FA47F5A3FA87F586FA47F6A5FAA7
:1002200087F68EB9EED1F0BC01F0FF0102F00702B3
:1002300032B110F8013B013A83EA010313B1F8D15E
:100240000020704701387047002D06BF354603383F
:10025000073815F0010F07D1013015F4807F02BF78
:10026000013015F4C03F0130F0BC0138704700BFC9
:1002700053B94AB9002908BF00281CBF4FF0FF310D
:100280004FF0FF3000F074B9ADF1080C6DE904CE09
:1002900000F006F8DDF804E0DDE9022304B0704761
:1002A0002DE9F047089D04468E46002B4DD18A4229
:1002B000944669D9B2FA82F252B101FA02F3C2F15C
:1002C000200120FA01F10CFA02FC41EA030E9440ED
:1002D0004FEA1C48210CBEFBF8F61FFA8CF708FB0E
:1002E00016E341EA034306FB07F199420AD91CEBE6
:1002F000030306F1FF3080F01F81994240F21C8118
:10030000023E63445B1AA4B2B3FBF8F008FB10335F
:1003100044EA034400FB07F7A7420AD91CEB040494
:1003200000F1FF3380F00A81A74240F20781644464
:10033000023840EA0640E41B00261DB1D4400023E9
:10034000C5E900433146BDE8F0878B4209D9002D4D
:1003500000F0EF800026C5E9000130463146BDE8D7
:10036000F087B3FA83F6002E4AD18B4202D3824241
:1003700000F2F980841A61EB030301209E46002DF0
:10038000E0D0C5E9004EDDE702B9FFDEB2FA82F245
:10039000002A40F09280A1EB0C014FEA1C471FFAA3
:1003A0008CFE0126200CB1FBF7F307FB131140EA8A
:1003B00001410EFB03F0884208D91CEB010103F157
:1003C000FF3802D2884200F2CB804346091AA4B219
:1003D000B1FBF7F007FB101144EA01440EFB00FEED
:1003E000A64508D91CEB040400F1FF3102D2A64552
:1003F00000F2BB800846A4EB0E0440EA03409CE7F1
:10040000C6F12007B34022FA07FC4CEA030C20FA9D
:1004100007F401FA06F31C43F9404FEA1C4900FABD
:1004200006F3B1FBF9F8200C1FFA8CFE09FB18113A
:1004300040EA014108FB0EF0884202FA06F20BD9AD
:100440001CEB010108F1FF3A80F08880884240F2FD
:100450008580A8F102086144091AA4B2B1FBF9F041
:1004600009FB101144EA014100FB0EFE8E4508D93C
:100470001CEB010100F1FF346CD28E456AD90238C1
:10048000614440EA0840A0FB0294A1EB0E01A142A6
:10049000C846A64656D353D05DB1B3EB080261EB14
:1004A0000E0101FA07F722FA06F3F1401F43C5E9EE
:1004B000007100263146BDE8F087C2F12003D84024
:1004C0000CFA02FC21FA03F3914001434FEA1C4766
:1004D0001FFA8CFEB3FBF7F007FB10360B0C43EA58
:1004E000064300FB0EF69E4204FA02F408D91CEB08
:1004F000030300F1FF382FD29E422DD90238634406
:100500009B1B89B2B3FBF7F607FB163341EA0341A5
:1005100006FB0EF38B4208D91CEB010106F1FF38F4
:1005200016D28B4214D9023E6144C91A46EA0046EB
:1005300038E72E46284605E70646E3E61846F8E67D
:100540004B45A9D2B9EB020864EB0C0E0138A3E7C6
:100550004646EAE7204694E74046D1E7D0467BE7A7
:10056000023B614432E7304609E76444023842E71F
:10057000704700BF024B034A5A60034A9A607047B3
:10058000000000200801002040040020044B1A69EC
:100590009A60044B5A68138843F480531380704761
:1005A000040100200000002010B50B4B012283F84D
:1005B00078200A4CA28BA3F87A2000F029FC03468D
:1005C00060624000064AB2EB430F00DB054800F0D2
:1005D0002BFD002010BD00BFC4030020040100203B
:1005E0003F420F0040420F0008B5034B9989034872
:1005F00004F007FE08BD00BF040100200000002039
:1006000008B5044800F0C6FD034804F0C9FD00F039
:10061000CFF908BD1400002000000020704770478B
:10062000F0B58BB0002405940694079408940994BF
:100630000194304B1A6B42F080021A631A6B02F07D
:1006400080020192019A02941A6B42F004021A632A
:100650001A6B02F004020292029A03941A6B42F09F
:1006600001021A631A6B02F001020392039A0494C6
:100670001A6B42F002021A631B6B03F0020304932D
:10068000049B1D4E22464FF4F241304603F0FCFC21
:10069000012705974FF4881306930794174D05A972
:1006A000284603F0FFFB4FF4F243059306970794A7
:1006B000089405A9304603F0F5FB4FF480730593C9
:1006C0004FF404130693079405A9284603F0EAFBA8
:1006D00022460521062003F0CFF9062003F004FA94
:1006E00022460521172003F0C7F9172003F0FCF973
:1006F0000BB0F0BD00380240000402400000024090
:1007000010B582B0002401940D4B1A6B42F4001214
:100710001A631B6B03F400130193019B224605210E
:100720000E2003F0A9F90E2003F0DEF92246052180
:100730000F2003F0A1F90F2003F0D6F902B010BD8D
:100740000038024010B5174B1B789BB9164B1B782D
:100750000BB3164C042221464FF4116000F0E2FA6C
:1007600014F8603C9BB1022000F068FC0E4B0022A4
:100770001A7010BD04220D494FF4116000F0D2FA36
:10078000092000F05BFC074B00221A70DEE70B200B
:1007900000F054FCEAE700F0DDFC042000F04EFC21
:1007A000E7E700BFD1020020D00200209C04002017
:1007B00008B5FFF7C7FFFCE708B50268034B9A428C
:1007C00000D008BD03F034F9FBE700BF0010004083
:1007D00072B6FEE708B50E480E4B03604FF4827305
:1007E000436000238360C360036143614FF4007280
:1007F0008261C361036243624FF4005383628023CA
:10080000C36204F03FF800B908BDFFF7E1FF00BF85
:10081000740200200038004000B595B0302200215D
:1008200008A806F0FBFC00230393049305930693AA
:1008300007930193204A116C41F080511164126CAE
:1008400002F080520192019A02931C4B1A6842F402
:1008500080421A601B6803F480430293029B0123C9
:1008600008934FF48033099302230E934FF48002D0
:100870000F9204221092A82211921293072313932D
:1008800008A803F017FC98B90F23039302230493DD
:10089000002305934FF4A05306934FF4805307931E
:1008A000052103A803F06CFE20B915B05DF804FB28
:1008B000FFF78EFFFFF78CFF00380240007000400A
:1008C00008B503F09BF8FFF7A7FFFFF7A9FEFFF7B6
:1008D00017FFFFF77FFFFFF793FE04F0FDFD054ACA
:1008E0000021054804F026FE044B186004F006FEC3
:1008F000FEE700BF78820008B1070008CC020020A4
:1009000043090B7042EAC0004870032A02D0022A51
:1009100004D07047FF238B700B727047FF230B725C
:10092000F7E7000008B5064804F08DFA00224FF4FE
:100930008071044803F0A8FB034B01221A7008BD24
:100940007402002000040240D202002008B50122F7
:100950004FF48071034803F097FB034804F060FAFA
:1009600008BD00BF000402407402002008B5074B18
:100970001B6800221A609A800322054B19684FF405
:10098000A050FFF7BDFFFFF7CDFF08BD64000020BA
:100990006C00002008B50422044B19684FF4D050B5
:1009A000FFF7AEFFFFF7BEFF08BD00BF6C000020E1
:1009B0007047000008B5FFF7C9FF074B1B681A789E
:1009C000064BA3F8DC20064AD3F8A410054B1868A0
:1009D00002F0C4FF08BD00BF68000020C40300206F
:1009E000A81000206000002008B5FFF7BFFF044BEF
:1009F0001B78DBB2012BFAD0FFF7DCFF08BD00BF8C
:100A0000D202002008B5FFF7A1FF034B1B681A783C
:100A1000024BA3F8DC2008BD68000020C4030020BE
:100A200008B5094A094BD3F8A810094B186802F019
:100A300059FFFFF7AFFF074B1B78DBB2012BFAD052
:100A4000FFF7E0FF08BD00BFB8100020C40300207E
:100A500064000020D202002000B583B00022009282
:100A60000D4B596C41F480415964596C01F480413B
:100A7000009100990192196C41F0805119641B6C2E
:100A800003F080530193019B0F216FF0010002F0EE
:100A9000F3FF03B05DF804FB003802402DE9F0439A
:100AA00089B0002303930493059306930793026888
:100AB0003C4B9A4202D009B0BDE8F08304460025C1
:100AC000009503F500331A6C42F480421A641A6CE4
:100AD00002F480420092009A01951A6B42F00402DF
:100AE0001A631A6B02F004020192019A02951A6BC2
:100AF00042F002021A631B6B03F002030293029B93
:100B00000C2303934FF00209CDF810904FF0030827
:100B1000CDF81880052707970DEB0301224803F055
:100B2000C1F94FF480660396CDF810900595CDF885
:100B30001880079703A91D4803F0B4F91C481D4B02
:100B4000036045608560C560066145618561C5617A
:100B50004FF400330362456203F050F8D8B9144BE8
:100B6000E3649C631448154B0360002343604022F8
:100B70008260C3604FF48062026143618361C3613C
:100B80004FF400320262436203F038F830B90A4B86
:100B9000A3649C638FE7FFF71BFEE0E7FFF718FEF7
:100BA000F5E700BF003800400008024000040240A2
:100BB000B40100205860024014020020706002401E
:100BC00030B589B0044600230193214B1A6C42F0E2
:100BD00010021A641B6C03F010030193019B02A91D
:100BE00003A803F093FD069BCBB903F07FFD0346FA
:100BF0001848A0FB03239B0C013B1748174A0260CF
:100C000040F2E732C2604360002303618360836186
:100C100004F098FA054630B1284609B030BD03F01B
:100C200065FD4300E4E70C4804F022F9054600287E
:100C3000F2D1362002F058FF0F2C01D90125EBE745
:100C400000222146362002F017FF054B1C60E3E727
:100C50000038024083DE1B43F802002000100040F1
:100C600078000020FEE7FEE7FEE7FEE7FEE77047BC
:100C700008B50120024B187003F00EFA08BD00BF42
:100C80004203002008B5034B00221A70024803F00B
:100C90001BF808BD40030020B401002008B502483D
:100CA00003F012F808BD00BF1402002008B5044B81
:100CB00001221A704FF4807003F0EEF908BD00BFF6
:100CC0004103002008B5024804F01AF908BD00BF2E
:100CD000F8020020034AD2F8883043F47003C2F8C7
:100CE0008830704700ED00E010B584B043098DF8FE
:100CF0000C3041EAC0008DF80D00084C64230093CD
:100D00000223224603A9064803F016FF224632F8C2
:100D1000DC399BB2A2F8DC3004B010BDA004002086
:100D200074020020802A00D97047F0B583B00646CF
:100D30000D4614460E4F00224FF48071384603F0E2
:100D4000A3F902213046FFF7CFFFC4F180016423ED
:100D5000009323462A4607480144074803F0ECFE67
:100D600001224FF48071384603F08EF903B0F0BDD4
:100D7000000402404403002074020020F8B5064637
:100D80000C4615460B4F00224FF48071384603F095
:100D90007BF904213046FFF7A7FF64232A4621464A
:100DA000054803F0D4FD01224FF48071384603F06A
:100DB0006BF9F8BD0004024074020020024BFF22D0
:100DC00083F87F20704700BF4403002010B504461D
:100DD00010F0040F01D020F0040400F03CFA20438E
:100DE00000F02CFA10BD10B50446172002F08AFE60
:100DF00014F0040F06D1E44300F02DFA204000F077
:100E00001DFA10BD062002F07DFE24F00404F2E776
:100E100010B584B000238DF80F3001220DF10F01C1
:100E200040F24110FFF77EFF9DF80F3013F0040FE2
:100E300002D1002004B010BD00230293042202A9B5
:100E40004FF41A60FFF76EFF01220DF10F014FF40E
:100E50001860FFF767FF9DF80F30012B01D0029853
:100E6000E8E71E4C042221464FF41160FFF75AFFB9
:100E7000214651F8D839C1F8D830D1F8D820184BCC
:100E80001344019304220DEB02014FF41960FFF7A4
:100E900075FF01220DF10F0140F68110FFF742FFAF
:100EA0009DF80F3043F003038DF80F3001220DF150
:100EB0000F0140F68110FFF761FF00238DF80F301E
:100EC00006E001220DF10F0140F68110FFF72AFF25
:100ED0009DF80F3013F0030FF3D0C0E79C040020FF
:100EE000B8BF23002DE9F04383B004460D461646F3
:100EF0001F46BDF82880A0F5B05189B2B1F5007F3A
:100F00000DD3A0F5D0539BB2B3F5007F07D341F6C4
:100F10001243984203D041F61343984202D1B5EBF5
:100F2000D83F0FD80C4BD3F83C90B9F1000F10D03C
:100F3000CDF800803B46324629462046C84703B0DC
:100F4000BDE8F083204602F041FD0028EAD00348C6
:100F5000F5E70020F3E700BFC4030020030001060B
:100F600008B5034B1B6C0BB1984708BD0020FCE78C
:100F7000C403002030B583B0054C646C2CB1BDF8BF
:100F800018500095A04703B030BD0020FBE700BF1C
:100F9000C403002008B5034B9B6C0BB1984708BDF8
:100FA0000020FCE7C403002008B5024B9B6B03B193
:100FB000984708BDC403002038B50A4B1B6D0BB120
:100FC000984738BD074D084C084AD5F8A810204668
:100FD00002F088FCB5F8762021464FF4D050FFF798
:100FE000CDFEEEE7C4030020C8120020B810002098
:100FF00038B50A4BDB6C0BB1984738BD074D084C30
:10100000B5F8742021464FF4A050FFF78BFE054A37
:10101000D5F8A410204602F0A1FCEEE7C40300209E
:10102000C8100020A8100020BFF35B8F024BC3F84C
:10103000D400BFF35B8F7047C403002010B5044693
:1010400010F0040F0DD114F0020F49D114F0080F65
:1010500003D03E4B5B6B03B1984714F0010F66D190
:1010600010BDBFF35B8F3A4B1B68BFF35B8F002B48
:101070000BDD374BBFF35B8F53E8002F013A43E89A
:1010800000210029F8D1BFF35B8FBFF35B8F304B9A
:101090001B68BFF35B8F002B13DDBFF35B8F2B4B04
:1010A00093F8DF30BFF35B8F13F0020FCBD1274BE8
:1010B000D3F8D420BFF35B8F254B1A60BFF35B8F4F
:1010C000C1E7BFF35B8F214B93F8DF30BFF35B8F3A
:1010D00013F0020FE1D01B21142000F03FFDB2E716
:1010E000BFF35B8F194B93F8DF30BFF35B8F13F0C7
:1010F000020F05D0154BB3F8DC3013F4806F08D124
:10110000124BB3F8DC3013F4806F9FD0FFF770FF01
:101110009CE7FFF76DFF0D4BD3F8D420BFF35B8F37
:101120000B4B1A60BFF35B8FFFF779FA8EE7BFF3C3
:101130005B8F064B93F8DF30BFF35B8F002B8FD0B4
:10114000FFF76CFAFFF738FF8AE700BFC4030020FF
:10115000C814002010B50E4C042204F1D8014FF43D
:101160001160FFF7DFFDD4F8D830C4F8D83000F0B4
:10117000BDFD00F031FD00F0E5FA20B9044BDB6D58
:1011800003B1984710BD02F0CBFA00F0C1FBF5E7C0
:10119000C403002010B504468268114B1A6000F0A9
:1011A0004BFF2046FFF70AFE05E002220D494FF4EF
:1011B0008870FFF7B7FD0C4BB3F8823013F0010FC6
:1011C000F3D0012000F026F8002000F00FF800F026
:1011D00093F900F07BFC00F0ABFC02F049FB10BD82
:1011E000C814002046040020C403002000B583B0CA
:1011F000074BA3F88000ADF8060002220DF10601AE
:101200004FF49A70FFF7BAFD03B05DF804FB00BF1E
:10121000C403002000B583B0074BA3F87C00ADF8F1
:10122000060002220DF106014FF49870FFF7A6FDAB
:1012300003B05DF804FB00BFC403002000B583B019
:10124000019004220DEB02014FF40170FFF796FDAF
:1012500003B05DF804FB00B583B004220DEB02017E
:101260004FF40170FFF75EFD019803B05DF804FBD9
:1012700000B583B0C00001220DF1070100F60600A1
:10128000FFF750FD03B05DF804FB000008B500F166
:101290001603054901EBC301C0000122093100F624
:1012A0000500FFF73FFD08BDC403002008B500F1AD
:1012B0001603054901EBC301C00001220B3100F602
:1012C0000700FFF75BFD08BDC403002008B500F16F
:1012D0001602054B03EBC203DA7A22F00102DA723E
:1012E000FFF7E4FF08BD00BFC403002008B500F10C
:1012F0001602054B03EBC203DA7A42F00102DA72FE
:10130000FFF7D4FF08BD00BFC403002008B50222C8
:1013100002491020FFF706FD08BD00BF4804002069
:1013200000B583B001220DF1070140F68110FFF7EF
:10133000F9FC9DF8070003B05DF804FB08B5FFF762
:10134000EFFF10F0090F04D0064B1B6E43B1984716
:1013500005E0044B002083F8780083F8DE0008BD28
:101360003020FCE7C403002038B505462B4C08228A
:1013700021464FF40060FFF7D5FC0822A11840F683
:101380000800FFF7CFFC34F8B419E36E1A889142D5
:101390002CD1234AB2F8B6105A88914226D1204A5D
:1013A00092F8B8209B799A4220D11D4B93F8BA301D
:1013B00013F0010F1AD01A4BB3F8BC101B6F1A8828
:1013C00091421FD1164AB2F8BE105A88914219D1E3
:1013D000134A92F8C0209B799A4213D1104B93F88C
:1013E000C23013F0010F0DD028460AE001240C4B47
:1013F00083F8AC400020FFF779FF2046FFF776FF27
:10140000112038BD064B022283F8AC200020FFF7E4
:101410006DFF0120FFF76AFF1120F2E7780400203A
:10142000C403002010B50446174B4FF400729A66AF
:101430001A1DDA6603F10C021A670020FFF746FF57
:101440000120FFF743FF0020FFF720FF0120FFF7F7
:101450001DFF2046FFF788FF044610F0100F0BD148
:10146000094B93F8C220C2F3400283F8A020012266
:1014700083F86420204610BD1620FFF7B7FE024B0C
:10148000002283F86420F5E7C403002010B5044669
:10149000184B4FF400729A6603F11402DA6603F1F6
:1014A0001C021A670020FFF711FF0120FFF70EFF53
:1014B0000020FFF7EBFE0120FFF7E8FE2046FFF7D4
:1014C00053FF044610F0100F0BD10A4B93F8C220C3
:1014D000C2F3400283F8A020012283F86420204652
:1014E00010BD1520FFF782FE024B002283F8642016
:1014F000F5E700BFC403002010B50024174B83F8A4
:1015000064402046FFF7F2FE0120FFF7EFFE204681
:1015100004E0134B00221A540130C0B20228F8D95B
:101520000E4B002283F8882083F8892083F88A20D4
:10153000012183F88C1083F8A02083F8872083F89A
:101540008D20A3F89620A3F8982083F88B20A3F889
:101550009A2083F89C20A3F89E2010BDC40300208D
:10156000A410002030B583B0174CE36E174D06224F
:1015700029461888FFF7D6FB2B8898B2ADF80630BD
:10158000E26E5388991F884201D9ADF80610108881
:101590000630BDF806200E4980B2FFF7C3FBBDF848
:1015A00006300633084AD06E4288934204D3094B72
:1015B00001221A7003B030BD01220DF106018088AE
:1015C000FFF7B0FBF3E700BFC4030020A40A00202C
:1015D000AA0A0020A410002010B582B0134A936E0E
:1015E00003FB00F0124BC11800248DF807401B5A72
:1015F000106F4288941FA34200D9A3B29C1DA2B2CF
:101600000088FFF7BBFB094B1B6F5A88944205D338
:10161000064B002283F88C2002B010BD01220DF190
:1016200007019888FFF7AAFBF2E700BFC403002078
:10163000A40A002010B582B000238DF80730064CB4
:10164000236F01220DF107011888FFF797FB012393
:1016500084F88C3002B010BDC4030020022001E0E9
:101660000138C0B218B11A4B1B5C002BF8D168B31B
:10167000174B02221A5417498A6E174B02FB00338C
:1016800091F886200132D2B281F8862002F007025A
:1016900081F886201AB90A46012182F886100022B4
:1016A0009A70DA70197962F305011971C9B262F39F
:1016B00087111971074A92F886C059796CF307119E
:1016C000597192F88B30013382F88B30704700BF2C
:1016D000A4100020C4030020A40A0020022001E07E
:1016E0000138C0B218B1024B1B5C032BF8D1704714
:1016F000A410002010B50446FFF7B0FFD0B101469A
:101700000D4B9A6E00FB02F20C4813184FF0000CC0
:101710004FF0040E02F800E083F801C05A796CF330
:1017200003025A7101229A7183F807C01C81044B8D
:1017300003225A5410BD00BFC4030020A40A002095
:10174000A41000206F4B93F86400002800F0D880AC
:1017500010B5B3F8DC3003F440737BBB694B93F8EE
:10176000881021B1B3F8DC3013F4007F2DD1654A25
:1017700092F8C230C3F3400392F8A020934259D0AC
:10178000604BB3F88830BBB1002942D15D4B93F870
:101790008900FFF721FF5B4B93F8C220C2F34001A1
:1017A0000A4683F8A01093F8C31062F3410183F84E
:1017B000C3100120FFF77AFD002010BD0020FFF7C5
:1017C00065FD0120FFF762FDC8E7FFF733FF4D4BD2
:1017D00093F8893013B14C4A0021D154494B93F806
:1017E0008800494B1B5C062B10D0464B93F8882091
:1017F00045490520885483F88920002283F88820F1
:1018000093F88A000028D8D00120D6E7FFF7E4FE3D
:10181000EBE70120FFF76AFD3A4C94F888303A4A2A
:101820000621D1540120FFF751FD94F88900FFF7FC
:10183000D3FEB0E7334B93F88B3073B1314B93F851
:101840008C302BB92F4B93F8C13013F0080F04D113
:10185000FFF744FF0446002831D12A4B93F8B90022
:1018600010F00800A9D0284B1878002846D1254B45
:10187000D3F8883013F0FF1F9FD1FFF773FE214B81
:1018800093F8B9206FF3C30283F8B9201F4B1B886C
:101890004BB31E4B5B7913F0F00F07D01B4B5A79FB
:1018A000184B93F88730B3EB121F23D0174B5B799B
:1018B000C3F30313134A82F8873001207DE7FFF753
:1018C0008BFE0120FFF7E2FC0F4B04221A550D4B53
:1018D00083F8884093F88B30002BBED0013B094A37
:1018E00082F88B30B9E70520FFF704FF064B002292
:1018F0001A70CEE7044B00221A70D7E700205CE78D
:10190000704700BFC4030020A4100020A40A0020D8
:1019100008B5104B93F864303BB10E4B93F88A3006
:101920001BB90D4B1B78012B00D008BD0B4B5B790D
:1019300013F00F0F02D0094B1B8833B90520FFF7B6
:10194000D9FE054B00221A70EFE70220FFF7D2FE06
:10195000F7E700BFC4030020A4100020A40A002061
:1019600038B505462C4C082221464FF40160FFF79C
:10197000D9F92388B3F5A05F3BD1A4F1C402B2F832
:10198000C630B2F87420934233D1A4F1C40292F865
:10199000C820242A2DD1A4F1C40292F8CA2012F042
:1019A000010F26D003EB4303B3F5C06F27DC1B4CBC
:1019B0000822214640F61800FFF7B4F92388B3F552
:1019C000D05F22D1A4F1CC03B3F8CE20B3F87630A7
:1019D0009A421AD1A4F1CC0393F8D030202B14D121
:1019E000A4F1CC0393F8D23013F0010F0DD02846A8
:1019F00004E00B4B042283F8AC20122038BD084BC6
:101A0000042283F8AC201220F8E7054B082283F863
:101A1000AC201220F2E700BF8804002090040020D0
:101A2000C403002010B5FFF79BFF0446122810D016
:101A30000320FFF74BFCBFF35B8F224B01221A7090
:101A4000BFF35B8F204B1B680BB1122C15D12046C6
:101A500010BD0220FFF74AFC0320FFF747FC1A4B9A
:101A600093F8AC3013F0080F03D01E20FFF7BEFB35
:101A7000E8E71D20FFF7BAFBE4E7FFF75FFC58B982
:101A8000114B5B6D002BE2D00F4A92F87820A2B187
:101A900040F204409847DAE7FFF7A8FB0220FFF77F
:101AA00025FC0320FFF722FCBFF35B8F054B0022D0
:101AB0001A70BFF35B8F1224C9E74FF48060984718
:101AC000C5E700BFA3040020C403002010B50C4CE0
:101AD000BFF35B8F00232370BFF35B8F0320FFF7FF
:101AE00005FC0220FFF702FC54F8DF3C33B1A4F1FF
:101AF000DF039B6D13B140F20440984710BD00BF57
:101B0000A304002010B504460220FFF7DFFB074BBB
:101B1000BFF35B8FD3E84F2F42F00202C3E8412F9F
:101B20000029F7D1BFF35B8F204610BDA30400202E
:101B300008B5094BBFF35B8FD3E84F2F02F00102CA
:101B4000C3E8412F0029F7D1BFF35B8F0220FFF7D5
:101B5000CDFBFFF729FA08BDA304002010F0080F01
:101B600035D130B583B004460D46194AB2F87C3001
:101B700003F00F038DF806308DF8073043EA0013A9
:101B80008DF80630D36A23B10DF107010DF106007F
:101B90009847BFF35B8F0F4B1B78BFF35B8F13F03E
:101BA000020F11D12846FFF721FB2046FFF732FB39
:101BB0008DF80740064B1B6B23B10DF107010DF1AA
:101BC0000600984703B030BDFFF7B2FFEAE7704761
:101BD000C4030020A3040020F8B5424BB3F8DC3066
:101BE00013F0100F34D03F4B93F87E2002F01F0506
:101BF00093F87C3003F01F0412F0100F03D1012D75
:101C000001D0264603E002F00F0503F00F0613F0A3
:101C10000E0F05D0032C03D0324B93F86430C3B9B8
:101C20000020FFF725FB0120FFF722FB0220FFF732
:101C30001FFB0320FFF71CFB0420FFF719FB052007
:101C4000FFF716FB0620FFF713FB0720FFF710FB3B
:101C5000F8BD2046FFF788FB07462046FFF780FEC9
:101C6000044616F0100F02D015F0100FF0D0112F0F
:101C70001AD0BFF35B8F1C4B1B78BFF35B8F002B1D
:101C8000E6D0122CE4D1FFF753FFFFF71FFF154BEF
:101C900093F8AC3013F0080F1FD01E20FFF7A6FA00
:101CA0002046FFF7B7FAD3E7BFF35B8F0E4B1B78E5
:101CB000BFF35B8F63B9FFF71FFC1620FFF796FA9F
:101CC000084B002283F864203846FFF7A3FABFE7E9
:101CD000FFF72EFFFFF7FAFEEDE71D20FFF786FA6C
:101CE000DEE700BFC4030020A3040020A44BB3F828
:101CF000DC3013F0010F00D1704730B583B0A14C38
:101D0000022221464FF49070FFF70CF8214611F89B
:101D10007E2902F01F04B1F87C3003F01F038DF818
:101D200006308DF8073012F0100F01D1012C05D1CB
:101D300002F00F0403F00F028DF807209DF8072032
:101D400012F0100F03D014F0100F00F0AC8003F06D
:101D50000F0343EA04138DF80630894BDB6A23B185
:101D60000DF107010DF1060098479DF80630113B73
:101D7000772B00F24281DFE813F07F00B800BE004D
:101D8000B000400140014001A60040014001400177
:101D90004001400140014001400178007F00C40043
:101DA0001E01400140014001160140014001400177
:101DB000400140014001400140019800C4009800EA
:101DC0002401400140014001310140014001400136
:101DD00040014001400140014001A000CB00C4008F
:101DE000CB004001400140013A0140014001400167
:101DF00040014001400140014001400140014001DB
:101E000040014001400140014001400140014001CA
:101E100040014001400140014001400140014001BA
:101E200040014001400140014001400140014001AA
:101E3000400140014001400140014001400140019A
:101E4000400140014001400140014001400140018A
:101E500040014001400140014001A0000F01C400C9
:101E60002B014001400140017F00FFF74FFA20465F
:101E7000FFF7D8FA8DF80700414B1B6B23B10DF12A
:101E800007010DF1060098479DF8073013F0100F79
:101E900005D13B4BB3F88030002B40F0C9809DF852
:101EA0000700FFF7B7F903B030BDFFF72FFA204660
:101EB000FFF7ECFA8DF80700DEE711208DF8070038
:101EC000FFF794F9D8E7FFF733FEFFF7FFFDFFF7C1
:101ED00013FB01238DF80730CEE7FFF7F7FDFFF77F
:101EE0000BFB01238DF80730C6E7FFF705FB012345
:101EF0008DF80730C0E7FFF7FFFA01238DF80730B0
:101F0000BAE712238DF807301120FFF76FF9B3E716
:101F10001D4D02231D4A294641F6124001F038FBAF
:101F200025F8300CA43DD5F8A430002B19DB184D52
:101F30000223184A294641F6134001F029FB25F8EF
:101F4000320CA83DD5F8A830002B11DB2046FFF756
:101F500069FD8DF80700A0428ED10220FFF7B6F987
:101F60008AE712238DF807301D20FFF73FF983E73A
:101F700012238DF807301E20FFF738F97CE700BFE9
:101F8000C40300204204002068040020A8100020A0
:101F90006C040020B810002012238DF807301120A7
:101FA000FFF724F968E7FFF7C3FDFFF78FFD022372
:101FB0008DF8073060E7FFF789FD02238DF80730C1
:101FC0005AE714238DF807301120FFF70FF953E774
:101FD0002046FFF797FD8DF807004DE714238DF895
:101FE00007301120FFF702F9FFF7A2FD44E70423B1
:101FF0008DF80730FFF79CFD3EE79DF80730082B72
:102000000DD09DF80630042B0FD09DF8073043F01B
:1020100010038DF807301220FFF7E8F82CE7FFF7E0
:1020200087FD04238DF80730EBE7FFF74FFDECE762
:102030000020FFF7DBF832E7024641681F4B1960CA
:102040008168C3F8D4101E4903F1040C03C98CE85D
:1020500003001C4903F10C0C03C98CE803001A4966
:1020600003F1140C03C98CE80300184903F11C0C9C
:1020700003C98CE80300117B83F82410116999626D
:102080005169D96291691963D1695963116A996378
:10209000516AD963916A1964D16A5964116B996460
:1020A000516BD964916B1965D16B5965116C996548
:1020B000516CD965926C1A66704700BFC40300204A
:1020C000B4820008BC820008C4820008CC820008E8
:1020D00000B54FF00A0C80F800C04FF0000C80F8FB
:1020E00001C090F805C04FF0030E6EF3030C80F8AA
:1020F00005C00903C1800272A0F809309DF80430C0
:10210000C3725DF804FB2DE9F0410C4600294DDB5C
:10211000A4114D4201F03F0305F03F0158BF4B426F
:10212000402A46D04FF0010EA2F12001C2F1200555
:102130000EFA01F12EFA05F529430EFA02FE1EF100
:10214000FF3E41F1FF3800EBC4056D68C3F1200785
:10215000A3F1200650F8341021FA03FC05FA07F722
:102160004CEA070C25FA06F64CEA060CDD401A4448
:10217000402A22DD013400EBC40250F834005268DA
:10218000C3F14006C3F12004203BB24000FA04F43E
:10219000224320FA03F31A43B04040EA0C002A43DA
:1021A0000EEA000008EA0201BDE8F08101F13F04F7
:1021B000AEE74FF0FF3EF046C5E700200246ECE7F1
:1021C0002DE9F04F83B00C9C0D9F8E460029C0F284
:1021D00083804FEAAE1E4B4201F03F0103F03F0304
:1021E00058BF5942402A7AD00123A2F12005C2F1FA
:1021F000200603FA05F523FA06F635439340013B22
:1022000045F1FF35A1F1200CC1F1200605FA01F8D6
:1022100003FA0CFC48EA0C0823FA06F648EA06081A
:1022200003FA01F60196A1F1200AC1F1200907FA8B
:1022300001FC04FA0AFA4CEA0A0C24FA09F94CEAFD
:10224000090C04FA01F900EBCE0A50F83EB089EA15
:102250000B09DAF804608CEA060C019E09EA06090B
:102260000CEA080C89EA0B09DAF804608CEA060625
:1022700040F83E90CAF804600A44402A29DDC1F1C2
:102280004002A1F12006C1F12001D34005FA06F673
:10229000334325FA01F10B43D540C2F12006A2F1E8
:1022A0002001D44007FA06F6344327FA01F10C4323
:1022B000D7400EF1010E00EBCE0650F83E107268CA
:1022C0004C4057401C403D404C40554040F83E403B
:1022D000756003B0BDE8F08F01F13F0E79E74FF074
:1022E000FF331D468EE741880139362929D8DFE8BA
:1022F00001F01C1C1F221C1F222228282828282805
:102300002828252828282528282828282528282856
:1023100028282828282828282828282828281C1F52
:10232000221C1C1C1C1C1C1C1C0003691A707047FE
:1023300003691A80704703691A60704701690A606F
:102340004B60704770B582B0FFF788F9002861D004
:102350008646314A936E03FB00FC304C0CEB0401C3
:102360004B79032060F303034B7100238B716FF0F3
:102370007F03CB710B7A022060F306030B72B2F875
:102380009630B2F89800126F56880E3E1B1AC6F3AC
:102390004E0613FB06F39EB2012818D90B7A43F0C0
:1023A00080030B7252880E3AC2F34E02324492B24C
:1023B00000234B72013880B2174BA3F89800488174
:1023C0008B89ADF8063033460DF1060115E00B7A26
:1023D0006FF3C7130B720022114B1A700E4B83F868
:1023E0008A20B3F89420E3E7C3EBC3050D4830F827
:1023F000150021F8020B01339BB29342F4D3931BD7
:102400009BB25B009BB2063324F80C30044B0322D2
:1024100003F80E2002B070BDC4030020A40A0020FF
:10242000A41000203489000838B50446FFF716F9D7
:1024300080B384461848816E01FB0CF1174D4B198F
:1024400000224FF00A0E01F805E05A7093F805E0FB
:10245000032161F3030E83F805E09A716FF07F05A5
:10246000DD7193F808E0072565F3060E83F808E0B0
:102470005FFA8EFE62F3C71E83F808E05A729A7202
:10248000DA729C81240CDC81054B03F80C101A7065
:1024900080F88A2038BD00BFC4030020A40A0020B1
:1024A000A4100020F0B583B0002401E00134A4B2F0
:1024B000C4EBC403554A32F813204FF6FF739A4217
:1024C000F4D15349A1F8944063009AB20B6F5D8830
:1024D0000E3DABB223F0010313449BB2013B9BB210
:1024E00025F001052D042D0CB3FBF5F5494B9B8917
:1024F000012B04D94848FFF797FF03B0F0BDFFF761
:10250000ADF884460028F8D0414B986E00FB0CF0E3
:10251000404E82195379032161F303035371002361
:1025200093716FF07F03D371137A022161F3060375
:102530001372B3891BBB13735373117A63F3C711FF
:10254000117253729372D37234490B70304981F80F
:102550008A30A1F8965005F1FF3EA1F898E0D189A4
:10256000ADF80610ADF80640ADF80830ADF80A3009
:10257000ADF80C30ADF80E30122181555370254B5B
:102580009B89012B04D0254B032203F80C20B4E7D0
:10259000012D1FD9137A43F0800313721C4B1321B2
:1025A00083F88A101B6F5C880E3CC4F34E04002332
:1025B0005372174FA7F89650691E89B2A7F8981062
:1025C0005181012111735373D289ADF806200DF1A9
:1025D000060213E0137A6FF3C713137200230F4937
:1025E0000B700B4981F88A30E1E7C3EBC30507495B
:1025F00031F8151022F8021B01339BB2A342F4D329
:1026000063009BB208333352BDE700BF3489000832
:10261000C4030020A40A002000000106A41000202A
:10262000F8B50E4615461F46044620B314B3144BA6
:10263000986E04FB00F0134B00EB030C00220A2100
:10264000C1548CF801209CF80510032363F30301A7
:102650008CF805108CF8062020228CF80720ACF8A6
:1026600009608CF80B5080228CF80820CCF80C7094
:10267000054A1355F8BDFEF7F1FF0446D6E700BF43
:10268000C4030020A40A0020A410002008B533B918
:102690000023044A1370044A82F88A3008BDFFF709
:1026A000BFFFF5E7A4100020C403002008B50B46C7
:1026B0000146184604F0A4FD08BD00002DE9F04FC6
:1026C00085B0FEF7CBFF40B900233E4A13703E4A67
:1026D00082F88A3005B0BDE8F08F06463A4FBB6EEF
:1026E00003FB00F8394C08EB0409B7F898A0B7F8D9
:1026F00096B0ABEB0A050395227AE37A0093B4F81F
:10270000093002F0100203214846FFF7E1FCE91C02
:10271000BB6E9A1F91421BD9093B03939BB2B7F83A
:1027200098201A44A7F89820033324F80830264C40
:10273000D4F89000BDF80C2009F109015044FFF7CE
:10274000B5FF94F88D304BB31E4B03229A55BBE76F
:102750001D4B002283F88D20A3F89620A3F8982023
:1027600099F808200132D2B289F80820062D06D93E
:10277000ABEB0A0B0BF1030B24F808B0D7E7C5F15C
:102780000703DBB25B00DBB2134489F808300A238D
:1027900008F80430002389F80130C8E70B4BB4F87F
:1027A0009E20D97AB3F80900FEF7F4FB034600280F
:1027B000CAD00649CA7AB1F809103046FFF766FF59
:1027C00088E700BFA4100020C4030020A40A002052
:1027D0002DE9F84F98469DF828B0BDF82C90438815
:1027E000093B9BB2022B40F2AF8082460F46144653
:1027F000002651E003F10C015FE0F01DEA1DD2104C
:1028000008EBD00004F0FCFC3AE013F0080F01D014
:10281000022A09D013F0100F01D0042A04D013F0BB
:10282000200F2DD0082A2BD1F11DEA1DD21008EB64
:10283000D10104F0E5FC23E0BBF1000F20D1B8F199
:10284000000F1DD00120A840C0B20138C0B213F063
:10285000010F01D0022A62D013F0020F01D0042A26
:102860005DD013F0040F01D0082A58D0F31DDB0807
:1028700000FA0CF018F803C02CEA000008F8030076
:1028800004B910252E44013424B2B9F1000F03D04D
:10289000F31DB9EBD30F58D9C7EBC7032C4A02EB92
:1028A00043031B799C4250DC04EB84030AEB830353
:1028B0009D88186900289DD0014606F0070CDB882A
:1028C000DBB2244A92F87C2002F00F0215F0070FC9
:1028D000B2D1BCF1000F02D0A6EB0C060836B8F15D
:1028E000000FCDD0BBF1000F8FD113F0010F01D03D
:1028F000022A82D013F0020F02D0042A3FF47DAFE7
:1029000013F0040F02D0082A3FF477AFF01DEA1D40
:10291000D210002108EBD00004F080FCB0E7BCF13D
:10292000000F04D1F31DDB08002208F80320F31D7B
:10293000DB080A78104000FA0CFC18F8030040EAA3
:102940000C0C08F803C09BE7034E3046BDE8F88F37
:1029500034890008C40300200400010670B584B067
:10296000FEF77CFE50B30646284B986E284B00FBC2
:1029700006301B88DC1E0A2B28D0254D2A7A02F04F
:1029800010020023009320320321FFF7A1FBB5F8CA
:1029900009300393A2B21D4BD3F8901003A8FFF7A0
:1029A00085FE2B7A13F0010F17D1184AD2F8903018
:1029B0002344C2F89030174B03229A5500231A463D
:1029C00019461846FFF762FE04B070BD104B1C7A22
:1029D0006FEA540404F00704CFE70C4B002283F89D
:1029E0008D20B3F89E2093F89C10B3F89A00FEF760
:1029F000B7FA03460028DED0044991F89C20B1F8CC
:102A00009A103046FFF742FEDEE700BFC403002005
:102A1000A40A0020A410002008B54388013B362BEF
:102A20002DD8DFE803F01C1C20241C2024242C2C8F
:102A30002C2C2C2C2C2C282C2C2C282C2C2C2C2CDE
:102A4000282C2C2C2C2C2C2C2C2C2C2C2C2C2C2CCA
:102A50002C2C1C20241C1C1C1C1C1C1C1C00036972
:102A60001878002108BD036918880021FAE7036976
:102A700018680021F6E7036918685968F2E7034B04
:102A8000034A4FF4C761034804F066FBD482000890
:102A900024830008D882000800B5154BC0EBC002A3
:102AA00003EB4202D2F80AE092F804C08C4508D346
:102AB00001EB81033EF823208BB29A420ED0002016
:102AC00000E0002000EB80033EF823208BB29A4206
:102AD00006D2604504DA013000B2F3E708B201E043
:102AE0009A4201D15DF804FB4FF0FF30FAE700BFD6
:102AF000348900080146002000E00130C0EBC0032B
:102B0000044A32F813308B42F7D300D170474FF0AC
:102B1000FF30FBE73489000838B51D46B0F80930AE
:102B20000B80C37A1370012B10D814460888FFF766
:102B3000E1FF00B2288000280ADB2178FFF7ACFF14
:102B4000049B1880002805DB002038BD0248FCE704
:102B50000248FAE70248F8E7000001060000020612
:102B6000110009062DE9F04F87B004AB00930DF179
:102B700012030DF115020DF116017848FFF7CCFF95
:102B8000002840F0A580FEF769FD0546002800F00A
:102B9000AA80BDF91210C1EBC102714B03EB4203D5
:102BA000D3F80A60002301930093BDF9102030464A
:102BB000FFF70EFE0390182800F29E80441EE408E2
:102BC000C4F10304A400E4B20730C3080393B3F5CF
:102BD000803F80F093801E33B3F5C06F00F2968083
:102BE000F388326943F40043009303AB9DF815105A
:102BF000BDF81600FEF7BEF90346002840F08F80AE
:102C0000584F4FF0000ACDF804A0CDF800A03B4685
:102C1000BDF91020BDF912103046FFF7D9FD57F865
:102C2000783C03FB05F8DFF834B108EB0B099DF89D
:102C300015300093BDF81630512203214846FFF7A6
:102C400047FA07F853ACE03F039A042A6FD9C9F852
:102C50000C2002F10A034449896E881F834211D96E
:102C6000414BA3F8962010390391A3F89810402205
:102C700083F88D2003F1E002C3F890204FF4004266
:102C8000A3F89E20039A02F10A032BF80830354975
:102C900009F1100004F0B4FA334B93F88D305BB9AE
:102CA000F28842F400429DF81510BDF81600FEF7B8
:102CB00071F90346002848D12C4B03225A550023B2
:102CC0009DF81520BDF816102846FFF7DFFC07E039
:102CD00003469DF81520BDF816100020FFF7D6FC1E
:102CE00007B0BDE8F08F00239DF81520BDF8161041
:102CF0001846FFF7CBFCF3E7002465E79DF81520A5
:102D0000BDF816102846FFF7C1FCE9E7184B9DF8FF
:102D10001520BDF816102846FFF7B8FCE0E79DF82F
:102D20001520BDF816102846FFF7B0FCD8E799F833
:102D300008301C4344F0020489F8084007F1E00120
:102D400009F10C0004F05CFAA6E79DF81520BDF827
:102D500016102846FFF79AFCC2E700BFA40A00201D
:102D600034890008A4040020C4030020A41000201B
:102D70000400010670B586B004AB00930DF1120398
:102D80000DF115020DF116015048FFF7C5FE0028A0
:102D900056D14E4BDC6803941B7A13F0020F58D0C7
:102DA000C3F38104C4F10404A4B203AEBDF912104C
:102DB000C1EBC102464B03EB4203D3F80A50002398
:102DC000019301220092BDF910202846FFF700FD73
:102DD0000346C21DD108B2F5002F3DD2A14253D304
:102DE000EA8842F40042009232469DF81510BDF880
:102DF0001600FEF777F80346B0BB01940123009359
:102E00003346BDF91020BDF912102846FFF7E0FC4B
:102E1000EA8842F400429DF81510BDF81600FEF74E
:102E20009FF8034640BBFEF719FC0446B0BB0023E5
:102E30009DF81520BDF816102046FFF727FC2BE063
:102E400003469DF81520BDF816100020FFF71EFC64
:102E500022E0A4B204AEA9E79DF81520BDF8161033
:102E60000020FFF713FC17E09DF81520BDF81610A1
:102E70000020FFF70BFC0FE09DF81520BDF81610A1
:102E80000020FFF703FC07E0124B9DF81520BDF86A
:102E900016100020FFF7FAFB06B070BD0E4B9B6EBC
:102EA0000A4D03FB00559DF815300093BDF8163010
:102EB000702203212846FFF70BF900232B736B7355
:102EC000AB73EB73054B03221A55B0E7A40A00203D
:102ED0003489000810000706C4030020A410002055
:102EE0002DE9F04F85B0814BB3F80970BDB2DE7AA1
:102EF0002846FFF7FFFD04B2002CC0F2E780314600
:102F00002046FFF7C9FD0028C0F2D980C4EBC404F5
:102F1000774B03EB4404D4F80A4000EB800004EB49
:102F20008004E288D1B2734B93F87C3003F00F0336
:102F300012F0010F01D0022B10D011F0020F01D0BE
:102F4000042B0BD011F0040F01D0082B06D06A4BD4
:102F5000324629460020FFF799FBC3E0FEF77EFBCF
:102F60008246002800F0B880624B9B6E03FB00F99C
:102F7000DFF878B109EB0B0800230A2209F80B20CF
:102F800088F8013098F80520032161F3030288F8DE
:102F9000052088F80630302388F80730A38803938B
:102FA000082B33D80C22102B00D90422182B00D95F
:102FB0000022A8F8097088F80B60412188F80810F1
:102FC0000733DB080393042B30D8433288F80820FA
:102FD0002269EAB1E388009303AB31462846FDF746
:102FE000C9FF0746D8B92069A8B1BDF80C2008F17F
:102FF0000C01FFF75BFB27B93E4B93F88D30002B9C
:103000004FD03E4B032203F80A2065E00822CAE7AE
:1030100004F10C02DEE7E368C8F80C30EBE7034686
:10302000324629465046FFF731FB5BE02269E388D0
:10303000009303AB31462846FDF79CFF074648BB8B
:10304000039B2C4AA2F89630C8F80C300A33926ED3
:10305000911F8B4219D9103A0392264BA3F898205E
:10306000402283F88D202269C3F89020E288A3F8DB
:103070009E20BDF80C2002F10A032BF8093008F15C
:1030800010012069FFF712FBB5E71A4B002283F805
:103090008D20EEE70346324629465046FFF7F6FA02
:1030A00020E0E28831462846FDF774FF03460028F9
:1030B000A7D0324629465046FFF7E8FA12E0104BF7
:1030C000324629460020FFF7ABFA05E00D4B3246A9
:1030D00029460020FFF7A4FA0023084A1370054A86
:1030E00082F88A3005B0BDE8F08F00BFA40A002046
:1030F00034890008C403002001000106A410002048
:1031000011000906000002062DE9F04385B0854B49
:10311000B3F80970BDB2DE7A2846FFF7EBFC04B2C3
:10312000002CC0F2F08031462046FFF7B5FC0028A5
:10313000C0F2E280C4EBC4047B4B03EB4404D4F83C
:103140000A4000EB800004EB8004E288D1B202F078
:103150003F00764B93F87C3003F00F0312F0080F1A
:1031600001D0022B13D011F0100F01D0042B0ED080
:1031700011F0200F01D0082B09D00F2800F0B580E6
:103180006B4B324629460020FFF74AFAC1E0654BF7
:1031900093F8088018F0020F2DD0C8F38108C8F109
:1031A00004081FFA88F8DB6803930DF10C09A38863
:1031B0000733DA10B8EBD30F2CD06388092B22D059
:1031C000A3F10A0292B2012A24D9B3F5187F21D0C3
:1031D00040F2612293421DD040F26222934219D004
:1031E00040F26322934215D0524B324629460020CA
:1031F000FFF74CFA93E04B4BD3F80C801FFA88F89A
:1032000003F11009D3E72069A2EB08020021404432
:1032100004F004F8E388009343464A4631462846C2
:10322000FDF760FE0346002859D1B8F1040F18D904
:103230003C4B1B88A3F10902424512DC0A3B1FFAF2
:1032400083F83A4B502283F88D2022694244C3F818
:103250009020A3F89A7083F89C60E288A3F89E20DF
:1032600003E0324B002283F88D2042462169484614
:10327000FFF71CFAFEF7F2F98046F8B12B4B996E76
:1032800001FB00F127480B1800224FF00A0C01F84F
:1032900000C05A705879032161F3030058719A7184
:1032A0003020D871A3F80970DE72602018721A738A
:1032B0005A739A73DA73204B03F808101B4B93F878
:1032C0008D3033BBE28831462846FDF749FE034680
:1032D000F8B1324629464046FFF7A2F919E03246D6
:1032E00029460020FFF79CF913E0144B324629468B
:1032F0000020FFF795F90CE0114B324629460020DB
:10330000FFF78EF905E00F4B324629460020FFF704
:1033100087F90023084A1370044A82F88A3005B0FE
:10332000BDE8F083A40A002034890008C40300200B
:103330000200010610000706A41000202200000869
:1033400011000906000002062DE9F8434E4BB3F8C0
:103350000C901FFA89F0FFF7CDFBB0F10008C0F226
:103360008E80FEF77BF90646002800F08B80474BE5
:103370009D6E00FB05F5444FEC196379032262F35F
:10338000030363710023A3716FF07F02E271227A5D
:10339000042161F306022272D2B263F3C7122272D1
:1033A0006372A372E372A4F80C90C8EBC803384AA6
:1033B00002EB4303B3F80290B9F1070F1BD0B9F148
:1033C000080F2DD00023A373E373C8EBC803304A62
:1033D00002EB4303D3F80A30DB68237484F81190BE
:1033E000C8EBC8002A4B03EB4000D0F806C004F13C
:1033F000120200232FE000210FFA88F0FFF74CFBA8
:10340000C8EBC803224A02EB4303D3F80A2000EBBF
:10341000800002EB80004288E2811B792374DDE7A3
:1034200000210FFA88F0FFF737FBC8EBC803184AF2
:1034300002EB4303D3F80A3000EB800003EB80007B
:103440004288E281DB682374C8E702F8010B01338C
:10345000DBB20CF1010C9CF8000020B10B49896E25
:1034600012398B42F1D310700C33EB53094A03230A
:10347000935500231370054A82F88A3002E006480B
:10348000FEF7D2FFBDE8F883A40A0020C4030020A1
:1034900034890008A4100020000002062DE9F04144
:1034A000354B9D899E7BA8B2FFF724FB071E5FDB8F
:1034B000314638B2FFF7F0FA041E54DBC7EBC70001
:1034C0002E4F07EB4000D0F80A70FEF7C7F886468B
:1034D00000284BD02A4B9B6E03FB00FC26480CEBCC
:1034E00000025379032161F30303537100239371A5
:1034F0006FF07F01D171117A4FF0060868F3060171
:103500001172C9B263F3C711117253729372D372FD
:10351000958196730721D17304EB840407EB84072C
:1035200079881182B9885182F9889182BD681632F2
:103530002C7854B11249896E16398B4205D202F8A3
:10354000014B0133DBB20135F2E7147010332CF874
:1035500000300C4A032302F80E3000231370084A8F
:1035600082F88A3002E00848FEF75EFFBDE8F0818D
:103570000648FEF759FFF9E7A40A0020348900083D
:10358000C4030020A4100020110009060000020658
:103590002DE9F04F87B0059101929B46A0F5E053CD
:1035A000123B9BB2012B00F2B380FFF7A3FA00B2EB
:1035B0000028C0F2B180C0EBC000584B03EB4000C4
:1035C000D0F80A3004931B699BB11B780393039BCB
:1035D000002B40F093804FF000094C46BBF1000FE8
:1035E00040F39280059BC3F80090E01DC0F3CF002C
:1035F0008FE0049BDB68DBB20393E8E7D86880B216
:1036000068E0DAF80C30DBB2009375E0DE6834E095
:103610004FF0FF33059A136000207AE0FFF76AFA53
:103620000FFA80F8B8F1000F3CDB31464046FFF757
:1036300033FA002830DBC8EBC808384B03EB4808E6
:10364000D8F80A3000EB800003EB8000019A02EB0F
:10365000C90342F839009C8009F101093C44A4B235
:103660000135EDB2009B9D4222D805EB85030AEBA4
:1036700083031A69002AC9D01668F7B2BBF1000F9C
:10368000ECDD300CC6F30726D945C1D00028C5D1E2
:10369000002EC3D10020D9E74FF0FF33059A136005
:1036A000002036E04FF0FF33059A1360002030E031
:1036B000029B0133DBB20293029B039A93428DD8A3
:1036C000029B03EB8303049A02EB83031A69002A2B
:1036D00094D01088FFF70EFA00B20028E8DBC0EBA8
:1036E000C0000E4B03EB4000D0F80AA0DAF810300F
:1036F000002B86D01B7800930125B3E74FF000091B
:10370000012302934C46D7E70023059A13606CE728
:10371000002007B0BDE8F08F0020FAE734890008E8
:1037200008B54F4B93F86430A3B14D4B93F88A30F2
:103730001BB94C4B1B78012B0DD0494BD3F888306B
:1037400003F0FF13B3F5981F18D0454B93F88A3058
:10375000032B16D008BD444B5B7903F00F03032BFA
:10376000EBD1414B1B88072B04D93D4B032283F837
:103770008A20E2E70820FDF7BDFFDEE7FEF7E2FD65
:10378000E3E7394BDB881B0B022B11D0082B42D00F
:10379000082B49D0082B50D0002B57D10520FDF71E
:1037A000A9FF00232F4A13702D4A82F88A30D1E7EF
:1037B0002D4B1A7A02F0E003402B0AD002F0EF0101
:1037C000602913D0202B1DD0002BC3D1FFF7C6F8E2
:1037D000C0E7254909880A29F0D112F0100F02D05C
:1037E000FFF7C0F9B6E7FFF77BFBB3E71E4909888F
:1037F0000A29E7D11A4991F88D104029E2D1FEF744
:103800005DFFA7E712F0100F02D0FFF7B3FAA1E7B0
:10381000FFF77AFC9EE7144A127A02F07F02012A2F
:10382000B6D1FEF73FFE95E70F4A127A02F07F020B
:10383000032AAFD1FFF788FD8CE70B4A127A02F01A
:103840007F02052AA8D1FFF729FE83E70649074B27
:10385000CA7AB1F809100020FEF7E2FEA1E700BF26
:10386000C4030020A4100020A40A002000000106C8
:103870001A4B93F8243083BB2DE9F0414FF0000838
:1038800012E0C2680023FEF72EFD0134725BBBB26A
:103890009A4207D204EB84039D0070190369002B40
:1038A000EFD1F2E708F10108C8EBC80253000C4A57
:1038B000D25A4FF6FF739A4209D0C8EBC8035A0098
:1038C000074B1344D3F80A601F790024E2E7034B47
:1038D0009B6A03B19847BDE8F0817047C40300209C
:1038E000348900082DE9F04383B010F0070F04D1AC
:1038F00080460F461646002410E0154B154A40F24C
:10390000AA61154803F028FCFFF786F8CDE900010D
:103910002A4649464046FEF753FC0134BC4214DABD
:1039200006EBC40356F83400B3F804900028F4D032
:103930008588402DE8D909F10709EA1DD2100169EF
:1039400008EBE90003F05CFCE7E703B0BDE8F083B7
:10395000F482000834830008D88200082DE9F04181
:1039600010F0070F04D180460F46164600240FE0E2
:10397000134B144A40F2D961134803F0EDFB404663
:10398000FEF7C1FB02460B462846FEF7ACFC0134AD
:10399000BC4212DA06EBC40356F834509988002D65
:1039A000F5D0AA88402AEAD907310732D21008EBAD
:1039B000E101286903F024FCE9E7BDE8F08100BFDC
:1039C000F482000814830008D882000808B5FFF7C5
:1039D00091F8B0F1FF3F0DD0C0EBC000064B03EBF8
:1039E0004000D0F80A2013690BB1187808BDD068E0
:1039F000C0B2FBE70020F9E73489000808B50B4B9B
:103A00001A6842F400721A601A6842F480621A60FE
:103A10001A6842F480721A60032000F01BF80F202D
:103A2000FDF7CEF8FDF718F8002008BD003C024075
:103A3000034A1168034B1B780B441360704700BFA7
:103A4000CC14002074000020014B1868704700BFA0
:103A5000CC140020074AD36823F4E0631B041B0C3A
:103A6000000200F4E060034343F0BF6343F400331B
:103A7000D360704700ED00E000B5194BDB68C3F37D
:103A80000223C3F1070CBCF1040F28BF4FF0040C54
:103A900003F1040EBEF1060F18D9033B4FF0FF3EB1
:103AA0000EFA0CFC21EA0C0199400EFA03F322EA0B
:103AB0000303194300280BDB0901C9B200F1604080
:103AC00000F5614080F800135DF804FB0023E5E792
:103AD00000F00F000901C9B2024B1954F4E700BF0E
:103AE00000ED00E014ED00E0002807DB00F01F020D
:103AF000400901239340024A42F82030704700BF3A
:103B000000E100E000280CDB00F01F024009012367
:103B100093402030034A42F82030BFF34F8FBFF369
:103B20006F8F704700E100E010B40368D9B210391C
:103B30000C4AA2FB014212090B4CA25CC2655F2930
:103B400009D923F47F7323F0030304338365806D65
:103B50005DF8044B704723F47F7323F00303836500
:103B6000F5E700BFABAAAAAA40830008836A82696E
:103B700092B9012B0AD0022B02D00BB10020704762
:103B8000C36A13F0807F28D100207047C36AB3F165
:103B9000C07F24D000207047B2F5005F09D0022B0F
:103BA00025D9032B25D1C36A13F0807F23D10020B0
:103BB0007047032B03D8DFE803F01404140A002035
:103BC0007047C36A13F0807F0DD100207047C36A2D
:103BD000B3F1C07F09D00020704701207047012059
:103BE0007047012070470120704701207047012075
:103BF00070470020704701207047000070B50446F0
:103C0000FFF722FF002C5BD00546022384F83530F5
:103C1000002384F834302268136823F00103136012
:103C200023681A6812F0010F0AD0FFF70DFF431B3B
:103C3000052BF5D920236365032084F8350070BD7A
:103C40001A68204810406168A2680A43E1680A4384
:103C500021690A4361690A43A1690A43E1690A4388
:103C6000216A0A430243616A04291ED01A60266849
:103C7000756925F00705636A1D43042B07D1A36A04
:103C80001D43E36A1BB12046FFF770FF90B97561D1
:103C90002046FFF749FFE26D3F23934083600020F9
:103CA0006065012384F83530C9E7E16A206B014380
:103CB0000A43DBE740236365012084F83500BEE753
:103CC0000120BCE73F8010F0F0B583B0044600232C
:103CD0000193724B1D68724BA3FB0535AD0A876DCE
:103CE0003E68C26D08239340334210D003681A68BF
:103CF00012F0040F0BD01A6822F004021A60C26D91
:103D000008239340BB60436D43F001034365E26DBC
:103D100001239340334209D02268526912F0800F88
:103D200004D0BB60636D43F002036365E26D04235E
:103D30009340334209D02268126812F0020F04D077
:103D4000BB60636D43F004036365E26D1023934031
:103D5000334224D02268126812F0080F1FD0BB60D3
:103D600023681A6812F4802F0DD01B6813F4002FFB
:103D700004D1236C9BB12046984710E0A36C73B12B
:103D8000204698470BE01A6812F4807F03D11A6826
:103D900022F008021A60236C0BB120469847E26DAE
:103DA00020239340334255D02268126812F0100F3E
:103DB00050D0BB6094F83530DBB2052B0ED02368B1
:103DC0001A6812F4802F33D01B6813F4002F2AD105
:103DD000636C002B3ED0204698473BE02268136876
:103DE00023F0160313602268536923F080035361A4
:103DF000236CA3B12268136823F008031360E26DFB
:103E00003F239340BB60012384F83530002384F8BE
:103E10003430236D002B3FD0204698473CE0A36C04
:103E2000002BE7D1EBE7E36BA3B12046984711E005
:103E30001A6812F4807F09D11A6822F010021A6001
:103E4000012384F83530002384F83430E36B0BB160
:103E500020469847636DFBB1636D13F0010F17D0D7
:103E6000052384F835302268136823F001031360BA
:103E7000019B01330193AB4204D823681B6813F004
:103E8000010FF5D1012384F83530002384F8343054
:103E9000E36C0BB12046984703B0F0BD70000020E2
:103EA000B5814E1B00230F2B00F2E48070B582B069
:103EB00060E085685E000324B44025EA0405CC6810
:103EC000B4402C438460456825EA02054C68C4F37D
:103ED00000129A402A4342605AE0DC08083450F845
:103EE000246003F0070295000F22AA4026EA020E82
:103EF0000A69AA4042EA0E0240F824205CE0072248
:103F000000E0002202FA0EF22A4302345A4D45F82C
:103F100024205A4A94686FEA0C0224EA0C054E6881
:103F200016F4801F01D04CEA0405544CA560E468E7
:103F300002EA04054E6816F4001F01D04CEA04059D
:103F40004E4CE560646802EA04054E6816F4003FD2
:103F500001D04CEA0405494C6560246822404D6854
:103F600015F4803F01D04CEA0402444C2260013336
:103F70000F2B7DD801229A400C6804EA020C32EA29
:103F80000404F4D14C6804F00304013C012C90D9E2
:103F90004A6802F00302032A09D0C4685D000322C4
:103FA000AA4024EA02048A68AA402243C2604A68FE
:103FB00002F00302022A90D004684FEA430E032263
:103FC00002FA0EF224EA02044A6802F0030202FA3C
:103FD0000EF2224302604A6812F4403FC7D000222A
:103FE0000192274A546C44F480445464526C02F4A5
:103FF00080420192019A9C08A51C1F4A52F8255044
:1040000003F003024FEA820E0F2202FA0EF225EAB3
:1040100002051C4A90423FF474AF02F58062904260
:104020001AD002F58062904218D002F58062904268
:1040300016D002F58062904214D002F58062904260
:1040400012D002F58062904210D002F58062904258
:104050003FF455AF082255E7012253E7022251E70A
:1040600003224FE704224DE705224BE7062249E7EA
:1040700002B070BD704700BF00380140003C0140F5
:1040800000380240000002400AB181617047090413
:10409000816170477047000008B5054B5B690342BA
:1040A00000D108BD024B5861FFF7F4FFF9E700BFEC
:1040B000003C0140002800F0E08170B582B0044669
:1040C000036813F0010F3BD09F4B9B6803F00C0378
:1040D000042B2CD09C4B9B6803F00C03082B21D0A5
:1040E0006368B3F5803F4FD0B3F5A02F52D0964B05
:1040F0001A6822F480321A601A6822F480221A6048
:104100006368002B50D0FFF79FFC05468E4B1B6861
:1041100013F4003F14D1FFF797FC401B6428F5D936
:104120000320B1E1884B5B6813F4800FD8D0864B35
:104130001B6813F4003F03D06368002B00F09F81DD
:10414000236813F0020F54D07F4B9B6813F00C0FC1
:104150003ED07D4B9B6803F00C03082B33D0E36803
:10416000002B68D0794B01221A60FFF76DFC0546E1
:10417000754B1B6813F0020F54D1FFF765FC401B11
:104180000228F5D903207FE16F4A136843F4803396
:104190001360B5E76C4B1A6842F480221A601A6803
:1041A00042F480321A60ABE7FFF74EFC0546664BDF
:1041B0001B6813F4003FC3D0FFF746FC401B642884
:1041C000F5D9032060E1604B5B6813F4800FC6D122
:1041D0005D4B1B6813F0020F03D0E368012B40F026
:1041E0005081594A136823F0F803216943EAC10357
:1041F0001360236813F0080F42D063696BB3534B0D
:104200000122C3F8802EFFF71FFC05464E4B5B6F63
:1042100013F0020F34D1FFF717FC401B0228F5D929
:10422000032031E1484A136823F0F803216943EA87
:10423000C1031360DDE7454B00221A60FFF704FC61
:104240000546414B1B6813F0020FD2D0FFF7FCFB71
:10425000401B0228F5D9032016E13C4B0022C3F88D
:10426000802EFFF7F1FB0546374B5B6F13F0020F13
:1042700006D0FFF7E9FB401B0228F5D9032003E134
:10428000236813F0040F77D02F4B1B6C13F0805F63
:1042900033D1002301932C4B1A6C42F080521A64E4
:1042A0001B6C03F080530193019B0125284B1B6875
:1042B00013F4807F23D0A368012B34D0052B38D092
:1042C000214B1A6F22F001021A671A6F22F00402C2
:1042D0001A67A368002B3DD0FFF7B6FB06461A4BC2
:1042E0001B6F13F0020F46D1FFF7AEFB801B41F2AC
:1042F00088339842F3D90320C6E00025D6E7144A54
:10430000136843F480731360FFF79EFB0646104B5F
:104310001B6813F4807FCED1FFF796FB801B022829
:10432000F5D90320B0E0084A136F43F00103136787
:10433000CFE7054B1A6F42F004021A671A6F42F07A
:1043400001021A67C5E700BF00380240000047427B
:1043500000700040FFF778FB0646524B1B6F13F0CE
:10436000020F08D0FFF770FB801B41F288339842A0
:10437000F3D9032088E0EDB9A369002B00F0838016
:10438000484A926802F00C02082A51D0022B17D03A
:10439000454B00221A66FFF757FB0446414B1B684A
:1043A00013F0007F42D0FFF74FFB001B0228F5D926
:1043B000032069E03B4A136C23F080531364DBE76E
:1043C000394B00221A66FFF73FFB0546354B1B6849
:1043D00013F0007F06D0FFF737FB401B0228F5D90A
:1043E000032051E0E369226A1343626A43EA8213BD
:1043F000A26A5208013A43EA0243E26A43EA0263CC
:10440000284A5360284B01221A66FFF71DFB044619
:10441000244B1B6813F0007F06D1FFF715FB001B30
:104420000228F5D903202FE000202DE000202BE00A
:10443000012B2BD01B4B5B6803F48001E269914296
:1044400026D103F03F02216A8A4223D1616A47F6EE
:10445000C0721A40B2EB811F1ED103F44031A26A30
:104460005208013AB1EB024F18D103F07063E26ACF
:10447000B3EB026F14D1002006E001207047012049
:1044800002E0012000E0002002B070BD0120FBE747
:104490000120F9E70120F7E70120F5E70120F3E724
:1044A0000120F1E7003802400000474208B5314BD7
:1044B0009B6803F00C03042B57D0082B57D12D4BCE
:1044C0005A6802F03F025B6813F4800F2AD0294B30
:1044D0005968C1F3881C4FEA4C11B1EB0C006EEB2C
:1044E0000E0E4FEA8E1343EA90638101091A63EBC3
:1044F0000E03DB0043EA5173C90011EB0C0C43F1CE
:104500000003590200234FEA4C2041EADC51FBF73B
:10451000AFFE184B5B68C3F3014301335B00B0FB94
:10452000F3F025E0134B5968C1F3881C4FEA4C1196
:10453000B1EB0C006EEB0E0E4FEA8E1343EA906364
:104540008101091A63EB0E03DB0043EA5173C900D2
:1045500011EB0C0C43F10003990200234FEA8C206D
:1045600041EA9C51FBF784FED3E7034800E003488F
:1045700008BD00BF0038024000127A000024F40099
:10458000002800F09B8070B50D4604464F4B1B6819
:1045900003F007038B4208D2CBB24C4A1370136866
:1045A00003F007038B4240F08B80236813F0020F67
:1045B00017D013F0040F04D0454A936843F4E05336
:1045C0009360236813F0080F04D0414A936843F4C2
:1045D000604393603E4A936823F0F003A1680B4365
:1045E0009360236813F0010F32D06368012B21D050
:1045F0009A1E012A25D9364A126812F0020F61D09C
:1046000033498A6822F0030213438B60FFF71CFAD8
:1046100006462F4B9B6803F00C036268B3EB820FD6
:1046200016D0FFF711FA801B41F288339842F0D977
:10463000032042E0264A126812F4003FE0D1012034
:104640003BE0234A126812F0007FD9D1012034E008
:104650001E4B1B6803F00703AB4207D9EAB21B4BA2
:104660001A701B6803F00703AB422DD1236813F0C7
:10467000040F06D0164A936823F4E053E1680B4315
:104680009360236813F0080F07D0114A936823F44E
:104690006043216943EAC1039360FFF707FF0C4BB6
:1046A0009B68C3F303130B4AD35CD8400A4B1860D2
:1046B0000A4B1868FCF784FA002070BD012070478F
:1046C0000120FAE70120F8E70120F6E7003C02406C
:1046D000003802409C820008700000207800002012
:1046E000014B1868704700BF7000002008B5FFF745
:1046F000F7FF044B9B68C3F38223034AD35CD84083
:1047000008BD00BF00380240AC8200080F230360E0
:104710000B4B9A6802F0030242609A6802F0F002C2
:1047200082609A6802F4E052C2609B68DB0803F47E
:10473000E0530361034B1B6803F007030B607047F2
:1047400000380240003C02402DE9F04782B00546A7
:10475000884617461E46FFF777F90A9B1B1A03EB9C
:104760000609FFF771F982462B4B1B68C3F3CB3365
:1047700009FB03F301932B689C6838EA04030CBF20
:104780004FF0010C4FF0000CBC4540D0B6F1FF3F9C
:10479000F1D0FFF759F9A0EB0A0048450AD2B9F168
:1047A000000F07D0019A02B14A46019B013B0193D9
:1047B0009146E0E72A68536823F0E00353606B6892
:1047C000B3F5827F0BD0AB6AB3F5005F14D0012341
:1047D00085F85130002385F85030032018E0AB688D
:1047E000B3F5004F02D0B3F5806FECD12A6813689F
:1047F00023F040031360E6E72A68136823F40053AC
:1048000013602A68136843F400531360DFE7002045
:1048100002B0BDE8F08700BF7000002010B584B082
:104820000446164B1868164BA3FB0030400D4FF49E
:104830007A7303FB00F003906368B3F5827F0BD0BB
:10484000039BBBB1039B013B039323689B6813F05D
:10485000800FF5D100200EE000920B46002280214F
:104860002046FFF771FF30B1636D43F020036365AD
:10487000032000E0002004B010BD00BF7000002045
:10488000819F5E16002860D010B50446436A33B994
:104890004368B3F5827F05D00023C36102E00023A3
:1048A0000361436194F85130002B44D0022384F813
:1048B00051302268136823F040031360636803F4E7
:1048C0008273A26802F404421343E26802F40062B5
:1048D0001343226902F002021343626902F00102EB
:1048E0001343A26902F400721343E26902F0380232
:1048F0001343226A02F080021343A26A02F40052B8
:10490000216813430B60638B03F00403626A02F0B7
:104910001002216813434B60A36AB3F5005F10D007
:104920002268D36923F40063D3610020606501230A
:1049300084F8513010BD84F850302046FCF7AEF8B2
:10494000B4E72368A28D1A61EAE7012070472DE9D8
:10495000F04383B01D4690F85030012B00F0EA8000
:10496000044688469146012380F85030FFF76CF8E2
:10497000074694F85160F6B2012E40F0C880B8F1B5
:10498000000F00F0C580B9F1000F00F0C1800323D3
:1049900084F8513000236365C4F83080A4F8349063
:1049A000A4F83690A363A387E38763642364A368B2
:1049B000B3F5004F22D0A36AB3F5005F29D0236876
:1049C0001A6812F0400F03D11A6842F040021A60D0
:1049D000E368B3F5006F27D0636813B1B9F1010F35
:1049E0005DD1226B236812781A73236B0133236322
:1049F000E38E9BB2013B9BB2E38650E022681368D2
:104A000023F0400313602268136843F4804313606B
:104A1000D1E72268136823F40053136022681368F7
:104A200043F400531360CAE7636813B1B9F1010F8F
:104A300016D1226B23681288DA60236B023323635A
:104A4000E38E9BB2013B9BB2E38609E0FEF7FCFFDD
:104A5000C01BA84202D3B5F1FF3F63D1002D63D044
:104A6000E38E9BB2002B33D023689A6812F0020FBA
:104A7000ECD0226B1288DA60236B02332363E38E5F
:104A80009BB2013B9BB2E386EAE7FEF7DDFFC01B6A
:104A9000A84202D3B5F1FF3F48D1002D48D0E38EA4
:104AA0009BB2ABB123689A6812F0020FEDD0226B73
:104AB00012781A73236B01332363B4F836C01FFADC
:104AC0008CFC0CF1FF3C1FFA8CFCA4F836C0E6E726
:104AD000A36AB3F5005F14D03A4629462046FFF793
:104AE0009DFE08B120236365A36833B90193236851
:104AF000DA6801929B680193019B636D43B90026BC
:104B000006E02268136843F480531360E4E702264A
:104B1000012384F85130002384F85030304603B02C
:104B2000BDE8F0830326F3E70326F1E70326EFE76A
:104B30000326EDE70226F1E72DE9F04385B01F4695
:104B40000C9D0023039390F85030012B00F06681F8
:104B5000044688469146012380F85030FEF774FFE2
:104B6000064694F85130DBB26268012B0AD0B2F5E8
:104B7000827F40F03881A268002A40F03F81042BF8
:104B800040F03E81B8F1000F00F03C81B9F1000F18
:104B900000F03A81002F00F0398194F85130DBB2F7
:104BA000042B02D0052384F8513000236365C4F838
:104BB0003890E787A787C4F83080E786A786236404
:104BC0006364A36AB3F5005F1ED023681A6812F00D
:104BD000400F03D11A6842F040021A60E368B3F54F
:104BE000006F1CD063680BB1012F0BD1226B2368BF
:104BF00012781A73236B01332363E38E9BB2013B5C
:104C00009BB2E38601278EE02268136823F40053E9
:104C100013602268136843F400531360D5E7636898
:104C20000BB1012F0BD1226B23681288DA60236B42
:104C300002332363E38E9BB2013B9BB2E3860127E1
:104C400024E02268136843F480531360002700E0D7
:104C5000002723689A6812F0010F0ED0E28F92B2FB
:104C60005AB1DA68A36B1A80A36B0233A363E38F94
:104C70009BB2013B9BB2E3870127FEF7E5FE801B59
:104C8000A84203D3B5F1FF3F40F0C280E38E9BB250
:104C90001BB9E38F9BB2002B6BD023689A6812F08C
:104CA000020FD6D0E28E92B2002AD2D0002FD0D0FE
:104CB000226B1288DA60236B02332363E38E9BB28C
:104CC000013B9BB2E386E38E9BB2002BC0D1A36A6B
:104CD000B3F5005FB5D00027BBE72268136843F443
:104CE00080531360002700E0002723689A6812F0C1
:104CF000010F0ED0E28F92B25AB1DA68A36B1A702C
:104D0000A36B0133A363E38F9BB2013B9BB2E387A9
:104D10000127FEF799FE831BAB4202D3B5F1FF3F9B
:104D200078D1002D78D0E38E9BB213B9E38F9BB27C
:104D3000FBB123689A6812F0020FD6D0E28E92B2CD
:104D4000002AD2D0002FD0D0226B12781A73236B96
:104D500001332363E38E9BB2013B9BB2E386E38E78
:104D60009BB2002BC0D1A36AB3F5005FB5D000277A
:104D7000BBE7A36AB3F5005F0DD023689A6812F011
:104D8000100F1BD0626D42F0020262654FF6EF72A7
:104D90009A60012713E000962B4601221146204617
:104DA000FFF7D2FC20B92368DB680393039BE4E799
:104DB000636D43F002036365032715E00027324665
:104DC00029462046FFF72AFD48B9A36863B9029334
:104DD0002368DA6802929B680293029B04E0202316
:104DE0006365012700E00227012384F85130002386
:104DF00084F85030384605B0BDE8F0830227F3E769
:104E00000227F1E70127EFE70127EDE70127EBE7AD
:104E10000327E9E70327E7E70327E5E70227E9E7B1
:104E200090F85030012B0CD0012380F850300268EC
:104E3000536823F003035360002380F85030184672
:104E400070470220704790F85030012B0CD001239E
:104E500080F850300268536843F003035360002326
:104E600080F85030184670470220704770470000A5
:104E700090F83D30DBB2012B37D1022380F83D3072
:104E80000268D36843F00103D3600368194A934270
:104E900020D0B3F1804F1DD0A2F57C42934219D0AF
:104EA00002F58062934215D002F58062934211D0E0
:104EB00002F5784293420DD002F57052934209D028
:104EC000A2F59432934205D01A6842F001021A60AA
:104ED000002070479A6802F00702062A07D01A6875
:104EE00042F001021A600020704701207047002044
:104EF000704700BF0000014070477047704770471F
:104F000010B5044603681A6912F0020F11D0DA686E
:104F100012F0020F0DD06FF002021A610123037725
:104F200003689B6913F0030F70D0FFF7E6FF0023BF
:104F3000237723681A6912F0040F12D0DA6812F08E
:104F4000040F0ED06FF004021A6102232377236846
:104F50009B6913F4407F5FD02046FFF7CEFF00230C
:104F6000237723681A6912F0080F12D0DA6812F05A
:104F7000080F0ED06FF008021A610423237723680C
:104F8000DB6913F0030F4ED02046FFF7B6FF002376
:104F9000237723681A6912F0100F12D0DA6812F022
:104FA000100F0ED06FF010021A61082323772368C8
:104FB000DB6913F4407F3DD02046FFF79EFF0023BE
:104FC000237723681A6912F0010F03D0DA6812F010
:104FD000010F36D123681A6912F0800F03D0DA6806
:104FE00012F0800F34D123681A6912F0400F03D0F9
:104FF000DA6812F0400F32D123681A6912F0200FDC
:1050000003D0DA6812F0200F30D110BDFFF774FF23
:105010002046FFF773FF8AE72046FFF76DFF204623
:10502000FFF76CFF9BE72046FFF766FF2046FFF780
:1050300065FFACE72046FFF75FFF2046FFF75EFF06
:10504000BDE76FF001021A612046FBF7B5FBC1E72F
:105050006FF080021A61204600F0A1F8C3E76FF0FC
:1050600040021A612046FFF74AFFC5E76FF02002B1
:105070001A61204600F092F8C7E700000368304A42
:10508000904212D0B0F1804F0FD0A2F57C429042F6
:105090000BD002F58062904207D002F58062904208
:1050A00003D002F57842904203D123F070034A689E
:1050B0001343234A90422AD0B0F1804F27D0A2F563
:1050C0007C42904223D002F5806290421FD002F5CC
:1050D000806290421BD002F57842904217D002F5D0
:1050E0007052904213D002F5806290420FD002F5C8
:1050F000806290420BD0A2F59832904207D002F520
:105100008062904203D002F58062904203D123F482
:105110004073CA68134323F080034A691343036052
:105120008B68C3620B688362054B984203D003F51A
:105130008063984201D10B69036301234361704787
:105140000000014040B310B5044690F83D30F3B183
:10515000022384F83D30214651F8040BFFF78EFFFF
:10516000012384F8463084F83E3084F83F3084F8D8
:10517000403084F8413084F8423084F8433084F879
:10518000443084F8453084F83D30002010BD80F86C
:105190003C30FFF76BFEDBE701207047704770473C
:1051A00008B5002303704370C36803B1984708BD76
:1051B000072905D8DFE801F01D080B0E1114171A96
:1051C0004FF6FF72002316E00722872313E00F2219
:1051D0008F2310E0002282230DE0022286230AE0C2
:1051E00007228F2307E00F228F2304E0802213463B
:1051F00001E0062287231840904214BF00200120BE
:10520000704738B504460D4642680023138043704A
:1052100003780F2B2BD9402B00F24F81212BC0F0AC
:105220004C81213B1F2B00F24881DFE813F05D0029
:1052300046019100460146014601C400460146016F
:105240004601460146014601460146014601460126
:105250004601460146014601460146014601460116
:1052600046014601460146014601460144000F2B16
:1052700000F22381DFE813F0100021012101210158
:10528000210121012101E8000C012101210121015D
:10529000210121012101020183681B88082B40F0B4
:1052A000F680402303704268138843F04003138064
:1052B00001234370EBE000212846FFF779FF48B94E
:1052C000A3681B88082B05D06268138843F040034D
:1052D0001380DCE0212323706268138843F02103EC
:1052E000138002236370D2E003212846FFF760FF9A
:1052F00048B1402323706268138843F04003138051
:1053000007236370C3E001212846FFF751FFC8B1AE
:10531000232323706268138843F02303138003233D
:10532000637002212846FFF743FF002800F0AF809A
:10533000272323706268138843F0270313802223F6
:105340006370A4E06268138843F0210313809EE039
:1053500000212846FFF72CFF48B121232370626803
:10536000138843F021031380062363708FE0062126
:105370002846FFF71DFF48B1272323706268138872
:1053800043F0270313800423637080E00321284641
:10539000FFF70EFF48B1402323706268138843F083
:1053A000400313800A23637071E06268138843F03E
:1053B000230313806BE005212846FFF7F9FE48B16F
:1053C000232323706268138843F02303138005238B
:1053D00063705CE000212846FFF7EAFE48B1212314
:1053E00023706268138843F02103138008236370DD
:1053F0004DE003212846FFF7DBFE18B9A3681B88A0
:10540000082B09D0402323706268138843F04003BF
:105410001380092363703AE004212846FFF7C8FE91
:1054200048B1072323706268138843F00703138091
:105430000B2363702BE06268138843F0270313800B
:10544000236923B3984722E003212846FFF7B0FEE3
:1054500048B1402323706268138843F040031380EF
:105460001023637013E006212846FFF7A1FE70B9F0
:105470006268138843F00703138008E00823037071
:105480004268138843F0080313800E23437038BD2D
:1054900007212846FFF78CFE48B14023237062683D
:1054A000138843F0400313800F236370EFE76268B3
:1054B000138843F008031380E9E700232370E6E72D
:1054C00008B54FF0E0231B6901F09AFB012800D1D9
:1054D00008BD00F0C7F9FBE7EFF305832BB9064BD6
:1054E000186828B901221A6070476FF005007047EC
:1054F0004FF0FF30704700BF2C170020EFF30583FB
:1055000073B90A4B1B68012B0DD110B50024084B51
:10551000DC77064B02221A6001F0F6F8204610BD37
:105520006FF0050070474FF0FF3070472C170020D8
:1055300000ED00E0F0B587B000240594EFF305849A
:1055400074BB68B322B31568936903B918235C1E52
:10555000372C49D8546814F0010F47D156696EB101
:105560004FEA960C94682CB1D7685B2F02D9176963
:1055700007B1C6B92CB14FF0FF340EE04FF0800CEC
:10558000F0E7D4688CB9146994B14FF0FF3404E0AB
:105590001546002418234FF0800C012C0AD0ACB122
:1055A000059807B0F0BD0124F7E74FF0FF34F4E7AA
:1055B0000024F2E7146992680292019400930B466A
:1055C0006246294601F030F80590E9E705AA019204
:1055D00000930B461FFA8CF2294601F060F801286F
:1055E000DED000230593DBE70020DAE70020D8E7D0
:1055F000034B0360034B0B6080231360704700BFB5
:10560000D0160020D0140020034B0360034B0B6026
:105610004FF4807313607047301B00203017002058
:1056200000F1080343604FF0FF328260C360036102
:1056300000230360704700230361704743684B6099
:105640009A688A6051609960086103680133036059
:10565000704730B40D68B5F1FF3F11D000F1080379
:105660001C465B681A68AA42FAD963684B60996065
:105670008C606160086103680133036030BC70476F
:105680000469F2E70369416882688A604168516091
:105690005A68824206D0002202611A68013A1A60F2
:1056A0001868704782685A60F5E7000082B00023EE
:1056B00001930D4B1B68B3F1FF3F08D04FF050032F
:1056C00083F31188BFF36F8FBFF34F8FFEE74FF067
:1056D000500383F31188BFF36F8FBFF34F8F019B8C
:1056E000002BFCD002B070477C0000200848006806
:1056F000006880F308884FF0000080F3148862B6D9
:1057000061B6BFF34F8FBFF36F8F00DF00BF0000A4
:1057100008ED00E0DFF80C00016841F47001016061
:105720007047000088ED00E04FF0807340F8043CC3
:1057300021F0010140F8081C054B40F80C3C40F8F2
:10574000202C6FF0020340F8243C4438704700BF1F
:10575000AD5600080000000000000000000000003E
:10576000074B19680868B0E8F04F80F30988BFF369
:105770006F8F4FF0000080F311887047AFF3008007
:10578000F45700204FF0500383F31188BFF36F8F5D
:10579000BFF34F8F0B4A136801331360012B00D006
:1057A00070474FF0E023D3F8043D13F0FF0FF7D01C
:1057B0004FF0500383F31188BFF36F8FBFF34F8F08
:1057C000FEE700BF7C000020094B1B6843B94FF087
:1057D000500383F31188BFF36F8FBFF34F8FFEE742
:1057E000013B034A13600BB983F31188704700BF74
:1057F0007C0000200000000000000000000000000D
:10580000EFF30980BFF36F8F154B1A681EF0100F6E
:1058100008BF20ED108A20E9F04F10602DE9090043
:105820004FF0500080F31188BFF34F8FBFF36F8F9D
:1058300001F0CEF84FF0000080F3118809BC196820
:105840000868B0E8F04F1EF0100F08BFB0EC108AE7
:1058500080F30988BFF36F8F704700BFAFF30080FC
:10586000F457002008B54FF0500383F31188BFF3BD
:105870006F8FBFF34F8F00F0A3FF28B14FF0E023ED
:105880004FF08052C3F8042D002383F3118808BD24
:105890004FF0E022002313619361054B1B6805491B
:1058A000A1FB03139B09013B53610723136170475D
:1058B00070000020D34D62104FF0E023D3F8002D8C
:1058C0003D4B9A421CD04FF0E023D3F8002D3B4BC8
:1058D0009A421ED030B583B0394B1A78D2B20192B9
:1058E000FF221A701B78DBB28DF803309DF803306D
:1058F00003F05003334A1370334B07221A601BE046
:105900004FF0500383F31188BFF36F8FBFF34F8FB6
:10591000FEE74FF0500383F31188BFF36F8FBFF39F
:105920004F8FFEE7284A1368013B13609DF8033050
:105930005B00DBB28DF803309DF8033013F0800F6D
:10594000F0D1214B1B68032B08D04FF0500383F399
:105950001188BFF36F8FBFF34F8FFEE71B021A4A08
:10596000136003F4E0631360019BDBB2144A13700D
:105970004FF0E024D4F8203D43F47003C4F8203DF8
:10598000D4F8203D43F07043C4F8203DFFF780FF7A
:1059900000250E4B1D60FFF7BDFED4F8343F43F0E9
:1059A0004043C4F8343FFFF7A1FE01F011F8FFF7C0
:1059B0007DFE284603B030BD71C20F4170C20F4159
:1059C00000E400E08C1B0020901B00207C000020E5
:1059D000EFF305830F2B0FD9114A9B5CDBB2114A01
:1059E00012789A4208D94FF0500383F31188BFF31D
:1059F0006F8FBFF34F8FFEE74FF0E023D3F80C3DDE
:105A000003F4E063084A1268934208D94FF0500348
:105A100083F31188BFF36F8FBFF34F8FFEE770479B
:105A2000F0E300E08C1B0020901B0020124A12F0D3
:105A3000070F1ED0D11D21F00701C1F5705313448B
:105A40000A460E480260002141601344083B23F0DF
:105A500007030B48036059601960991A516013607D
:105A6000084B1960084B1960084B4FF000421A6050
:105A700070474FF47053E4E7981B0020AC570020A8
:105A8000941B0020A05700209C570020985700200E
:105A9000164B1A461B688342FBD3516802EB010C7C
:105AA000844509D0416800EB010C634509D00360CF
:105AB000904219D010607047406801445160104610
:105AC000F0E710B40A4C2468A3420BD05B68194479
:105AD000416013681B680360904200D010605DF85D
