:020000040800F2
:10000000000002207D5C0008D10D0008D30D00081F
:10001000D50D0008D70D0008D90D0008000000001C
:10002000000000000000000000000000DB0D0008E0
:10003000DD0D000800000000DF0D0008E10D0008E4
:10004000CD5C0008CD5C0008CD5C0008CD5C0008EC
:10005000CD5C0008CD5C0008E50D0008CD5C000813
:10006000CD5C0008CD5C0008CD5C0008CD5C0008CC
:10007000CD5C0008CD5C0008F90D0008CD5C0008DF
:10008000CD5C0008CD5C0008CD5C0008CD5C0008AC
:10009000CD5C0008CD5C0008CD5C0008110E0008A6
:1000A000CD5C0008CD5C0008CD5C0008CD5C00088C
:1000B000CD5C0008CD5C0008CD5C0008CD5C00087C
:1000C000CD5C0008CD5C0008CD5C0008CD5C00086C
:1000D000CD5C0008CD5C0008CD5C0008CD5C00085C
:1000E000CD5C0008CD5C0008CD5C0008CD5C00084C
:1000F000CD5C0008CD5C0008CD5C0008CD5C00083C
:10010000CD5C0008CD5C0008CD5C0008CD5C00082B
:10011000CD5C0008CD5C0008290E0008CD5C00080D
:10012000CD5C0008CD5C0008CD5C0008CD5C00080B
:10013000CD5C00080000000000000000CD5C00085D
:10014000390E0008CD5C0008CD5C0008CD5C0008CD
:10015000CD5C0008CD5C0008CD5C0008CD5C0008DB
:10016000CD5C0008CD5C0008CD5C0008CD5C0008CB
:10017000CD5C0008CD5C000800000000000000001D
:08018000CD5C0008CD5C000815
:1001900010B5054C237833B9044B13B10448AFF3C1
:1001A00000800123237010BDD80000200000000053
:1001B000C86D000808B5034B1BB103490348AFF3F2
:1001C000008008BD00000000DC000020C86D0008B1
:1001D00001F0FF01102A2BDB10F0070F08D010F8F8
:1001E000013B013A8B422DD010F0070F42B3F6D1FC
:1001F000F0B441EA012141EA014122F007047FF015
:1002000000070023F0E80256083C85EA010586EA6B
:10021000010685FA47F5A3FA87F586FA47F6A5FAA7
:1002200087F68EB9EED1F0BC01F0FF0102F00702B3
:1002300032B110F8013B013A83EA010313B1F8D15E
:100240000020704701387047002D06BF354603383F
:10025000073815F0010F07D1013015F4807F02BF78
:10026000013015F4C03F0130F0BC0138704700BFC9
:1002700053B94AB9002908BF00281CBF4FF0FF310D
:100280004FF0FF3000F074B9ADF1080C6DE904CE09
:1002900000F006F8DDF804E0DDE9022304B0704761
:1002A0002DE9F047089D04468E46002B4DD18A4229
:1002B000944669D9B2FA82F252B101FA02F3C2F15C
:1002C000200120FA01F10CFA02FC41EA030E9440ED
:1002D0004FEA1C48210CBEFBF8F61FFA8CF708FB0E
:1002E00016E341EA034306FB07F199420AD91CEBE6
:1002F000030306F1FF3080F01F81994240F21C8118
:10030000023E63445B1AA4B2B3FBF8F008FB10335F
:1003100044EA034400FB07F7A7420AD91CEB040494
:1003200000F1FF3380F00A81A74240F20781644464
:10033000023840EA0640E41B00261DB1D4400023E9
:10034000C5E900433146BDE8F0878B4209D9002D4D
:1003500000F0EF800026C5E9000130463146BDE8D7
:10036000F087B3FA83F6002E4AD18B4202D3824241
:1003700000F2F980841A61EB030301209E46002DF0
:10038000E0D0C5E9004EDDE702B9FFDEB2FA82F245
:10039000002A40F09280A1EB0C014FEA1C471FFAA3
:1003A0008CFE0126200CB1FBF7F307FB131140EA8A
:1003B00001410EFB03F0884208D91CEB010103F157
:1003C000FF3802D2884200F2CB804346091AA4B219
:1003D000B1FBF7F007FB101144EA01440EFB00FEED
:1003E000A64508D91CEB040400F1FF3102D2A64552
:1003F00000F2BB800846A4EB0E0440EA03409CE7F1
:10040000C6F12007B34022FA07FC4CEA030C20FA9D
:1004100007F401FA06F31C43F9404FEA1C4900FABD
:1004200006F3B1FBF9F8200C1FFA8CFE09FB18113A
:1004300040EA014108FB0EF0884202FA06F20BD9AD
:100440001CEB010108F1FF3A80F08880884240F2FD
:100450008580A8F102086144091AA4B2B1FBF9F041
:1004600009FB101144EA014100FB0EFE8E4508D93C
:100470001CEB010100F1FF346CD28E456AD90238C1
:10048000614440EA0840A0FB0294A1EB0E01A142A6
:10049000C846A64656D353D05DB1B3EB080261EB14
:1004A0000E0101FA07F722FA06F3F1401F43C5E9EE
:1004B000007100263146BDE8F087C2F12003D84024
:1004C0000CFA02FC21FA03F3914001434FEA1C4766
:1004D0001FFA8CFEB3FBF7F007FB10360B0C43EA58
:1004E000064300FB0EF69E4204FA02F408D91CEB08
:1004F000030300F1FF382FD29E422DD90238634406
:100500009B1B89B2B3FBF7F607FB163341EA0341A5
:1005100006FB0EF38B4208D91CEB010106F1FF38F4
:1005200016D28B4214D9023E6144C91A46EA0046EB
:1005300038E72E46284605E70646E3E61846F8E67D
:100540004B45A9D2B9EB020864EB0C0E0138A3E7C6
:100550004646EAE7204694E74046D1E7D0467BE7A7
:10056000023B614432E7304609E76444023842E71F
:10057000704700BF7047000010B50B4B012283F895
:100580007C200A4C2269A3F87E2002F09FFC0346DF
:10059000A0614000064AB2EB430F00DB054802F0C1
:1005A000A1FD002010BD00BF9C030020F40000202E
:1005B0003F420F0040420F0008B5034802F054FECE
:1005C00000F026FA08BD00BF00000020034BD979D7
:1005D000034A11709A79034B1A707047F400002097
:1005E000A4020020A50200207047000010B5184B9F
:1005F0001B789BB9174B1B7823B3174C0422214659
:100600004FF4116002F0EAFB14F8643CB3B102202D
:1006100002F072FD0F4B00221A7010BD0F4B012229
:100620001A6004220C494FF4116002F0D7FB092034
:1006300002F062FD064B00221A70DBE70B2002F08D
:100640005BFDE7E702F0F0FD042002F055FDE4E772
:1006500039010020380100207C040020A80200207D
:10066000F0B58BB00024059406940794089409947F
:100670000194384B1A6B42F080021A631A6B02F035
:1006800080020192019A02941A6B42F004021A63EA
:100690001A6B02F004020292029A03941A6B42F05F
:1006A00001021A631A6B02F001020392039A049486
:1006B0001A6B42F002021A631B6B03F002030493ED
:1006C000049B254F22460421384601F031F9234E80
:1006D00022464FF46141304601F02AF940F20113FD
:1006E00005934FF404130693079405A9384601F0C7
:1006F0002DF804230593012506950795089405A96F
:10070000384601F023F84FF460430593069502271D
:100710000797089405A9304601F018F84FF4807344
:10072000059306950795089405A9304601F00EF843
:1007300022463946062000F0A7FD062000F0DCFD29
:1007400022462946172000F09FFD172000F0D4FD17
:100750000BB0F0BD0038024000000240000402402F
:1007600000B583B000210191094B1A6B42F40012CD
:100770001A631B6B03F400130193019B0A460E20BE
:1007800000F082FD0E2000F0B7FD03B05DF804FB21
:100790000038024008B50268034B9A4200D008BDF9
:1007A00000F076FBFBE700BF0010004072B6FEE7EA
:1007B00008B50D480D4B036006234360002383609A
:1007C000C3604FF4003202614FF4001242610376BD
:1007D00043768376C3760377437700F06BFB00B9EB
:1007E00008BDFFF7E3FF00BF640100200068004080
:1007F00008B50C480C4B036006234360002383605C
:10080000C3604FF4802202614361037643768376AE
:10081000C3760377437700F04DFB00B908BDFFF7BF
:10082000C5FF00BF3C0100200064004008B50F4830
:100830000F4B03604FF48273436000238360C360F7
:1008400002220261012242614FF400728261C3619F
:10085000036243624FF4005383620723C36201F0D3
:10086000ABFC00B908BDFFF7A1FF00BF4C020020A0
:100870000038004000B595B03022002108A805F0EE
:1008800089FA002303930493059306930793019336
:100890001F4A116C41F080511164126C02F08052B9
:1008A0000192019A02931B4A116841F48041116040
:1008B000126802F480420292029A022208920121F6
:1008C0000B9110210C910E920F9308231093A823E3
:1008D000119312920723139308A801F03FF898B9D7
:1008E0000F23039302230493002305934FF4A05393
:1008F00006934FF480530793052103A801F094FA5F
:1009000020B915B05DF804FBFFF750FFFFF74EFF6D
:10091000003802400070004008B500F09FFAFFF771
:10092000A9FFFFF79DFEFFF71BFFFFF741FFFFF752
:100930005FFFFFF77BFFFFF73FFE07E001224FF469
:100940008041084800F0F4FFFFF750FE064B1B788B
:10095000002BF3D100224FF48041024800F0E8FF61
:10096000F2E700BF00040240A402002043090B701C
:1009700042EAC0004870032A02D0022A04D070471D
:10098000FF238B700B717047FF230B71F7E700009B
:1009900008B5012005F044F90123054A126805490C
:1009A0000968054801F0D6FE044B01221A7008BD03
:1009B000580000205C0000204C020020AC02002007
:1009C00008B5012005F036F908BD000008B5074B51
:1009D0001B6800221A800322054B19684FF4B0509F
:1009E000FFF7C4FFFFF7D4FF08BD00BF540000208D
:1009F0005C00002008B50422044B19684FF4D05065
:100A0000FFF7B4FFFFF7C4FF08BD00BF5C00002084
:100A100008B505F003F908BD08B5FFF7D1FF074B8E
:100A20001B681A78064BC3F8E420064AD3F8AC10CA
:100A3000054B186805F07EF808BD00BF580000207F
:100A40009C0300208C1000205000002008B5FFF708
:100A5000BDFF044B1B78DBB2012BFAD0FFF7DCFFA4
:100A600008BD00BFAC02002008B5FFF7A9FF034B8B
:100A70001B681A78024BC3F8E42008BD5800002018
:100A80009C03002008B5094A094BD3F8B010094B64
:100A9000186805F013F8FFF7ADFF074B1B78DBB2C2
:100AA000012BFAD0FFF7E0FF08BD00BFA410002023
:100AB0009C03002054000020AC02002082B00021E2
:100AC00000910B4B5A6C42F480425A645A6C02F407
:100AD00080420092009A01911A6C42F080521A648E
:100AE0001B6C03F080530193019B02B0704700BF61
:100AF0000038024010B58AB000230593069307938F
:100B00000893099303683A4A934204D0394A9342BE
:100B10002ED00AB010BD384A136801331360012B80
:100B200019D000230193354B1A6B42F001021A636E
:100B30001B6B03F001030193019B4FF4C05305931A
:100B400002230693032308930923099305A92C483C
:100B500000F0FCFDDDE700230093284B1A6C42F007
:100B600000721A641B6C03F000730093009BD8E7BB
:100B700000230293214B1A6C42F080621A641B6CB2
:100B800003F080630293029B1B4A136801331360D6
:100B9000012B20D000240494184B1A6B42F002025F
:100BA0001A631B6B03F002030493049B60230593F9
:100BB00002230693032308930923099305A91148E7
:100BC00000F0C4FD22462146402000F05DFB40209D
:100BD00000F092FB9DE700230393084B1A6C42F050
:100BE00000721A641B6C03F000730393039BD1E73C
:100BF0000064004000680040CC0200200038024041
:100C000000000240000402402DE9F04389B00023B7
:100C10000393049305930693079302683C4B9A420F
:100C200002D009B0BDE8F08304460025009503F525
:100C300000331A6C42F480421A641A6C02F4804247
:100C40000092009A01951A6B42F004021A631A6B23
:100C500002F004020192019A02951A6B42F002021C
:100C60001A631B6B03F002030293029B0C23039392
:100C70000226049605964FF00309CDF818904FF020
:100C80000508CDF81C800DEB0301224800F05EFD45
:100C90004FF48067039704960596CDF81890CDF829
:100CA0001C8003A91C4800F051FD1C481C4B03602C
:100CB00045608560C560076145618561C5614FF428
:100CC00000330362456200F0B7FBD8B9134BE3640D
:100CD0009C631448144B03600023436040228260ED
:100CE000C3604FF48062026143618361C3614FF46A
:100CF00000320262436200F09FFB30B9094BA364EB
:100D00009C638EE7FFF752FDE0E7FFF74FFDF5E745
:100D10000038004000080240000402408C0100201E
:100D200058600240EC0100207060024030B589B08C
:100D3000044600230193214B1A6C42F010021A64FE
:100D40001B6C03F010030193019B02A903A801F09F
:100D500031F9069BCBB901F01DF903461848A0FBF9
:100D600003239B0C013B1748174A026040F2E7320D
:100D7000C2604360002303618360836101F0E2FF8E
:100D8000054630B1284609B030BD01F003F94300F3
:100D9000E4E70C4801F06CFE05460028F2D136204D
:100DA00000F0AAFA0F2C01D90125EBE70022214619
:100DB000362000F069FA054B1C60E3E7003802407A
:100DC00083DE1B43D002002000100040680000209A
:100DD000FEE7FEE7FEE7FEE7FEE770477047704775
:100DE0007047000008B50120024B187000F0A8FD04
:100DF00008BD00BF3901002008B5034B00221A705E
:100E0000024800F0B5FB08BDAC0200208C010020B8
:100E100008B5044B01221A704FF4807000F090FD69
:100E200008BD00BF3801002008B5024801F068FE87
:100E300008BD00BFD002002008B5024800F0EDF860
:100E400008BD00BF64010020034AD2F8883043F493
:100E50007003C2F88830704700ED00E008B50B4B16
:100E60001A6842F400721A601A6842F480621A60CA
:100E70001A6842F480721A60032000F0F3F90F2020
:100E8000FFF754FFFFF71AFE002008BD003C0240A8
:100E9000034A1168034B1B780B441360704700BF73
:100EA0001803002064000020014B1868704700BF41
:100EB00018030020002800F0A18038B5044690F8FF
:100EC0002030D3B12268136843F001031360FFF7A9
:100ED000EBFF054623685A6812F0010F10D1FFF7A7
:100EE000E3FF401B0A28F5D9636A43F400336362C9
:100EF000052384F82030012038BDFFF7FBFDE1E732
:100F00001A6822F002021A60FFF7CEFF0546236836
:100F10005A6812F0020F0DD0FFF7C6FF401B0A28D7
:100F2000F5D9636A43F400336362052384F8203003
:100F30000120E1E7227E012A3DD01A6822F08002DA
:100F40001A60637E012B3BD02268136823F04003B4
:100F50001360A37E012B39D02268136823F020038D
:100F60001360E37E012B37D02268136843F010032F
:100F70001360237F012B35D02268136823F0080308
:100F80001360637F012B33D02268136823F00403BE
:100F90001360A368E2681343226913436269134331
:100FA0006268013A21681343CB610020606201232B
:100FB00084F82030A0E71A6842F080021A60C0E787
:100FC0002268136843F040031360C2E72268136885
:100FD00043F020031360C4E72268136823F0100372
:100FE0001360C6E72268136843F008031360C8E77C
:100FF0002268136843F004031360CAE701207047B6
:101000007047704770477047704770477047704728
:10101000704770477047704770472DE9F84F054695
:1010200003685C69D3F804809F68D3F80CB0D3F8E8
:1010300010A0D3F8189014F001063BD017F0010669
:1010400016D001229A6017F0020F08D117F0040F92
:101050000CD117F0080606D04FF4805608E0FFF7D1
:10106000CFFF002604E0FFF7CEFF01E04FF400665B
:1010700017F4807F0DD02B684FF480729A6017F4BC
:10108000007F40F0868017F4806F00F0868046F481
:10109000005617F4803F0DD02B684FF480329A60D1
:1010A00017F4003F40F0838017F4802F00F0838016
:1010B00046F4004614F0080F07D01BF0100F04D0C0
:1010C00046F400762B681022DA6014F0040F02D088
:1010D0001BF0080F79D114F0020F04D02B68DB68E5
:1010E00013F0030F78D114F0400F07D01AF0100F4F
:1010F00004D046F480662B6810221A6114F0200F89
:1011000002D01AF0080F6BD114F0100F04D02B6826
:101110001B6913F0030F6AD114F4003F02D018F0DA
:10112000100F68D114F4803F02D018F0080F69D175
:1011300014F4004F7AD018F0040F74D014F4807FA8
:1011400004D019F0010F01D046F0010614F4007F1D
:1011500004D019F0020F01D046F0020614F4806F9B
:1011600004D019F0040F01D046F0040614F4006F07
:1011700059D019F0700956D0B9F1400F65D058D840
:10118000B9F1200F5ED0B9F1300F42D146F0200600
:1011900044E02846FFF735FF7BE717F4006F02D0E5
:1011A00046F4804675E72846FFF72EFF71E728468C
:1011B000FFF728FF7EE717F4002F02D046F48036B1
:1011C00078E72846FFF721FF74E72B680822DA60EA
:1011D0002846FFF71CFF7EE72846FFF717FF82E748
:1011E0002B6808221A612846FFF713FF8CE7284670
:1011F000FFF70EFF90E72B6810225A602846FFF792
:1012000009FF8FE72B6808225A602846FFF703FF83
:101210008EE7B9F1100F01D146F008062A689369EC
:1012200023F0700393612B6804225A609EB9BDE8D5
:10123000F88FB9F1500F0BD0B9F1600FEED146F431
:101240008076EBE746F01006E8E746F04006E5E773
:1012500046F08006E2E76B6A1E436E622846FFF79F
:10126000DBFEE4E7074AD36823F4E0631B041B0CAE
:10127000000200F4E060034343F0BF6343F4003333
:10128000D360704700ED00E000B5194BDB68C3F395
:101290000223C3F1070CBCF1040F28BF4FF0040C6C
:1012A00003F1040EBEF1060F18D9033B4FF0FF3EC9
:1012B0000EFA0CFC21EA0C0199400EFA03F322EA23
:1012C0000303194300280BDB0901C9B200F1604098
:1012D00000F5614080F800135DF804FB0023E5E7AA
:1012E00000F00F000901C9B2024B1954F4E700BF26
:1012F00000ED00E014ED00E0002807DB00F01F0225
:10130000400901239340024A42F82030704700BF51
:1013100000E100E000280CDB00F01F02400901237F
:1013200093402030034A42F82030BFF34F8FBFF381
:101330006F8F704700E100E030B405682C6824F43A
:1013400080242C60046863608368402B05D00368A8
:1013500099600368DA6030BC704703689A6003687C
:10136000D960F8E710B40368D9B210390C4AA2FB6F
:10137000014212090B4CA25CC2655F2909D923F412
:101380007F7323F0030304338365806D5DF8044BA2
:10139000704723F47F7323F003038365F5E700BFF1
:1013A000ABAAAAAA006E0008836A826992B9012BCF
:1013B0000AD0022B02D00BB100207047C36A13F091
:1013C000807F28D100207047C36AB3F1C07F24D04A
:1013D00000207047B2F5005F09D0022B25D9032BFE
:1013E00025D1C36A13F0807F23D100207047032BDF
:1013F00003D8DFE803F01404140A00207047C36A1E
:1014000013F0807F0DD100207047C36AB3F1C07F15
:1014100009D000207047012070470120704701204B
:10142000704701207047012070470120704700205D
:10143000704701207047000070B50446FFF734FD87
:10144000002C5BD00546022384F83530002384F855
:1014500034302268136823F00103136023681A688C
:1014600012F0010F0AD0FFF71FFD431B052BF5D922
:1014700020236365032084F8350070BD1A68204876
:1014800010406168A2680A43E1680A4321690A437F
:1014900061690A43A1690A43E1690A43216A0A436F
:1014A0000243616A04291ED01A602668756925F016
:1014B0000705636A1D43042B07D1A36A1D43E36A32
:1014C0001BB12046FFF770FF90B975612046FFF70A
:1014D00049FFE26D3F239340836000206065012354
:1014E00084F83530C9E7E16A206B01430A43DBE742
:1014F00040236365012084F83500BEE70120BCE786
:101500003F8010F038B50446856D90F8340001280E
:101510002BD0012084F8340094F83500C0B20128A3
:1015200004D0002384F83430022038BD022084F82F
:101530003500002060652046FFF7FEFEE26D3F2388
:101540009340AB602268136843F016031360236C6A
:1015500023B12268136843F00803136022681368FC
:1015600043F0010313600020DFE70220DDE7000005
:10157000F0B583B0044600230193724B1D68724B93
:10158000A3FB0535AD0A876D3E68C26D0823934005
:10159000334210D003681A6812F0040F0BD01A6897
:1015A00022F004021A60C26D08239340BB60436DB1
:1015B00043F001034365E26D01239340334209D0B8
:1015C0002268526912F0800F04D0BB60636D43F053
:1015D00002036365E26D04239340334209D022681D
:1015E000126812F0020F04D0BB60636D43F0040375
:1015F0006365E26D10239340334224D02268126861
:1016000012F0080F1FD0BB6023681A6812F4802FF5
:101610000DD01B6813F4002F04D1236C9BB120461E
:10162000984710E0A36C73B1204698470BE01A6806
:1016300012F4807F03D11A6822F008021A60236C2A
:101640000BB120469847E26D20239340334255D09A
:101650002268126812F0100F50D0BB6094F8353039
:10166000DBB2052B0ED023681A6812F4802F33D01A
:101670001B6813F4002F2AD1636C002B3ED0204648
:1016800098473BE02268136823F016031360226832
:10169000536923F080035361236CA3B1226813685C
:1016A00023F008031360E26D3F239340BB600123E6
:1016B00084F83530002384F83430236D002B3FD07C
:1016C000204698473CE0A36C002BE7D1EBE7E36BA7
:1016D000A3B12046984711E01A6812F4807F09D11F
:1016E0001A6822F010021A60012384F835300023B2
:1016F00084F83430E36B0BB120469847636DFBB13F
:10170000636D13F0010F17D0052384F8353022687C
:10171000136823F001031360019B01330193AB4273
:1017200004D823681B6813F0010FF5D1012384F856
:101730003530002384F83430E36C0BB120469847F1
:1017400003B0F0BD60000020B5814E1B00230F2BBD
:1017500000F2E48070B582B060E085685E0003242A
:10176000B44025EA0405CC68B4402C438460456845
:1017700025EA02054C68C4F300129A402A434260ED
:101780005AE0DC08083450F8246003F007029500A2
:101790000F22AA4026EA020E0A69AA4042EA0E0275
:1017A00040F824205CE0072200E0002202FA0EF25A
:1017B0002A4302345A4D45F824205A4A94686FEA65
:1017C0000C0224EA0C054E6816F4801F01D04CEA86
:1017D0000405544CA560E46802EA04054E6816F45A
:1017E000001F01D04CEA04054E4CE560646802EA33
:1017F00004054E6816F4003F01D04CEA0405494C3C
:101800006560246822404D6815F4803F01D04CEAA1
:101810000402444C226001330F2B7DD801229A40F0
:101820000C6804EA020C32EA0404F4D14C6804F0B7
:101830000304013C012C90D94A6802F00302032AF8
:1018400009D0C4685D000322AA4024EA02048A6821
:10185000AA402243C2604A6802F00302022A90D0E2
:1018600004684FEA430E032202FA0EF224EA02044D
:101870004A6802F0030202FA0EF2224302604A684A
:1018800012F4403FC7D000220192274A546C44F41E
:1018900080445464526C02F480420192019A9C0884
:1018A000A51C1F4A52F8255003F003024FEA820E8E
:1018B0000F2202FA0EF225EA02051C4A90423FF47A
:1018C00074AF02F5806290421AD002F580629042B5
:1018D00018D002F58062904216D002F580629042E4
:1018E00014D002F58062904212D002F580629042DC
:1018F00010D002F5806290423FF455AF082255E7C0
:10190000012253E7022251E703224FE704224DE769
:1019100005224BE7062249E702B070BD704700BFC1
:1019200000380140003C0140003802400000024005
:101930000AB18161704709048161704770470000F6
:1019400008B5054B5B69034200D108BD024B5861E5
:10195000FFF7F4FFF9E700BF003C0140002800F06A
:10196000E08170B582B00446036813F0010F3BD0EC
:101970009F4B9B6803F00C03042B2CD09C4B9B6863
:1019800003F00C03082B21D06368B3F5803F4FD0E0
:10199000B3F5A02F52D0964B1A6822F480321A6009
:1019A0001A6822F480221A606368002B50D0FFF777
:1019B0007BFA05468E4B1B6813F4003F14D1FFF7EA
:1019C00073FA401B6428F5D90320B1E1884B5B68AA
:1019D00013F4800FD8D0864B1B6813F4003F03D05C
:1019E0006368002B00F09F81236813F0020F54D02E
:1019F0007F4B9B6813F00C0F3ED07D4B9B6803F030
:101A00000C03082B33D0E368002B68D0794B0122FC
:101A10001A60FFF749FA0546754B1B6813F0020F71
:101A200054D1FFF741FA401B0228F5D903207FE18A
:101A30006F4A136843F480331360B5E76C4B1A6840
:101A400042F480221A601A6842F480321A60ABE7CE
:101A5000FFF72AFA0546664B1B6813F4003FC3D014
:101A6000FFF722FA401B6428F5D9032060E1604BA0
:101A70005B6813F4800FC6D15D4B1B6813F0020F37
:101A800003D0E368012B40F05081594A136823F0DA
:101A9000F803216943EAC1031360236813F0080FB8
:101AA00042D063696BB3534B0122C3F8802EFFF71A
:101AB000FBF905464E4B5B6F13F0020F34D1FFF775
:101AC000F3F9401B0228F5D9032031E1484A136895
:101AD00023F0F803216943EAC1031360DDE7454BB6
:101AE00000221A60FFF7E0F90546414B1B6813F02E
:101AF000020FD2D0FFF7D8F9401B0228F5D90320F6
:101B000016E13C4B0022C3F8802EFFF7CDF90546C5
:101B1000374B5B6F13F0020F06D0FFF7C5F9401B80
:101B20000228F5D9032003E1236813F0040F77D0CE
:101B30002F4B1B6C13F0805F33D1002301932C4B90
:101B40001A6C42F080521A641B6C03F080530193AC
:101B5000019B0125284B1B6813F4807F23D0A368C9
:101B6000012B34D0052B38D0214B1A6F22F0010203
:101B70001A671A6F22F004021A67A368002B3DD07F
:101B8000FFF792F906461A4B1B6F13F0020F46D16E
:101B9000FFF78AF9801B41F288339842F3D903207A
:101BA000C6E00025D6E7144A136843F48073136037
:101BB000FFF77AF90646104B1B6813F4807FCED1ED
:101BC000FFF772F9801B0228F5D90320B0E0084A1C
:101BD000136F43F001031367CFE7054B1A6F42F011
:101BE00004021A671A6F42F001021A67C5E700BFC4
:101BF000003802400000474200700040FFF754F9EF
:101C00000646524B1B6F13F0020F08D0FFF74CF93A
:101C1000801B41F288339842F3D9032088E0EDB964
:101C2000A369002B00F08380484A926802F00C02FE
:101C3000082A51D0022B17D0454B00221A66FFF715
:101C400033F90446414B1B6813F0007F42D0FFF785
:101C50002BF9001B0228F5D9032069E03B4A136CDD
:101C600023F080531364DBE7394B00221A66FFF739
:101C70001BF90546354B1B6813F0007F06D0FFF7B4
:101C800013F9401B0228F5D9032051E0E369226AC9
:101C90001343626A43EA8213A26A5208013A43EA92
:101CA0000243E26A43EA0263284A5360284B012256
:101CB0001A66FFF7F9F80446244B1B6813F0007FFF
:101CC00006D1FFF7F1F8001B0228F5D903202FE019
:101CD00000202DE000202BE0012B2BD01B4B5B685C
:101CE00003F48001E269914226D103F03F02216AA8
:101CF0008A4223D1616A47F6C0721A40B2EB811F53
:101D00001ED103F44031A26A5208013AB1EB024FEE
:101D100018D103F07063E26AB3EB026F14D10020B4
:101D200006E001207047012002E0012000E00020D1
:101D300002B070BD0120FBE70120F9E70120F7E7C1
:101D40000120F5E70120F3E70120F1E70038024028
:101D50000000474208B5314B9B6803F00C03042B8D
:101D600057D0082B57D12D4B5A6802F03F025B68C1
:101D700013F4800F2AD0294B5968C1F3881C4FEA0D
:101D80004C11B1EB0C006EEB0E0E4FEA8E1343EAD2
:101D900090638101091A63EB0E03DB0043EA517380
:101DA000C90011EB0C0C43F10003590200234FEA68
:101DB0004C2041EADC51FEF75BFA184B5B68C3F339
:101DC000014301335B00B0FBF3F025E0134B59688E
:101DD000C1F3881C4FEA4C11B1EB0C006EEB0E0EF8
:101DE0004FEA8E1343EA90638101091A63EB0E03F5
:101DF000DB0043EA5173C90011EB0C0C43F1000303
:101E0000990200234FEA8C2041EA9C51FEF730FAF8
:101E1000D3E7034800E0034808BD00BF0038024094
:101E200000127A000024F400002800F09B8070B5B6
:101E30000D4604464F4B1B6803F007038B4208D244
:101E4000CBB24C4A1370136803F007038B4240F087
:101E50008B80236813F0020F17D013F0040F04D007
:101E6000454A936843F4E0539360236813F0080FE6
:101E700004D0414A936843F4604393603E4A9368B8
:101E800023F0F003A1680B439360236813F0010F64
:101E900032D06368012B21D09A1E012A25D9364AF7
:101EA000126812F0020F61D033498A6822F00302EF
:101EB00013438B60FEF7F8FF06462F4B9B6803F039
:101EC0000C036268B3EB820F16D0FEF7EDFF801BA8
:101ED00041F288339842F0D9032042E0264A126842
:101EE00012F4003FE0D101203BE0234A126812F0D7
:101EF000007FD9D1012034E01E4B1B6803F007039B
:101F0000AB4207D9EAB21B4B1A701B6803F00703F8
:101F1000AB422DD1236813F0040F06D0164A936804
:101F200023F4E053E1680B439360236813F0080F38
:101F300007D0114A936823F46043216943EAC1033F
:101F40009360FFF707FF0C4B9B68C3F303130B4A27
:101F5000D35CD8400A4B18600A4B1868FEF7E6FEBF
:101F6000002070BD012070470120FAE70120F8E74A
:101F70000120F6E7003C024000380240E86D00080E
:101F80006000002068000020014B1868704700BF07
:101F90006000002008B5FFF7F7FF044B9B68C3F310
:101FA0008223034AD35CD84008BD00BF00380240FA
:101FB000F86D00080F2303600B4B9A6802F00302D0
:101FC00042609A6802F0F00282609A6802F4E0527D
:101FD000C2609B68DB0803F4E0530361034B1B689A
:101FE00003F007030B60704700380240003C0240DA
:101FF0002DE9F04782B00546884617461E46FEF793
:1020000053FF0A9B1B1A03EB0609FEF74DFF82469E
:102010002B4B1B68C3F3CB3309FB03F301932B68F2
:102020009C6838EA04030CBF4FF0010C4FF0000C21
:10203000BC4540D0B6F1FF3FF1D0FEF735FFA0EB35
:102040000A0048450AD2B9F1000F07D0019A02B13F
:102050004A46019B013B01939146E0E72A68536899
:1020600023F0E00353606B68B3F5827F0BD0AB6A5B
:10207000B3F5005F14D0012385F85130002385F8B3
:102080005030032018E0AB68B3F5004F02D0B3F531
:10209000806FECD12A68136823F040031360E6E7F1
:1020A0002A68136823F4005313602A68136843F402
:1020B00000531360DFE7002002B0BDE8F08700BFE7
:1020C0006000002010B584B00446164B1868164B0B
:1020D000A3FB0030400D4FF47A7303FB00F0039034
:1020E0006368B3F5827F0BD0039BBBB1039B013BBD
:1020F000039323689B6813F0800FF5D100200EE056
:1021000000920B46002280212046FFF771FF30B17C
:10211000636D43F020036365032000E0002004B0FA
:1021200010BD00BF60000020819F5E1610B582B018
:1021300004460B464168B1F5827F14D06168B1F561
:10214000827F2AD1A168B1F5806F19D00092002258
:1021500080212046FFF74CFF30B3636D43F020032E
:102160006365032020E08168B1F5004F02D0B1F52E
:10217000806FE3D12068016821F040010160DDE754
:102180000092002201212046FFF732FF60B1636D0B
:1021900043F020036365032006E000920022012142
:1021A0002046FFF725FF08B902B010BD636D43F06C
:1021B000200363650320F7E7002860D010B50446CC
:1021C000436A33B94368B3F5827F05D00023C36106
:1021D00002E000230361436194F85130002B44D0A6
:1021E000022384F851302268136823F040031360FF
:1021F000636803F48273A26802F404421343E26842
:1022000002F400621343226902F00202134362697E
:1022100002F001021343A26902F400721343E2695F
:1022200002F038021343226A02F080021343A26ACA
:1022300002F40052216813430B60638B03F0040324
:10224000626A02F01002216813434B60A36AB3F57F
:10225000005F10D02268D36923F40063D3610020AB
:102260006065012384F8513010BD84F85030204659
:10227000FEF7CAFCB4E72368A28D1A61EAE70120E1
:1022800070472DE9F04383B01D4690F85030012B84
:1022900000F0EA80044688469146012380F85030D9
:1022A000FEF702FE074694F85160F6B2012E40F0A8
:1022B000C880B8F1000F00F0C580B9F1000F00F040
:1022C000C180032384F8513000236365C4F8308053
:1022D000A4F83490A4F83690A363A387E3876364DB
:1022E0002364A368B3F5004F22D0A36AB3F5005F5F
:1022F00029D023681A6812F0400F03D11A6842F0FF
:1023000040021A60E368B3F5006F27D0636813B129
:10231000B9F1010F5DD1226B236812781A73236B18
:1023200001332363E38E9BB2013B9BB2E38650E013
:102330002268136823F0400313602268136843F493
:1023400080431360D1E72268136823F400531360BD
:102350002268136843F400531360CAE7636813B13B
:10236000B9F1010F16D1226B23681288DA60236B52
:1023700002332363E38E9BB2013B9BB2E38609E009
:10238000FEF792FDC01BA84202D3B5F1FF3F63D117
:10239000002D63D0E38E9BB2002B33D023689A6864
:1023A00012F0020FECD0226B1288DA60236B02333A
:1023B0002363E38E9BB2013B9BB2E386EAE7FEF721
:1023C00073FDC01BA84202D3B5F1FF3F48D1002DD9
:1023D00048D0E38E9BB2ABB123689A6812F0020F2B
:1023E000EDD0226B12781A73236B01332363B4F898
:1023F00036C01FFA8CFC0CF1FF3C1FFA8CFCA4F8D1
:1024000036C0E6E7A36AB3F5005F14D03A46294622
:102410002046FFF757FE08B120236365A36833B950
:1024200001932368DA6801929B680193019B636DB5
:1024300043B9002606E02268136843F48053136012
:10244000E4E70226012384F85130002384F8503059
:10245000304603B0BDE8F0830326F3E70326F1E737
:102460000326EFE70326EDE70226F1E72DE9F04327
:1024700085B01F460C9D0023039390F85030012B2C
:1024800000F06681044688469146012380F850306A
:10249000FEF70AFD064694F85130DBB26268012B64
:1024A0000AD0B2F5827F40F03881A268002A40F05D
:1024B0003F81042B40F03E81B8F1000F00F03C81D9
:1024C000B9F1000F00F03A81002F00F0398194F843
:1024D0005130DBB2042B02D0052384F851300023A5
:1024E0006365C4F83890E787A787C4F83080E7862B
:1024F000A78623646364A36AB3F5005F1ED02368D4
:102500001A6812F0400F03D11A6842F040021A60B4
:10251000E368B3F5006F1CD063680BB1012F0BD1DA
:10252000226B236812781A73236B01332363E38EC3
:102530009BB2013B9BB2E38601278EE022681368C1
:1025400023F4005313602268136843F400531360AC
:10255000D5E763680BB1012F0BD1226B236812887A
:10256000DA60236B02332363E38E9BB2013B9BB2A1
:10257000E386012724E02268136843F48053136044
:10258000002700E0002723689A6812F0010F0ED0A0
:10259000E28F92B25AB1DA68A36B1A80A36B02334E
:1025A000A363E38F9BB2013B9BB2E3870127FEF756
:1025B0007BFC801BA84203D3B5F1FF3F40F0C280F3
:1025C000E38E9BB21BB9E38F9BB2002B6BD02368C9
:1025D0009A6812F0020FD6D0E28E92B2002AD2D0C0
:1025E000002FD0D0226B1288DA60236B0233236372
:1025F000E38E9BB2013B9BB2E386E38E9BB2002B42
:10260000C0D1A36AB3F5005FB5D00027BBE722684D
:10261000136843F480531360002700E00027236809
:102620009A6812F0010F0ED0E28F92B25AB1DA68B6
:10263000A36B1A70A36B0133A363E38F9BB2013BBF
:102640009BB2E3870127FEF72FFC831BAB4202D32B
:10265000B5F1FF3F78D1002D78D0E38E9BB213B94E
:10266000E38F9BB2FBB123689A6812F0020FD6D0B9
:10267000E28E92B2002AD2D0002FD0D0226B1278F4
:102680001A73236B01332363E38E9BB2013B9BB22E
:10269000E386E38E9BB2002BC0D1A36AB3F5005F43
:1026A000B5D00027BBE7A36AB3F5005F0DD0236860
:1026B0009A6812F0100F1BD0626D42F00202626540
:1026C0004FF6EF729A60012713E000962B46012225
:1026D00011462046FFF78CFC20B92368DB68039382
:1026E000039BE4E7636D43F002036365032715E092
:1026F0000027324629462046FFF7E4FC48B9A36884
:1027000063B902932368DA6802929B680293029B82
:1027100004E020236365012700E00227012384F8F9
:102720005130002384F85030384605B0BDE8F083BE
:102730000227F3E70227F1E70127EFE70127EDE79B
:102740000127EBE70327E9E70327E7E70327E5E7A7
:102750000227E9E738B5044690F85000012800F058
:10276000A980012084F8500094F85100C0B2656837
:1027700001280AD0B5F5827F40F08D80A568002D34
:1027800040F08E80042840F08D80002900F08C807D
:10279000002A00F08B80002B00F08A8094F8510012
:1027A000C0B2042802D0052084F8510000206065E2
:1027B0002163A386E386A263A387E3872064606422
:1027C000A36AB3F5005F21D094F85130DBB2042B3B
:1027D00027D0E36C384A1A64E36C384ADA63E36C56
:1027E000374ADA64E36C00221A652168E38F9BB2F2
:1027F000A26B0C31E06CFEF785FEC8B1636D43F04F
:1028000010036365012084F8510045E022681368D5
:1028100023F4005313602268136843F400531360D9
:10282000D2E7E36C274A1A64E36C274ADA63D6E7F7
:102830002268536843F001035360A26C00231364C1
:10284000A26CD363A26CD364A26C13652268E38E7E
:102850009BB20C32216BA06CFEF754FE98B9236832
:102860001A6812F0400F03D11A6842F040021A6051
:102870002268536843F0200353602268536843F092
:102880000203536008E0636D43F0100363650120A9
:1028900084F8510000E00220002384F8503038BD55
:1028A0000220F9E70220F7E70120F5E70120F3E72E
:1028B0000120F1E70220F2E7DF280008C72900081D
:1028C000EB280008D32800080D290008704770473E
:1028D000704708B5806BFFF7FBFF08BD704708B570
:1028E000806BFFF7FBFF08BD704708B5806B02687F
:1028F000536823F003035360436D43F010034365B3
:10290000012380F85130FFF7EFFF08BD70B584B0A8
:102910000546846B00230393FEF7C6FA2B681B68F9
:1029200013F4807F2FD106462268536823F02003DA
:102930005360A36AB3F5005F2AD0A3681BB963682C
:10294000B3F5827F35D02268536823F001035360CA
:10295000324664212046FFF7E9FB08B12023636576
:102960000023E387012384F8513023689A6812F02A
:10297000100F06D0626D42F0020262654FF6EF72F0
:102980009A60636DDBB92046FFF7A0FF04B070BD0D
:1029900000906423012211462046FFF729FB18B15D
:1029A000636D43F0020363652368DB680393039B55
:1029B000C3E72268536823F003035360C8E7204647
:1029C000FFF792FFE2E770B584B00546846B002301
:1029D0000393FEF769FA2B681B6813F4807F2CD1F0
:1029E000064621684B6823F020034B60A36AB3F5C9
:1029F000005F27D0324664212046FFF763FB18B101
:102A0000636D43F0200363652268536823F003037A
:102A100053600023E386E387012384F85130236861
:102A20009A6812F0100F06D0626D42F002026265E1
:102A30004FF6EF729A60636DABB92046FFF747FF20
:102A400004B070BD00906423012211462046FFF7B8
:102A5000CFFA18B1636D43F0020363652368DB6846
:102A60000393039BC6E72046FFF73EFFE8E7704766
:102A700090F83D30DBB2012B37D1022380F83D3096
:102A80000268D36843F00103D3600368194A934294
:102A900020D0B3F1804F1DD0A2F57C42934219D0D3
:102AA00002F58062934215D002F58062934211D004
:102AB00002F5784293420DD002F57052934209D04C
:102AC000A2F59432934205D01A6842F001021A60CE
:102AD000002070479A6802F00702062A07D01A6899
:102AE00042F001021A600020704701207047002068
:102AF000704700BF00000140704770477047704743
:102B000010B5044603681A6912F0020F11D0DA6892
:102B100012F0020F0DD06FF002021A610123037749
:102B200003689B6913F0030F70D0FFF7E6FF0023E3
:102B3000237723681A6912F0040F12D0DA6812F0B2
:102B4000040F0ED06FF004021A610223237723686A
:102B50009B6913F4407F5FD02046FFF7CEFF002330
:102B6000237723681A6912F0080F12D0DA6812F07E
:102B7000080F0ED06FF008021A6104232377236830
:102B8000DB6913F0030F4ED02046FFF7B6FF00239A
:102B9000237723681A6912F0100F12D0DA6812F046
:102BA000100F0ED06FF010021A61082323772368EC
:102BB000DB6913F4407F3DD02046FFF79EFF0023E2
:102BC000237723681A6912F0010F03D0DA6812F034
:102BD000010F36D123681A6912F0800F03D0DA682A
:102BE00012F0800F34D123681A6912F0400F03D01D
:102BF000DA6812F0400F32D123681A6912F0200F00
:102C000003D0DA6812F0200F30D110BDFFF774FF47
:102C10002046FFF773FF8AE72046FFF76DFF204647
:102C2000FFF76CFF9BE72046FFF766FF2046FFF7A4
:102C300065FFACE72046FFF75FFF2046FFF75EFF2A
:102C4000BDE76FF001021A612046FDF7A3FDC1E761
:102C50006FF080021A61204600F0A1F8C3E76FF020
:102C600040021A612046FFF74AFFC5E76FF02002D5
:102C70001A61204600F092F8C7E700000368304A66
:102C8000904212D0B0F1804F0FD0A2F57C4290421A
:102C90000BD002F58062904207D002F5806290422C
:102CA00003D002F57842904203D123F070034A68C2
:102CB0001343234A90422AD0B0F1804F27D0A2F587
:102CC0007C42904223D002F5806290421FD002F5F0
:102CD000806290421BD002F57842904217D002F5F4
:102CE0007052904213D002F5806290420FD002F5EC
:102CF000806290420BD0A2F59832904207D002F544
:102D00008062904203D002F58062904203D123F4A6
:102D10004073CA68134323F080034A691343036076
:102D20008B68C3620B688362054B984203D003F53E
:102D30008063984201D10B690363012343617047AB
:102D40000000014040B310B5044690F83D30F3B1A7
:102D5000022384F83D30214651F8040BFFF78EFF23
:102D6000012384F8463084F83E3084F83F3084F8FC
:102D7000403084F8413084F8423084F8433084F89D
:102D8000443084F8453084F83D30002010BD80F890
:102D90003C30FFF76CFEDBE701207047704770475F
:102DA00010B582B043098DF8043041EAC0008DF8B7
:102DB0000500084C022301AA2146074890F90000AB
:102DC00002F04CFF214651F8E4399BB2C1F8E430DF
:102DD00002B010BD800400206C000020802A00D9C1
:102DE0007047F8B506460D4614460C4F97F900009B
:102DF00002F016FF02213046FFF7D2FFC4F1800235
:102E0000E3B207490A44294697F9000002F026FF79
:102E100097F9000002F00EFFF8BD00BF6C00002023
:102E20001C030020F8B507460D461646094C94F9D8
:102E3000000002F0F5FE04213846FFF7B1FFF2B2C0
:102E4000294694F9000002F0FFFE94F9000002F018
:102E5000F1FEF8BD6C00002008B502F0CBFE02F0D8
:102E6000D3FE02F0DBFE044B01221A60034BFF226B
:102E700083F87F2008BD00BF6C0000201C030020E9
:102E800010B5044602F0ACFE14F0040F05D100F0BA
:102E900094FA204300F084FA10BD02F097FE24F06B
:102EA0000404F4E710B5044602F09FFE14F0040F8A
:102EB00006D1E44300F081FA204000F071FA10BD21
:102EC00002F089FE24F00404F3E7000010B584B09A
:102ED00000238DF80F3001220DF10F0140F2411057
:102EE000FFF77CFF9DF80F3013F0040F02D1002094
:102EF00004B010BD00230293042202A94FF41A600B
:102F0000FFF76CFF01220DF10F014FF41860FFF77E
:102F100065FF9DF80F30012B01D00298E8E71E4CA9
:102F2000042221464FF41160FFF758FF214651F863
:102F3000E039C1F8E030D1F8E020184B1344019398
:102F400004220DEB02014FF41960FFF76BFF012221
:102F50000DF10F0140F68110FFF740FF9DF80F3093
:102F600043F003038DF80F3001220DF10F0140F6FD
:102F70008110FFF757FF00238DF80F3006E0012284
:102F80000DF10F0140F68110FFF728FF9DF80F307B
:102F900013F0030FF3D0C0E77C040020B8BF230078
:102FA0002DE9F04383B004460D4616461F46BDF892
:102FB0002880A0F5B05189B2B1F5007F0DD3A0F5FE
:102FC000D0539BB2B3F5007F07D341F6124398422A
:102FD00003D041F61343984202D1B5EBD83F0FD846
:102FE0000C4BD3F83C90B9F1000F10D0CDF8008015
:102FF0003B46324629462046C84703B0BDE8F08329
:10300000204602F0CFFD0028EAD00348F5E7002073
:10301000F3E700BF9C0300200300010608B5034B43
:103020001B6C0BB1984708BD0020FCE79C030020F7
:1030300030B583B0054C646C2CB1BDF818500095C8
:10304000A04703B030BD0020FBE700BF9C03002079
:1030500008B5034B9B6C0BB1984708BD0020FCE7FB
:103060009C03002008B5024B9B6B03B1984708BD39
:103070009C03002038B50A4B1B6D0BB1984738BD37
:10308000074D084C084AD5F8B010204602F016FD4E
:10309000B5F87A2021464FF4D050FFF7C3FEEEE793
:1030A0009C030020C0120020A410002038B50A4B59
:1030B000DB6C0BB1984738BD074D084CB5F878204C
:1030C00021464FF4B050FFF789FE054AD5F8AC1001
:1030D000204602F02FFDEEE79C030020C0100020E8
:1030E0008C100020BFF35B8F024BC3F8DC00BFF3F2
:1030F0005B8F70479C03002010B5044610F0040F4E
:103100000DD114F0020F4ED114F0080F03D0434B31
:103110005B6B03B1984714F0010F71D110BDBFF381
:103120005B8F3F4B1B68BFF35B8F002B0BDD3C4B72
:10313000BFF35B8F53E8002F013A43E800210029D9
:10314000F8D1BFF35B8FBFF35B8F354B1B68BFF3C9
:103150005B8F002B13DDBFF35B8F304B93F8E930AF
:10316000BFF35B8F13F0020FCBD12C4BD3F8DC20D5
:10317000BFF35B8F2A4B1A60BFF35B8FC1E7BFF3CE
:103180005B8F264B93F8E930BFF35B8F13F0020F90
:10319000E1D0224BB3F87830002BDCD01B21142077
:1031A00000F0B8FDADE7BFF35B8F1C4B93F8E9303F
:1031B000BFF35B8F13F0020F05D0184BD3F8E43048
:1031C00013F4806F0ED1154BD3F8E43013F4806FF5
:1031D0009AD0124BB3F8782012494FF4B050FFF751
:1031E000FDFD91E7FFF762FF0C4BD3F8DC20BFF346
:1031F0005B8F0B4B1A60BFF35B8FFDF7F5F983E72D
:10320000BFF35B8F054B93F8E930BFF35B8F002B67
:1032100084D0FDF7DBF9FFF72DFF7FE79C0300204B
:10322000C0140020C010002010B50E4C042204F180
:10323000E0014FF41160FFF7D1FDD4F8E030C4F89D
:10324000E03000F02FFE00F0A3FD00F02DFB20B9D0
:10325000044BDB6D03B1984710BD02F051FB00F049
:1032600009FCF5E79C03002010B504468268114B69
:103270001A6000F0F1FF2046FFF7EEFD05E00222A4
:103280000D494FF48870FFF7A9FD0C4BB3F8863059
:1032900013F0010FF3D0012000F06EF8002000F0D1
:1032A00037F800F0DBF900F0E5FC00F01DFD02F05E
:1032B000CFFB10BDC0140020220400209C0300207E
:1032C00010F0200F1FD0C3B200F00F0003281CD055
:1032D00013F00C0F06D00B78042B03D0082B01D071
:1032E0000020704700B583B002220DF106014FF4B3
:1032F0009A70FFF773FDBDF80600B0FA80F0400940
:1033000003B05DF804FB0020704700207047000008
:1033100000B583B0074BA3F88400ADF80600022285
:103320000DF106014FF49A70FFF77CFD03B05DF8D4
:1033300004FB00BF9C03002000B583B00D4B5B6E07
:103340006BB10DF10600984710B10023ADF80630BF
:10335000BDF8060050B9002003B05DF804FB02225E
:103360000DF106011220FFF739FDF1E7FFF7D0FF5D
:103370002020F1E79C03002000B583B0074BA3F8A1
:103380008000ADF8060002220DF106014FF498709E
:10339000FFF748FD03B05DF804FB00BF9C0300206D
:1033A00000B583B0019004220DEB02014FF40170CF
:1033B000FFF738FD03B05DF804FB00B583B00422CD
:1033C0000DEB02014FF40170FFF708FD019803B007
:1033D0005DF804FB00B583B0C00001220DF10701C8
:1033E00000F60600FFF7FAFC03B05DF804FB0000EE
:1033F00008B500F11703054901EBC301C000012224
:10340000093100F60500FFF7E9FC08BD9C03002028
:1034100008B500F11703054901EBC301C000012203
:103420000B3100F60700FFF7FDFC08BD9C030020F0
:1034300008B500F11702054B03EBC203DA7A22F05C
:103440000102DA72FFF7E4FF08BD00BF9C03002011
:1034500008B500F11702054B03EBC203DA7A42F01C
:103460000102DA72FFF7D4FF08BD00BF9C03002001
:1034700008B5022202491020FFF7B0FC08BD00BFCA
:103480002404002000B583B001220DF1070140F6AD
:103490008110FFF7A3FC9DF8070003B05DF804FB63
:1034A00008B5FFF7EFFF10F0090F04D0064B1B6EB5
:1034B00043B1984705E0044B002083F87C0083F873
:1034C000E80008BD3020FCE79C03002038B5054625
:1034D0002B4C082221464FF40060FFF77FFC0822A6
:1034E000A11840F60800FFF779FC34F8BC19236FE7
:1034F0001A8891422CD1234AB2F8BE105A889142C0
:1035000026D1204A92F8C0209B799A4220D11D4BA7
:1035100093F8C23013F0010F1AD01A4BB3F8C4104D
:103520005B6F1A8891421FD1164AB2F8C6105A88AA
:10353000914219D1134A92F8C8209B799A4213D12B
:10354000104B93F8CA3013F0010F0DD028460AE053
:1035500001240C4B83F8B4400020FFF779FF20468C
:10356000FFF776FF112038BD064B022283F8B42006
:103570000020FFF76DFF0120FFF76AFF1120F2E73F
:10358000580400209C03002010B50446174B4FF44C
:103590000072DA661A1D1A6703F10C025A670020DE
:1035A000FFF746FF0120FFF743FF0020FFF720FF52
:1035B0000120FFF71DFF2046FFF788FF044610F0AB
:1035C000100F0BD1094B93F8CA20C2F3400283F8C5
:1035D000AA20012283F86820204610BD1620FFF79C
:1035E00097FE024B002283F86820F5E79C03002039
:1035F00010B50446184B4FF40072DA6603F114025A
:103600001A6703F11C025A670020FFF711FF01201F
:10361000FFF70EFF0020FFF7EBFE0120FFF7E8FEAB
:103620002046FFF753FF044610F0100F0BD10A4B52
:1036300093F8CA20C2F3400283F8AA20012283F83B
:103640006820204610BD1520FFF762FE024B0022C5
:1036500083F86820F5E700BF9C03002010B5002424
:10366000174B83F868402046FFF7F2FE0120FFF772
:10367000EFFE204604E0134B00221A540130C0B282
:103680000228F8D90E4B002283F88C2083F88D2075
:1036900083F88E20012183F8901083F8AA2083F804
:1036A0008B2083F89120C3F89C20C3F8A02083F8D6
:1036B0008F20A3F8A42083F8A620A3F8A82010BD8B
:1036C0009C0300208810002030B583B0174C236F76
:1036D000174D062229461888FFF780FB2B8898B2E1
:1036E000ADF80630226F5388991F884201D9ADF892
:1036F000061010880630BDF806200E4980B2FFF78C
:103700006DFBBDF806300633084A106F42889342BD
:1037100004D3094B01221A7003B030BD01220DF110
:1037200006018088FFF75AFBF3E700BF9C030020E7
:10373000880A00208E0A00208810002010B582B070
:10374000134AD36E03FB00F0124BC11800248DF80E
:1037500007401B5A506F4288941FA34200D9A3B25E
:103760009C1DA2B20088FFF75DFB094B5B6F5A8876
:10377000944205D3064B002283F8902002B010BD7E
:1037800001220DF107019888FFF74CFBF2E700BF1B
:103790009C030020880A002010B582B000238DF819
:1037A0000730064C636F01220DF107011888FFF7FF
:1037B00039FB012384F8903002B010BD9C03002037
:1037C000022001E00138C0B218B11A4B1B5C002B7B
:1037D000F8D168B3174B02221A541749CA6E174B17
:1037E00002FB003391F88A200132D2B281F88A209C
:1037F00002F0070281F88A201AB90A46012182F8EC
:103800008A1000229A70DA70197962F30501197131
:10381000C9B262F387111971074A92F88AC05979BF
:103820006CF30711597192F88F30013382F88F30A1
:10383000704700BF881000209C030020880A0020E9
:10384000022001E00138C0B218B1024B1B5C032B0F
:10385000F8D170478810002010B50446FFF7B0FF7C
:10386000D0B101460D4BDA6E00FB02F20C48131882
:103870004FF0000C4FF0040E02F800E083F801C096
:103880005A796CF303025A7101229A7183F807C0C6
:103890001C81044B03225A5410BD00BF9C0300201E
:1038A000880A0020881000206F4B93F868000028D9
:1038B00000F0D88010B5D3F8E43013F4407F2FD156
:1038C000694B93F88C1021B1D3F8E43013F4007FE6
:1038D0002DD1654A92F8CA30C3F3400392F8AA206A
:1038E000934259D0604BB3F88C30BBB1002942D120
:1038F0005D4B93F88D00FFF721FF5B4B93F8CA20D7
:10390000C2F340010A4683F8AA1093F8CB1062F381
:10391000410183F8CB100120FFF77AFD002010BD94
:103920000020FFF765FD0120FFF762FDC8E7FFF704
:1039300033FF4D4B93F88D3013B14C4A0021D154D5
:10394000494B93F88C00494B1B5C062B10D0464B1F
:1039500093F88C2045490520885483F88D20002257
:1039600083F88C2093F88E000028D8D00120D6E769
:10397000FFF7E4FEEBE70120FFF76AFD3A4C94F80D
:103980008C303A4A0621D1540120FFF751FD94F8BA
:103990008D00FFF7D3FEB0E7334B93F88F3073B150
:1039A000314B93F890302BB92F4B93F8C93013F06B
:1039B000080F04D1FFF744FF0446002831D12A4BF9
:1039C00093F8C10010F00800A9D0284B18780028FF
:1039D00046D1254BD3F88C3013F0FF1F9FD1FFF752
:1039E00073FE214B93F8C1206FF3C30283F8C1200B
:1039F0001F4B1B884BB31E4B5B7913F0F00F07D0A6
:103A00001B4B5A79184B93F88B30B3EB121F23D012
:103A1000174B5B79C3F30313134A82F88B300120F1
:103A20007DE7FFF78BFE0120FFF7E2FC0F4B04223E
:103A30001A550D4B83F88C4093F88F30002BBED075
:103A4000013B094A82F88F30B9E70520FFF704FFF0
:103A5000064B00221A70CEE7044B00221A70D7E7FB
:103A600000205CE7704700BF9C0300208810002006
:103A7000880A002008B5104B93F868303BB10E4B14
:103A800093F88E301BB90D4B1B78012B00D008BD6D
:103A90000B4B5B7913F00F0F02D0094B1B8833B926
:103AA0000520FFF7D9FE054B00221A70EFE7022030
:103AB000FFF7D2FEF7E700BF9C030020881000202C
:103AC000880A002038B50546384C082221464FF4B4
:103AD0000160FFF783F92388B3F5B05F39D1A4F112
:103AE000CC0393F8D030242B33D1314AB2F8CE3006
:103AF000B2F87820934232D12D4991F8D21011F0CA
:103B0000010F00D18ABB03EB4303B3F5806F32DCB6
:103B1000284C0822214640F61800FFF75FF9238859
:103B2000B3F5D05F2DD1A4F1D40393F8D830202B76
:103B300027D11F4BB3F8D620B3F87A309A4226D15A
:103B40001B4A92F8DA2012F0010F2CD12BBB284629
:103B500004E0174B042283F8B420122038BD144B24
:103B6000042283F8B4201220F8E7114B042283F8D2
:103B7000B4201220F2E70E4B042283F8B420122066
:103B8000ECE70B4B082283F8B4201220E6E7084B41
:103B9000082283F8B4201220E0E7054B082283F8BE
:103BA000B4201220DAE72846D8E700BF68040020D6
:103BB0009C0300207004002010B5FFF783FF04462B
:103BC000122815D0294BB3F87A306BB9BFF35B8F4D
:103BD000274B01221A70BFF35B8F244B1B680BB17C
:103BE000122C19D1204610BD0320FFF721FCEDE770
:103BF0000220FFF72DFC0320FFF72AFC1B4B93F854
:103C0000B43013F0080F03D01E20FFF781FBE4E768
:103C10001D20FFF77DFBE0E7FFF742FC88B9134B5F
:103C20005B6D002BDED0114AB2F87820D2B94FF488
:103C300000600E4A92F87C200AB140F004009847D8
:103C4000D0E7FFF765FB0220FFF702FC0320FFF738
:103C5000FFFBBFF35B8F064B00221A70BFF35B8F35
:103C60001224BFE74FF48060E3E700BF9C0300200D
:103C70008504002010B50C4CBFF35B8F002323702C
:103C8000BFF35B8F0320FFF7E3FB0220FFF7E0FBAE
:103C900054F8E93C33B1A4F1E9039B6D13B140F64C
:103CA0000440984710BD00BF8504002010B50446AD
:103CB0000B4BB3F8783073B90A4BBFF35B8FD3E883
:103CC0004F2F42F00202C3E8412F0029F7D1BFF382
:103CD0005B8F204610BD0220FFF7AAFBECE700BF78
:103CE0009C0300208504002008B5094BBFF35B8FBF
:103CF000D3E84F2F02F00102C3E8412F0029F7D18A
:103D0000BFF35B8F0220FFF7A3FBFFF7ABF908BD02
:103D10008504002010F0080F35D130B583B004467B
:103D20000D46194AB2F8803003F00F038DF80630C3
:103D30008DF8073043EA00138DF80630D36A23B1BB
:103D40000DF107010DF106009847BFF35B8F0F4B94
:103D50001B78BFF35B8F13F0020F11D12846FFF7DA
:103D6000D7FA2046FFF708FB8DF80740064B1B6B80
:103D700023B10DF107010DF10600984703B030BDE6
:103D8000FFF7B2FFEAE770479C030020850400209C
:103D9000F8B5424BD3F8E43013F0100F34D03F4B5A
:103DA00093F8822002F01F0593F8803003F01F047F
:103DB00012F0100F03D1012D01D0264603E002F0CE
:103DC0000F0503F00F0613F00E0F05D0032C03D0E0
:103DD000324B93F86830C3B90020FFF7FBFA01209B
:103DE000FFF7F8FA0220FFF7F5FA0320FFF7F2FADF
:103DF0000420FFF7EFFA0520FFF7ECFA0620FFF7A3
:103E0000E9FA0720FFF7E6FAF8BD2046FFF75EFB68
:103E100007462046FFF756FE044616F0100F02D064
:103E200015F0100FF0D0112F1AD0BFF35B8F1C4B81
:103E30001B78BFF35B8F002BE6D0122CE4D1FFF789
:103E400053FFFFF717FF154B93F8B43013F0080F2B
:103E50001FD01E20FFF75CFA2046FFF78DFAD3E74C
:103E6000BFF35B8F0E4B1B78BFF35B8F63B9FFF71C
:103E7000F5FB1620FFF74CFA084B002283F8682068
:103E80003846FFF779FABFE7FFF72EFFFFF7F2FE9C
:103E9000EDE71D20FFF73CFADEE700BF9C030020A2
:103EA00085040020A34BD3F8E43013F0010F00D1B8
:103EB000704730B583B0A04C022221464FF4907079
:103EC000FEF78CFF214611F8822902F01F04B1F899
:103ED000803003F01F038DF806308DF8073012F0A4
:103EE000100F01D1012C05D102F00F0403F00F02D5
:103EF0008DF807209DF8072012F0100F03D014F062
:103F0000100F00F0B88003F00F0343EA04138DF89C
:103F10000630884BDB6A23B10DF107010DF1060075
:103F200098479DF80630854A1370113B772B00F2B5
:103F30005D81DFE813F07F00C200C800BA005B01BA
:103F40005B015B01B0005B015B015B015B015B013D
:103F50005B015B015B0178007F00CE002A015B0101
:103F60005B015B0122015B015B015B015B015B01AA
:103F70005B015B015B01A200CE00A20030015B018E
:103F80005B015B013D015B015B015B015B015B016F
:103F90005B015B015B01AA00D500CE00D5005B018F
:103FA0005B015B0155015B015B015B015B015B0137
:103FB0005B015B015B015B015B015B015B015B0121
:103FC0005B015B015B015B015B015B015B015B0111
:103FD0005B015B015B015B015B015B015B015B0101
:103FE0005B015B015B015B015B015B015B015B01F1
:103FF0005B015B015B015B015B015B015B015B01E1
:104000005B015B015B015B015B015B015B015B01D0
:104010005B015B015B01AA001B01CE0037015B0164
:104020005B015B017F00FFF723FA2046FFF7ACFA44
:104030008DF807003F4B1B6B23B10DF107010DF10C
:10404000060098479DF8073013F0100F05D1394B43
:10405000B3F88430002B40F0F0800DF10701354BB0
:10406000B3F88200FFF72CF9002840F0EA809DF8B1
:104070000700FFF781F903B030BDFFF7F9F92046DB
:10408000FFF7B6FA8DF80700D4E711208DF8070086
:10409000FFF73EF9CEE7FFF727FEFFF7EBFDFFF74F
:1040A000DDFA01238DF80730C4E7FFF7E3FDFFF7E2
:1040B000D5FA01238DF80730BCE7FFF7CFFA0123CB
:1040C0008DF80730B6E7FFF7C9FA01238DF80730FE
:1040D000B0E712238DF807301120FFF719F9A9E78F
:1040E000174D0223174A294641F6124001F044FBBE
:1040F00025F8340CAC3DD5F8AC30002B28DB124D44
:104100000223124A294641F6134001F035FB25F8F7
:10411000360CB03DD5F8B030002B20DB2046FFF741
:104120004BFD8DF80700A04284D10220FFF780F9F3
:1041300080E700BF9C0300201E040020C414002060
:10414000480400208C1000204C040020A410002003
:1041500012238DF807301D20FFF7DAF86AE71223E3
:104160008DF807301E20FFF7D3F863E712238DF890
:1041700007301120FFF7CCF85CE7FFF7B5FDFFF73C
:1041800079FD02238DF8073054E7FFF773FD022312
:104190008DF807304EE714238DF807301120FFF714
:1041A000B7F847E72046FFF781FD8DF8070041E7A4
:1041B00014238DF807301120FFF7AAF8FFF794FDBC
:1041C000244BB3F87830002B7FF434AF214BB3F895
:1041D0007A30002B3FF42EAF0320FFF739F929E79F
:1041E00004238DF80730FFF77FFD23E79DF80730A4
:1041F000082B0DD09DF80630042B1BD09DF80730FE
:1042000043F010038DF807301220FFF781F811E713
:10421000FFF76AFD0F4BB3F878301BB90D4BB3F8BD
:104220007A301BB904238DF80730E3E70320FFF74A
:104230000FF9F7E7FFF71EFDE0E70020FFF768F84A
:104240000BE7FFF779F89DF8073018438DF8070062
:104250000DE700BF9C03002002464168204B196017
:104260008168C3F8DC101F4903F1040C03C98CE812
:1042700003001D4903F10C0C03C98CE803001B4922
:1042800003F1140C03C98CE80300194903F11C0C59
:1042900003C98CE80300117B83F82410116999622B
:1042A0005169D96291691963D1695963116A996336
:1042B000516AD963916A1964D16A5964116B99641E
:1042C000516BD964916B1965D16B5965116C996506
:1042D000516CD965916C1966D26C5A66704700BFF3
:1042E0009C030020387700084077000848770008D2
:1042F0005077000800B54FF00A0CA0F800C090F805
:1043000005C04FF0030E6EF3030C80F805C00903DF
:10431000C1800272A0F809309DF80430C3725DF8C4
:1043200004FB2DE9F0418D0901F03F03402A43D001
:104330004FF0010EA2F12001C2F120040EFA01F1AA
:104340002EFA04F421430EFA02FE1EF1FF3E41F163
:10435000FF3800EBC5046468C3F12007A3F1200611
:1043600050F8351021FA03FC04FA07F74CEA070C61
:1043700024FA06F64CEA060CDC401A44402A1FD9FF
:10438000013500EBC50250F835005268C3F1400614
:10439000C3F12005203BB24000FA05F52A4320FA7C
:1043A00003F31A43B04040EA0C0022430EEA000037
:1043B00008EA0201BDE8F0814FF0FF3EF046C8E791
:1043C00000200246EFE72DE9F04F83B00C9C0D9FD3
:1043D0008E0901F03F01402A7AD00123A2F1200E7C
:1043E000C2F1200503FA0EFE23FA05F54EEA050E8A
:1043F0009340013B4EF1FF3EA1F1200CC1F120059D
:104400000EFA01F803FA0CFC48EA0C0823FA05F549
:1044100048EA050803FA01F50195A1F1200AC1F166
:10442000200907FA01FC04FA0AFA4CEA0A0C24FAF9
:1044300009F94CEA090C04FA01F900EBC60A50F834
:1044400036B089EA0B09DAF804508CEA050C019DB4
:1044500009EA05090CEA080C89EA0B09DAF80450A4
:104460008CEA050540F83690CAF804500A44402A00
:104470002BD9C1F14002A1F12005C1F12001D340A7
:104480000EFA05F52B432EFA01F10B432EFA02FE2C
:10449000C2F12005A2F12001D44007FA05F52C4312
:1044A00027FA01F10C43D740013600EBC60550F85E
:1044B00036106A684C4057401C4007EA0E0E4C40CC
:1044C00082EA0E0240F836406A6003B0BDE8F08F21
:1044D0004FF0FF339E468FE741880139362929D8AE
:1044E000DFE801F01C1C1F221C1F2222282828287C
:1044F0002828282825282828252828282828252845
:10450000282828282828282828282828282828282B
:104510001C1F221C1C1C1C1C1C1C1C0003691A7068
:10452000704703691A80704703691A607047016910
:104530000A604B607047000070B5FFF741F9002832
:1045400059D086462C49CB6E03FB00FC2B4C0CEB60
:1045500004025379032060F3030353714FF40043C3
:10456000D380137A022060F306031372D1F89C30D3
:10457000D1F8A0001B1A9BB2496F4E880E3EC6F3BD
:104580004E0613FB06F39EB2012813D9137A43F0AB
:104590008003137249880E39C1F34E01314489B248
:1045A000002353720138144BC3F8A00050810C3221
:1045B000334613E0137A6FF3C71313720021104BC5
:1045C00019700D4B83F88E10B3F89810E8E71801B6
:1045D0000C4D285A22F8020B01339BB28B42F6D3C2
:1045E0008B1B9BB25B009BB2063324F80C30044B50
:1045F000032203F80E2070BD9C030020880A0020CF
:10460000881000201472000838B50446FFF7D8F867
:1046100040B301461448C26E01FB02F2134D531918
:104620004FF00A0C22F805C05A794FF0030C6CF3D6
:1046300003025A714FF40042DA801A7A072565F3B3
:1046400006021A72D2B26FF3C7121A7200225A729D
:104650005A819C81240CDC81054B03F801C01A703F
:1046600080F88E2038BD00BF9C030020880A0020FF
:1046700088100020F8B5002401E00134A4B2230121
:10468000464AD25A4FF6FF739A42F6D1444BA3F8EA
:1046900098405B6F5D880E3D25F001052D042D0CC3
:1046A00005EB44010139B1FBF5F53E4B9B89012B2C
:1046B00003D93D48FFF7A8FFF8BDFFF781F884460E
:1046C0000028F9D0364BD86E00FB0CF0354E83191C
:1046D0005A79032161F303025A714FF40042DA80E0
:1046E0001A7A022161F306021A72B289BAB99A8162
:1046F000197A62F3C71119725A725A812B490A70DA
:10470000274981F88E20C1F89C506F1EC1F8A07017
:10471000DC811A825A829A82DA8212228253214AD8
:104720009289012A04D0214B032203F80C20C3E70D
:10473000012D19D91A7A42F080021A72184A1321EF
:1047400082F88E10526F54880E3CC4F34E0400223F
:104750005A72134FC7F89C50013DC7F8A0505D81B5
:10476000012199810E3311E01A7A6FF3C7121A7280
:1047700000220E490A700A4981F88E20E7E71101EC
:10478000064D695A23F8021B013292B2A242F6D3B7
:1047900063009BB208333352C5E700BF14720008B0
:1047A0009C030020880A00200000010688100020D9
:1047B000F8B50E4615461F46044600B3F4B1124B39
:1047C000D86E04FB00F0114B00EB030C0A22C2521E
:1047D0009CF80520032363F303028CF805204FF4B3
:1047E0000052ACF80620ACF809608CF80B5080221F
:1047F0008CF80820CCF80C70054A1355F8BDFEF76C
:10480000DFFF0446DAE700BF9C030020880A00208F
:104810008810002008B533B90023044A1370044AF5
:1048200082F88E3008BDFFF7C3FFF5E7881000203F
:104830009C03002008B50B460146184601F09CFA7F
:1048400008BD00002DE9F04782B0FEF7B9FF40B97E
:104850000023394A1370394A82F88E3002B0BDE81D
:10486000F0870646354FFB6E03FB00F8344D08EB2E
:104870000509D7F8A0A0D7F89C40A4EB0A042A7A2F
:10488000EB7A0093B5F8093002F010020321484694
:10489000FFF730FDE11CFB6E9A1F914219D9A3F17D
:1048A0000904D7F8A0302344C7F8A030E31C25F84A
:1048B0000830224DD5F89400224609F109015044F0
:1048C000FFF7B8FF95F891301BB31B4B03229A55A5
:1048D000BEE71A4B002283F89120C3F89C20C3F84E
:1048E000A02099F8083043F0010389F80830062C1D
:1048F00003D9E31C25F80830DBE7C4F10702D2B284
:104900005200D2B2134389F808300A2328F8053040
:10491000CFE70B4BB5F8A820D97AB3F80900FEF71A
:1049200097FB03460028D0D00549CA7AB1F8091090
:104930003046FFF76FFF91E7881000209C030020AE
:10494000880A00202DE9F84F1F469DF828B0DDF8B1
:104950002C804388093B9BB2022B40F2A080814609
:104960008A461446BBF1000F02D10FB100237B70C1
:10497000002649E003F10C0155E0F01DEA1DD208C4
:1049800007EBD00001F0F8F932E01CF0080F01D07D
:10499000022B09D01CF0100F01D0042B04D01CF006
:1049A000200F25D0082B23D1F11DEA1DD20807EBDB
:1049B000D10101F0E1F91BE0BBF1000F18D1BFB14B
:1049C0000120A84001381CF0010F01D0022B56D065
:1049D0001CF0020F01D0042B51D01CF0040F01D0A9
:1049E000082B4CD09040F308FA5C22EA0000F854FF
:1049F00004B910252E44013424B2B8F1000F03D0BD
:104A0000F31DB8EBD30F4BD9274B03EB0A131B79DC
:104A10009C4245DC04EB840309EB83039D88186901
:104A20000028A7D0014606F0070293F806C01F4BE6
:104A300093F8803003F00F0315F0070FBCD10AB1D3
:104A4000B61A0836002FD3D0BBF1000F9DD11CF051
:104A5000010F01D0022B90D01CF0020F01D0042BCB
:104A60008BD01CF0040F01D0082B86D0F01DEA1D5E
:104A7000D208002107EBD00001F08CF9B8E722B989
:104A8000F3084FF0000C07F803C00B78034003FA5B
:104A900002F2F308D2B2F95C0A43FA54A8E7044ED2
:104AA0003046BDE8F88F00BF147200089C03002058
:104AB0000400010608B54388013B362B2DD8DFE8FA
:104AC00003F01C1C20241C2024242C2C2C2C2C2CEB
:104AD0002C2C282C2C2C282C2C2C2C2C282C2C2C22
:104AE0002C2C2C2C2C2C2C2C2C2C2C2C2C2C1C2022
:104AF000241C1C1C1C1C1C1C1C0003691878002195
:104B000008BD036918880021FAE7036918680021C5
:104B1000F6E7036918685968F2E7034B034A40F265
:104B20008B61034801F0D4F858770008A477000897
:104B30005C77000810B4144B03EB0010C46890F8C5
:104B400004C08C4508D301EB810334F823208BB2D9
:104B50009A420ED0002000E0002000EB800334F8E1
:104B600023208BB29A4206D2604504DA013000B2AB
:104B7000F3E708B201E09A4202D15DF8044B7047B6
:104B80004FF0FF30F9E700BF147200080146002023
:104B900000E001300301044AD35A8B42F9D300D11B
:104BA00070474FF0FF30FBE71472000838B51D4620
:104BB000B0F809300B80C37A1370012B0FD814465C
:104BC0000888FFF7E3FF286000280ADB2178FFF759
:104BD000B1FF049B1880002805DB002038BD034886
:104BE000FCE70348FAE70348F8E700BF00000106C6
:104BF00000000206110009062DE9F04F87B00DF103
:104C00000E03009304AB0DF115020DF11601764869
:104C1000FFF7CCFF002840F0A180FEF7D1FD06464B
:104C2000002800F0A6800499704B03EB0113DD68A7
:104C3000002301930093BDF90E202846FFF782FE62
:104C40000290182800F29E80441EE408C4F1030478
:104C5000E4B2A400E4B20730C3080293B3F5803F86
:104C600080F092801E33B3F5C06F00F29580EB8820
:104C70002A6943F40043009302AB9DF81510BDF878
:104C80001600FEF7D5F90346002840F08E80584FF5
:104C90004FF0000ACDF804A0CDF800A03B46BDF9C6
:104CA0000E2004992846FFF74DFE57F87E3C03FB83
:104CB00006F8DFF834B108EB0B099DF815300093C6
:104CC000BDF81630512203214846FFF713FB07F8C1
:104CD00059ACEA3F029A042A6FD9C9F80C2002F1B4
:104CE0000A034449C96E881F834211D9414BC3F856
:104CF0009C2010390291C3F8A010402283F8912023
:104D000003F1EA02C3F894204FF40042A3F8A8206C
:104D1000029A02F10A032BF80830354909F1100014
:104D200001F02AF8334B93F891305BB9EA8842F4EA
:104D300000429DF81510BDF81600FEF789F90346EC
:104D4000002848D12C4B03229A5500239DF81520AA
:104D5000BDF816103046FFF75DFD07E003469DF8ED
:104D60001520BDF816100020FFF754FD07B0BDE870
:104D7000F08F00239DF81520BDF816101846FFF798
:104D800049FDF3E7002466E79DF81520BDF81610ED
:104D90003046FFF73FFDE9E7184B9DF81520BDF8B9
:104DA00016103046FFF736FDE0E79DF81520BDF8F8
:104DB00016103046FFF72EFDD8E799F808301C434F
:104DC00044F0020489F8084007F1EA0109F10C00F7
:104DD00000F0D2FFA6E79DF81520BDF8161030466A
:104DE000FFF718FDC2E700BF880A00201472000810
:104DF000860400209C030020881000200400010687
:104E000070B586B00DF10E03009304AB0DF11502E1
:104E10000DF116016948FFF7C9FE002866D1674BFE
:104E20001C7A14F0020F6AD0C4F38104C4F10404A4
:104E300003F10C050499624B03EB0113DE680023B8
:104E4000019301220092BDF90E203046FFF77AFD52
:104E50000730C308B0F5002F56D29C4200F28F8075
:104E6000F28842F4004200922A469DF81510BDF8DF
:104E70001600FEF795F8034600284DD104F10A0309
:104E8000504AD26E911F8B4257D904F11E03B3F5DD
:104E9000C06F49D84B4BC3F89C40103AC3F8A020D0
:104EA000502183F8911003F1EA015018C3F89400DF
:104EB000BDF81600A3F8A4009DF8150083F8A6001D
:104EC0004FF40040A3F8A8002846FFF7B3FCFEF714
:104ED00077FC044600285BD100239DF81520BDF81F
:104EE00016102046FFF796FC06B070BD03469DF8ED
:104EF0001520BDF816100020FFF78CFCF4E72F4DAD
:104F0000EC68A4B2103595E79DF81520BDF8161091
:104F10000020FFF77FFCE7E79DF81520BDF816108D
:104F20000020FFF777FCDFE7274B9DF81520BDF841
:104F300016100020FFF76EFCD6E7224B002283F804
:104F400091200194012300932B46BDF90E20049972
:104F50003046FFF7F7FCF28842F400429DF8151046
:104F6000BDF81600FEF75AF803460028AFD09DF8AA
:104F70001520BDF816100020FFF74CFCB4E7134BCA
:104F80009DF81520BDF816100020FFF743FCABE795
:104F90000C4BDB6E094D03FB00559DF8153000935B
:104FA000BDF81630702203212846FFF7A3F900232D
:104FB000EB60074B03221A558EE700BF880A0020DA
:104FC000147200089C03002004000106100007066C
:104FD000881000202DE9F04F85B07C4BB3F80960B4
:104FE000B5B2DF7A2846FFF7D1FD041EC0F2DE809D
:104FF00039462046FFF79EFD0028C0F2D080744B52
:1050000003EB0414E46800EB800004EB8004A27955
:10501000704B93F8803003F00F0312F0010F01D0B2
:10502000022B10D012F0020F01D0042B0BD012F083
:10503000040F01D0082B06D0674B3A4629460020C2
:10504000FFF7E8FBBEE0FEF7BBFB8246002800F05E
:10505000B380604BDB6E03FB00F9DFF870B109EB46
:105060000B080A2329F80B3098F80530032262F365
:10507000030388F805304FF44053A8F80630A3889E
:105080000393082B33D80C22102B00D90422182BA1
:1050900000D90022A8F8096088F80B70412188F82F
:1050A00008100733DB080393042B30D842F0430287
:1050B00088F808202269E2B1E388009303AB3946FF
:1050C0002846FDF7B5FF0646D0B92069A0B1039A7E
:1050D00008F10C01FFF7AEFB26B93E4B93F8913077
:1050E000002B4ED03D4B032203F80A2064E0082237
:1050F000CAE704F10C02DFE7E368C8F80C30EBE71D
:1051000003463A4629465046FFF784FB5AE0226997
:10511000E388009303AB39462846FDF789FF06462E
:1051200040BB039B2B4AC2F89C30C8F80C300A33B2
:10513000D26E911F8B4218D9103A0392254BC3F8B7
:10514000A020402283F891202269C3F89420E288AD
:10515000A3F8A820039A02F10A032BF8093008F1FA
:1051600010012069FFF766FBB6E71A4B002283F8AF
:105170009120EFE703463A4629465046FFF74AFB9F
:1051800020E0E28839462846FDF762FF0346002802
:10519000A8D03A4629465046FFF73CFB12E0104B98
:1051A0003A4629460020FFF703FB05E00D4B3A463F
:1051B00029460020FFF7FCFA0023084A1370054A2D
:1051C00082F88E3005B0BDE8F08F00BF880A00205D
:1051D000147200089C0300200100010688100020C2
:1051E00011000906000002062DE9F04383B07C4B54
:1051F000B3F80970BDB2DE7A2846FFF7C7FC041E7B
:10520000C0F2DF8031462046FFF794FC0028C0F250
:10521000D180744B03EB0414E46800EB800004EBD2
:105220008004A37903F03F016F4A92F8802002F0D6
:105230000F0213F0080F01D0022A13D013F0100F41
:1052400001D0042A0ED013F0200F01D0082A09D073
:10525000072900F0A880654B324629460020FFF759
:10526000A7FAB4E05E4B93F8088018F0020F29D03B
:10527000C8F38108C8F1040803F10C09A3880733B7
:10528000DA08B8EBD30F2CD06388092B22D0A3F116
:105290000A0292B2012A24D9B3F5187F21D040F234
:1052A000612293421DD040F26222934219D040F213
:1052B0006322934215D04E4B324629460020FFF719
:1052C000A9FA8AE0464BD3F80C801FFA88F803F15C
:1052D0001009D3E72069A2EB08020021404400F046
:1052E00059FDE388009343464A4631462846FDF778
:1052F00057FE0346002850D1B8F1040F15D9384B9A
:105300001B880A3B434510D2374A502182F891103E
:1053100021691944C2F89410A2F8A47082F8A6601A
:10532000E188A2F8A810984603E02F4B002283F8EA
:105330009120424621694846FFF77CFAFEF740FA81
:105340008046C8B1284BDA6E02FB00F2244953189C
:105350000A2050525979032262F3030159714FF424
:105360004051D980A3F80970DE72602119720021C2
:10537000D960204B03F808201B4B93F8913033BBC6
:10538000E28831462846FDF749FE0346F8B1324629
:1053900029464046FFF70CFA19E03246294600201C
:1053A000FFF706FA13E0144B324629460020FFF7B8
:1053B000FFF90CE0114B324629460020FFF7F8F9BF
:1053C00005E00F4B324629460020FFF7F1F9002394
:1053D000084A1370044A82F88E3003B0BDE8F083A7
:1053E000880A0020147200089C0300202200000894
:1053F00010000706881000200200010611000906AF
:10540000000002062DE9F04182B0FEF7D9F900282C
:1054100000F08C8006464A4BD86E4A4B00FB0630A3
:105420001B88DC1E0A2B5BD0464D2A7A02F0100244
:105430000023009342F020020321FEF75BFF224687
:105440003F4BD3F8941005F10900FFF7F3F92B7ADD
:1054500013F0010F5CD03A4BB3F8A830B3F5004F0E
:1054600023D1374BD3F89C50D3F8A0301C44A5422D
:105470003DD8334FB7F8A4804046FFF787FB04467A
:1054800097F8A6703946FFF755FB0246002C38DB2B
:10549000002836DB2C4800EB041001950123009313
:1054A0002A4B2146C068FFF74DFA254B002283F8AE
:1054B0009120C3F89C20C3F8A020B3F8A82093F84B
:1054C000A610B3F8A400FDF7A9FD034658B31C4984
:1054D00091F8A620B1F8A4103046FFF79BF92BE015
:1054E000184B1C7A6FEA540404F007049CE7144933
:1054F000174B91F8A620B1F8A4100020FFF78AF905
:105500001AE0144B3A4641460020FFF783F913E0B6
:105510000B4BD3F894202244C3F89420D3F8A02056
:105520002244C3F8A0200C4B03229A5500231A46AC
:1055300019461846FFF76EF902B0BDE8F08100BFCA
:105540009C030020880A00201472000886040020B2
:105550001000070600000206881000202DE9F8431D
:10556000444BB3F80C901FFA89F0FFF70FFBB0F132
:1055700000087ADBFEF724F90546002878D03E4B78
:10558000DC6E00FB04F43B4EA7197B79032262F327
:1055900003037B714FF40043FB803B7A042262F3E8
:1055A00006033B72DBB26FF3C7133B7200237B72BF
:1055B0007B81A7F80C90314B03EB0813B3F80290F2
:1055C000B9F1070F15D0B9F1080F23D00023FB81E3
:1055D0002A4B03EB0813DB681B7B3B7487F81190A5
:1055E000264800EB0810D0F808C007F1120100238C
:1055F00027E000214046FFF79DFA204B03EB0813FC
:10560000DA6800EB800002EB80004288FA811B79A7
:105610003B74E3E700214046FFF78CFA174B03EB9E
:105620000813DB6800EB800003EB80004288FA81FE
:105630001B7B3B74D2E701F8010B0133DBB20CF1A9
:10564000010C9CF8000020B10B4AD26E123A934232
:10565000F1D308700C33A353094A03235355002395
:105660001370054A82F88E3002E00648FEF7CCFF40
:10567000BDE8F883880A00209C030020147200080B
:1056800088100020000002062DE9F041344B9D896E
:105690009E7BA8B2FFF77AFA071E5CDB31463846DC
:1056A000FFF748FA041E51DB2E4800EB0710C768CD
:1056B000FEF786F8864600284BD02B4BDB6E03FBAB
:1056C00000FC27480CEB00025379032161F303032C
:1056D0005371002393716FF07F01D171117A4FF0F4
:1056E000060868F306011172C9B263F3C71111729B
:1056F00053729372D372958196730721D17304EB21
:10570000840407EB840779881182B9885182F9886B
:105710009182BD6816322C7854B11349C96E16397E
:105720008B4205D202F8014B0133DBB20135F2E7BF
:10573000147010332CF800300C4A032302F80E309A
:1057400000231370084A82F88E3002E00848FEF702
:105750005BFFBDE8F0810748FEF756FFF9E700BFA1
:10576000880A0020147200089C0300208810002082
:1057700011000906000002062DE9F04F87B00591DF
:1057800001929B46A0F5E053123B9BB2012B00F225
:10579000AE80FFF7FBF90028C0F2AD80574B03EB5A
:1057A0000010C36804931B699BB11B780393039B90
:1057B000002B40F092804FF000084746BBF1000FED
:1057C00040F39180059BC3F80080F81DC0F3CF0023
:1057D0008EE0049B1B7B0393E9E798896CE09AF8C1
:1057E0000C30009377E0DE6836E04FF0FF33059A27
:1057F000136000207CE0FFF7C9F9051E41DB494634
:105800002846FFF797F9002835DB3C4B03EB0513DF
:10581000DB6800EB800003EB800008EB4803019994
:1058200001EB830241F82300002830D0334B03EB17
:105830000513536008F10108976057FA86F70134A1
:10584000E4B2009B9C4225D804EB84030AEB83035B
:105850001A69002AC7D01668BBF1000FEDDD300CC5
:10586000C6F30729D845C0D00028C4D1B9F1000F2C
:10587000C1D10020D1E74FF0FF33059A136000201B
:1058800036E04FF0FF33059A1360002030E000232C
:105890005360CFE7029B0133DBB20293029B039A72
:1058A00093428BD8029B03EB8303049A02EB83039E
:1058B0001A69002A91D01088FFF768F9051EE9DB04
:1058C0000E4B03EB0513D3F80CA0DAF81030002BC5
:1058D00085D01B7800930124B3E74FF00008012323
:1058E00002934746DAE70023059A13606DE700202C
:1058F00007B0BDE8F08F0020FAE700BF147200087F
:1059000008B54F4B93F86830A3B14D4B93F88E30E8
:105910001BB94C4B1B78012B0DD0494BD3F88C3065
:1059200003F0FF13B3F5981F18D0454B93F88E3052
:10593000032B16D008BD444B5B7903F00F03032BF8
:10594000EBD1414B1B88072B04D93D4B032283F835
:105950008E20E2E70820FDF77FFFDEE7FEF7ECFD93
:10596000E3E7394BDB881B0B022B11D0082B42D00D
:10597000082B49D0082B50D0002B57D10520FDF71C
:105980006BFF00232F4A13702D4A82F88E30D1E727
:105990002D4B1A7A02F0E003402B0AD002F0EF01FF
:1059A000602913D0202B1DD0002BC3D1FFF72AFD77
:1059B000C0E7254909880A29F0D112F0100F02D05A
:1059C000FFF71AF9B6E7FFF705FBB3E71E490988A9
:1059D0000A29E7D11A4991F891104029E2D1FEF73E
:1059E00031FFA7E712F0100F02D0FFF709FAA1E785
:1059F000FFF7FAFB9EE7144A127A02F07F02012AAF
:105A0000B6D1FEF737FE95E70F4A127A02F07F0211
:105A1000032AAFD1FFF7A2FD8CE70B4A127A02F0FE
:105A20007F02052AA8D1FFF72FFE83E70649074B1F
:105A3000CA7AB1F809100020FEF7BAFEA1E700BF4C
:105A40009C03002088100020880A00200000010626
:105A5000184B93F8243063BB2DE9F0414FF0000858
:105A600012E0C2680023FEF737FD0134725BBBB25F
:105A70009A4207D204EB84039D0070190369002B3E
:105A8000EFD1F2E708F101084FEA08130A4AD25AA7
:105A90004FF6FF739A4206D0074B03EB0813DE68FC
:105AA0001F790024E6E7034B9B6A03B19847BDE8E2
:105AB000F08170479C030020147200082DE9F04328
:105AC00083B010F0070F04D180460F46164600241D
:105AD00010E0154B154A4FF4E061154800F0F8F856
