:020000040800F2
:1000000000000220F54900080D0A00080F0A000848
:10001000110A0008130A0008150A00080000000071
:10002000000000000000000000000000170A0008A7
:10003000190A0008000000001B0A00081D0A000839
:10004000454A0008454A0008454A0008454A000854
:10005000454A0008454A0008250A0008454A0008A4
:10006000454A0008454A0008454A0008454A000834
:10007000454A0008454A0008454A0008454A000824
:10008000454A0008454A0008454A0008454A000814
:10009000454A0008454A0008454A0008390A000850
:1000A000454A0008454A0008454A0008454A0008F4
:1000B000454A0008454A0008454A0008454A0008E4
:1000C000454A0008454A0008454A0008454A0008D4
:1000D000454A0008454A0008454A0008454A0008C4
:1000E000454A0008454A0008454A0008454A0008B4
:1000F000454A0008454A0008454A0008454A0008A4
:10010000454A0008454A0008454A0008454A000893
:10011000454A0008454A0008454A0008454A000883
:10012000454A0008454A0008454A0008454A000873
:10013000454A00080000000000000000454A000891
:10014000454A0008454A0008454A0008454A000853
:10015000454A0008454A0008454A0008454A000843
:10016000454A0008454A0008454A0008454A000833
:10017000454A0008454A0008000000000000000051
:08018000454A0008454A000849
:1001900010B5054C237833B9044B13B10448AFF3C1
:1001A00000800123237010BDD0000020000000005B
:1001B000405B000808B5034B1BB103490348AFF38C
:1001C000008008BD00000000D4000020405B000853
:1001D00001F0FF01102A2BDB10F0070F08D010F8F8
:1001E000013B013A8B422DD010F0070F42B3F6D1FC
:1001F000F0B441EA012141EA014122F007047FF015
:1002000000070023F0E80256083C85EA010586EA6B
:10021000010685FA47F5A3FA87F586FA47F6A5FAA7
:1002200087F68EB9EED1F0BC01F0FF0102F00702B3
:1002300032B110F8013B013A83EA010313B1F8D15E
:100240000020704701387047002D06BF354603383F
:10025000073815F0010F07D1013015F4807F02BF78
:10026000013015F4C03F0130F0BC0138704700BFC9
:1002700053B94AB9002908BF00281CBF4FF0FF310D
:100280004FF0FF3000F074B9ADF1080C6DE904CE09
:1002900000F006F8DDF804E0DDE9022304B0704761
:1002A0002DE9F047089D04468E46002B4DD18A4229
:1002B000944669D9B2FA82F252B101FA02F3C2F15C
:1002C000200120FA01F10CFA02FC41EA030E9440ED
:1002D0004FEA1C48210CBEFBF8F61FFA8CF708FB0E
:1002E00016E341EA034306FB07F199420AD91CEBE6
:1002F000030306F1FF3080F01F81994240F21C8118
:10030000023E63445B1AA4B2B3FBF8F008FB10335F
:1003100044EA034400FB07F7A7420AD91CEB040494
:1003200000F1FF3380F00A81A74240F20781644464
:10033000023840EA0640E41B00261DB1D4400023E9
:10034000C5E900433146BDE8F0878B4209D9002D4D
:1003500000F0EF800026C5E9000130463146BDE8D7
:10036000F087B3FA83F6002E4AD18B4202D3824241
:1003700000F2F980841A61EB030301209E46002DF0
:10038000E0D0C5E9004EDDE702B9FFDEB2FA82F245
:10039000002A40F09280A1EB0C014FEA1C471FFAA3
:1003A0008CFE0126200CB1FBF7F307FB131140EA8A
:1003B00001410EFB03F0884208D91CEB010103F157
:1003C000FF3802D2884200F2CB804346091AA4B219
:1003D000B1FBF7F007FB101144EA01440EFB00FEED
:1003E000A64508D91CEB040400F1FF3102D2A64552
:1003F00000F2BB800846A4EB0E0440EA03409CE7F1
:10040000C6F12007B34022FA07FC4CEA030C20FA9D
:1004100007F401FA06F31C43F9404FEA1C4900FABD
:1004200006F3B1FBF9F8200C1FFA8CFE09FB18113A
:1004300040EA014108FB0EF0884202FA06F20BD9AD
:100440001CEB010108F1FF3A80F08880884240F2FD
:100450008580A8F102086144091AA4B2B1FBF9F041
:1004600009FB101144EA014100FB0EFE8E4508D93C
:100470001CEB010100F1FF346CD28E456AD90238C1
:10048000614440EA0840A0FB0294A1EB0E01A142A6
:10049000C846A64656D353D05DB1B3EB080261EB14
:1004A0000E0101FA07F722FA06F3F1401F43C5E9EE
:1004B000007100263146BDE8F087C2F12003D84024
:1004C0000CFA02FC21FA03F3914001434FEA1C4766
:1004D0001FFA8CFEB3FBF7F007FB10360B0C43EA58
:1004E000064300FB0EF69E4204FA02F408D91CEB08
:1004F000030300F1FF382FD29E422DD90238634406
:100500009B1B89B2B3FBF7F607FB163341EA0341A5
:1005100006FB0EF38B4208D91CEB010106F1FF38F4
:1005200016D28B4214D9023E6144C91A46EA0046EB
:1005300038E72E46284605E70646E3E61846F8E67D
:100540004B45A9D2B9EB020864EB0C0E0138A3E7C6
:100550004646EAE7204694E74046D1E7D0467BE7A7
:10056000023B614432E7304609E76444023842E71F
:10057000704700BF024B034A5A60034A9A607047B3
:1005800000000020F0000020B4030020044B1A6992
:100590009A60044B5A68138843F480531380704761
:1005A000EC0000200000002010B50B4B012283F866
:1005B00078200A4CA28BA3F87A2000F0F3FA0346C5
:1005C00060624000064AB2EB430F00DB054800F0D2
:1005D000F5FB002010BD00BF38030020EC00002018
:1005E0003F420F0040420F0008B5044800F09CFC59
:1005F000034804F0F7F900F059F908BD1400002091
:10060000000000207047704782B000230193064B22
:100610001A6B42F400121A631B6B03F4001301936C
:10062000019B02B0704700BF00380240F0B58BB0AC
:100630000024059406940794089409940194304B7F
:100640001A6B42F080021A631A6B02F08002019268
:10065000019A02941A6B42F004021A631A6B02F0B8
:1006600004020292029A03941A6B42F001021A6386
:100670001A6B02F001020392039A04941A6B42F07F
:1006800002021A631B6B03F002030493049B1D4ECA
:1006900022464FF4F241304603F00CFB0127059748
:1006A0004FF4881306930794174D05A9284603F0C5
:1006B0000FFA4FF4F243059306970794089405A99F
:1006C000304603F005FA4FF4807305934FF404139A
:1006D0000693079405A9284603F0FAF922460E214D
:1006E000062003F0B9F8062003F0EEF822460E21AA
:1006F000172003F0B1F8172003F0E6F80BB0F0BDB7
:1007000000380240000402400000024010B5174BC0
:100710001B789BB9164B1B780BB3164C0422214651
:100720004FF4116000F0BCF914F8603C9BB102205A
:1007300000F04EFB0E4B00221A7010BD04220D4932
:100740004FF4116000F0ACF9092000F041FB074BB9
:1007500000221A70DEE70B2000F03AFBEAE700F017
:10076000C3FB042000F034FBE7E700BFB502002024
:10077000B40200201004002072B6FEE708B50E484F
:100780000E4B03604FF48273436000238360C360A9
:10079000036143614FF4007282610822C261036207
:1007A00043624FF4005383628023C36203F04CFE24
:1007B00000B908BDFFF7E0FF5C02002000380040F0
:1007C00000B595B03022002108A804F09FF900235D
:1007D000039304930593069307930193204A116CA6
:1007E00041F080511164126C02F080520192019A22
:1007F00002931C4B1A6842F480421A601B6803F48F
:1008000080430293029B012308934FF480330993A2
:1008100002230E934FF480020F9204221092A8221A
:10082000119212930723139308A803F059FA98B969
:100830000F23039302230493002305934FF4A05343
:1008400006934FF480530793052103A803F0AEFCF1
:1008500020B915B05DF804FBFFF78EFFFFF78CFFA2
:10086000003802400070004010B502F0B7FFFFF7FB
:10087000A7FFFFF7DBFEFFF7C7FEFFF77FFFFFF7DE
:10088000B3FE094C00224FF48041204603F012FAD7
:10089000FFF73CFF01224FF48041204603F00AFAA3
:1008A000FFF734FFEDE700BF00040240704700008F
:1008B00082B0002100910B4B5A6C42F480425A6482
:1008C0005A6C02F480420092009A01911A6C42F034
:1008D00080521A641B6C03F080530193019B02B099
:1008E000704700BF003802402DE9F04389B0002373
:1008F0000393049305930693079302683C4B9A4233
:1009000002D009B0BDE8F08304460025009503F548
:1009100000331A6C42F480421A641A6C02F480426A
:100920000092009A01951A6B42F004021A631A6B46
:1009300002F004020192019A02951A6B42F002023F
:100940001A631B6B03F002030293029B0C230393B5
:100950004FF00209CDF810904FF00308CDF8188041
:10096000052707970DEB0301224803F0B1F84FF478
:1009700080660396CDF810900595CDF818800797FE
:1009800003A91D4803F0A4F81C481D4B03604560F3
:100990008560C560066145618561C5614FF40033BE
:1009A0000362456203F02EF8D8B9144BE3649C63EC
:1009B0001448154B03600023436040228260C360EB
:1009C0004FF48062026143618361C3614FF400327E
:1009D0000262436203F016F830B90A4BA3649C63C9
:1009E0008FE7FFF7C9FEE0E7FFF7C6FEF5E700BFB8
:1009F0000038004000080240000402409C01002032
:100A000058600240FC01002070600240FEE7FEE7F3
:100A1000FEE7FEE7FEE770477047704708B502F053
:100A2000F7FE08BD08B50120024B187003F04AF923
:100A300008BD00BFB702002008B5044B01221A70A0
:100A40004FF4807003F03EF908BD00BFB6020020ED
:100A5000034AD2F8883043F47003C2F888307047F4
:100A600000ED00E010B584B043098DF80C3041EA88
:100A7000C0008DF80D00084C642300930223224629
:100A800003A9064803F03AFE224632F8DC399BB24D
:100A9000A2F8DC3004B010BD140400205C02002079
:100AA000802A00D97047F0B583B006460D4614463B
:100AB0000F4F00224FF48071384603F0FBF80221FB
:100AC0003046FFF7CFFFC4F180014FF47A730093F3
:100AD00023462A4607480144074803F00FFE012237
:100AE0004FF48071384603F0E5F803B0F0BD00BF65
:100AF00000040240B80200205C020020F8B506465F
:100B00000C4615460C4F00224FF48071384603F016
:100B1000D1F804213046FFF7A5FF4FF47A732A4637
:100B20002146064803F0F5FC01224FF48071384657
:100B300003F0C0F8F8BD00BF000402405C020020D2
:100B4000024BFF2283F87F20704700BFB8020020CD
:100B500010B50446172002F0B7FE14F0040F05D1BB
:100B600000F043FA204300F033FA10BD062002F0F3
:100B7000ABFE24F00404F3E710B50446172002F09E
:100B8000B1FE14F0040F06D1E44300F02EFA204029
:100B900000F01EFA10BD062002F0A4FE24F00404AA
:100BA000F2E7000010B584B000238DF80F30012269
:100BB0000DF10F0140F24110FFF772FF9DF80F3069
:100BC00013F0040F02D1002004B010BD00230293E3
:100BD000042202A94FF41A60FFF762FF01220DF10F
:100BE0000F014FF41860FFF75BFF9DF80F30012BEA
:100BF00001D00298E8E71E4C042221464FF4116010
:100C0000FFF74EFF214651F8D839C1F8D830D1F856
:100C1000D820184B1344019304220DEB02014FF42A
:100C20001960FFF76BFF01220DF10F0140F68110F3
:100C3000FFF736FF9DF80F3043F003038DF80F30B8
:100C400001220DF10F0140F68110FFF757FF00233D
:100C50008DF80F3006E001220DF10F0140F68110F2
:100C6000FFF71EFF9DF80F3013F0030FF3D0C0E71E
:100C700010040020B8BF23002DE9F04383B00446E0
:100C80000D4616461F46BDF82880A0F5B05189B222
:100C9000B1F5007F0DD3A0F5D0539BB2B3F5007F23
:100CA00007D341F61243984203D041F613439842CA
:100CB00002D1B5EBD83F0FD80C4BD3F83C90B9F12B
:100CC000000F10D0CDF800803B4632462946204622
:100CD000C84703B0BDE8F083204602F041FD00287C
:100CE000EAD00348F5E70020F3E700BF380300200F
:100CF0000300010608B5034B1B6C0BB1984708BDF8
:100D00000020FCE73803002030B583B0054C646C4C
:100D10002CB1BDF818500095A04703B030BD00209D
:100D2000FBE700BF3803002008B5034B9B6C0BB1F9
:100D3000984708BD0020FCE73803002008B5024BA7
:100D40009B6B03B1984708BD3803002038B50A4BA8
:100D50001B6D0BB1984738BD074D084C084AD5F8B4
:100D6000A810204602F088FCB5F8762021464FF402
:100D7000D050FFF7C3FEEEE73803002040120020FA
:100D80002C10002038B50A4BDB6C0BB1984738BDEE
:100D9000074D084CB5F8742021464FF4A050FFF7DA
:100DA0007FFE054AD5F8A410204602F0A1FCEEE72C
:100DB00038030020401000201C100020BFF35B8F80
:100DC000024BC3F8D400BFF35B8F70473803002099
:100DD00010B5044610F0040F0DD114F0020F49D1E4
:100DE00014F0080F03D03E4B5B6B03B1984714F02F
:100DF000010F66D110BDBFF35B8F3A4B1B68BFF389
:100E00005B8F002B0BDD374BBFF35B8F53E8002F5D
:100E1000013A43E800210029F8D1BFF35B8FBFF30B
:100E20005B8F304B1B68BFF35B8F002B13DDBFF371
:100E30005B8F2B4B93F8DF30BFF35B8F13F0020F08
:100E4000CBD1274BD3F8D420BFF35B8F254B1A604F
:100E5000BFF35B8FC1E7BFF35B8F214B93F8DF30AC
:100E6000BFF35B8F13F0020FE1D01B21142000F0C1
:100E70003FFDB2E7BFF35B8F194B93F8DF30BFF351
:100E80005B8F13F0020F05D0154BB3F8DC3013F471
:100E9000806F08D1124BB3F8DC3013F4806F9FD011
:100EA000FFF770FF9CE7FFF76DFF0D4BD3F8D420E1
:100EB000BFF35B8F0B4B1A60BFF35B8FFFF7A3FB96
:100EC0008EE7BFF35B8F064B93F8DF30BFF35B8F8A
:100ED000002B8FD0FFF796FBFFF738FF8AE700BFA4
:100EE000380300204014002010B50E4C042204F1F9
:100EF000D8014FF41160FFF7D3FDD4F8D830C4F80F
:100F0000D83000F0BDFD00F031FD00F0E5FA20B969
:100F1000044BDB6D03B1984710BD02F0CBFA00F033
:100F2000C1FBF5E73803002010B504468268114B79
:100F30001A6000F04BFF2046FFF702FE05E0022298
:100F40000D494FF48870FFF7ABFD0C4BB3F88230BE
:100F500013F0010FF3D0012000F026F8002000F07C
:100F60000FF800F093F900F07BFC00F0ABFC02F00E
:100F700049FB10BD40140020BA03002038030020B4
:100F800000B583B0074BA3F88000ADF8060002223D
:100F90000DF106014FF49A70FFF7B0FD03B05DF854
:100FA00004FB00BF3803002000B583B0074BA3F853
:100FB0007C00ADF8060002220DF106014FF4987096
:100FC000FFF79CFD03B05DF804FB00BF3803002071
:100FD00000B583B0019004220DEB02014FF40170C3
:100FE000FFF78CFD03B05DF804FB00B583B004226D
:100FF0000DEB02014FF40170FFF752FD019803B0B1
:101000005DF804FB00B583B0C00001220DF10701BB
:1010100000F60600FFF744FD03B05DF804FB000096
:1010200008B500F11603054901EBC301C000012218
:10103000093100F60500FFF733FD08BD3803002035
:1010400008B500F11603054901EBC301C0000122F8
:101050000B3100F60700FFF751FD08BD38030020F3
:1010600008B500F11602054B03EBC203DA7A22F051
:101070000102DA72FFF7E4FF08BD00BF3803002069
:1010800008B500F11602054B03EBC203DA7A42F011
:101090000102DA72FFF7D4FF08BD00BF3803002059
:1010A00008B5022202491020FFF7FAFC08BD00BF74
:1010B000BC03002000B583B001220DF1070140F60A
:1010C0008110FFF7EDFC9DF8070003B05DF804FB0D
:1010D00008B5FFF7EFFF10F0090F04D0064B1B6EA9
:1010E00043B1984705E0044B002083F8780083F86B
:1010F000DE0008BD3020FCE73803002038B5054687
:101100002B4C082221464FF40060FFF7C9FC08224F
:10111000A11840F60800FFF7C3FC34F8B419E36ED9
:101120001A8891422CD1234AB2F8B6105A889142BB
:1011300026D1204A92F8B8209B799A4220D11D4BA3
:1011400093F8BA3013F0010F1AD01A4BB3F8BC1051
:101150001B6F1A8891421FD1164AB2F8BE105A88E6
:10116000914219D1134A92F8C0209B799A4213D127
:10117000104B93F8C23013F0010F0DD028460AE04F
:1011800001240C4B83F8AC400020FFF779FF204688
:10119000FFF776FF112038BD064B022283F8AC2002
:1011A0000020FFF76DFF0120FFF76AFF1120F2E733
:1011B000EC0300203803002010B50446174B4FF411
:1011C00000729A661A1DDA6603F10C021A67002093
:1011D000FFF746FF0120FFF743FF0020FFF720FF46
:1011E0000120FFF71DFF2046FFF788FF044610F09F
:1011F000100F0BD1094B93F8C220C2F3400283F8C1
:10120000A020012283F86420204610BD1620FFF79D
:10121000B7FE024B002283F86420F5E73803002074
:1012200010B50446184B4FF400729A6603F114028D
:10123000DA6603F11C021A670020FFF711FF012094
:10124000FFF70EFF0020FFF7EBFE0120FFF7E8FE9F
:101250002046FFF753FF044610F0100F0BD10A4B46
:1012600093F8C220C2F3400283F8A020012283F841
:101270006420204610BD1520FFF782FE024B00229D
:1012800083F86420F5E700BF3803002010B5002480
:10129000174B83F864402046FFF7F2FE0120FFF76A
:1012A000EFFE204604E0134B00221A540130C0B276
:1012B0000228F8D90E4B002283F8882083F8892071
:1012C00083F88A20012183F88C1083F8A02083F80A
:1012D000872083F88D20A3F89620A3F8982083F820
:1012E0008B20A3F89A2083F89C20A3F89E2010BDA1
:1012F000380300201810002030B583B0174CE36E7F
:10130000174D062229461888FFF7CAFB2B8898B28A
:10131000ADF80630E26E5388991F884201D9ADF8C6
:10132000061010880630BDF806200E4980B2FFF77F
:10133000B7FBBDF806300633084AD06E42889342A8
:1013400004D3094B01221A7003B030BD01220DF104
:1013500006018088FFF7A4FBF3E700BF38030020F5
:10136000180A00201E0A00201810002010B582B0B4
:10137000134A936E03FB00F0124BC11800248DF842
:1013800007401B5A106F4288941FA34200D9A3B292
:101390009C1DA2B20088FFF7B1FB094B1B6F5A8856
:1013A000944205D3064B002283F88C2002B010BD76
:1013B00001220DF107019888FFF7A0FBF2E700BFBB
:1013C00038030020180A002010B582B000238DF8E1
:1013D0000730064C236F01220DF107011888FFF733
:1013E0008DFB012384F88C3002B010BD380300203F
:1013F000022001E00138C0B218B11A4B1B5C002B6F
:10140000F8D168B3174B02221A5417498A6E174B4A
:1014100002FB003391F886200132D2B281F8862097
:1014200002F0070281F886201AB90A46012182F8E3
:10143000861000229A70DA70197962F30501197129
:10144000C9B262F387111971074A92F886C05979B7
:101450006CF30711597192F88B30013382F88B309D
:10146000704700BF1810002038030020180A002021
:10147000022001E00138C0B218B1024B1B5C032B03
:10148000F8D170471810002010B50446FFF7B0FFE0
:10149000D0B101460D4B9A6E00FB02F20C481318B6
:1014A0004FF0000C4FF0040E02F800E083F801C08A
:1014B0005A796CF303025A7101229A7183F807C0BA
:1014C0001C81044B03225A5410BD00BF3803002076
:1014D000180A0020181000206F4B93F864000028B1
:1014E00000F0D88010B5B3F8DC3003F440737BBB58
:1014F000694B93F8881021B1B3F8DC3013F4007F06
:101500002DD1654A92F8C230C3F3400392F8A0206F
:10151000934259D0604BB3F88830BBB1002942D117
:101520005D4B93F88900FFF721FF5B4B93F8C220D6
:10153000C2F340010A4683F8A01093F8C31062F387
:10154000410183F8C3100120FFF77AFD002010BD90
:101550000020FFF765FD0120FFF762FDC8E7FFF7F8
:1015600033FF4D4B93F8893013B14C4A0021D154CD
:10157000494B93F88800494B1B5C062B10D0464B17
:1015800093F8882045490520885483F88920002253
:1015900083F8882093F88A000028D8D00120D6E765
:1015A000FFF7E4FEEBE70120FFF76AFD3A4C94F801
:1015B00088303A4A0621D1540120FFF751FD94F8B2
:1015C0008900FFF7D3FEB0E7334B93F88B3073B14C
:1015D000314B93F88C302BB92F4B93F8C13013F06B
:1015E000080F04D1FFF744FF0446002831D12A4BED
:1015F00093F8B90010F00800A9D0284B18780028FB
:1016000046D1254BD3F8883013F0FF1F9FD1FFF749
:1016100073FE214B93F8B9206FF3C30283F8B9200E
:101620001F4B1B884BB31E4B5B7913F0F00F07D099
:101630001B4B5A79184B93F88730B3EB121F23D00A
:10164000174B5B79C3F30313134A82F887300120E9
:101650007DE7FFF78BFE0120FFF7E2FC0F4B042232
:101660001A550D4B83F8884093F88B30002BBED071
:10167000013B094A82F88B30B9E70520FFF704FFE8
:10168000064B00221A70CEE7044B00221A70D7E7EF
:1016900000205CE7704700BF3803002018100020CE
:1016A000180A002008B5104B93F864303BB10E4B7C
:1016B00093F88A301BB90D4B1B78012B00D008BD65
:1016C0000B4B5B7913F00F0F02D0094B1B8833B91A
:1016D0000520FFF7D9FE054B00221A70EFE7022024
:1016E000FFF7D2FEF7E700BF3803002018100020F4
:1016F000180A002038B505462C4C082221464FF424
:101700000160FFF7CDF92388B3F5A05F3BD1A4F1C9
:10171000C402B2F8C630B2F87420934233D1A4F1B7
:10172000C40292F8C820242A2DD1A4F1C40292F850
:10173000CA2012F0010F26D003EB4303B3F5C06FAC
:1017400027DC1B4C0822214640F61800FFF7A8F9B9
:101750002388B3F5D05F22D1A4F1CC03B3F8CE2017
:10176000B3F876309A421AD1A4F1CC0393F8D03072
:10177000202B14D1A4F1CC0393F8D23013F0010F35
:101780000DD0284604E00B4B042283F8AC20122035
:1017900038BD084B042283F8AC201220F8E7054B33
:1017A000082283F8AC201220F2E700BFFC030020DF
:1017B000040400203803002010B5FFF79BFF044607
:1017C000122810D00320FFF74BFCBFF35B8F224B96
:1017D00001221A70BFF35B8F204B1B680BB1122CD8
:1017E00015D1204610BD0220FFF74AFC0320FFF769
:1017F00047FC1A4B93F8AC3013F0080F03D01E20AF
:10180000FFF7BEFBE8E71D20FFF7BAFBE4E7FFF7B1
:101810005FFC58B9114B5B6D002BE2D00F4A92F878
:101820007820A2B140F204409847DAE7FFF7A8FB1E
:101830000220FFF725FC0320FFF722FCBFF35B8F9C
:10184000054B00221A70BFF35B8F1224C9E74FF4D7
:1018500080609847C5E700BF1704002038030020C8
:1018600010B50C4CBFF35B8F00232370BFF35B8F6D
:101870000320FFF705FC0220FFF702FC54F8DF3CD1
:1018800033B1A4F1DF039B6D13B140F204409847DC
:1018900010BD00BF1704002010B504460220FFF75A
:1018A000DFFB074BBFF35B8FD3E84F2F42F0020201
:1018B000C3E8412F0029F7D1BFF35B8F204610BD4D
:1018C0001704002008B5094BBFF35B8FD3E84F2FF7
:1018D00002F00102C3E8412F0029F7D1BFF35B8F6B
:1018E0000220FFF7CDFBFFF729FA08BD17040020FF
:1018F00010F0080F35D130B583B004460D46194AB3
:10190000B2F87C3003F00F038DF806308DF8073005
:1019100043EA00138DF80630D36A23B10DF10701B5
:101920000DF106009847BFF35B8F0F4B1B78BFF399
:101930005B8F13F0020F11D12846FFF721FB2046E1
:10194000FFF732FB8DF80740064B1B6B23B10DF1FF
:1019500007010DF10600984703B030BDFFF7B2FF55
:10196000EAE770473803002017040020F8B5424B1F
:10197000B3F8DC3013F0100F34D03F4B93F87E20D7
:1019800002F01F0593F87C3003F01F0412F0100FD3
:1019900003D1012D01D0264603E002F00F0503F02C
:1019A0000F0613F00E0F05D0032C03D0324B93F823
:1019B0006430C3B90020FFF725FB0120FFF722FBAD
:1019C0000220FFF71FFB0320FFF71CFB0420FFF79B
:1019D00019FB0520FFF716FB0620FFF713FB072076
:1019E000FFF710FBF8BD2046FFF788FB07462046AF
:1019F000FFF780FE044616F0100F02D015F0100F0E
:101A0000F0D0112F1AD0BFF35B8F1C4B1B78BFF3A4
:101A10005B8F002BE6D0122CE4D1FFF753FFFFF7CA
:101A20001FFF154B93F8AC3013F0080F1FD01E208A
:101A3000FFF7A6FA2046FFF7B7FAD3E7BFF35B8FAD
:101A40000E4B1B78BFF35B8F63B9FFF71FFC1620AB
:101A5000FFF796FA084B002283F864203846FFF718
:101A6000A3FABFE7FFF72EFFFFF7FAFEEDE71D2011
:101A7000FFF786FADEE700BF3803002017040020D6
:101A8000A44BB3F8DC3013F0010F00D1704730B530
:101A900083B0A14C022221464FF49070FFF700F86A
:101AA000214611F87E2902F01F04B1F87C3003F0C2
:101AB0001F038DF806308DF8073012F0100F01D19A
:101AC000012C05D102F00F0403F00F028DF807205E
:101AD0009DF8072012F0100F03D014F0100F00F043
:101AE000AC8003F00F0343EA04138DF80630894BF2
:101AF000DB6A23B10DF107010DF1060098479DF84F
:101B00000630113B772B00F24281DFE813F07F00B3
:101B1000B800BE00B000400140014001A6004001F5
:101B20004001400140014001400140014001780076
:101B30007F00C4001E014001400140011601400128
:101B40004001400140014001400140014001980036
:101B5000C4009800240140014001400131014001CE
:101B60004001400140014001400140014001A0000E
:101B7000CB00C400CB004001400140013A014001CC
:101B8000400140014001400140014001400140014D
:101B9000400140014001400140014001400140013D
:101BA000400140014001400140014001400140012D
:101BB000400140014001400140014001400140011D
:101BC000400140014001400140014001400140010D
:101BD00040014001400140014001400140014001FD
:101BE0004001400140014001400140014001A0008E
:101BF0000F01C4002B014001400140017F00FFF7AD
:101C00004FFA2046FFF7D8FA8DF80700414B1B6BBF
:101C100023B10DF107010DF1060098479DF807303B
:101C200013F0100F05D13B4BB3F88030002B40F080
:101C3000C9809DF80700FFF7B7F903B030BDFFF783
:101C40002FFA2046FFF7ECFA8DF80700DEE71120A7
:101C50008DF80700FFF794F9D8E7FFF733FEFFF799
:101C6000FFFDFFF713FB01238DF80730CEE7FFF7E9
:101C7000F7FDFFF70BFB01238DF80730C6E7FFF7F1
:101C800005FB01238DF80730C0E7FFF7FFFA0123BA
:101C90008DF80730BAE712238DF807301120FFF7CF
:101CA0006FF9B3E71D4D02231D4A294641F6124044
:101CB00001F038FB25F8300CA43DD5F8A430002BFA
:101CC00019DB184D0223184A294641F6134001F04A
:101CD00029FB25F8320CA83DD5F8A830002B11DBE4
:101CE0002046FFF769FD8DF80700A0428ED1022043
:101CF000FFF7B6F98AE712238DF807301D20FFF7AA
:101D00003FF983E712238DF807301E20FFF738F9DB
:101D10007CE700BF38030020B6030020DC0300206E
:101D20001C100020E00300202C10002012238DF84E
:101D300007301120FFF724F968E7FFF7C3FDFFF72D
:101D40008FFD02238DF8073060E7FFF789FD02233E
:101D50008DF807305AE714238DF807301120FFF76C
:101D60000FF953E72046FFF797FD8DF807004DE781
:101D700014238DF807301120FFF702F9FFF7A2FDB9
:101D800044E704238DF80730FFF79CFD3EE79DF8FC
:101D90000730082B0DD09DF80630042B0FD09DF88E
:101DA000073043F010038DF807301220FFF7E8F8F2
:101DB0002CE7FFF787FD04238DF80730EBE7FFF7EB
:101DC0004FFDECE70020FFF7DBF832E70246416801
:101DD0001F4B19608168C3F8D4101E4903F1040C2D
:101DE00003C98CE803001C4903F10C0C03C98CE8FF
:101DF00003001A4903F1140C03C98CE803001849C5
:101E000003F11C0C03C98CE80300117B83F8241038
:101E1000116999625169D96291691963D1695963EC
:101E2000116A9963516AD963916A1964D16A5964D4
:101E3000116B9964516BD964916B1965D16B5965BC
:101E4000116C9965516CD965926C1A66704700BF28
:101E500038030020705B0008785B0008805B000896
:101E6000885B000800B54FF00A0C80F800C04FF006
:101E7000000C80F801C090F805C04FF0030E6EF31F
:101E8000030C80F805C00903C1800272A0F8093074
:101E90009DF80430C3725DF804FB2DE9F0410C4657
:101EA00000294DDBA4114D4201F03F0305F03F0135
:101EB00058BF4B42402A46D04FF0010EA2F12001FC
:101EC000C2F120050EFA01F12EFA05F529430EFAAA
:101ED00002FE1EF1FF3E41F1FF3800EBC4056D68C4
:101EE000C3F12007A3F1200650F8341021FA03FCB7
:101EF00005FA07F74CEA070C25FA06F64CEA060C39
:101F0000DD401A44402A22DD013400EBC40250F8BF
:101F100034005268C3F14006C3F12004203BB240B4
:101F200000FA04F4224320FA03F31A43B04040EAD3
:101F30000C002A430EEA000008EA0201BDE8F08125
:101F400001F13F04AEE74FF0FF3EF046C5E7002049
:101F50000246ECE72DE9F04F83B00C9C0D9F8E46B6
:101F60000029C0F283804FEAAE1E4B4201F03F01D0
:101F700003F03F0358BF5942402A7AD00123A2F10F
:101F80002005C2F1200603FA05F523FA06F63543CB
:101F90009340013B45F1FF35A1F1200CC1F1200632
:101FA00005FA01F803FA0CFC48EA0C0823FA06F6D5
:101FB00048EA060803FA01F60196A1F1200AC1F1E8
:101FC000200907FA01FC04FA0AFA4CEA0A0C24FA7E
:101FD00009F94CEA090C04FA01F900EBCE0A50F8B1
:101FE0003EB089EA0B09DAF804608CEA060C019E1F
:101FF00009EA06090CEA080C89EA0B09DAF8046018
:102000008CEA060640F83E90CAF804600A44402A6A
:1020100029DDC1F14002A1F12006C1F12001D34028
:1020200005FA06F6334325FA01F10B43D540C2F118
:102030002006A2F12001D44007FA06F6344327FA1D
:1020400001F10C43D7400EF1010E00EBCE0650F823
:102050003E1072684C4057401C403D404C4055403B
:1020600040F83E40756003B0BDE8F08F01F13F0ECF
:1020700079E74FF0FF331D468EE741880139362955
:1020800029D8DFE801F01C1C1F221C1F222228284F
:1020900028282828282825282828252828282828C6
:1020A00025282828282828282828282828282828B3
:1020B00028281C1F221C1C1C1C1C1C1C1C00036927
:1020C0001A70704703691A80704703691A60704775
:1020D00001690A604B60704770B582B0FFF788F9FC
:1020E000002861D08646314A936E03FB00FC304CD9
:1020F0000CEB04014B79032060F303034B710023C5
:102100008B716FF07F03CB710B7A022060F30603B3
:102110000B72B2F89630B2F89800126F56880E3EE5
:102120001B1AC6F34E0613FB06F39EB2012818D9FC
:102130000B7A43F080030B7252880E3AC2F34E02C0
:10214000324492B200234B72013880B2174BA3F88D
:10215000980048818B89ADF8063033460DF10601B1
:1021600015E00B7A6FF3C7130B720022114B1A7034
:102170000E4B83F88A20B3F89420E3E7C3EBC30542
:102180000D4830F8150021F8020B01339BB2934241
:10219000F4D3931B9BB25B009BB2063324F80C3044
:1021A000044B032203F80E2002B070BD3803002058
:1021B000180A002018100020F061000838B5044605
:1021C000FFF716F980B384461848816E01FB0CF1C5
:1021D000174D4B1900224FF00A0E01F805E05A7016
:1021E00093F805E0032161F3030E83F805E09A718B
:1021F0006FF07F05DD7193F808E0072565F3060EA3
:1022000083F808E05FFA8EFE62F3C71E83F808E0E9
:102210005A729A72DA729C81240CDC81054B03F8A5
:102220000C101A7080F88A2038BD00BF38030020D7
:10223000180A002018100020F0B583B0002401E037
:102240000134A4B2C4EBC403554A32F813204FF64C
:10225000FF739A42F4D15349A1F8944063009AB2B3
:102260000B6F5D880E3DABB223F0010313449BB2AC
:10227000013B9BB225F001052D042D0CB3FBF5F5B8
:10228000494B9B89012B04D94848FFF797FF03B0BE
:10229000F0BDFFF7ADF884460028F8D0414B986EAA
:1022A00000FB0CF0404E82195379032161F30303C4
:1022B0005371002393716FF07F03D371137A02215E
:1022C00061F306031372B3891BBB13735373117A43
:1022D00063F3C711117253729372D37234490B7046
:1022E000304981F88A30A1F8965005F1FF3EA1F8F7
:1022F00098E0D189ADF80610ADF80640ADF8083089
:10230000ADF80A30ADF80C30ADF80E301221815521
:102310005370254B9B89012B04D0254B032203F8D6
:102320000C20B4E7012D1FD9137A43F080031372F8
:102330001C4B132183F88A101B6F5C880E3CC4F37E
:102340004E0400235372174FA7F89650691E89B2A6
:10235000A7F898105181012111735373D289ADF8F8
:1023600006200DF1060213E0137A6FF3C713137200
:1023700000230F490B700B4981F88A30E1E7C3EB6A
:10238000C305074931F8151022F8021B01339BB22F
:10239000A342F4D363009BB208333352BDE700BFBE
:1023A000F061000838030020180A00200000010630
:1023B00018100020F8B50E4615461F46044620B3F7
:1023C00014B3144B986E04FB00F0134B00EB030C9A
:1023D00000220A21C1548CF801209CF80510032327
:1023E00063F303018CF805108CF8062020228CF88A
:1023F0000720ACF809608CF80B5080228CF808207C
:10240000CCF80C70054A1355F8BDFEF7F1FF0446F1
:10241000D6E700BF38030020180A0020181000205B
:1024200008B533B90023044A1370044A82F88A308D
:1024300008BDFFF7BFFFF5E71810002038030020A4
:1024400008B50B460146184602F052FB08BD0000D5
:102450002DE9F04F85B0FEF7CBFF40B900233E4A8F
:1024600013703E4A82F88A3005B0BDE8F08F064608
:102470003A4FBB6E03FB00F8394C08EB0409B7F880
:1024800098A0B7F896B0ABEB0A050395227AE37AE9
:102490000093B4F8093002F0100203214846FFF718
:1024A000E1FCE91CBB6E9A1F91421BD9093B0393C7
:1024B0009BB2B7F898201A44A7F89820033324F861
:1024C0000830264CD4F89000BDF80C2009F1090121
:1024D0005044FFF7B5FF94F88D304BB31E4B0322E9
:1024E0009A55BBE71D4B002283F88D20A3F8962058
:1024F000A3F8982099F808200132D2B289F8082070
:10250000062D06D9ABEB0A0B0BF1030B24F808B030
:10251000D7E7C5F10703DBB25B00DBB2134489F8F0
:1025200008300A2308F80430002389F80130C8E78E
:102530000B4BB4F89E20D97AB3F80900FEF7F4FBF0
:1025400003460028CAD00649CA7AB1F809103046B5
:10255000FFF766FF88E700BF18100020380300204F
:10256000180A00202DE9F84F98469DF828B0BDF8CC
:102570002C904388093B9BB2022B40F2AF808246ED
:102580000F461446002651E003F10C015FE0F01DF8
:10259000EA1DD21008EBD00002F0AAFA3AE013F0DC
:1025A000080F01D0022A09D013F0100F01D0042A1D
:1025B00004D013F0200F2DD0082A2BD1F11DEA1DD5
:1025C000D21008EBD10102F093FA23E0BBF1000F27
:1025D00020D1B8F1000F1DD00120A840C0B20138B1
:1025E000C0B213F0010F01D0022A62D013F0020F23
:1025F00001D0042A5DD013F0040F01D0082A58D06E
:10260000F31DDB0800FA0CF018F803C02CEA0000F8
:1026100008F8030004B910252E44013424B2B9F19E
:10262000000F03D0F31DB9EBD30F58D9C7EBC70385
:102630002C4A02EB43031B799C4250DC04EB8403DD
:102640000AEB83039D88186900289DD0014606F097
:10265000070CDB88DBB2244A92F87C2002F00F02E0
:1026600015F0070FB2D1BCF1000F02D0A6EB0C069B
:102670000836B8F1000FCDD0BBF1000F8FD113F0A9
:10268000010F01D0022A82D013F0020F02D0042AD7
:102690003FF47DAF13F0040F02D0082A3FF477AF68
:1026A000F01DEA1DD210002108EBD00002F02EFA36
:1026B000B0E7BCF1000F04D1F31DDB08002208F8DD
:1026C0000320F31DDB080A78104000FA0CFC18F810
:1026D000030040EA0C0C08F803C09BE7034E3046A9
:1026E000BDE8F88FF06100083803002004000106FF
:1026F00070B584B0FEF77CFE50B30646284B986E4A
:10270000284B00FB06301B88DC1E0A2B28D0254DE9
:102710002A7A02F010020023009320320321FFF7EF
:10272000A1FBB5F809300393A2B21D4BD3F890106A
:1027300003A8FFF785FE2B7A13F0010F17D1184A73
:10274000D2F890302344C2F89030174B03229A55A8
:1027500000231A4619461846FFF762FE04B070BD02
:10276000104B1C7A6FEA540404F00704CFE70C4BBB
:10277000002283F88D20B3F89E2093F89C10B3F8C4
:102780009A00FEF7B7FA03460028DED0044991F814
:102790009C20B1F89A103046FFF742FEDEE700BFFA
:1027A00038030020180A00201810002008B54388BC
:1027B000013B362B2DD8DFE803F01C1C20241C2005
:1027C00024242C2C2C2C2C2C2C2C282C2C2C282C61
:1027D0002C2C2C2C282C2C2C2C2C2C2C2C2C2C2C3D
:1027E0002C2C2C2C2C2C1C20241C1C1C1C1C1C1CBD
:1027F0001C0003691878002108BD036918880021AE
:10280000FAE7036918680021F6E703691868596850
:10281000F2E7034B034A4FF4C761034802F014F98F
:10282000905B0008E05B0008945B000800B5154B66
:10283000C0EBC00203EB4202D2F80AE092F804C0F7
:102840008C4508D301EB81033EF823208BB29A42DA
:102850000ED0002000E0002000EB80033EF8232093
:102860008BB29A4206D2604504DA013000B2F3E737
:1028700008B201E09A4201D15DF804FB4FF0FF304D
:10288000FAE700BFF06100080146002000E00130D7
:10289000C0EBC003044A32F813308B42F7D300D1A7
:1028A00070474FF0FF30FBE7F061000838B51D4678
:1028B000B0F809300B80C37A1370012B10D814467E
:1028C0000888FFF7E1FF00B2288000280ADB2178A2
:1028D000FFF7ACFF049B1880002805DB002038BD03
:1028E0000248FCE70248FAE70248F8E70000010660
:1028F00000000206110009062DE9F04F87B004AB75
:1029000000930DF112030DF115020DF11601784837
:10291000FFF7CCFF002840F0A580FEF769FD0546D3
:10292000002800F0AA80BDF91210C1EBC102714B62
:1029300003EB4203D3F80A60002301930093BDF92F
:1029400010203046FFF70EFE0390182800F29E80FC
:10295000441EE408C4F10304A400E4B20730C30831
:102960000393B3F5803F80F093801E33B3F5C06FBF
:1029700000F29680F388326943F40043009303AB7E
:102980009DF81510BDF81600FEF7BEF903460028A5
:1029900040F08F80584F4FF0000ACDF804A0CDF8DA
:1029A00000A03B46BDF91020BDF912103046FFF7DC
:1029B000D9FD57F8783C03FB05F8DFF834B108EB94
:1029C0000B099DF815300093BDF8163051220321F4
:1029D0004846FFF747FA07F853ACE03F039A042A4A
:1029E0006FD9C9F80C2002F10A034449896E881F87
:1029F000834211D9414BA3F8962010390391A3F8D3
:102A00009810402283F88D2003F1E002C3F8902053
:102A10004FF40042A3F89E20039A02F10A032BF818
:102A20000830354909F1100002F062F8334B93F891
:102A30008D305BB9F28842F400429DF81510BDF864
:102A40001600FEF771F90346002848D12C4B0322EB
:102A50005A5500239DF81520BDF816102846FFF79B
:102A6000DFFC07E003469DF81520BDF81610002096
:102A7000FFF7D6FC07B0BDE8F08F00239DF81520C6
:102A8000BDF816101846FFF7CBFCF3E7002465E706
:102A90009DF81520BDF816102846FFF7C1FCE9E7A0
:102AA000184B9DF81520BDF816102846FFF7B8FC06
:102AB000E0E79DF81520BDF816102846FFF7B0FC9A
:102AC000D8E799F808301C4344F0020489F808401C
:102AD00007F1E00109F10C0002F00AF8A6E79DF801
:102AE0001520BDF816102846FFF79AFCC2E700BF74
:102AF000180A0020F06100081804002038030020A4
:102B0000181000200400010670B586B004AB0093D5
:102B10000DF112030DF115020DF116015048FFF7EA
:102B2000C5FE002856D14E4BDC6803941B7A13F087
:102B3000020F58D0C3F38104C4F10404A4B203AE5D
:102B4000BDF91210C1EBC102464B03EB4203D3F8AF
:102B50000A500023019301220092BDF9102028465B
:102B6000FFF700FD0346C21DD108B2F5002F3DD28C
:102B7000A14253D3EA8842F40042009232469DF8C3
:102B80001510BDF81600FEF777F80346B0BB0194A8
:102B9000012300933346BDF91020BDF912102846D9
:102BA000FFF7E0FCEA8842F400429DF81510BDF8FA
:102BB0001600FEF79FF8034640BBFEF719FC0446DB
:102BC000B0BB00239DF81520BDF816102046FFF776
:102BD00027FC2BE003469DF81520BDF816100020B9
:102BE000FFF71EFC22E0A4B204AEA9E79DF8152071
:102BF000BDF816100020FFF713FC17E09DF8152014
:102C0000BDF816100020FFF70BFC0FE09DF8152013
:102C1000BDF816100020FFF703FC07E0124B9DF8EB
:102C20001520BDF816100020FFF7FAFB06B070BDA6
:102C30000E4B9B6E0A4D03FB00559DF8153000931B
:102C4000BDF81630702203212846FFF70BF9002348
:102C50002B736B73AB73EB73054B03221A55B0E701
:102C6000180A0020F0610008100007063803002051
:102C7000181000202DE9F04F85B0814BB3F8097092
:102C8000BDB2DE7A2846FFF7FFFD04B2002CC0F289
:102C9000E78031462046FFF7C9FD0028C0F2D98001
:102CA000C4EBC404774B03EB4404D4F80A4000EBB4
:102CB000800004EB8004E288D1B2734B93F87C303F
:102CC00003F00F0312F0010F01D0022B10D011F00E
:102CD000020F01D0042B0BD011F0040F01D0082BF0
:102CE00006D06A4B324629460020FFF799FBC3E025
:102CF000FEF77EFB8246002800F0B880624B9B6E98
:102D000003FB00F9DFF878B109EB0B0800230A2276
:102D100009F80B2088F8013098F80520032161F3A9
:102D2000030288F8052088F80630302388F8073039
:102D3000A3880393082B33D80C22102B00D904222C
:102D4000182B00D90022A8F8097088F80B604121DF
:102D500088F808100733DB080393042B30D843327C
:102D600088F808202269EAB1E388009303AB314672
:102D70002846FDF7C9FF0746D8B92069A8B1BDF8B4
:102D80000C2008F10C01FFF75BFB27B93E4B93F8D1
:102D90008D30002B4FD03E4B032203F80A2065E014
:102DA0000822CAE704F10C02DEE7E368C8F80C3039
:102DB000EBE70346324629465046FFF731FB5BE01E
:102DC0002269E388009303AB31462846FDF79CFF58
:102DD000074648BB039B2C4AA2F89630C8F80C3033
:102DE0000A33926E911F8B4219D9103A0392264BE7
:102DF000A3F89820402283F88D202269C3F8902000
:102E0000E288A3F89E20BDF80C2002F10A032BF8FB
:102E1000093008F110012069FFF712FBB5E71A4BE2
:102E2000002283F88D20EEE70346324629465046BD
:102E3000FFF7F6FA20E0E28831462846FDF774FFF6
:102E400003460028A7D0324629465046FFF7E8FA45
:102E500012E0104B324629460020FFF7ABFA05E09E
:102E60000D4B324629460020FFF7A4FA0023084AFA
:102E70001370054A82F88A3005B0BDE8F08F00BFB4
:102E8000180A0020F0610008380300200100010644
:102E90001810002011000906000002062DE9F04379
:102EA00085B0854BB3F80970BDB2DE7A2846FFF7CE
:102EB000EBFC04B2002CC0F2F08031462046FFF754
:102EC000B5FC0028C0F2E280C4EBC4047B4B03EBEA
:102ED0004404D4F80A4000EB800004EB8004E2884C
:102EE000D1B202F03F00764B93F87C3003F00F0331
:102EF00012F0080F01D0022B13D011F0100F01D0E7
:102F0000042B0ED011F0200F01D0082B09D00F2870
:102F100000F0B5806B4B324629460020FFF74AFA95
:102F2000C1E0654B93F8088018F0020F2DD0C8F36C
:102F30008108C8F104081FFA88F8DB6803930DF1D3
:102F40000C09A3880733DA10B8EBD30F2CD06388B1
:102F5000092B22D0A3F10A0292B2012A24D9B3F597
:102F6000187F21D040F2612293421DD040F26222AC
:102F7000934219D040F26322934215D0524B32460D
:102F800029460020FFF74CFA93E04B4BD3F80C8016
:102F90001FFA88F803F11009D3E72069A2EB0802B1
:102FA0000021404401F0B2FDE388009343464A46C5
:102FB00031462846FDF760FE0346002859D1B8F196
:102FC000040F18D93C4B1B88A3F10902424512DCBF
:102FD0000A3B1FFA83F83A4B502283F88D2022696E
:102FE0004244C3F89020A3F89A7083F89C60E2886A
:102FF000A3F89E2003E0324B002283F88D20424646
:1030000021694846FFF71CFAFEF7F2F98046F8B14D
:103010002B4B996E01FB00F127480B1800224FF053
:103020000A0C01F800C05A705879032161F30300BB
:1030300058719A713020D871A3F80970DE7260203F
:1030400018721A735A739A73DA73204B03F80810C4
:103050001B4B93F88D3033BBE28831462846FDF791
:1030600049FE0346F8B1324629464046FFF7A2F929
:1030700019E0324629460020FFF79CF913E0144B73
:10308000324629460020FFF795F90CE0114B3246F5
:1030900029460020FFF78EF905E00F4B32462946FE
:1030A0000020FFF787F90023084A1370044A82F8CA
:1030B0008A3005B0BDE8F083180A0020F0610008EE
:1030C0003803002002000106100007061810002037
:1030D0002200000811000906000002062DE9F8434D
:1030E0004E4BB3F80C901FFA89F0FFF7CDFBB0F10F
:1030F0000008C0F28E80FEF77BF90646002800F03B
:103100008B80474B9D6E00FB05F5444FEC196379AE
:10311000032262F3030363710023A3716FF07F0244
:10312000E271227A042161F306022272D2B263F3C1
:10313000C71222726372A372E372A4F80C90C8EBF8
:10314000C803384A02EB4303B3F80290B9F1070F02
:103150001BD0B9F1080F2DD00023A373E373C8EB84
:10316000C803304A02EB4303D3F80A30DB68237408
:1031700084F81190C8EBC8002A4B03EB4000D0F84C
:1031800006C004F1120200232FE000210FFA88F09C
:10319000FFF74CFBC8EBC803224A02EB4303D3F80A
:1031A0000A2000EB800002EB80004288E2811B795C
:1031B0002374DDE700210FFA88F0FFF737FBC8EB37
:1031C000C803184A02EB4303D3F80A3000EB80002F
:1031D00003EB80004288E281DB682374C8E702F8D1
:1031E000010B0133DBB20CF1010C9CF8000020B1A3
:1031F0000B49896E12398B42F1D310700C33EB53AB
:10320000094A0323935500231370054A82F88A3034
:1032100002E00648FEF7D2FFBDE8F883180A002056
:1032200038030020F061000818100020000002069A
:103230002DE9F041354B9D899E7BA8B2FFF724FB19
:10324000071E5FDB314638B2FFF7F0FA041E54DB8D
:10325000C7EBC7002E4F07EB4000D0F80A70FEF70F
:10326000C7F8864600284BD02A4B9B6E03FB00FC18
:1032700026480CEB00025379032161F303035371D9
:10328000002393716FF07F01D171117A4FF006081E
:1032900068F306011172C9B263F3C7111172537258
:1032A0009372D372958196730721D17304EB8404D2
:1032B00007EB840779881182B9885182F988918255
:1032C000BD6816322C7854B11249896E16398B427A
:1032D00005D202F8014B0133DBB20135F2E714707D
:1032E00010332CF800300C4A032302F80E30002370
:1032F0001370084A82F88A3002E00848FEF75EFF41
:10330000BDE8F0810648FEF759FFF9E7180A0020EA
:10331000F061000838030020181000201100090691
:10332000000002062DE9F04F87B0059101929B46FF
:10333000A0F5E053123B9BB2012B00F2B380FFF7E4
:10334000A3FA00B20028C0F2B180C0EBC000584B15
:1033500003EB4000D0F80A3004931B699BB11B7843
:103360000393039B002B40F093804FF000094C46E1
:10337000BBF1000F40F39280059BC3F80090E01D65
:10338000C0F3CF008FE0049BDB68DBB20393E8E778
:10339000D86880B268E0DAF80C30DBB2009375E0F0
:1033A000DE6834E04FF0FF33059A136000207AE0C6
:1033B000FFF76AFA0FFA80F8B8F1000F3CDB3146EC
:1033C0004046FFF733FA002830DBC8EBC808384B1B
:1033D00003EB4808D8F80A3000EB800003EB8000CC
:1033E000019A02EBC90342F839009C8009F10109F6
:1033F0003C44A4B20135EDB2009B9D4222D805EBBE
:1034000085030AEB83031A69002AC9D01668F7B24C
:10341000BBF1000FECDD300CC6F30726D945C1D057
:103420000028C5D1002EC3D10020D9E74FF0FF33CB
:10343000059A1360002036E04FF0FF33059A1360C1
:10344000002030E0029B0133DBB20293029B039A1F
:1034500093428DD8029B03EB8303049A02EB830310
:103460001A69002A94D01088FFF70EFA00B20028DB
:10347000E8DBC0EBC0000E4B03EB4000D0F80AA025
:10348000DAF81030002B86D01B7800930125B3E7C3
:103490004FF00009012302934C46D7E70023059A19
:1034A00013606CE7002007B0BDE8F08F0020FAE75A
:1034B000F061000808B54F4B93F86430A3B14D4B51
:1034C00093F88A301BB94C4B1B78012B0DD0494B1C
:1034D000D3F8883003F0FF13B3F5981F18D0454B8D
:1034E00093F88A30032B16D008BD444B5B7903F068
:1034F0000F03032BEBD1414B1B88072B04D93D4B0A
:10350000032283F88A20E2E70820FDF7BDFFDEE70B
:10351000FEF7E2FDE3E7394BDB881B0B022B11D0F2
:10352000082B42D0082B49D0082B50D0002B57D164
:103530000520FDF7A9FF00232F4A13702D4A82F8BA
:103540008A30D1E72D4B1A7A02F0E003402B0AD0E3
:1035500002F0EF01602913D0202B1DD0002BC3D126
:10356000FFF7C6F8C0E7254909880A29F0D112F00B
:10357000100F02D0FFF7C0F9B6E7FFF77BFBB3E708
:103580001E4909880A29E7D11A4991F88D10402966
:10359000E2D1FEF75DFFA7E712F0100F02D0FFF7B0
:1035A000B3FAA1E7FFF77AFC9EE7144A127A02F019
:1035B0007F02012AB6D1FEF73FFE95E70F4A127A45
:1035C00002F07F02032AAFD1FFF788FD8CE70B4A98
:1035D000127A02F07F02052AA8D1FFF729FE83E7BD
:1035E0000649074BCA7AB1F809100020FEF7E2FE3F
:1035F000A1E700BF3803002018100020180A00209F
:10360000000001061A4B93F8243083BB2DE9F041EA
:103610004FF0000812E0C2680023FEF72EFD0134CF
:10362000725BBBB29A4207D204EB84039D0070190F
:103630000369002BEFD1F2E708F10108C8EBC802DB
:1036400053000C4AD25A4FF6FF739A4209D0C8EB86
:10365000C8035A00074B1344D3F80A601F790024AB
:10366000E2E7034B9B6A03B19847BDE8F0817047DE
:1036700038030020F06100082DE9F04383B010F01A
:10368000070F04D180460F461646002410E0154B64
:10369000154A40F2AA61154801F0D6F9FFF786F8FD
:1036A000CDE900012A4649464046FEF753FC013465
:1036B000BC4214DA06EBC40356F83400B3F80490A5
:1036C0000028F4D08588402DE8D909F10709EA1DC2
:1036D000D210016908EBE90001F00AFAE7E703B04C
:1036E000BDE8F083B05B0008F05B0008945B000865
:1036F0002DE9F04110F0070F04D180460F46164621
:1037000000240FE0134B144A40F2D961134801F032
:103710009BF94046FEF7C1FB02460B462846FEF7E2
:10372000ACFC0134BC4212DA06EBC40356F8345048
:103730009988002DF5D0AA88402AEAD907310732A6
:10374000D21008EBE101286901F0D2F9E9E7BDE800
:10375000F08100BFB05B0008D05B0008945B0008FC
:1037600008B5FFF791F8B0F1FF3F0DD0C0EBC000F6
:10377000064B03EB4000D0F80A2013690BB1187810
:1037800008BDD068C0B2FBE70020F9E7F06100088F
:1037900010B504460E4B18784FF47A73B3FBF0F370
:1037A0000C4A1068B0FBF3F000F0AEF868B90F2CCB
:1037B00001D901200AE0002221464FF0FF3000F03D
:1037C0004BF8054B1C60002000E0012010BD00BF3D
:1037D00064000020600000206800002008B50B4B4A
:1037E0001A6842F400721A601A6842F480621A6021
:1037F0001A6842F480721A60032000F01BF80F2050
:10380000FFF7C6FFFDF754F8002008BD003C02405A
:10381000034A1168034B1B780B441360704700BFC9
:103820004414002064000020014B1868704700BF5A
:1038300044140020074AD36823F4E0631B041B0CE4
:10384000000200F4E060034343F0BF6343F400333D
:10385000D360704700ED00E000B5194BDB68C3F39F
:103860000223C3F1070CBCF1040F28BF4FF0040C76
:1038700003F1040EBEF1060F18D9033B4FF0FF3ED3
:103880000EFA0CFC21EA0C0199400EFA03F322EA2D
:103890000303194300280BDB0901C9B200F16040A2
:1038A00000F5614080F800135DF804FB0023E5E7B4
:1038B00000F00F000901C9B2024B1954F4E700BF30
:1038C00000ED00E014ED00E0002807DB00F01F022F
:1038D000400901239340024A42F82030704700BF5C
:1038E00000E100E000280CDB00F01F02400901238A
:1038F00093402030034A42F82030BFF34F8FBFF38C
:103900006F8F704700E100E00138B0F1807F0BD28B
:103910004FF0E0235861054AF02182F8231000207F
:10392000986107221A6170470120704700ED00E09E
:1039300010B40368D9B210390C4AA2FB0142120933
:103940000B4CA25CC2655F2909D923F47F7323F075
:10395000030304338365806D5DF8044B704723F4E3
:103960007F7323F003038365F5E700BFABAAAAAA20
:10397000FC5B0008836A826992B9012B0AD0022B92
:1039800002D00BB100207047C36A13F0807F28D1AA
:1039900000207047C36AB3F1C07F24D00020704775
:1039A000B2F5005F09D0022B25D9032B25D1C36ABC
:1039B00013F0807F23D100207047032B03D8DFE86A
:1039C00003F01404140A00207047C36A13F0807FC8
:1039D0000DD100207047C36AB3F1C07F09D0002029
:1039E0007047012070470120704701207047012077
:1039F0007047012070470120704700207047012068
:103A00007047000070B50446FFF70EFF002C5BD036
:103A10000546022384F83530002384F834302268C8
:103A2000136823F00103136023681A6812F0010F72
:103A30000AD0FFF7F9FE431B052BF5D92023636558
:103A4000032084F8350070BD1A6820481040616872
:103A5000A2680A43E1680A4321690A4361690A438B
:103A6000A1690A43E1690A43216A0A430243616A80
:103A700004291ED01A602668756925F00705636A57
:103A80001D43042B07D1A36A1D43E36A1BB12046E3
:103A9000FFF770FF90B975612046FFF749FFE26DAF
:103AA0003F239340836000206065012384F8353014
:103AB000C9E7E16A206B01430A43DBE74023636502
:103AC000012084F83500BEE70120BCE73F8010F0FC
:103AD00000230F2B00F2E48070B582B060E08568AF
:103AE0005E000324B44025EA0405CC68B4402C43AE
:103AF0008460456825EA02054C68C4F300129A40C8
:103B00002A4342605AE0DC08083450F8246003F08D
:103B1000070295000F22AA4026EA020E0A69AA406F
:103B200042EA0E0240F824205CE0072200E0002276
:103B300002FA0EF22A4302345A4D45F824205A4A1A
:103B400094686FEA0C0224EA0C054E6816F4801F94
:103B500001D04CEA0405544CA560E46802EA04056F
:103B60004E6816F4001F01D04CEA04054E4CE56087
:103B7000646802EA04054E6816F4003F01D04CEA7E
:103B80000405494C6560246822404D6815F4803F67
:103B900001D04CEA0402444C226001330F2B7DD843
:103BA00001229A400C6804EA020C32EA0404F4D1BF
:103BB0004C6804F00304013C012C90D94A6802F0DF
:103BC0000302032A09D0C4685D000322AA4024EA44
:103BD00002048A68AA402243C2604A6802F00302D3
:103BE000022A90D004684FEA430E032202FA0EF232
:103BF00024EA02044A6802F0030202FA0EF22243A7
:103C000002604A6812F4403FC7D000220192274A5E
:103C1000546C44F480445464526C02F48042019227
:103C2000019A9C08A51C1F4A52F8255003F0030274
:103C30004FEA820E0F2202FA0EF225EA02051C4A12
:103C400090423FF474AF02F5806290421AD002F5C0
:103C50008062904218D002F58062904216D002F540
:103C60008062904214D002F58062904212D002F538
:103C70008062904210D002F5806290423FF455AFCE
:103C8000082255E7012253E7022251E703224FE7BA
:103C900004224DE705224BE7062249E702B070BD3A
:103CA000704700BF00380140003C0140003802402E
:103CB000000002400AB181617047090481617047C8
:103CC0007047000008B5054B5B69034200D108BD91
:103CD000024B5861FFF7F4FFF9E700BF003C0140D9
:103CE000002800F0E08170B582B00446036813F04C
:103CF000010F3BD09F4B9B6803F00C03042B2CD08F
:103D00009C4B9B6803F00C03082B21D06368B3F530
:103D1000803F4FD0B3F5A02F52D0964B1A6822F4B3
:103D200080321A601A6822F480221A606368002BBD
:103D300050D0FFF779FD05468E4B1B6813F4003F0A
:103D400014D1FFF771FD401B6428F5D90320B1E1C0
:103D5000884B5B6813F4800FD8D0864B1B6813F434
:103D6000003F03D06368002B00F09F81236813F0AD
:103D7000020F54D07F4B9B6813F00C0F3ED07D4B4D
:103D80009B6803F00C03082B33D0E368002B68D04A
:103D9000794B01221A60FFF747FD0546754B1B68FA
:103DA00013F0020F54D1FFF73FFD401B0228F5D955
:103DB00003207FE16F4A136843F480331360B5E753
:103DC0006C4B1A6842F480221A601A6842F48032FE
:103DD0001A60ABE7FFF728FD0546664B1B6813F436
:103DE000003FC3D0FFF720FD401B6428F5D9032016
:103DF00060E1604B5B6813F4800FC6D15D4B1B68BC
:103E000013F0020F03D0E368012B40F05081594AB0
:103E1000136823F0F803216943EAC10313602368A0
:103E200013F0080F42D063696BB3534B0122C3F800
:103E3000802EFFF7F9FC05464E4B5B6F13F0020F27
:103E400034D1FFF7F1FC401B0228F5D9032031E102
:103E5000484A136823F0F803216943EAC103136059
:103E6000DDE7454B00221A60FFF7DEFC0546414BBB
:103E70001B6813F0020FD2D0FFF7D6FC401B0228BC
:103E8000F5D9032016E13C4B0022C3F8802EFFF742
:103E9000CBFC0546374B5B6F13F0020F06D0FFF7E4
:103EA000C3FC401B0228F5D9032003E1236813F06B
:103EB000040F77D02F4B1B6C13F0805F33D100239E
:103EC00001932C4B1A6C42F080521A641B6C03F065
:103ED00080530193019B0125284B1B6813F4807FBD
:103EE00023D0A368012B34D0052B38D0214B1A6F77
:103EF00022F001021A671A6F22F004021A67A368FF
:103F0000002B3DD0FFF790FC06461A4B1B6F13F0B9
:103F1000020F46D1FFF788FC801B41F2883398429C
:103F2000F3D90320C6E00025D6E7144A136843F40A
:103F300080731360FFF778FC0646104B1B6813F480
:103F4000807FCED1FFF770FC801B0228F5D90320BB
:103F5000B0E0084A136F43F001031367CFE7054B46
:103F60001A6F42F004021A671A6F42F001021A67D0
:103F7000C5E700BF00380240000047420070004023
:103F8000FFF752FC0646524B1B6F13F0020F08D08E
:103F9000FFF74AFC801B41F288339842F3D9032093
:103FA00088E0EDB9A369002B00F08380484A92684D
:103FB00002F00C02082A51D0022B17D0454B0022E8
:103FC0001A66FFF731FC0446414B1B6813F0007F73
:103FD00042D0FFF729FC001B0228F5D9032069E035
:103FE0003B4A136C23F080531364DBE7394B002208
:103FF0001A66FFF719FC0546354B1B6813F0007F66
:1040000006D0FFF711FC401B0228F5D9032051E030
:10401000E369226A1343626A43EA8213A26A52087E
:10402000013A43EA0243E26A43EA0263284A5360E0
:10403000284B01221A66FFF7F7FB0446244B1B6846
:1040400013F0007F06D1FFF7EFFB001B0228F5D924
:1040500003202FE000202DE000202BE0012B2BD0AF
:104060001B4B5B6803F48001E269914226D103F0A7
:104070003F02216A8A4223D1616A47F6C0721A4020
:10408000B2EB811F1ED103F44031A26A5208013AFB
:10409000B1EB024F18D103F07063E26AB3EB026F29
:1040A00014D1002006E001207047012002E0012029
:1040B00000E0002002B070BD0120FBE70120F9E71D
:1040C0000120F7E70120F5E70120F3E70120F1E700
:1040D000003802400000474208B5314B9B6803F0AE
:1040E0000C03042B57D0082B57D12D4B5A6802F0E4
:1040F0003F025B6813F4800F2AD0294B5968C1F343
:10410000881C4FEA4C11B1EB0C006EEB0E0E4FEA1F
:104110008E1343EA90638101091A63EB0E03DB00FF
:1041200043EA5173C90011EB0C0C43F1000359022F
:1041300000234FEA4C2041EADC51FCF799F8184B78
:104140005B68C3F3014301335B00B0FBF3F025E090
:10415000134B5968C1F3881C4FEA4C11B1EB0C00AA
:104160006EEB0E0E4FEA8E1343EA90638101091A3B
:1041700063EB0E03DB0043EA5173C90011EB0C0C37
:1041800043F10003990200234FEA8C2041EA9C513D
:10419000FCF76EF8D3E7034800E0034808BD00BF12
:1041A0000038024000127A000024F400002800F0D9
:1041B0009B8070B50D4604464F4B1B6803F0070308
:1041C0008B4208D2CBB24C4A1370136803F007033A
:1041D0008B4240F08B80236813F0020F17D013F04E
:1041E000040F04D0454A936843F4E0539360236876
:1041F00013F0080F04D0414A936843F4604393607E
:104200003E4A936823F0F003A1680B439360236850
:1042100013F0010F32D06368012B21D09A1E012ABE
:1042200025D9364A126812F0020F61D033498A68E4
:1042300022F0030213438B60FFF7F6FA06462F4B7A
:104240009B6803F00C036268B3EB820F16D0FFF794
:10425000EBFA801B41F288339842F0D9032042E008
:10426000264A126812F4003FE0D101203BE0234AC5
:10427000126812F0007FD9D1012034E01E4B1B6878
:1042800003F00703AB4207D9EAB21B4B1A701B6855
:1042900003F00703AB422DD1236813F0040F06D0BF
:1042A000164A936823F4E053E1680B439360236854
:1042B00013F0080F07D0114A936823F46043216973
:1042C00043EAC1039360FFF707FF0C4B9B68C3F3FE
:1042D00003130B4AD35CD8400A4B18600A4B18688A
:1042E000FFF756FA002070BD012070470120FAE761
:1042F0000120F8E70120F6E7003C024000380240C8
:10430000605B000860000020680000202DE9F04795
:1043100082B00546884617461E46FFF785FA0A9B77
:104320001B1A03EB0609FFF77FFA82462B4B1B682B
:10433000C3F3CB3309FB03F301932B689C6838EA82
:1043400004030CBF4FF0010C4FF0000CBC4540D0F3
:10435000B6F1FF3FF1D0FFF767FAA0EB0A0048453E
:104360000AD2B9F1000F07D0019A02B14A46019B67
:10437000013B01939146E0E72A68536823F0E0038C
:1043800053606B68B3F5827F0BD0AB6AB3F5005F07
:1043900014D0012385F85130002385F850300320D4
:1043A00018E0AB68B3F5004F02D0B3F5806FECD1E5
:1043B0002A68136823F040031360E6E72A6813684D
:1043C00023F4005313602A68136843F40053136006
:1043D000DFE7002002B0BDE8F08700BF60000020EA
:1043E00010B584B00446164B1868164BA3FB00307A
:1043F000400D4FF47A7303FB00F003906368B3F54C
:10440000827F0BD0039BBBB1039B013B03932368CB
:104410009B6813F0800FF5D100200EE000920B4650
:10442000002280212046FFF771FF30B1636D43F019
:1044300020036365032000E0002004B010BD00BF2E
:1044400060000020819F5E16002860D010B50446F1
:10445000436A33B94368B3F5827F05D00023C36153
:1044600002E000230361436194F85130002B44D0F3
:10447000022384F851302268136823F0400313604C
:10448000636803F48273A26802F404421343E2688F
:1044900002F400621343226902F0020213436269CC
:1044A00002F001021343A26902F400721343E269AD
:1044B00002F038021343226A02F080021343A26A18
:1044C00002F40052216813430B60638B03F0040372
:1044D000626A02F01002216813434B60A36AB3F5CD
:1044E000005F10D02268D36923F40063D3610020F9
:1044F0006065012384F8513010BD84F850302046A7
:10450000FCF7F2F9B4E72368A28D1A61EAE701200B
:1045100070472DE9F04383B01D4690F85030012BD1
:1045200000F0EA80044688469146012380F8503026
:10453000FFF77AF9074694F85160F6B2012E40F081
:10454000C880B8F1000F00F0C580B9F1000F00F08D
:10455000C180032384F8513000236365C4F83080A0
:10456000A4F83490A4F83690A363A387E387636428
:104570002364A368B3F5004F22D0A36AB3F5005FAC
:1045800029D023681A6812F0400F03D11A6842F04C
:1045900040021A60E368B3F5006F27D0636813B177
:1045A000B9F1010F5DD1226B236812781A73236B66
:1045B00001332363E38E9BB2013B9BB2E38650E061
:1045C0002268136823F0400313602268136843F4E1
:1045D00080431360D1E72268136823F4005313600B
:1045E0002268136843F400531360CAE7636813B189
:1045F000B9F1010F16D1226B23681288DA60236BA0
:1046000002332363E38E9BB2013B9BB2E38609E056
:10461000FFF70AF9C01BA84202D3B5F1FF3F63D1EF
:10462000002D63D0E38E9BB2002B33D023689A68B1
:1046300012F0020FECD0226B1288DA60236B023387
:104640002363E38E9BB2013B9BB2E386EAE7FFF76D
:10465000EBF8C01BA84202D3B5F1FF3F48D1002DB3
:1046600048D0E38E9BB2ABB123689A6812F0020F78
:10467000EDD0226B12781A73236B01332363B4F8E5
:1046800036C01FFA8CFC0CF1FF3C1FFA8CFCA4F81E
:1046900036C0E6E7A36AB3F5005F14D03A46294670
:1046A0002046FFF79DFE08B120236365A36833B958
:1046B00001932368DA6801929B680193019B636D03
:1046C00043B9002606E02268136843F48053136060
:1046D000E4E70226012384F85130002384F85030A7
:1046E000304603B0BDE8F0830326F3E70326F1E785
:1046F0000326EFE70326EDE70226F1E72DE9F04375
:1047000085B01F460C9D0023039390F85030012B79
:1047100000F06681044688469146012380F85030B7
:10472000FFF782F8064694F85130DBB26268012B3D
:104730000AD0B2F5827F40F03881A268002A40F0AA
:104740003F81042B40F03E81B8F1000F00F03C8126
:10475000B9F1000F00F03A81002F00F0398194F890
:104760005130DBB2042B02D0052384F851300023F2
:104770006365C4F83890E787A787C4F83080E78678
:10478000A78623646364A36AB3F5005F1ED0236821
:104790001A6812F0400F03D11A6842F040021A6002
:1047A000E368B3F5006F1CD063680BB1012F0BD128
:1047B000226B236812781A73236B01332363E38E11
:1047C0009BB2013B9BB2E38601278EE0226813680F
:1047D00023F4005313602268136843F400531360FA
:1047E000D5E763680BB1012F0BD1226B23681288C8
:1047F000DA60236B02332363E38E9BB2013B9BB2EF
:10480000E386012724E02268136843F48053136091
:10481000002700E0002723689A6812F0010F0ED0ED
:10482000E28F92B25AB1DA68A36B1A80A36B02339B
:10483000A363E38F9BB2013B9BB2E3870127FEF7A3
:10484000F3FF801BA84203D3B5F1FF3F40F0C280C5
:10485000E38E9BB21BB9E38F9BB2002B6BD0236816
:104860009A6812F0020FD6D0E28E92B2002AD2D00D
:10487000002FD0D0226B1288DA60236B02332363BF
:10488000E38E9BB2013B9BB2E386E38E9BB2002B8F
:10489000C0D1A36AB3F5005FB5D00027BBE722689B
:1048A000136843F480531360002700E00027236857
:1048B0009A6812F0010F0ED0E28F92B25AB1DA6804
:1048C000A36B1A70A36B0133A363E38F9BB2013B0D
:1048D0009BB2E3870127FEF7A7FF831BAB4202D3FE
:1048E000B5F1FF3F78D1002D78D0E38E9BB213B99C
:1048F000E38F9BB2FBB123689A6812F0020FD6D007
:10490000E28E92B2002AD2D0002FD0D0226B127841
:104910001A73236B01332363E38E9BB2013B9BB27B
:10492000E386E38E9BB2002BC0D1A36AB3F5005F90
:10493000B5D00027BBE7A36AB3F5005F0DD02368AD
:104940009A6812F0100F1BD0626D42F0020262658D
:104950004FF6EF729A60012713E000962B46012272
:1049600011462046FFF7D2FC20B92368DB68039389
:10497000039BE4E7636D43F002036365032715E0DF
:104980000027324629462046FFF72AFD48B9A3688A
:1049900063B902932368DA6802929B680293029BD0
:1049A00004E020236365012700E00227012384F847
:1049B0005130002384F85030384605B0BDE8F0830C
:1049C0000227F3E70227F1E70127EFE70127EDE7E9
:1049D0000127EBE70327E9E70327E7E70327E5E7F5
:1049E0000227E9E708B5002303704370C36803B1E9
:1049F000984708BDDFF834D00D480E490E4A002311
:104A000002E0D458C4500433C4188C42F9D30B4A82
:104A10000B4C002301E013600432A242FBD3FCF7ED
:104A200017F800F041F8FBF71FFF70470000022065
:104A300000000020D0000020506A0008D0000020B4
:104A40005C140020FEE700001FB514461A46094B0F
:104A50001B680546D8684CB1074B0091CDE901347D
:104A600006492B4600F00EF800F006FC044B1C46ED
:104A7000F3E700BF6C0000206A690008776900084E
:104A8000A56900080EB403B5014603AB054853F809
:104A9000042B0068019300F06BF802B05DF804EBA2
:104AA00003B070476C00002070B50D4D0D4C641BB9
:104AB000A4100026A64209D10B4D0C4C01F040F881
:104AC000641BA4100026A64205D170BD55F8043B16
:104AD00098470136EEE755F8043B98470136F2E770
:104AE000486A0008486A0008486A00084C6A0008DA
:104AF0000A44914200F1FF3300D1704710B511F81C
:104B0000014B03F8014F9142F9D110BD0244034615
:104B1000934200D1704703F8011BF9E79368013B0A
:104B2000002B10B4936008DA9469A34201DB0A29D0
:104B300003D15DF8044B00F0DFBA1368581C106015
:104B4000197008465DF8044B7047F8B506460F46E5
:104B50001446D518AC4201D1002007E014F8011B1F
:104B60003A463046FFF7DAFF431CF3D1F8BD0000A8
:104B70002DE9F04F0D469DB014469846064618B1F3
:104B800083690BB900F09AFC894B9D421BD1756873
:104B90006B6ED90705D4AB899A0502D4A86D00F0D5
:104BA0002BFDAB891B0701D52B69EBB92946304694
:104BB00000F0F4FAC0B16B6EDC070ED54FF0FF3099
:104BC0001DB0BDE8F08F7B4B9D4201D1B568DFE79A
:104BD000794B9D4208BFF568DAE7AB899805EDD4BB
:104BE000A86D00F00AFDE9E70023099320238DF862
:104BF0002930CDF80C803023DFF8C0818DF82A30C1
:104C00004FF0010923469A4613F8012B0AB1252AD1
:104C1000F9D1BAEB040B0BD05B462246294630464D
:104C2000FFF793FF013000F0AA80099A5A440992D5
:104C30009AF80030002B00F0A28000234FF0FF32E2
:104C4000CDE905230AF1010A049307938DF8533047
:104C50001A935446052214F8011B5848FBF7B8FA7A
:104C6000049AD8B9D10644BF20238DF853301307D6
:104C700044BF2B238DF853309AF800302A2B15D0DF
:104C8000079A544600204FF00A0C214611F8013BC8
:104C9000303B092B4ED9B0B1079214E0A0EB0803CA
:104CA00009FA03F313430493A246D2E7039B191DA9
:104CB0001B680391002BBBBF5B4242F002020793CB
:104CC0000793B8BF049223782E2B0CD163782A2B3C
:104CD00035D1039B1A1D1B680392002BB8BF4FF000
:104CE000FF3302340593DFF8E4A021780322504615
:104CF000FBF76EFA40B14023A0EB0A0003FA00F084
:104D0000049B03430134049314F8011B2C488DF8D1
:104D100028100622FBF75CFA00283FD0294B1BBB6A
:104D2000039B073323F0070308330393099B3B449A
:104D3000099367E70CFB02320C460120A5E700232C
:104D40000134059319464FF00A0C204610F8012B48
:104D5000303A092A03D9002BC5D00591C3E70CFBD3
:104D6000012104460123F0E703AB00932A46164BCA
:104D700004A93046AFF300800746781CD6D16B6E8D
:104D8000D90705D4AB899A0502D4A86D00F035FC8B
:104D9000AB895B063FF512AF099811E703AB0093AF
:104DA0002A46094B04A9304600F080F8E4E700BF2A
:104DB000006A0008206A0008E0690008AC69000881
:104DC000B6690008000000004B4B0008B2690008FB
:104DD0002DE9F047164699468A680B69DDF8208070
:104DE0009342B8BF1346336091F8432007460C4600
:104DF0000AB1013333602368990642BF3368023336
:104E00003360256815F0060506D104F1190AE36838
:104E100032689B1AAB4226DC94F84320131E2268AA
:104E200018BF012392062BD404F1430249463846A9
:104E3000C04701301ED02368E568326803F00603DE
:104E4000042B08BFAD1AA36822690CBF25EAE575DB
:104E500000259342C4BF9B1AED1800261A34B542B0
:104E60001AD1002008E00123524649463846C0477F
:104E7000013003D14FF0FF30BDE8F0870135C6E7C0
:104E8000E1185A1C302081F84300224494F8451060
:104E900082F843100233C7E70123224649463846C9
:104EA000C0470130E6D00136D9E700002DE9FF47C1
:104EB0000F7E0C9D782F914680460C469A4601F154
:104EC000430207D8622F0AD8002F00F0D880582F4D
:104ED00000F0A38004F1420584F842703AE0A7F1A3
:104EE0006303152BF6D801A151F823F0454F0008B4
:104EF000594F0008D54E0008D54E0008D54E000881
:104F0000D54E0008594F0008D54E0008D54E000870
:104F1000D54E0008D54E000865500008894F00089E
:104F200047500008D54E0008D54E000887500008AD
:104F3000D54E0008894F0008D54E0008D54E000810
:104F40004F5000082B681A1D1B682A6004F14205A7
:104F500084F842300123A3E020682968060601F1A5
:104F600004030AD50E682B60002E03DA2D23764247
:104F700084F843305E480A2319E00E682B6010F075
:104F8000400F18BF36B2EFE72B682068191D296063
:104F9000010601D51E6802E04606FBD51E8854486E
:104FA0006F2F0CBF08230A23002184F84310656883
:104FB000A560002DA2BF216821F0040121600EB977
:104FC000002D4DD01546B6FBF3F103FB1167C75D0D
:104FD00005F8017D3746BB420E46F4D9082B0BD1AC
:104FE0002368DE0708D5236961689942DEBF302354
:104FF00005F8013C05F1FF35521B2261CDF800A0F8
:105000004B4603AA21464046FFF7E2FE01304CD151
:105010004FF0FF3004B0BDE8F087354881F84570A7
:105020002968236851F8046B29601D0614D5DF0731
:1050300044BF43F0200323601EB9236823F02003FC
:1050400023601023B0E7236843F020032360782314
:10505000284884F84530E3E7590648BFB6B2E6E78A
:105060001546BBE72B6826686169181D2860350660
:105070001B6801D5196002E07006FBD5198000237A
:1050800023611546BAE72B681A1D2A601D686268FD
:1050900000212846FBF79CF808B1401B606063685C
:1050A0002361002384F84330A8E723692A46494650
:1050B0004046D0470130ABD023689B0713D4E0684B
:1050C000039B9842B8BF1846A4E7012332464946DD
:1050D0004046D04701309BD00135E36803995B1A05
:1050E000AB42F2DCEBE7002504F11906F5E700BF5F
:1050F000BD690008CE690008F8B50E46144605469D
:1051000018B183690BB900F0D9F9214B9C422BD11E
:105110006C68A369A360A3891A072FD523696BB3B1
:1051200023692068C01A6369F6B28342374604DCFB
:105130002146284600F02EF930BBA368013BA3604E
:1051400023685A1C22601E7063690130834204D0B8
:10515000A389DB0706D50A2E04D12146284600F094
:1051600019F988B93846F8BD0A4B9C4201D1AC68A0
:10517000CFE7094B9C4208BFEC68CAE721462846A6
:1051800000F00CF80028CBD04FF0FF37EAE700BF63
:10519000006A0008206A0008E0690008324B70B518
:1051A0001D6806460C4625B1AB6913B9284600F0C8
:1051B00085F92E4B9C420FD16C68A389B4F90C2061
:1051C00019072CD4DD0611D40923336042F04003C3
:1051D000A3814FF0FF303EE0254B9C4201D1AC68EB
:1051E000EBE7244B9C4208BFEC68E6E7580712D572
:1051F000616B41B104F14403994202D0304600F0A2
:1052000063FA00236363A38923F02403A3810023AB
:10521000636023692360A38943F00803A3812369A2
:105220004BB9A38903F42073B3F5007F03D0214663
:10523000304600F009FAA089B4F90C2010F00103FF
:105240000AD00023A36063695B42A361236943B969
:1052500010F08000BAD170BD810758BF6369A360A8
:10526000F4E70020F7E700BF6C000020006A0008A8
:10527000206A0008E069000808B5062000F03CFB41
:10528000012000F05BFC00008A892DE9F041054611
:1052900010070C4658D44B68002B05DC0B6C002B18
:1052A00002DC0020BDE8F081E66A002EF9D0002380
:1052B00012F480522F682B6032D0606DA3895A0798
:1052C00005D56368C01A636B0BB1236CC01A002349
:1052D0000246E66A216A2846B047431CA38906D1E4
:1052E00029681D292CD82A4ACA40D60728D5002269
:1052F0006260D9042269226004D5421C01D12B6866
:1053000003B96065616B2F600029CAD004F14403C2
:10531000994202D0284600F0D7F900206063C1E727
:10532000216A01232846B047411CC7D12B68002BB6
:10533000C4D01D2B01D0162B01D12F60B1E7A3895A
:1053400043F04003A381ADE70F69002FA9D0930775
:105350000E6808BF4B690F6018BF0023A6EB070853
:105360008B60B8F1000F9CDD216AA66A43463A467D
:105370002846B047002806DCA38943F04003A381F8
:105380004FF0FF308EE70744A8EB0008E9E700BFC5
:105390000100402038B50B6905460C4613B90025BD
:1053A000284638BD18B183690BB900F087F8144B53
:1053B0009C421BD16C68B4F90C30002BEFD0626EAC
:1053C000D00704D4990502D4A06D00F015F9284641
:1053D0002146FFF759FF636EDA070546E0D4A3893B
:1053E0009B05DDD4A06D00F008F9D9E7054B9C4280
:1053F00001D1AC68DFE7044B9C4208BFEC68DAE7F8
:10540000006A0008206A0008E0690008002310B55F
:105410000446C0E90033C0E90433836081814366F8
:10542000C2818361194608225C30FFF76FFB054B90
:105430006362054BA362054BE362054B2462236361
:1054400010BD00BF31590008535900088B5900089E
:10545000AF590008014900F0AFB800BF95530008EC
:1054600070B568224D1E55430E4605F1740100F0DB
:1054700097F9044640B10021C0E900160C30A06045
:1054800005F16802FFF742FB204670BD014800F0BD
:10549000B3B800BF49140020014800F0AEB800BF07
:1054A00049140020014800F0A7B800BF4A140020AA
:1054B000014800F0A2B800BF4A14002010B504460D
:1054C000FFF7F0FFA3691BB1BDE81040FFF7F0BF85
:1054D000C4E912332365134B134A1B68A262A3422B
:1054E00004BF0123A361204600F020F8606020463D
:1054F00000F01CF8A060204600F018F80022E060E0
:1055000004216068FFF782FFA06801220921FFF7EC
:105510007DFFE06802221221FFF778FF0123A361DB
:10552000D2E700BFA869000855540008F8B507463F
:10553000FFF7ACFF1E4B1E68B36913B93046FFF787
:10554000BDFF4836D6E90134013B03D533680BB3C0
:105550003668F7E7B4F90C50D5B9164BE36004F19F
:105560005800656600F047F8FFF796FFC4E901555B
:10557000C4E904552560A5610822294604F15C00B0
:10558000FFF7C4FAC4E90D55C4E912552046F8BD29
:105590006834D9E704213846FFF762FF04463060DB
:1055A0000028D5D1FFF778FF0C233B60EEE700BF62
:1055B000A86900080100FFFF2DE9F8430646884668
:1055C00000F148040027D4E90195B9F1010905D596
:1055D0002468002CF7D13846BDE8F883AB89012B4D
:1055E00007D9B5F90E30013303D029463046C047FC
:1055F00007436835E9E770477047704770B50E4656
:10560000B1F90E10002996B014461D4608DAB6F915
:105610000C3000222A601A0610D44FF480630EE08A
:105620006A4600F0EBF90028F1DB019A02F47042BF
:10563000A2F500535A425A412A60EEE74023002067
:10564000236016B070BD00008B8973B59D070646B8
:105650000C4607D504F147032360236101236361EE
:1056600002B070BD01AB6A46FFF7C8FF009905465E
:10567000304600F095F848B9B4F90C309A05EFD4EB
:1056800023F0030343F00203A381E3E70D4BB3626E
:10569000A389206043F08003A381009B6361019B89
:1056A00020615BB1B4F90E10304600F0B9F928B1B1
:1056B000A38923F0030343F00103A381A0890543D9
:1056C000A581CDE75554000837B5002944D051F8DD
:1056D000043C0190002BA1F10404B8BFE41800F0D1
:1056E000C1F91E4A0198136833B96360146003B0AE
:1056F000BDE8304000F0BCB9A34208D92568611963
:105700008B4201BF19685B6849192160EDE71A46B1
:105710005B680BB1A342FAD911685518A5420BD1A9
:10572000246821445418A3421160E0D11C685B68CE
:10573000536021441160DAE702D90C230360D6E7F5
:10574000256861198B4204BF19685B68636004BFF8
:10575000491921605460CAE703B030BD4C140020E1
:1057600070B50E4E0C463168054611B900F08CF844
:1057700030602146284600F087F8431C0AD0C41C3C
:1057800024F00304A04207D0211A284600F07CF838
:10579000013001D14FF0FF34204670BD501400207D
:1057A0002DE9F041CD1C25F0030508350C2D38BF3F
:1057B0000C25002D074601DBA94205D90C233B60CF
:1057C00000263046BDE8F0812E4E00F04BF93368DC
:1057D0001C4634BB29463846FFF7C2FF431C04462B
:1057E0004DD134682646002E40D1236831463846D4
:1057F00004EB030800F048F880453AD121680335EE
:105800006D1A25F0030508350C2D38BF0C252946E7
:105810003846FFF7A5FF01302BD023682B442360C7
:105820000EE02268521B1ED40B2A16D96119A3421E
:10583000256018BF5960636808BF316062514B60D2
:10584000384604F10B0600F013F926F00706231D75
:10585000F21AB6D09B1BA350B3E76268A3420CBFF9
:1058600032605A60ECE723466468B2E734467668F3
:10587000B9E70C233B60384600F0FAF8A1E7256051
:10588000DEE700BF4C14002038B5064D0023044667
:1058900008462B6000F03CF9431C02D12B6803B191
:1058A000236038BD541400201F2938B504460D4626
:1058B00004D9162303604FF0FF3038BD426C12B19B
:1058C00052F821304BB9204600F030F82A46014604
:1058D0002046BDE8384000F017B8012B0AD0591C0B
:1058E00003D1162303600120E7E7002442F8254096
:1058F000284698470020E0E7024B01461868FFF76A
:10590000D3BF00BF6C00002038B5074D002304460C
:10591000084611462B6000F0E3F8431C02D12B68C7
:1059200003B1236038BD00BF5414002000F0C8B894
:1059300010B50C46B1F90E1000F0A0F80028ABBF6E
:10594000636DA3891B1823F48053ACBF6365A381E7
:1059500010BD2DE9F0411F468B89DB0505460C463D
:10596000164605D5B1F90E100223002200F068F8A2
:10597000A389B4F90E1023F48053A38132463B4629
:105980002846BDE8F04100F017B810B50C46B1F953
:105990000E1000F055F8431CA38915BF606523F471
:1059A000805343F48053A38118BFA38110BDB1F984
:1059B0000E1000F013B8000038B5074D0446084635
:1059C000114600222A601A4600F0B0F8431C02D1AA
:1059D0002B6803B1236038BD5414002038B5064D40
:1059E0000023044608462B6000F05AF8431C02D1FD
:1059F0002B6803B1236038BD5414002038B5074D1F
:105A000000230446084611462B6000F051F8431C61
:105A100002D12B6803B1236038BD00BF54140020AD
:105A200038B5064D0023044608462B6000F050F8B8
:105A3000431C02D12B6803B1236038BD54140020ED
:105A400038B5074D04460846114600222A601A461A
:105A500000F04EF8431C02D12B6803B1236038BD1F
:105A6000541400200148FFF7C7BD00BF48140020B0
:105A70000148FFF7C2BD00BF4814002038B5074DEC
:105A800004460846114600222A601A4600F038F8FB
:105A9000431C02D12B6803B1236038BD541400208D
:105AA000024B58221A604FF0FF3070475414002008
:105AB000024B58221A604FF0FF30704754140020F8
:105AC000024B58221A604FF0FF30704754140020E8
:105AD000024B58221A600020704700BF5414002067
