:020000040800F2
:10000000000002202D1D0008C1090008C3090008D6
:10001000C5090008C7090008C90900080000000058
:10002000000000000000000000000000CB090008F4
:10003000CD09000800000000CF090008D109000820
:100040007D1D00087D1D00087D1D00087D1D000828
:100050007D1D00087D1D00087D1D00087D1D000818
:100060007D1D00087D1D00087D1D00087D1D000808
:100070007D1D00087D1D00087D1D00087D1D0008F8
:100080007D1D00087D1D00087D1D00087D1D0008E8
:10009000D50900087D1D00087D1D00087D1D000894
:1000A0007D1D00087D1D00087D1D00087D1D0008C8
:1000B0007D1D00087D1D00087D1D00087D1D0008B8
:1000C0007D1D00087D1D00087D1D00087D1D0008A8
:1000D0007D1D00087D1D00087D1D00087D1D000898
:1000E0007D1D00087D1D00087D1D00087D1D000888
:1000F0007D1D00087D1D00087D1D00087D1D000878
:100100007D1D00087D1D00087D1D00087D1D000867
:100110007D1D00087D1D0008E50900087D1D000803
:100120007D1D00087D1D00087D1D00087D1D000847
:100130007D1D000800000000000000007D1D00087B
:10014000F50900087D1D00087D1D00087D1D0008C3
:100150007D1D00087D1D00087D1D00087D1D000817
:100160007D1D00087D1D00087D1D00087D1D000807
:100170007D1D00087D1D000800000000000000003B
:080180007D1D00087D1D000833
:1001880010B5054C237833B9044B13B10448AFF3C9
:1001980000800123237010BD0C0000200000000027
:1001A800D81D000808B5034B1BB103490348AFF33A
:1001B800008008BD0000000010000020D81D0008C5
:1001C80053B94AB9002908BF00281CBF4FF0FF31B6
:1001D8004FF0FF3000F074B9ADF1080C6DE904CEB2
:1001E80000F006F8DDF804E0DDE9022304B070470A
:1001F8002DE9F047089D04468E46002B4DD18A42D2
:10020800944669D9B2FA82F252B101FA02F3C2F104
:10021800200120FA01F10CFA02FC41EA030E944095
:100228004FEA1C48210CBEFBF8F61FFA8CF708FBB6
:1002380016E341EA034306FB07F199420AD91CEB8E
:10024800030306F1FF3080F01F81994240F21C81C0
:10025800023E63445B1AA4B2B3FBF8F008FB103308
:1002680044EA034400FB07F7A7420AD91CEB04043D
:1002780000F1FF3380F00A81A74240F2078164440D
:10028800023840EA0640E41B00261DB1D440002392
:10029800C5E900433146BDE8F0878B4209D9002DF6
:1002A80000F0EF800026C5E9000130463146BDE880
:1002B800F087B3FA83F6002E4AD18B4202D38242EA
:1002C80000F2F980841A61EB030301209E46002D99
:1002D800E0D0C5E9004EDDE702B9FFDEB2FA82F2EE
:1002E800002A40F09280A1EB0C014FEA1C471FFA4C
:1002F8008CFE0126200CB1FBF7F307FB131140EA33
:1003080001410EFB03F0884208D91CEB010103F1FF
:10031800FF3802D2884200F2CB804346091AA4B2C1
:10032800B1FBF7F007FB101144EA01440EFB00FE95
:10033800A64508D91CEB040400F1FF3102D2A645FA
:1003480000F2BB800846A4EB0E0440EA03409CE799
:10035800C6F12007B34022FA07FC4CEA030C20FA46
:1003680007F401FA06F31C43F9404FEA1C4900FA66
:1003780006F3B1FBF9F8200C1FFA8CFE09FB1811E3
:1003880040EA014108FB0EF0884202FA06F20BD956
:100398001CEB010108F1FF3A80F08880884240F2A6
:1003A8008580A8F102086144091AA4B2B1FBF9F0EA
:1003B80009FB101144EA014100FB0EFE8E4508D9E5
:1003C8001CEB010100F1FF346CD28E456AD902386A
:1003D800614440EA0840A0FB0294A1EB0E01A1424F
:1003E800C846A64656D353D05DB1B3EB080261EBBD
:1003F8000E0101FA07F722FA06F3F1401F43C5E997
:10040800007100263146BDE8F087C2F12003D840CC
:100418000CFA02FC21FA03F3914001434FEA1C470E
:100428001FFA8CFEB3FBF7F007FB10360B0C43EA00
:10043800064300FB0EF69E4204FA02F408D91CEBB0
:10044800030300F1FF382FD29E422DD902386344AE
:100458009B1B89B2B3FBF7F607FB163341EA03414E
:1004680006FB0EF38B4208D91CEB010106F1FF389D
:1004780016D28B4214D9023E6144C91A46EA004694
:1004880038E72E46284605E70646E3E61846F8E626
:100498004B45A9D2B9EB020864EB0C0E0138A3E76F
:1004A8004646EAE7204694E74046D1E7D0467BE750
:1004B800023B614432E7304609E76444023842E7C8
:1004C800704700BFF0B589B00024039404940594E4
:1004D800069407940094214B1A6B42F080021A6329
:1004E8001A6B02F080020092009A01941A6B42F093
:1004F80001021A631A6B02F001020192019A029436
:100508001A6B42F002021A631B6B03F00203029398
:10051800029B134F22460421384600F00FFF114E6C
:1005280022464FF46041304600F008FF042303934D
:10053800012504950595069403A9384600F00CFE9C
:100548004FF460430393049502230593069403A98B
:10055800304600F001FE09B0F0BD00BF003802408F
:10056800000002400004024008B50268034B9A42AA
:1005780000D008BD00F066FAFBE700BF001000409D
:1005880072B6FEE710B58AB01748184B0360062309
:10059800436000238360C3604FF4003202614FF46C
:1005A80000124261037643768376C37603774377F6
:1005B80000F05AFAB0B90023009301930293039311
:1005C8000E2109910122079206930591049308923E
:1005D800054C6946204600F0EDFA204600F086FBFF
:1005E8000AB010BDFFF7CCFF5000002000680040A3
:1005F80010B58AB01648174B0360062343600023E2
:100608008360C3604FF480220261436103764376BE
:100618008376C3760377437700F026FAA8B90023D8
:10062800009301930293039309930122079206937F
:10063800059304930892064C6946204600F0BAFADE
:10064800204600F053FB0AB010BDFFF799FF00BF2A
:10065800280000200064004000B595B03022002139
:1006680008A801F0ADFB00230393049305930693B8
:10067800079301931E4A116C41F080511164126C6A
:1006880002F080520192019A02931A4A116841F4C9
:1006980080411160126802F480420292029A02229A
:1006A800089201210B9110210C910E920F930823AF
:1006B80010935423119312920723139308A800F060
:1006C8004DFE80B90F230393022104910023059363
:1006D8004FF480520692079303A801F0A5F820B9B9
:1006E80015B05DF804FBFFF74BFFFFF749FF00BFAC
:1006F800003802400070004030B583B000F088F93F
:10070800FFF7AAFFFFF7DEFEFFF73CFFFFF770FFDA
:1007180001220421244800F011FE00F09FF9001B7B
:10072800B0F57A7FF4D3214D4FF40041284600F00C
:100738000BFE4FF48041284600F006FE4FF40051AE
:10074800284600F001FE04F57A74194901230B606C
:1007580000228A60CA6008220A61FF228DF8002000
:100768008DF801208DF802208DF803208DF80420E3
:100778008DF805208DF80620FC228DF807206A46A2
:100788000C4800F0E1FA0028C2D002236A46084962
:10079800084800F0D9FA0028BAD004236A46044968
:1007A800044800F0D1FAB3E7000002400004024018
:1007B800780000205000002082B0002100910B4BEF
:1007C8005A6C42F480425A645A6C02F48042009295
:1007D800009A01911A6C42F080521A641B6C03F063
:1007E80080530193019B02B0704700BF003802405C
:1007F80010B58AB0002305930693079308930993CD
:1008080003683E4A934204D03D4A934236D00AB028
:1008180010BD3C4A136801331360012B21D000241A
:100828000194394B1A6B42F001021A631B6B03F0F7
:1008380001030193019B4FF4C053059302230693D0
:10084800032308930923099305A9304800F084FC81
:1008580022462146142000F039FC142000F06EFCDA
:10086800D5E700230093284B1A6C42F000721A64F3
:100878001B6C03F000730093009BD0E700230293E6
:10088800214B1A6C42F080621A641B6C03F080637F
:100898000293029B1B4A136801331360012B20D07B
:1008A80000240494184B1A6B42F002021A631B6B63
:1008B80003F002030493049B602305930223069329
:1008C800032308930923099305A9114800F044FC60
:1008D80022462146402000F0F9FB402000F02EFC83
:1008E80095E700230393084B1A6C42F000721A64D0
:1008F8001B6C03F000730393039BD1E70064004073
:1009080000680040900000200038024000000240CB
:100918000004024030B589B0044600230193214BFE
:100928001A6C42F010021A641B6C03F01003019356
:10093800019B02A903A801F03DF8069BCBB901F081
:1009480029F803461848A0FB03239B0C013B1748D2
:10095800174A026040F2E732C26043600023036135
:100968008360836101F0B0F9054630B1284609B0CB
:1009780030BD01F00FF84300E4E70C4801F03AF805
:1009880005460028F2D1362000F0D8FB0F2C01D9FB
:100998000125EBE700222146362000F097FB054BA6
:1009A8001C60E3E70038024083DE1B43940000200C
:1009B8000010004008000020FEE7FEE7FEE7FEE723
:1009C800FEE77047704770477047000008B5024857
:1009D80000F045FA08BD00BF2800002008B502480D
:1009E80001F050F808BD00BF9400002008B5024887
:1009F80000F035FA08BD00BF50000020034AD2F8C5
:100A0800883043F47003C2F88830704700ED00E086
:100A180008B50B4B1A6842F400721A601A6842F45F
:100A280080621A601A6842F480721A60032000F02B
:100A38003BFB0F20FFF76EFFFFF7BEFE002008BD4F
:100A4800003C0240034A1168034B1B780B441360B7
:100A5800704700BFDC00002004000020014B18682C
:100A6800704700BFDC000020002800F0A18038B5E6
:100A7800044690F82030D3B12268136843F001038C
:100A88001360FFF7EBFF054623685A6812F0010F61
:100A980010D1FFF7E3FF401B0A28F5D9636A43F436
:100AA80000336362052384F82030012038BDFFF746
:100AB8009FFEE1E71A6822F002021A60FFF7CEFFF4
:100AC800054623685A6812F0020F0DD0FFF7C6FFDB
:100AD800401B0A28F5D9636A43F40033636205238F
:100AE80084F820300120E1E7227E012A3DD01A68EF
:100AF80022F080021A60637E012B3BD022681368C3
:100B080023F040031360A37E012B39D022681368B9
:100B180023F020031360E37E012B37D0226813688B
:100B280043F010031360237F012B35D0226813682C
:100B380023F008031360637F012B33D02268136806
:100B480023F004031360A368E26813432269134384
:100B5800626913436268013A21681343CB6100203C
:100B68006062012384F82030A0E71A6842F080020E
:100B78001A60C0E72268136843F040031360C2E7B5
:100B88002268136843F020031360C4E722681368DF
:100B980023F010031360C6E72268136843F00803C4
:100BA8001360C8E72268136843F004031360CAE7B8
:100BB8000120704790F82030013BDBB2012B05D9AA
:100BC800436A43F4802343620120704730B5464BA3
:100BD800D3F8002242F00102C3F80022D3F8002221
:100BE80022F47C52C3F80022D3F80022486A42EA71
:100BF8000022C3F800224A6902F01F02012000FA0D
:100C080002F2D3F81C026FEA020C20EA0200C3F8D1
:100C18001C02CB69C3B9344BD3F80C020CEA0000B0
:100C2800C3F80C028C884869CD6844EA054448300A
:100C380043F830408C68088840EA04404C6904F165
:100C4800480E03EBCE035860CB69012B1ED08B698D
:100C5800002B33D12448D0F804320CEA0303C0F83F
:100C680004320B698BBB2048D0F814320CEA03031A
:100C7800C0F814320B6A012B2ED01B4AD2F800326E
:100C880023F00103C2F80032002030BD164BD3F820
:100C98000C021043C3F80C028C8848690D6844EABA
:100CA8000544483043F8304088894C698D6840EAEB
:100CB8000540483403EBC4035860C8E70A48D0F835
:100CC80004321343C0F80432CBE70748D0F8143293
:100CD8001343C0F81432CDE70349D1F81C321A4344
:100CE800C1F81C22C9E700BF0064004070B5044683
:100CF80090F82050EDB2012D06D0436A43F400234A
:100D080043620125284670BD022380F8203002681E
:100D1800136823F001031360FFF7A0FE064623685B
:100D28005B6813F0010F0CD0FFF798FE831B0A2BAA
:100D3800F5D9636A43F400336362052384F82030ED
:100D4800E0E700256562DDE730B590F820C004686B
:100D5800A4680CF1FF3C5FFA8CFCBCF1010F6BD866
:100D680014F0E05F62D0C4F3016CBCF1020F05D946
:100D7800436A43F400034362012062E0012404FA59
:100D88000CF41C608B68002B3DD10D68CB6804689F
:100D980043EA45550CF118031B01E55003680C693B
:100DA8000CF1180E03EB0E135C600B7D012B35D094
:100DB800D17993791B0443EA0163517943EA01230A
:100DC80014790168234301EB0C11C1F88C31D178F7
:100DD80093781B0443EA0163517843EA01231178AD
:100DE80002680B4302EB0C12C2F8883102680CF15E
:100DF800180C4FEA0C1C52F80C3043F0010342F86F
:100E08000C3000201DE04C6843EAC403CC6823433F
:100E18000CF11804240105682B51BFE7036803EBA4
:100E28000E13596841F480715960C1E7436A43F46D
:100E380000134362012004E0436A43F480234362C1
:100E4800012030BD70477047704770477047704742
:100E580070477047704770477047704770472DE973
:100E6800F84F054603685C69D3F804809F68D3F897
:100E78000CB0D3F810A0D3F8189014F001063BD0AA
:100E880017F0010616D001229A6017F0020F08D158
:100E980017F0040F0CD117F0080606D04FF480564F
:100EA80008E0FFF7CFFF002604E0FFF7CEFF01E0E0
:100EB8004FF4006617F4807F0DD02B684FF48072D2
:100EC8009A6017F4007F40F0868017F4806F00F076
:100ED800868046F4005617F4803F0DD02B684FF4F7
:100EE80080329A6017F4003F40F0838017F4802F17
:100EF80000F0838046F4004614F0080F07D01BF07A
:100F0800100F04D046F400762B681022DA6014F033
:100F1800040F02D01BF0080F79D114F0020F04D08F
:100F28002B68DB6813F0030F78D114F0400F07D05B
:100F38001AF0100F04D046F480662B6810221A614C
:100F480014F0200F02D01AF0080F6BD114F0100F14
:100F580004D02B681B6913F0030F6AD114F4003F07
:100F680002D018F0100F68D114F4803F02D018F0A6
:100F7800080F69D114F4004F7AD018F0040F74D018
:100F880014F4807F04D019F0010F01D046F0010657
:100F980014F4007F04D019F0020F01D046F00206C5
:100FA80014F4806F04D019F0040F01D046F0040641
:100FB80014F4006F59D019F0700956D0B9F1400FE8
:100FC80065D058D8B9F1200F5ED0B9F1300F42D1B1
:100FD80046F0200644E02846FFF735FF7BE717F484
:100FE800006F02D046F4804675E72846FFF72EFFCB
:100FF80071E72846FFF728FF7EE717F4002F02D095
:1010080046F4803678E72846FFF721FF74E72B6817
:101018000822DA602846FFF71CFF7EE72846FFF71C
:1010280017FF82E72B6808221A612846FFF713FF8B
:101038008CE72846FFF70EFF90E72B6810225A60CE
:101048002846FFF709FF8FE72B6808225A602846D1
:10105800FFF703FF8EE7B9F1100F01D146F008063C
:101068002A68936923F0700393612B6804225A60FD
:101078009EB9BDE8F88FB9F1500F0BD0B9F1600FE8
:10108800EED146F48076EBE746F01006E8E746F046
:101098004006E5E746F08006E2E76B6A1E436E62AB
:1010A8002846FFF7DBFEE4E7074AD36823F4E0634A
:1010B8001B041B0C000200F4E060034343F0BF6311
:1010C80043F40033D360704700ED00E000B5194BDE
:1010D800DB68C3F30223C3F1070CBCF1040F28BF7C
:1010E8004FF0040C03F1040EBEF1060F18D9033BB0
:1010F8004FF0FF3E0EFA0CFC21EA0C0199400EFA63
:1011080003F322EA0303194300280BDB0901C9B2E0
:1011180000F1604000F5614080F800135DF804FBC1
:101128000023E5E700F00F000901C9B2024B19548A
:10113800F4E700BF00ED00E014ED00E0002807DB55
:1011480000F01F02400901239340024A42F8203070
:10115800704700BF00E100E000230F2B00F2E4809D
:1011680070B582B060E085685E000324B44025EA6B
:101178000405CC68B4402C438460456825EA020520
:101188004C68C4F300129A402A4342605AE0DC08D3
:10119800083450F8246003F0070295000F22AA4093
:1011A80026EA020E0A69AA4042EA0E0240F8242002
:1011B8005CE0072200E0002202FA0EF22A43023421
:1011C8005A4D45F824205A4A94686FEA0C0224EADA
:1011D8000C054E6816F4801F01D04CEA0405544CE7
:1011E800A560E46802EA04054E6816F4001F01D001
:1011F8004CEA04054E4CE560646802EA04054E6852
:1012080016F4003F01D04CEA0405494C6560246897
:1012180022404D6815F4803F01D04CEA0402444C4A
:10122800226001330F2B7DD801229A400C6804EA12
:10123800020C32EA0404F4D14C6804F00304013CC3
:10124800012C90D94A6802F00302032A09D0C46825
:101258005D000322AA4024EA02048A68AA402243C5
:10126800C2604A6802F00302022A90D004684FEA7A
:10127800430E032202FA0EF224EA02044A6802F03C
:10128800030202FA0EF2224302604A6812F4403F57
:10129800C7D000220192274A546C44F48044546415
:1012A800526C02F480420192019A9C08A51C1F4AC4
:1012B80052F8255003F003024FEA820E0F2202FA79
:1012C8000EF225EA02051C4A90423FF474AF02F57B
:1012D800806290421AD002F58062904218D002F5DE
:1012E8008062904216D002F58062904214D002F5D6
:1012F8008062904212D002F58062904210D002F5CE
:10130800806290423FF455AF082255E7012253E727
:10131800022251E703224FE704224DE705224BE75B
:10132800062249E702B070BD704700BF003801408F
:10133800003C014000380240000002400AB18161CF
:101348007047090481617047436901EA030221EA91
:10135800030141EA0241816170470000002800F062
:10136800E08170B582B00446036813F0010F3BD0EA
:101378009F4B9B6803F00C03042B2CD09C4B9B6861
:1013880003F00C03082B21D06368B3F5803F4FD0DE
:10139800B3F5A02F52D0964B1A6822F480321A6007
:1013A8001A6822F480221A606368002B50D0FFF775
:1013B80055FB05468E4B1B6813F4003F14D1FFF70D
:1013C8004DFB401B6428F5D90320B1E1884B5B68CD
:1013D80013F4800FD8D0864B1B6813F4003F03D05A
:1013E8006368002B00F09F81236813F0020F54D02C
:1013F8007F4B9B6813F00C0F3ED07D4B9B6803F02E
:101408000C03082B33D0E368002B68D0794B0122FA
:101418001A60FFF723FB0546754B1B6813F0020F94
:1014280054D1FFF71BFB401B0228F5D903207FE1AD
:101438006F4A136843F480331360B5E76C4B1A683E
:1014480042F480221A601A6842F480321A60ABE7CC
:10145800FFF704FB0546664B1B6813F4003FC3D037
:10146800FFF7FCFA401B6428F5D9032060E1604BC4
:101478005B6813F4800FC6D15D4B1B6813F0020F35
:1014880003D0E368012B40F05081594A136823F0D8
:10149800F803216943EAC1031360236813F0080FB6
:1014A80042D063696BB3534B0122C3F8802EFFF718
:1014B800D5FA05464E4B5B6F13F0020F34D1FFF798
:1014C800CDFA401B0228F5D9032031E1484A1368B8
:1014D80023F0F803216943EAC1031360DDE7454BB4
:1014E80000221A60FFF7BAFA0546414B1B6813F051
:1014F800020FD2D0FFF7B2FA401B0228F5D9032019
:1015080016E13C4B0022C3F8802EFFF7A7FA0546E8
:10151800374B5B6F13F0020F06D0FFF79FFA401BA3
:101528000228F5D9032003E1236813F0040F77D0CC
:101538002F4B1B6C13F0805F33D1002301932C4B8E
:101548001A6C42F080521A641B6C03F080530193AA
:10155800019B0125284B1B6813F4807F23D0A368C7
:10156800012B34D0052B38D0214B1A6F22F0010201
:101578001A671A6F22F004021A67A368002B3DD07D
:10158800FFF76CFA06461A4B1B6F13F0020F46D191
:10159800FFF764FA801B41F288339842F3D903209D
:1015A800C6E00025D6E7144A136843F48073136035
:1015B800FFF754FA0646104B1B6813F4807FCED110
:1015C800FFF74CFA801B0228F5D90320B0E0084A3F
:1015D800136F43F001031367CFE7054B1A6F42F00F
:1015E80004021A671A6F42F001021A67C5E700BFC2
:1015F800003802400000474200700040FFF72EFA12
:101608000646524B1B6F13F0020F08D0FFF726FA5D
:10161800801B41F288339842F3D9032088E0EDB962
:10162800A369002B00F08380484A926802F00C02FC
:10163800082A51D0022B17D0454B00221A66FFF713
:101648000DFA0446414B1B6813F0007F42D0FFF7A8
:1016580005FA001B0228F5D9032069E03B4A136C00
:1016680023F080531364DBE7394B00221A66FFF737
:10167800F5F90546354B1B6813F0007F06D0FFF7D8
:10168800EDF9401B0228F5D9032051E0E369226AED
:101698001343626A43EA8213A26A5208013A43EA90
:1016A8000243E26A43EA0263284A5360284B012254
:1016B8001A66FFF7D3F90446244B1B6813F0007F22
:1016C80006D1FFF7CBF9001B0228F5D903202FE03C
:1016D80000202DE000202BE0012B2BD01B4B5B685A
:1016E80003F48001E269914226D103F03F02216AA6
:1016F8008A4223D1616A47F6C0721A40B2EB811F51
:101708001ED103F44031A26A5208013AB1EB024FEC
:1017180018D103F07063E26AB3EB026F14D10020B2
:1017280006E001207047012002E0012000E00020CF
:1017380002B070BD0120FBE70120F9E70120F7E7BF
:101748000120F5E70120F3E70120F1E70038024026
:101758000000474208B5314B9B6803F00C03042B8B
:1017680057D0082B57D12D4B5A6802F03F025B68BF
:1017780013F4800F2AD0294B5968C1F3881C4FEA0B
:101788004C11B1EB0C006EEB0E0E4FEA8E1343EAD0
:1017980090638101091A63EB0E03DB0043EA51737E
:1017A800C90011EB0C0C43F10003590200234FEA66
:1017B8004C2041EADC51FEF703FD184B5B68C3F38C
:1017C800014301335B00B0FBF3F025E0134B59688C
:1017D800C1F3881C4FEA4C11B1EB0C006EEB0E0EF6
:1017E8004FEA8E1343EA90638101091A63EB0E03F3
:1017F800DB0043EA5173C90011EB0C0C43F1000301
:10180800990200234FEA8C2041EA9C51FEF7D8FC4C
:10181800D3E7034800E0034808BD00BF0038024092
:1018280000127A000024F400002800F09B8070B5B4
:101838000D4604464F4B1B6803F007038B4208D242
:10184800CBB24C4A1370136803F007038B4240F085
:101858008B80236813F0020F17D013F0040F04D005
:10186800454A936843F4E0539360236813F0080FE4
:1018780004D0414A936843F4604393603E4A9368B6
:1018880023F0F003A1680B439360236813F0010F62
:1018980032D06368012B21D09A1E012A25D9364AF5
:1018A800126812F0020F61D033498A6822F00302ED
:1018B80013438B60FFF7D2F806462F4B9B6803F063
:1018C8000C036268B3EB820F16D0FFF7C7F8801BD2
:1018D80041F288339842F0D9032042E0264A126840
:1018E80012F4003FE0D101203BE0234A126812F0D5
:1018F800007FD9D1012034E01E4B1B6803F0070399
:10190800AB4207D9EAB21B4B1A701B6803F00703F6
:10191800AB422DD1236813F0040F06D0164A936802
:1019280023F4E053E1680B439360236813F0080F36
:1019380007D0114A936823F46043216943EAC1033D
:101948009360FFF707FF0C4B9B68C3F303130B4A25
:10195800D35CD8400A4B18600A4B1868FEF7DAFFC8
:10196800002070BD012070470120FAE70120F8E748
:101978000120F6E7003C024000380240F01D000854
:101988000000002008000020014B1868704700BFC5
:101998000000002008B5FFF7F7FF044B9B68C3F36E
:1019A8008223034AD35CD84008BD00BF00380240F8
:1019B800001E00080F2303600B4B9A6802F0030215
:1019C80042609A6802F0F00282609A6802F4E0527B
:1019D800C2609B68DB0803F4E0530361034B1B6898
:1019E80003F007030B60704700380240003C0240D8
:1019F8007047000090F83D30DBB2012B37D102234D
:101A080080F83D300268D36843F00103D36003686F
:101A1800194A934220D0B3F1804F1DD0A2F57C42E1
:101A2800934219D002F58062934215D002F5806284
:101A3800934211D002F5784293420DD002F57052CC
:101A4800934209D0A2F59432934205D01A6842F025
:101A580001021A60002070479A6802F00702062AFD
:101A680007D01A6842F001021A600020704701206E
:101A780070470020704700BF000001407047704762
:101A88007047704710B5044603681A6912F0020FD0
:101A980011D0DA6812F0020F0DD06FF002021A614D
:101AA8000123037703689B6913F0030F70D0FFF7D6
:101AB800E6FF0023237723681A6912F0040F12D077
:101AC800DA6812F0040F0ED06FF004021A610223D4
:101AD800237723689B6913F4407F5FD02046FFF784
:101AE800CEFF0023237723681A6912F0080F12D05B
:101AF800DA6812F0080F0ED06FF008021A6104239A
:101B080023772368DB6913F0030F4ED02046FFF7D5
:101B1800B6FF0023237723681A6912F0100F12D03A
:101B2800DA6812F0100F0ED06FF010021A61082355
:101B380023772368DB6913F4407F3DD02046FFF705
:101B48009EFF0023237723681A6912F0010F03D040
:101B5800DA6812F0010F36D123681A6912F0800F83
:101B680003D0DA6812F0800F34D123681A6912F0B2
:101B7800400F03D0DA6812F0400F32D123681A6997
:101B880012F0200F03D0DA6812F0200F30D110BD08
:101B9800FFF774FF2046FFF773FF8AE72046FFF739
:101BA8006DFF2046FFF76CFF9BE72046FFF766FFB7
:101BB8002046FFF765FFACE72046FFF75FFF2046AA
:101BC800FFF75EFFBDE76FF001021A612046FEF7DE
:101BD800CBFCC1E76FF080021A61204600F0A1F843
:101BE800C3E76FF040021A612046FFF74AFFC5E7D6
:101BF8006FF020021A61204600F092F8C7E7000053
:101C08000368304A904212D0B0F1804F0FD0A2F54D
:101C18007C4290420BD002F58062904207D002F5D8
:101C28008062904203D002F57842904203D123F0BB
:101C380070034A681343234A90422AD0B0F1804F78
:101C480027D0A2F57C42904223D002F580629042D0
:101C58001FD002F5806290421BD002F57842904274
:101C680017D002F57052904213D002F5806290426C
:101C78000FD002F5806290420BD0A2F598329042C4
:101C880007D002F58062904203D002F5806290424C
:101C980003D123F44073CA68134323F080034A69CD
:101CA800134303608B68C3620B688362054B9842D9
:101CB80003D003F58063984201D10B6903630123C4
:101CC800436170470000014040B310B5044690F8E6
:101CD8003D30F3B1022384F83D30214651F8040B1E
:101CE800FFF78EFF012384F8463084F83E3084F8ED
:101CF8003F3084F8403084F8413084F8423084F82A
:101D0800433084F8443084F8453084F83D3000206E
:101D180010BD80F83C30FFF76BFEDBE70120704711
:101D280070477047DFF834D00D480E490E4A00233B
:101D380002E0D458C4500433C4188C42F9D30B4A77
:101D48000B4C002301E013600432A242FBD3FEF7E0
:101D580055FE00F011F8FEF7CFFC70470000022096
:101D6800000000200C000020181E00080C000020B5
:101D7800E0000020FEE7000070B50D4D0D4C641B1F
:101D8800A4100026A64209D10B4D0C4C00F020F8F7
:101D9800641BA4100026A64205D170BD55F8043B6B
:101DA80098470136EEE755F8043B98470136F2E7C5
:101DB800101E0008101E0008101E0008141E00083F
:101DC80002440346934200D1704703F8011BF9E728
:101DD800F8B500BFF8BC08BC9E467047F8B500BF10
:081DE800F8BC08BC9E467047E0
:101DF00000000000000000000102030406070809BB
:081E00000000000001020304D0
:081E0800F0E3FF7F0100000080
:041E1000AD01000818
:041E14008901000838
:0C1E18000024F400010000001000000095
:0400000508001D2DA5
:00000001FF
