:020000040800F2
:1000000000000220C55C0008155D0008155D0008B1
:10001000155D0008155D0008155D00080000000072
:10002000000000000000000000000000155D000856
:10003000155D000800000000155D0008B1290008EA
:10004000155D0008155D0008155D0008155D0008C8
:10005000155D0008155D0008155D0008051F000806
:10006000155D0008251F0008155D0008155D0008D6
:10007000155D0008155D0008155D0008155D000898
:10008000155D0008155D0008155D0008155D000888
:10009000155D0008155D0008155D0008155D000878
:1000A000155D0008155D0008155D0008155D000868
:1000B000155D0008155D0008155D0008155D000858
:1000C000155D0008155D0008155D0008155D000848
:1000D000155D0008155D0008155D0008155D000838
:1000E000155D0008155D0008155D0008155D000828
:1000F000155D0008155D0008155D0008155D000818
:10010000155D0008155D0008155D0008155D000807
:10011000155D0008155D0008155D0008155D0008F7
:10012000155D0008155D000835200008155D000804
:10013000155D00080000000000000000155D0008CB
:10014000155D0008155D0008155D0008155D0008C7
:10015000155D0008155D0008155D0008155D0008B7
:10016000155D0008155D0008155D0008155D0008A7
:10017000155D0008155D000800000000000000008B
:08018000155D0008155D000883
:100190000348044B834202D0034B03B11847704716
:1001A000D0000020D00000200000000005480649D3
:1001B0000B1AD90F01EBA301491002D0034B03B175
:1001C00018477047D0000020D00000200000000039
:1001D00010B5064C237843B9FFF7DAFF044B13B18F
:1001E0000448AFF300800123237010BDD00000202D
:1001F00000000000185D000808B5044B1BB104495D
:100200000448AFF30080BDE80840CFE700000000DD
:10021000D4000020185D000800B50B4C256814467A
:10022000EE681A4685B003460D464CB10749009565
:10023000CDE901143046064900F022F800F0ACFD8B
:1002400004490C46F3E700BF000000205467000893
:10025000646700086067000808B513460022FFF7CE
:10026000DBFF00BF0CB400B583B004AB53F8042B24
:10027000019300F06DF903B05DF804EB02B0704734
:100280000EB410B583B005AB064C53F8042B0193A4
:100290000146206800F05CF903B0BDE8104003B0EF
:1002A000704700BF0000002070B50D4E0D4D761B4D
:1002B000B61006D0002455F8043B01349847A642F6
:1002C000F9D1094E094D761B05F026FDB61006D072
:1002D000002455F8043B01349847A642F9D170BD7B
:1002E000D0670008D0670008D4670008D06700080E
:1002F000844641EA000313F003036DD1403A41D331
:1003000051F8043B40F8043B51F8043B40F8043BEF
:1003100051F8043B40F8043B51F8043B40F8043BDF
:1003200051F8043B40F8043B51F8043B40F8043BCF
:1003300051F8043B40F8043B51F8043B40F8043BBF
:1003400051F8043B40F8043B51F8043B40F8043BAF
:1003500051F8043B40F8043B51F8043B40F8043B9F
:1003600051F8043B40F8043B51F8043B40F8043B8F
:1003700051F8043B40F8043B51F8043B40F8043B7F
:10038000403ABDD2303211D351F8043B40F8043B1F
:1003900051F8043B40F8043B51F8043B40F8043B5F
:1003A00051F8043B40F8043B103AEDD20C3205D32F
:1003B00051F8043B40F8043B043AF9D2043208D027
:1003C000D2071CBF11F8013B00F8013B01D30B8899
:1003D00003806046704700BF082A13D38B078DD077
:1003E00010F003038AD0C3F10403D21ADB071CBF49
:1003F00011F8013B00F8013B80D331F8023B20F8B3
:10040000023B7BE7043AD9D3013A11F8013B00F8EB
:10041000013BF9D20B7803704B7843708B78837073
:1004200060467047830730B548D0541E002A3FD03D
:10043000CAB2034601E0013C3AD303F8012B9D0701
:10044000F9D1032C2DD9CDB245EA05250F2C45EA6B
:10045000054536D9A4F1100222F00F0C03F1200E4D
:10046000E6444FEA121C03F1100242E9045542E946
:10047000025510327245F8D10CF1010214F00C0F44
:1004800003EB021204F00F0C13D0ACF1040323F0C1
:1004900003030433134442F8045B9342FBD10CF092
:1004A00003042CB1CAB21C4403F8012B9C42FBD1BB
:1004B00030BD64461346002CF4D1F9E703461446D8
:1004C000BFE71A46A446E0E79368013B002B936020
:1004D00011DA10B49469A34209DB0A2907D0136822
:1004E000581C1060197008465DF8044B70475DF8A1
:1004F000044B00F06BBB1368581C10601970084661
:10050000704700BF9BB1F8B5134406460F46541E12
:100510005D1E01E0AC4208D014F8011F3A46304697
:10052000FFF7D2FF431CF5D1F8BD0020F8BD002035
:10053000704700BF936810B5144613B9536018464E
:1005400010BD00F041FE0023C4E9013310BD00BF1F
:100550002DE9F04F88469FB015461C46814618B1DC
:100560008369002B00F0A280924B984500F0A48094
:10057000914B984500F0B180904B984508BFD9F851
:100580000C80B8F80C30180740F19D80D8F8103076
:10059000002B00F0988000230B932978884E059457
:1005A00020238DF8313030238DF832300127002997
:1005B00074D02C460B4604E014F8013F002B00F0E9
:1005C0008F80252BF8D1B4EB050B40F08C8023787D
:1005D000002B63D000234FF0FF32CDE907230693B1
:1005E00009938DF85B301C93013404E0069A07FAF6
:1005F00003F3134306932546052214F8011B3046E6
:1006000001F02EF8831B0028F0D1069BD90644BFC9
:1006100020228DF85B2029781A0744BF2B228DF801
:100620005B202A2970D1059A1168043200290592AD
:10063000C0F29B800991697801352E2976D0614CF2
:100640000322204601F00CF838B1069B001B402421
:1006500004FA00F003430693013515F8011B5A48CC
:100660008DF83010062200F0FBFF002800F0838098
:10067000564B002B6DD005AA0092554B424606A959
:100680004846AFF300800390039B013306D00B9BD9
:10069000039A297813440B9300298AD1B8F80C30B7
:1006A0005B0617D40B981FB0BDE8F08F00F06CFD0F
:1006B000404B98457FF45CAFD9F80480B8F80C3013
:1006C00018073FF563AF4146484600F0E3FA0028BB
:1006D0003FF461AF4FF0FF30E5E7D9F8088050E70D
:1006E000B4EB050BDAD0AA46C5F1010503E093454A
:1006F00036D91AF8011F42464846FFF7E5FE013099
:1007000005EB0A02F3D1C9E7A1F13002092A94D816
:10071000099B15F8011F03EB830302EB4303A1F1CF
:100720003002092AF5D92E29099388D169782A2916
:100730002BD1059BA9781A6807920433002A05F18A
:1007400002000593B8BF4FF0FF330546B8BF0793CB
:1007500075E7059B073323F007030833059396E7F6
:100760000B9A23785A440B9232E7494243F0020332
:10077000099106935FE705AA0092154B424606A928
:10078000484600F0CBF803907EE7A1F13002002349
:10079000092A079305F101053FF651AF15F8011F2E
:1007A00003EB830302EB4303A1F13002092AF5D9DD
:1007B000079344E7745D0008545D0008345D000849
:1007C000946700089C670008A0670008000000000C
:1007D0000505000810B4054C8446134620685DF8F2
:1007E000044B0A466146FFF7B3BE00BF000000207D
:1007F0002DE9F84F92461F460A698B68DDF828906C
:100800009A42B8BF1A46CAF8002091F843300C4605
:10081000064613B10132CAF80020226891065DD560
:10082000DAF800300233CAF80030226812F0060FFE
:1008300011461ED1E168CB1A002BD8BF114618DD36
:1008400004F1190B4FF0000805E0E568DAF8003014
:10085000ED1A45450CDD01235A4639463046C84756
:10086000013008F10108F0D14FF0FF30BDE8F88FFA
:10087000216894F84330003B18BF01238A060AD54B
:10088000E1185A1C302081F84300224494F84510A6
:1008900082F84310023304F1430239463046C84718
:1008A0000130E1D0236803F00603042B1DD0A368B8
:1008B0002269934225DD4FF000089B1A98441A34B0
:1008C000002501E045451CDA012322463946304621
:1008D000C847013005F10105F4D1C5E712F0060F54
:1008E00012D0003B18BF0123D5E7DAF80030E168E9
:1008F0002269C91AA368934221EAE178DDDC002964
:10090000DDDC0020BDE8F88FE168DAF80030CB1AB2
:10091000002BD8BF114693DCABE700BF2DE9F047B1
:100920000C4684B09046227E0C990746994604F105
:100930004300002A33D0A2F15803DDB2202D67D83E
:10094000202B65D8DFE813F0DE006400640064004B
:100950006400640064006400640064006400A30038
:100960006E0064006400640064006E006400640053
:100970006400640021007F00C00064006400AE00D9
:1009800064007F0064006400E50023681A0640F1FB
:1009900004810B6862691D1D0D601B681A600023CD
:1009A00082462361CDF80090434603AA214638468B
:1009B000FFF71EFF013020D02369524641463846DA
:1009C000C847013019D02368E068039E9B0719D5FA
:1009D000831B002B16DD04F1190A002504E0E068F2
:1009E000039E831BAB420DDD012352464146384630
:1009F000C847013005F10105F1D14FF0FF3004B0D7
:100A0000BDE8F087B042B8BF304604B0BDE8F0871B
:100A1000012384F84220236104F1420A002384F870
:100A20004330BFE723681A0602D45E0600F1C18096
:100A30000D682A6804350D601546002A6BDBDFF867
:100A400084C10A2610E023681D0640F19C800B68D3
:100A50001D1D0D601D68DFF86CC16F2A0CBF0826D4
:100A60000A26002384F843306268A260002A7FDBF4
:100A7000236823F004032360002D5BD1002A79D181
:100A80008246082E65D0A0EB0A0020618AE70B6839
:100A90000122186804330B6004F1420A84F8420012
:100AA0002261BBE70B686268181D0860D3F800A0DC
:100AB0000021504600F0D4FD002800F08180A0EB1A
:100AC0000A0060602061A9E7236843F020032360E7
:100AD0007822DFF8F4C084F845200A68151D0D60FF
:100AE0001D0643D4590641D51588DE0744BF43F09F
:100AF00020032360002D44D1236823F020032360CA
:100B00001026AEE7582384F84530DFF8B8C02368D4
:100B1000E3E72368DCE76268A2602D21002AC5F1C3
:100B2000000584F8431002DB23F004032360DFF8A0
:100B300094C00A268246B5FBF6F306FB13512A46FB
:100B40001CF801100AF8011DB2421D46F3D2082E0E
:100B500099D12368D90796D5626823699A4292DCB5
:100B600030230AF8013C0AF1FF3A8CE71568BCE72C
:100B7000002DDFD19CF8003084F8423004F1420AA5
:100B80007FE710266DE713F0400F0B6803F10405B3
:100B90000D600CBF1D681D885DE713F0400F0B68EA
:100BA000626903F104050D601B6814BF1A801A60A6
:100BB000F5E60A68B2F9005004320A602A463CE7BA
:100BC00060687FE7A8670008BC670008F8B50D46B5
:100BD0001446064608B1836943B3254B9C422AD08C
:100BE000244B9C4229D0244B9C4208BFF468A38923
:100BF000A269A2601A0722D5236903B3226861693A
:100C0000D31AEDB299422F4629DD0133A16801398B
:100C1000A160511C2160157062699A4216D0A389A7
:100C2000DB0701D50A2D11D03846F8BD00F0ACFA2B
:100C30000F4B9C42D4D17468D9E7B468D7E72146FA
:100C4000304600F027F838B92369D7E72146304607
:100C500000F034F90028E7D04FF0FF37E4E72146F1
:100C6000304600F02BF90028F6D122680123CDE7A9
:100C7000745D0008545D0008345D000810B4044C35
:100C800003460A4620685DF8044B1946FFF79EBFED
:100C9000000000203C4B70B51D6806460C460DB1A7
:100CA000AB69E3B1394B9C421FD0394B9C424DD0CC
:100CB000384B9C4208BFEC68B4F90C3018079AB264
:100CC00019D5216911B312F001002FD00020A060C6
:100CD00060694042A06100292ED0002070BD2846E6
:100CE00000F052FA294B9C42DFD16C68B4F90C3009
:100CF00018079AB2E5D4D1063ED5520728D4216907
:100D000043F00803A3819AB20029DCD102F42070D9
:100D1000B0F5007FD7D02146304600F011FCB4F981
:100D20000C3021699AB212F00100CFD1950758BF5B
:100D30006069A0600029D0D1120658BF0846CDD501
:100D400043F04003A3814FF0FF3070BDAC68B3E7C0
:100D5000616B51B104F14402914204D0304600F07D
:100D60004BFDB4F90C300022626321690022C4E912
:100D7000001223F02403C3E7092243F0400332604A
:100D80004FF0FF30A38170BD00000020745D0008AB
:100D9000545D0008345D000808B5062000F0B6FE7A
:100DA000012001F08BF800BF8B891A072DE9F04173
:100DB0000C4680463FD44A68002A58DDE66A002E79
:100DC00052D00022D8F80050C8F8002013F4805206
:100DD00051D10123216A4046B047431C5ED0A3890C
:100DE000E66A5F0705D56368C01A636B0BB1236CB5
:100DF000C01A216A024600234046B047411C3CD13C
:100E0000D8F80030002B38D01D2B01D0162B4DD137
:100E100023690022C4E90032616BC8F8005019B39D
:100E200004F14403994202D0404600F0E5FC002062
:100E30006063BDE8F0810E69B6B10D680E609A0777
:100E40000CBF4B690023AD1B8B600BE02B46324679
:100E5000216AA76A4046B847B0F1000CA5EB0C0523
:100E6000664413DD002DF1DC0020BDE8F0810A6C42
:100E7000002AA3DCF8E7606DB3E700236360236911
:100E80002360A389DB04C7D56065C5E7A38943F068
:100E900040034FF0FF30A381BDE8F081D8F8003067
:100EA000002B9CD01D2B06D0162B04D0A38943F019
:100EB0004003A381D9E7C8F80050D5E738B50B69DE
:100EC000BBB10D46044608B18369B3B10D4B9D42D9
:100ED00011D00D4B9D4213D00C4B9D4208BFE568CD
:100EE000B5F90C302BB129462046BDE83840FFF754
:100EF0005BBF002038BD6568F2E700F045F9E5E723
:100F0000A568EDE7745D0008545D0008345D0008D5
:100F100038B540B303690446E3B1174B1D680DB102
:100F2000AB69CBB1154B9C420FD0154B9C4221D0E5
:100F3000144B9C4208BFEC68B4F90C3053B1214605
:100F40002846BDE83840FFF72FBF6C68B4F90C3075
:100F5000002BF4D1002038BD284600F015F9074BCE
:100F60009C42E2D1F1E7084B08491868BDE83840D7
:100F700000F0C2BAAC68DFE700000020745D000832
:100F8000545D0008345D0008305D0008BD0E0008A7
:100F900000207047014900F0AFBA00BFBD0E000845
:100FA0000020704770B568224D1E02FB05F50E4605
:100FB00005F1740100F082FC044640B100210C30C0
:100FC000C4E90016A06005F16802FFF72BFA20467D
:100FD00070BD00BF274B2DE9F0411E68B36907467D
:100FE00053B348364FF00408D6E90134013B04D529
:100FF0001EE05A1C04F168041AD0B4F90C50013BED
:10100000002DF6D11C4B6566C4E90055C4E90253B6
:10101000C4E90455A5610822294604F15C00FFF7E4
:1010200001FAC4E90D55C4E912552046BDE8F08126
:1010300035682DB12E46D7E7304600F01FF8D0E7CF
:101040004FF4D671384600F039FC044668B10560AB
:10105000C0F804800C302946A06025464FF4D072B9
:10106000FFF7E0F934602E46BEE70C2330603B60AA
:10107000DBE700BF305D00080100FFFF2DE9F84FFE
:10108000344B35491A68816290424FF00003C0E941
:101090001233036504BF012383610546FFF79AFFFE
:1010A00068602846FFF796FFA8602846FFF792FF82
:1010B0006F68E86000240423C7E902430822214640
:1010C000C7E90044C7E904447C66BC6107F15C00E1
:1010D000FFF7A8F9DFF88CB0AE68DFF88CA0DFF876
:1010E0008C90DFF88C801D4BC7F828A0C7E9087BDF
:1010F000C7F82C90C7F830800822F360C6E9004496
:10110000C6E904447466B460B461214606F15C002B
:10111000FFF788F9C6E9086BC6E90AA9C6F8308066
:10112000EE680F4BF360C6E90044C6E904447466F8
:10113000B460B4612146082206F15C00FFF772F941
:101140000123C6E9086BC6E90B98C6F828A0AB6175
:10115000BDE8F88F305D0008950F00080900010018
:10116000120002007D1C0008A51C0008E51C0008F8
:10117000051D0008024B0349186800F0BDB900BF07
:10118000305D0008BD0E0008836903B976E770473B
:10119000704700BF704700BF704700BF704700BF77
:1011A000024B0349186800F087B900BF0000002017
:1011B000910F0008024B0349186800F07DB900BF89
:1011C00000000020A10F00089368002B00F085802C
:1011D0002DE9F04FB1F90C300C461907804683B069
:1011E000174698B225D523691BB310F002033D685A
:1011F0002DD04FF0000ADFF8BCB25646B9465E4526
:101200003346524628BF5B464046002E52D0216AE4
:10121000A76AB847002856DDD9F808301B1A82445F
:10122000361AC9F80830002BE9D1002003B0BDE818
:10123000F08F21464046FFF72DFD002840F0368113
:10124000B4F90C303D6898B210F00203D1D110F01F
:10125000010944D14E46009746B38205D4F808B040
:1012600040F18380B3455A4600F2B28010F4906F8B
:1012700040F0BF8020680192494600F041FAA3681F
:10128000019AA3EB0B012368A1601344B2462360CB
:101290000026009B9868A0EB0A00D14498600028C3
:1012A000C3D0B4F90C0080B2002ED6D1D5E9009697
:1012B0000835D1E7D5E900A60835A0E72146404624
:1012C000FFF7FCFD80B3B4F90C3043F040034FF05E
:1012D000FF30A38103B0BDE8F08F002070471E46A9
:1012E000AA46994618461D46009756B388B34A4603
:1012F000D4E904132068B24228BF3246884205D997
:10130000A16803EB010B5A4500F3A680934263DC0E
:10131000216AA76A2A464046B847B0F1000BD2DDE1
:10132000B9EB0B09CAD00120009A9368A3EB0B0319
:101330005D44A6EB0B069360002B3FF476AF002EC6
:10134000D4D10AF1080353E902569A460833002E15
:10135000F9D032460A21284600F082F9002800F030
:101360009C800130A0EB0509C1E720682369984201
:1013700016D86369B34213D86FF00042B24228BF57
:101380003246216A92FBF3F2A76A02FB03F340465E
:101390004A46B847B0F1000A95DDA6EB0A0678E7A1
:1013A000B345DA4628BFB2465246494600F0A8F98E
:1013B000A3682268A3EB0A035244A3602260002BB7
:1013C000EBD121464046FFF779FD0028E5D07AE7CA
:1013D0002068B34632464EE72946019200F090F964
:1013E000019AA3689B1AA360236813442360934661
:1013F00096E723682169A3EB010B636903EB430ABA
:101400000AEBDA7A0BF101034FEA6A0A33445345D7
:10141000524684BF9A46524643052CD51146404653
:1014200000F04CFA00283BD05A4621690190FEF7A3
:101430005FFFA289019B22F4906242F08002A281A8
:1014400003EB0B002361AAEB0B03C4F814A0A36009
:101450002060B34632460EE729465A4600F050F95E
:1014600023685B44236021464046FFF727FD0028A0
:101470003FF456AF27E7404600F07AFA03460028CB
:10148000DED12169404600F0B7F9B4F90C300C22E6
:1014900023F08003C8F8002017E7721C914627E765
:1014A0000C22B4F90C30C8F800200EE74FF0FF30E2
:1014B000BCE600BF00FCFF7F2DE9F041884600F14B
:1014C00048070026D7E90154013D0FD4A389012B19
:1014D00005F1FF3506D9B4F90E300133204601D0AD
:1014E000C04706436B1C04F16804EFD13F68002F2E
:1014F000E8D13046BDE8F0812DE9F843074688463B
:1015000000F148064FF00009D6E90154013D11D41D
:10151000A389012B05F1FF3508D9B4F90E30013349
:10152000214603D03846C04749EA00096B1C04F144
:101530006804EDD13668002EE6D14846BDE8F88350
:10154000F0B58B890C46990797B007D504F147038E
:101550000122C4E90432236017B0F0BDB4F90E10C3
:10156000002905462DDB6A4600F0F8FB002827DB42
:10157000019E06F470464FF48067A6F50056B6FA51
:1015800086F639462846760900F098F930B3A389E3
:101590001A4AAA6243F08003C4E90407A3812060C9
:1015A000002ED9D0B4F90E10284600F0EDFB00282B
:1015B000D2D0A38923F0030343F00103A381CBE737
:1015C000A38913F0800F14BF40274FF4806739467A
:1015D0002846002600F072F90028D8D1B4F90C3062
:1015E0009A05B9D423F0030304F1470243F0020340
:1015F0000121C4E90421A3812260ADE7950F000811
:1016000070B50C46B1F90E10002996B016461D466D
:1016100013DB6A4600F0A2FB00280EDB019901F4FF
:101620007041A1F50051B1FA81F14FF4806349098D
:1016300000202960336016B070BDB4F90C30002270
:101640001B062A6004D540230020336016B070BD0D
:101650004FF480630020336016B070BD00000000BE
:1016600001F0FF01102A2BDB10F0070F08D010F853
:10167000013B013A8B422DD010F0070F42B3F6D157
:10168000F0B441EA012141EA014122F007047FF070
:1016900000070023F0E80256083C85EA010586EAC7
:1016A000010685FA47F5A3FA87F586FA47F6A5FA03
:1016B00087F68EB9EED1F0BC01F0FF0102F007020F
:1016C00032B110F8013B013A83EA010313B1F8D1BA
:1016D0000020704701387047002D06BF354603389B
:1016E000073815F0010F07D1013015F4807F02BFD4
:1016F000013015F4C03F0130F0BC0138704700BF25
:1017000088420DD98B1883420AD900EB020CBAB17A
:10171000624613F801CD02F801CD9942F9D1704724
:101720000F2A0ED8034602F1FF3C4AB10CF1010C1E
:10173000013B8C4411F8012B03F8012F6145F9D1CD
:10174000704740EA01039B0750D1A2F1100370B526
:1017500001F1200C23F00F0501F1100E00F110042F
:10176000AC441B095EF8105C44F8105C5EF80C5C3D
:1017700044F80C5C5EF8085C44F8085C5EF8045CB5
:1017800044F8045C0EF1100EE64504F11004E9D1B2
:10179000013312F00C0F01EB031102F00F0400EB08
:1017A000031327D0043C24F003064FEA940C1E4494
:1017B0001C1F8E465EF8045B44F8045FB442F9D106
:1017C0000CF1010402F0030203EB840301EB84013A
:1017D00002F1FF3C4AB10CF1010C013B8C4411F8C1
:1017E000012B03F8012F6145F9D170BD02F1FF3CD7
:1017F00003469BE72246EBE7002958D030B551F865
:10180000043C83B0002BA1F10404B8BFE41801909C
:1018100000F0E2FA284A0198136833B1A3420DD9C7
:10182000216804EB010C63452FD06360146003B0A2
:10183000BDE8304000F0D2BAA34210D81A465B6827
:10184000002BF9D1116802EB010C644519D02FD39C
:101850006360546003B0BDE8304000F0BFBA116867
:1018600002EB010CA44516D022D8216804EB010C30
:101870006345EDD11D685B682944C4E900135460D9
:10188000D5E7236819441160D1E71D685B682944D6
:10189000C4E90013CAE7246821445418A342116024
:1018A000C5D1D3E900432144C2E90013BFE7704723
:1018B0000C230360BBE700BFEC000020F8B5CD1C93
:1018C00025F0030508350C2D38BF0C25002D0646E4
:1018D00023DBA94221D8254F00F07EFA3A6822B3D3
:1018E000144603E063682246FBB11C4623685B1B79
:1018F000F8D40B2B15D8636894420CBF3B6053603F
:10190000304600F06BFA04F10B00231D20F00700B5
:10191000C21A01D01B1AA350F8BD0C23336000205B
:10192000F8BD23601C442560EAE77968C9B12946FF
:10193000304600F045F8431C0CD0C41C24F00304CE
:10194000A04205D0211A304600F03AF8013001D00B
:101950002560D5E70C233046336000F03FFA0020C5
:10196000F8BD304600F02CF87860E0E7EC0000208D
:10197000F8B51446F9B1CAB106460D4600F030FA82
:10198000A04202D32F463846F8BD21463046FFF725
:1019900095FF07460028F6D022462946FEF7A8FC08
:1019A00030462946FFF728FF3846F8BD2746FFF79F
:1019B00023FF3846F8BDBDE8F8401146FFF77EBF6B
:1019C00038B5074D0022044608462A6000F060FA48
:1019D000431C00D038BD2B68002BFBD0236038BDE2
:1019E000F400002038B5446C0CB1002038BD8021D3
:1019F0000546FFF763FF0246686430B1031F7C327F
:101A000043F8044F9342FBD1EFE74FF0FF3038BD6E
:101A10001F29F8B5054608D8466C0C4617464EB146
:101A200056F8240046F82470F8BD162303604FF0E2
:101A3000FF30F8BD8021FFF741FF0646686440B1E2
:101A4000031F00F17C05002143F8041F9D42FBD1D8
:101A5000E6E74FF0FF30F8BD1F2938B5054620D81E
:101A6000426C0C466AB152F8213053B1012B16D0AA
:101A7000591C10D00025204642F82450984728468B
:101A800038BD284600F0F8F8224601462846BDE851
:101A9000384000F0DBB816230360012038BD002079
:101AA00038BD162303604FF0FF3038BD1F292AD8F8
:101AB000426C38B50C46054682B152F8243002EB30
:101AC00084024BB1591C19D0012B15D0002520469A
:101AD00015609847284638BD012038BD8021FFF7A2
:101AE000EDFE0246686458B1031F00217C3043F8C4
:101AF000041F9842FBD1E0E7032038BD022038BD27
:101B00004FF0FF3038BD4FF0FF30704738B5144B01
:101B10001F281D681FD86A6C044662B152F8203035
:101B20004BB1012B15D0591C0FD0002542F8205085
:101B30009847284638BD284600F09EF822460146C0
:101B40002846BDE8384000F081B816232B600120FC
:101B500038BD002038BD16232B604FF0FF3038BD54
:101B600000000020124B1F2870B51E6808D80D46D3
:101B7000716C044649B151F8240041F8245070BDFD
:101B8000162333604FF0FF3070BD80213046FFF7E1
:101B900095FE0146706440B1031F00F17C0C0022E9
:101BA00043F8042F6345FBD1E5E74FF0FF3070BDEC
:101BB0000000002038B50B4B1D686C6C0CB1002088
:101BC00038BD80212846FFF779FE686438B1031FCD
:101BD00000F17C0243F8044F9342FBD1EFE74FF052
:101BE000FF3038BD0000002038B5174B1F281D6896
:101BF00026D86A6C044682B152F8243002EB840283
:101C00004BB1591C1AD0012B16D000252046156067
:101C10009847284638BD012038BD80212846FFF767
:101C20004DFE0246686458B1031F00217C3043F822
:101C3000041F8342FBD1DFE7032038BD022038BDFB
:101C40004FF0FF3038BD00BF0000002070B50C46DB
:101C5000084D03460026204611461C462E6000F023
:101C6000FFF8431C00D070BD2B68002BFBD0236015
:101C700070BD00BFF400002000F0E2B810B50C46C3
:101C8000B1F90E1000F0B6F8002803DB636D0344D1
:101C9000636510BDA38923F48053A38110BD00BFE9
:101CA000002070472DE9F0410C46B1F90C101F4699
:101CB000CB05054616460BD421F48051A1813B4645
:101CC000B4F90E1032462846BDE8F04100F01EB8C7
:101CD000B4F90E100223002200F068F8B4F90C10D9
:101CE000EAE700BF10B50C46B1F90E1000F05EF83F
:101CF000A389421C0EBF23F4805343F480536065D4
:101D0000A38110BDB1F90E1000F016B838B50C461D
:101D1000084D8446114620461A4600232B6064462F
:101D200000F0C4F8431C00D038BD2B68002BFBD05A
:101D3000236038BDF400002038B5074D002204466A
:101D400008462A6000F06CF8431C00D038BD2B68B0
:101D5000002BFBD0236038BDF400002070B50C468A
:101D6000084D03460026204611461C462E6000F012
:101D70005FF8431C00D070BD2B68002BFBD02360A4
:101D800070BD00BFF400002038B5074D00220446A6
:101D900008462A6000F05CF8431C00D038BD2B6870
:101DA000002BFBD0236038BDF400002038B50C4672
:101DB000084D8446114620461A4600232B6064468F
:101DC00000F056F8431C00D038BD2B68002BFBD028
:101DD000236038BDF4000020704700BF704700BF8B
:101DE00051F8040C0028A0F10400BCBF0B58C01827
:101DF000704700BF38B50C46084D84461146204652
:101E00001A4600232B60644600F03AF8431C00D0C9
:101E100038BD2B68002BFBD0236038BDF4000020B8
:101E2000024B58221A604FF0FF307047F400002038
:101E3000024B58221A604FF0FF307047F400002028
:101E4000024B58221A604FF0FF307047F400002018
:101E5000024B58221A600020704700BFF400002097
:101E6000024B58221A604FF0FF307047F4000020F8
:101E7000024B58221A604FF0FF307047F4000020E8
:101E8000024B58221A604FF0FF307047F4000020D8
:101E9000044A05491368002B08BF0B46184410601C
:101EA00018467047F800002010130020024B5822FB
:101EB0001A604FF0FF307047F4000020FEE700BFCB
:101EC0007047000010B50B4B012283F87C200A4CB0
:101ED0002269A3F87E2000F0C3FE0346A061400003
:101EE000064AB2EB430F00DB054800F0C5FF0020B7
:101EF00010BD00BFE8010020FC0000203F420F00A1
:101F000040420F0008B5022000F0CCFB00B908BD2C
:101F1000022000F0D1FB024B01221A70F7E700BF4C
:101F20004101002008B5082000F0BCFB00B908BD45
:101F3000082000F0C1FB024B01221A70F7E700BF36
:101F40004001002008B5034801F058F800F05AF9A4
:101F500008BD00BF640000207047704710B5174BE4
:101F60001B789BB9164B1B780BB3164C04222146E9
:101F70004FF4116000F0FCFD14F8643C9BB10220AA
:101F800000F084FF0E4B00221A7010BD04220D4990
:101F90004FF4116000F0ECFD092000F077FF074BD3
:101FA00000221A70DEE70B2000F070FFEAE701F074
:101FB00005F8042000F06AFFE7E700BF41010020B8
:101FC00040010020C802002008B50E4B1B680E4AD5
:101FD000A2FB03239B09013BB3F1807F0AD24FF0A0
:101FE000E0225361094BF02183F823100023936111
:101FF0000723136100F0E4FCFFF7A4FFFFF7AEFF37
:10200000FCE700BFC8000020D34D621000ED00E0E7
:1020100043090B7042EAC0004870032A02D0022A2A
:1020200004D07047FF238B700B717047FF230B7137
:10203000F7E7000008B50749074800F0A1FA00B922
:1020400008BD0449044800F0CBFA044B00221A7082
:10205000F6E700BF008020104064024042010020EB
:1020600030B591B001214FF4800000F09DFB254870
:1020700000F052F9244800F04FF9224800F040FAED
:102080000028FAD1204800F03BFA0028FAD101A834
:1020900000F01AFA0523059300240C940D940E9475
:1020A00009944FF4806307930A94184B02930F949A
:1020B000089406944FF400330B934FF0C0650195DC
:1020C00040230493124B1B68039301A90D4800F0B1
:1020D000CFF9019504940F4B1B68039301A90A489B
:1020E00000F0C6F93A238DF800308DF801408DF8E4
:1020F000024001238DF80330684600F0DBF811B090
:1021000030BD00BF58640240406402400C300140C2
:10211000C0000020BC00002038B5104C0122102166
:10212000204600F00FFA0E4D01221146284600F01D
:102130000FFC01220221284600F00AFC012003F0D6
:102140007BFD0121074800F0D0F90121204600F075
:10215000CCF9054B01221A7038BD00BF4064024023
:1021600000300140586402404201002038B501208F
:1021700003F06AFD0F4D4FF0C051284600F0C8F93A
:102180000D4C4FF08151204600F0C2F90021284645
:1021900000F0ABF90021204600F0A7F9074C00221F
:1021A0000121204600F0D4FB00220221204600F04D
:1021B000CFFB38BD5864024040640240003001400B
:1021C00008B5074B1B6800221A800322054B1968CB
:1021D0004FF4B050FFF71CFFFFF79EFF08BD00BF94
:1021E000B8000020C000002008B50422044B196884
:1021F0004FF4D050FFF70CFFFFF78EFF08BD00BF74
:10220000C000002008B5FFF72BFF03F0DDFC08BD80
:1022100008B5FFF7ABFF074B1B681A78064BC3F8EE
:10222000E420064AD3F8AC10054B186803F04CFBC9
:1022300008BD00BFBC000020E8010020D80E00202F
:10224000B400002008B5FFF7BBFF044B1B78DBB2DE
:10225000012BFAD0FFF7DCFF08BD00BF42010020D0
:1022600008B5FFF783FF034B1B681A78024BC3F8CE
:10227000E42008BDBC000020E801002008B5094AA0
:10228000094BD3F8B010094B186803F0E1FAFFF7D7
:10229000ABFF074B1B78DBB2012BFAD0FFF7E0FF57
:1022A00008BD00BFF00E0020E8010020B8000020AB
:1022B00042010020C378FBB1154BDB68DB43C3F35D
:1022C0000222C2F10401C9B20F23134142788A40AD
:1022D000D2B281780B4013431B01DBB202780D4967
:1022E0000A4482F80033037803F01F005B090122DF
:1022F000824041F823207047037803F01F015B09F7
:1023000001228A402033034941F82320704700BF4F
:1023100000ED00E000E100E0036823F0010303604A
:102320000023036043608360C36003612123436132
:102330003C4B98422DD03C4B98422ED03B4B984280
:1023400030D03B4B984232D03A4B984234D03A4B43
:10235000984235D0394B984236D0394B984237D0D5
:10236000384B984239D0384B98423AD0374B984244
:102370003CD0374B98423ED0364B984240D0364BFB
:10238000984241D0354B984242D0354B984243D089
:102390007047103B3D229A607047283B4FF47462AF
:1023A0009A607047403B4FF474129A607047583BF4
:1023B0004FF074629A607047703B2A4ADA60704747
:1023C000883B294ADA607047A03B284ADA607047A8
:1023D000B83B4FF03D52DA607047103B3D229A60A7
:1023E0007047283B4FF474629A607047403B4FF44B
:1023F00074129A607047583B4FF074629A6070474D
:10240000703B184ADA607047883B174ADA607047B9
:10241000A03B164ADA607047B83B4FF03D52DA6095
:10242000B6E700BF106002402860024040600240F2
:10243000586002407060024088600240A060024024
:10244000B8600240106402402864024040640240C8
:10245000586402407064024088640240A0640240F4
:10246000B86402403D000020400F002000003D20E5
:1024700010B40368134A1A400B68CC6823434C69B4
:1024800023438C692343CC6923430C6A23434C6A5E
:1024900023438C6A23434C6B23438C6B23431343AA
:1024A0000360426922F00702CB6A0C6B234313439B
:1024B00043610B6943604B6883608B68C3605DF860
:1024C000044B70473F801CF000230360436083602F
:1024D000C360036143618361C361036243628362DA
:1024E000C362036343638363704721B1036843F0AE
:1024F000010303607047036823F001030360704722
:10250000036813F0010F01D00120704700207047CD
:102510000A4B98420AD8A3F20F4311F0005F07D08C
:1025200021F0F02121F08211D9607047044BF4E7CB
:1025300021F0F02121F08211996070470F64024070
:102540000064024011F0800F04D062B1436943F08F
:1025500080034361802911D052B1036801F01E014C
:10256000194301607047436923F080034361F1E739
:10257000036801F01E0123EA0101016070470000B9
:1025800010B4144B984217D8134C21F0F02323F0C9
:10259000C3139BB1CA0A02F01E0302681A4011F06D
:1025A000005F0FD0636823F0F02323F082131942F9
:1025B0000AD06AB9002008E0084CE6E7426902F058
:1025C0008002ECE72368EEE700205DF8044B7047DB
:1025D0000120FAE70F6402400060024000640240FC
:1025E0000A4B98420AD8A3F20F4311F0005F07D0BC
:1025F00021F0F02121F08211D9607047044BF4E7FB
:1026000021F0F02121F08211996070470F6402409F
:10261000006402408379002B36D010B4204B1A6836
:10262000016822EA01021A605A68016822EA01027E
:102630005A60027902F1804202F59E321168046804
:10264000214311609A68016822EA01029A60DA68FF
:10265000016822EA0102DA604379102B0AD003F103
:10266000804303F59E331A6801680A431A605DF8D7
:10267000044B70470A4B9A6801680A439A60DA680B
:1026800001680A43DA60F2E7037903F1804303F556
:102690009E331A68016822EA01021A60704700BF7F
:1026A000003C0140034B5B69034201D001207047AD
:1026B00000207047003C0140014B5861704700BF4B
:1026C000003C014000230F2B4ED830B516E0C26805
:1026D0001FFA83FE4FEA4E044FF0030E0EFA04FE7B
:1026E00022EA0E02C260C26891F807E00EFA0CFC02
:1026F00042EA0C02C26001330F2B34D801229A4007
:102700000C68A243F7D104684FEA430C032202FA93
:102710000CF26FEA020E24EA0202026002680C79EF
:1027200004FA0CF4224302600A79013AD2B2012A77
:10273000CDD882680EEA0202826082684C7904FA7F
:102740000CF42243826044689DB24FF0010E0EFAF1
:1027500005FE24EA0E04446044688A79AA4092B2D5
:1027600022434260B3E730BD704701837047418325
:10277000704700B501F007039B0002FA03FCC9088B
:10278000083150F821204FF00F0E0EFA03F322EA21
:10279000030340F8213050F8212042EA0C0240F8AF
:1027A00021205DF804FB000021B1054A136B18439A
:1027B00010637047024A136B23EA000010637047EE
:1027C0000038024021B1054A536C184350647047E9
:1027D000024A536C23EA00005064704700380240FC
:1027E00021B1054A136A184310627047024A136AFE
:1027F00023EA0000106270470038024021B1054A08
:10280000536A184350627047024A536A23EA000031
:10281000506270470038024008B52A4B98420FD0EA
:10282000294B984217D0294B98421FD0284B9842E9
:1028300027D0284B98422FD0274B984237D008BD3D
:1028400001214FF48050FFF7D9FF00214FF4805051
:10285000FFF7D4FFF3E701214FF48040FFF7C0FFFB
:1028600000214FF48040FFF7BBFFE8E701214FF460
:102870000040FFF7B5FF00214FF40040FFF7B0FF25
:10288000DDE701214FF40050FFF7B8FF00214FF4BE
:102890000050FFF7B3FFD2E701214FF48010FFF79C
:1028A000ADFF00214FF48010FFF7A8FFC7E701211B
:1028B0004FF40010FFF7A2FF00214FF40010FFF7C4
:1028C0009DFFBCE70030014000380040003C004064
:1028D0000034014000500140005401402DE9F04116
:1028E000038803F441520F88B1F802808E88CD88A6
:1028F0000C89B1F80AE0B1F80CC0CB8947EA0807A7
:102900003E4335432C434EEA040E4CEA0E0C43EA98
:102910000C0313430380838B9BB223F400639BB2AD
:1029200083830B8A0382BDE8F08129B103889BB2BF
:1029300043F040030380704703889BB223F04003B9
:102940009BB203807047808980B270478181704755
:1029500022B183889BB21943818070478388C94321
:1029600089B21940818070470389194201D0012042
:10297000704700207047000010B401F0030292007D
:102980000F2404FA02FC8908084B023153F8214055
:1029900024EA0C0443F8214053F8214090400443BA
:1029A00043F821405DF8044B704700BF00380140F8
:1029B000024A136801331360704700BF64010020AE
:1029C000134B1B68134AA2FB03239B0C124A136090
:1029D000124BD3F8FC2022F08072C3F8FC20D3F80D
:1029E000FC2042F08072C3F8FC20A3F55D431A6816
:1029F00022F001021A601A6842F001021A600022F5
:102A00005A605A6800BF00BF5868801A704700BFFC
:102A1000C800002083DE1B43C400002000ED00E05E
:102A200082B00023019300932A4A136843F4803351
:102A30001360284B1B6803F400330093019B0133A0
:102A40000193009B1BB9019BB3F5A04FF1D1214B22
:102A50001B6813F4003F06D001230093009B012B59
:102A600004D002B0704700230093F7E7194B1A6CAB
:102A700042F080521A6418490A6842F440420A60DF
:102A80009A689A609A6842F400429A609A6842F49E
:102A9000A0529A60114A5A601A6842F080721A6015
:102AA0000C4B1B6813F0007FFAD00D4B40F20572FF
:102AB0001A60A3F580639A6822F003029A609A680C
:102AC00042F002029A60034B9B6803F00C03082B50
:102AD000F9D1C6E7003802400070004019544007A1
:102AE000003C024010B5104CD4F8883043F4700319
:102AF000C4F888300D4B1A6842F001021A600021B8
:102B000099601A6822F0847222F480321A60084AAE
:102B10005A601A6822F480221A60D960FFF780FF99
:102B20004FF00063A36010BD00ED00E000380240EC
:102B30001030002410B582B043098DF8043041EA0A
:102B4000C0008DF80500084C022301AA2146074861
:102B500090F9000003F098F8214651F8E4399BB24F
:102B6000C1F8E43002B010BDCC020020CC0000203F
:102B7000802A00D97047F8B506460D4614460C4F1A
:102B800097F9000003F058F802213046FFF7D2FF12
:102B9000C4F18002E3B207490A44294697F90000CC
:102BA00003F072F897F9000003F04EF8F8BD00BF8B
:102BB000CC00002068010020F8B507460D461646F7
:102BC000094C94F9000003F037F804213846FFF768
:102BD000B1FFF2B2294694F9000003F03DF894F9F0
:102BE000000003F031F8F8BDCC00002008B502F079
:102BF00077FF02F06DFF02F0E7FF044B01221A603D
:102C0000034BFF2283F87F2008BD00BFCC000020CB
:102C10006801002010B5044602F0FEFE14F0040F17
:102C200005D100F094FA204300F084FA10BD02F0C0
:102C300097FE24F00404F4E710B5044602F024FFE4
:102C400014F0040F06D1E44300F081FA204000F0B4
:102C500071FA10BD02F0BCFE24F00404F3E700009A
:102C600010B584B000238DF80F3001220DF10F0153
:102C700040F24110FFF77CFF9DF80F3013F0040F76
:102C800002D1002004B010BD00230293042202A947
:102C90004FF41A60FFF76CFF01220DF10F014FF4A2
:102CA0001860FFF765FF9DF80F30012B01D00298E7
:102CB000E8E71E4C042221464FF41160FFF758FF4D
:102CC000214651F8E039C1F8E030D1F8E020184B46
:102CD0001344019304220DEB02014FF41960FFF736
:102CE0006BFF01220DF10F0140F68110FFF740FF4D
:102CF0009DF80F3043F003038DF80F3001220DF1E2
:102D00000F0140F68110FFF757FF00238DF80F30B9
:102D100006E001220DF10F0140F68110FFF728FFB8
:102D20009DF80F3013F0030FF3D0C0E7C802002066
:102D3000B8BF23002DE9F04383B004460D46164684
:102D40001F46BDF82880A0F5B05189B2B1F5007FCB
:102D50000DD3A0F5D0539BB2B3F5007F07D341F656
:102D60001243984203D041F61343984202D1B5EB87
:102D7000D83F0FD80C4BD3F83C90B9F1000F10D0CE
:102D8000CDF800803B46324629462046C84703B06E
:102D9000BDE8F083204602F0CFFD0028EAD00348CA
:102DA000F5E70020F3E700BFE8010020030001067B
:102DB00008B5034B1B6C0BB1984708BD0020FCE71E
:102DC000E801002030B583B0054C646C2CB1BDF82F
:102DD00018500095A04703B030BD0020FBE700BFAE
:102DE000E801002008B5034B9B6C0BB1984708BD68
:102DF0000020FCE7E801002008B5024B9B6B03B103
:102E0000984708BDE801002038B50A4B1B6D0BB18F
:102E1000984738BD074D084C084AD5F8B0102046F1
:102E200002F016FDB5F87A2021464FF4D050FFF796
:102E3000C3FEEEE7E801002008110020F00E00209C
:102E400038B50A4BDB6C0BB1984738BD074D084CC1
:102E5000B5F8782021464FF4B050FFF789FE054AB7
:102E6000D5F8AC10204602F02FFDEEE7E801002077
:102E7000080F0020D80E0020BFF35B8F024BC3F871
:102E8000DC00BFF35B8F7047E801002010B50446FB
:102E900010F0040F0DD114F0020F4ED114F0080FF2
:102EA00003D0434B5B6B03B1984714F0010F71D112
:102EB00010BDBFF35B8F3F4B1B68BFF35B8F002BD5
:102EC0000BDD3C4BBFF35B8F53E8002F013A43E827
:102ED00000210029F8D1BFF35B8FBFF35B8F354B27
:102EE0001B68BFF35B8F002B13DDBFF35B8F304B91
:102EF00093F8E930BFF35B8F13F0020FCBD12C4B6B
:102F0000D3F8DC20BFF35B8F2A4B1A60BFF35B8FD3
:102F1000C1E7BFF35B8F264B93F8E930BFF35B8FBC
:102F200013F0020FE1D0224BB3F87830002BDCD045
:102F30001B21142000F0B8FDADE7BFF35B8F1C4BE5
:102F400093F8E930BFF35B8F13F0020F05D0184BF5
:102F5000D3F8E43013F4806F0ED1154BD3F8E4307E
:102F600013F4806F9AD0124BB3F8782012494FF4C3
:102F7000B050FFF7FDFD91E7FFF762FF0C4BD3F870
:102F8000DC20BFF35B8F0B4B1A60BFF35B8FFEF748
:102F9000E4FF83E7BFF35B8F054B93F8E930BFF3A2
:102FA0005B8F002B84D0FEF7D7FFFFF72DFF7FE765
:102FB000E801002008130020080F002010B50E4C77
:102FC000042204F1E0014FF41160FFF7D1FDD4F8C1
:102FD000E030C4F8E03000F02FFE00F0A3FD00F078
:102FE0002DFB20B9044BDB6D03B1984710BD02F0F7
:102FF00051FB00F009FCF5E7E801002010B504469C
:103000008268114B1A6000F0F1FF2046FFF7EEFDD9
:1030100005E002220D494FF48870FFF7A9FD0C4B23
:10302000B3F8863013F0010FF3D0012000F06EF8F2
:10303000002000F037F800F0DBF900F0E5FC00F0CC
:103040001DFD02F0CFFB10BD081300206E02002012
:10305000E801002010F0200F1FD0C3B200F00F00D5
:1030600003281CD013F00C0F06D00B78042B03D0D0
:10307000082B01D00020704700B583B002220DF16B
:1030800006014FF49A70FFF773FDBDF80600B0FA21
:1030900080F0400903B05DF804FB00207047002079
:1030A0007047000000B583B0074BA3F88400ADF86B
:1030B000060002220DF106014FF49A70FFF77CFD25
:1030C00003B05DF804FB00BFE801002000B583B049
:1030D0000D4B5B6E6BB10DF10600984710B10023EC
:1030E000ADF80630BDF8060050B9002003B05DF819
:1030F00004FB02220DF106011220FFF739FDF1E772
:10310000FFF7D0FF2020F1E7E801002000B583B0F1
:10311000074BA3F88000ADF8060002220DF106016E
:103120004FF49870FFF748FD03B05DF804FB00BF53
:10313000E801002000B583B0019004220DEB0201EC
:103140004FF40170FFF738FD03B05DF804FB00B5E4
:1031500083B004220DEB02014FF40170FFF708FD6C
:10316000019803B05DF804FB00B583B0C0000122F4
:103170000DF1070100F60600FFF7FAFC03B05DF859
:1031800004FB000008B500F11703054901EBC3017A
:10319000C0000122093100F60500FFF7E9FC08BD77
:1031A000E801002008B500F11703054901EBC30150
:1031B000C00001220B3100F60700FFF7FDFC08BD3F
:1031C000E801002008B500F11702054B03EBC2032C
:1031D000DA7A22F00102DA72FFF7E4FF08BD00BFDD
:1031E000E801002008B500F11702054B03EBC2030C
:1031F000DA7A42F00102DA72FFF7D4FF08BD00BFAD
:10320000E801002008B5022202491020FFF7B0FCB7
:1032100008BD00BF7002002000B583B001220DF18F
:10322000070140F68110FFF7A3FC9DF8070003B0EB
:103230005DF804FB08B5FFF7EFFF10F0090F04D0AD
:10324000064B1B6E43B1984705E0044B002083F802
:103250007C0083F8E80008BD3020FCE7E80100208E
:1032600038B505462B4C082221464FF40060FFF785
:103270007FFC0822A11840F60800FFF779FC34F81B
:10328000BC19236F1A8891422CD1234AB2F8BE1080
:103290005A88914226D1204A92F8C0209B799A42BE
:1032A00020D11D4B93F8C23013F0010F1AD01A4BE6
:1032B000B3F8C4105B6F1A8891421FD1164AB2F856
:1032C000C6105A88914219D1134A92F8C8209B79A6
:1032D0009A4213D1104B93F8CA3013F0010F0DD05E
:1032E00028460AE001240C4B83F8B4400020FFF785
:1032F00079FF2046FFF776FF112038BD064B0222EA
:1033000083F8B4200020FFF76DFF0120FFF76AFF6C
:103310001120F2E7A4020020E801002010B50446C5
:10332000174B4FF40072DA661A1D1A6703F10C028C
:103330005A670020FFF746FF0120FFF743FF0020F8
:10334000FFF720FF0120FFF71DFF2046FFF788FF52
:10335000044610F0100F0BD1094B93F8CA20C2F3AA
:10336000400283F8AA20012283F86820204610BD7D
:103370001620FFF797FE024B002283F86820F5E73E
:10338000E801002010B50446184B4FF40072DA66CD
:1033900003F114021A6703F11C025A670020FFF7B9
:1033A00011FF0120FFF70EFF0020FFF7EBFE0120C9
:1033B000FFF7E8FE2046FFF753FF044610F0100F1A
:1033C0000BD10A4B93F8CA20C2F3400283F8AA201B
:1033D000012283F86820204610BD1520FFF762FE09
:1033E000024B002283F86820F5E700BFE8010020C7
:1033F00010B50024174B83F868402046FFF7F2FE13
:103400000120FFF7EFFE204604E0134B00221A5480
:103410000130C0B20228F8D90E4B002283F88C206C
:1034200083F88D2083F88E20012183F8901083F893
:10343000AA2083F88B2083F89120C3F89C20C3F83E
:10344000A02083F88F20A3F8A42083F8A620A3F857
:10345000A82010BDE8010020D40E002030B583B0B4
:10346000174C236F174D062229461888FFF780FB5B
:103470002B8898B2ADF80630226F5388991F884286
:1034800001D9ADF8061010880630BDF806200E49A7
:1034900080B2FFF76DFBBDF806300633084A106FA7
:1034A0004288934204D3094B01221A7003B030BD05
:1034B00001220DF106018088FFF75AFBF3E700BFF8
:1034C000E8010020D4080020DA080020D40E0020F3
:1034D00010B582B0134AD36E03FB00F0124BC11833
:1034E00000248DF807401B5A506F4288941FA34256
:1034F00000D9A3B29C1DA2B20088FFF75DFB094B67
:103500005B6F5A88944205D3064B002283F89020C3
:1035100002B010BD01220DF107019888FFF74CFBA6
:10352000F2E700BFE8010020D408002010B582B007
:1035300000238DF80730064C636F01220DF107015F
:103540001888FFF739FB012384F8903002B010BDD2
:10355000E8010020022001E00138C0B218B11A4B86
:103560001B5C002BF8D168B3174B02221A54174981
:10357000CA6E174B02FB003391F88A200132D2B297
:1035800081F88A2002F0070281F88A201AB90A46D7
:10359000012182F88A1000229A70DA70197962F398
:1035A00005011971C9B262F387111971074A92F8BE
:1035B0008AC059796CF30711597192F88F30013331
:1035C00082F88F30704700BFD40E0020E801002041
:1035D000D4080020022001E00138C0B218B1024B2B
:1035E0001B5C032BF8D17047D40E002010B50446A5
:1035F000FFF7B0FFD0B101460D4BDA6E00FB02F2CF
:103600000C4813184FF0000C4FF0040E02F800E0C5
:1036100083F801C05A796CF303025A7101229A713E
:1036200083F807C01C81044B03225A5410BD00BF0D
:10363000E8010020D4080020D40E00206F4B93F83E
:103640006800002800F0D88010B5D3F8E43013F4F7
:10365000407F2FD1694B93F88C1021B1D3F8E4301F
:1036600013F4007F2DD1654A92F8CA30C3F34003AA
:1036700092F8AA20934259D0604BB3F88C30BBB17A
:10368000002942D15D4B93F88D00FFF721FF5B4B82
:1036900093F8CA20C2F340010A4683F8AA1093F8AF
:1036A000CB1062F3410183F8CB100120FFF77AFDC4
:1036B000002010BD0020FFF765FD0120FFF762FD2F
:1036C000C8E7FFF733FF4D4B93F88D3013B14C4AE9
:1036D0000021D154494B93F88C00494B1B5C062BBD
:1036E00010D0464B93F88C2045490520885483F828
:1036F0008D20002283F88C2093F88E000028D8D0EB
:103700000120D6E7FFF7E4FEEBE70120FFF76AFDB3
:103710003A4C94F88C303A4A0621D1540120FFF7F4
:1037200051FD94F88D00FFF7D3FEB0E7334B93F8CB
:103730008F3073B1314B93F890302BB92F4B93F8F6
:10374000C93013F0080F04D1FFF744FF04460028E6
:1037500031D12A4B93F8C10010F00800A9D0284BB2
:103760001878002846D1254BD3F88C3013F0FF1F72
:103770009FD1FFF773FE214B93F8C1206FF3C30273
:1037800083F8C1201F4B1B884BB31E4B5B7913F092
:10379000F00F07D01B4B5A79184B93F88B30B3EBD3
:1037A000121F23D0174B5B79C3F30313134A82F81C
:1037B0008B3001207DE7FFF78BFE0120FFF7E2FC55
:1037C0000F4B04221A550D4B83F88C4093F88F3021
:1037D000002BBED0013B094A82F88F30B9E70520A3
:1037E000FFF704FF064B00221A70CEE7044B0022BD
:1037F0001A70D7E700205CE7704700BFE80100209F
:10380000D40E0020D408002008B5104B93F868307F
:103810003BB10E4B93F88E301BB90D4B1B78012B2F
:1038200000D008BD0B4B5B7913F00F0F02D0094B92
:103830001B8833B90520FFF7D9FE054B00221A700B
:10384000EFE70220FFF7D2FEF7E700BFE801002014
:10385000D40E0020D408002038B50546384C082284
:1038600021464FF40160FFF783F92388B3F5B05F79
:1038700039D1A4F1CC0393F8D030242B33D1314A81
:10388000B2F8CE30B2F87820934232D12D4991F877
:10389000D21011F0010F00D18ABB03EB4303B3F543
:1038A000806F32DC284C0822214640F61800FFF7D2
:1038B0005FF92388B3F5D05F2DD1A4F1D40393F839
:1038C000D830202B27D11F4BB3F8D620B3F87A304D
:1038D0009A4226D11B4A92F8DA2012F0010F2CD11D
:1038E0002BBB284604E0174B042283F8B420122097
:1038F00038BD144B042283F8B4201220F8E7114B92
:10390000042283F8B4201220F2E70E4B042283F83D
:10391000B4201220ECE70B4B082283F8B4201220CD
:10392000E6E7084B082283F8B4201220E0E7054BB5
:10393000082283F8B4201220DAE72846D8E700BF2F
:10394000B4020020E8010020BC02002010B5FFF7FF
:1039500083FF0446122815D0294BB3F87A306BB98F
:10396000BFF35B8F274B01221A70BFF35B8F244B91
:103970001B680BB1122C19D1204610BD0320FFF794
:1039800021FCEDE70220FFF72DFC0320FFF72AFCC6
:103990001B4B93F8B43013F0080F03D01E20FFF731
:1039A00081FBE4E71D20FFF77DFBE0E7FFF742FC2A
:1039B00088B9134B5B6D002BDED0114AB2F878202A
:1039C000D2B94FF400600E4A92F87C200AB140F060
:1039D00004009847D0E7FFF765FB0220FFF702FCE1
:1039E0000320FFF7FFFBBFF35B8F064B00221A702B
:1039F000BFF35B8F1224BFE74FF48060E3E700BFA3
:103A0000E8010020D102002010B50C4CBFF35B8F01
:103A100000232370BFF35B8F0320FFF7E3FB02203B
:103A2000FFF7E0FB54F8E93C33B1A4F1E9039B6DE7
:103A300013B140F60440984710BD00BFD1020020EA
:103A400010B504460B4BB3F8783073B90A4BBFF38B
:103A50005B8FD3E84F2F42F00202C3E8412F0029C9
:103A6000F7D1BFF35B8F204610BD0220FFF7AAFB02
:103A7000ECE700BFE8010020D102002008B5094BA7
:103A8000BFF35B8FD3E84F2F02F00102C3E8412F51
:103A90000029F7D1BFF35B8F0220FFF7A3FBFFF7ED
:103AA000ABF908BDD102002010F0080F35D130B5B8
:103AB00083B004460D46194AB2F8803003F00F0374
:103AC0008DF806308DF8073043EA00138DF8063084
:103AD000D36A23B10DF107010DF106009847BFF33A
:103AE0005B8F0F4B1B78BFF35B8F13F0020F11D16D
:103AF0002846FFF7D7FA2046FFF708FB8DF8074066
:103B0000064B1B6B23B10DF107010DF10600984721
:103B100003B030BDFFF7B2FFEAE77047E8010020CD
:103B2000D1020020F8B5424BD3F8E43013F0100F67
:103B300034D03F4B93F8822002F01F0593F8803079
:103B400003F01F0412F0100F03D1012D01D02646FF
:103B500003E002F00F0503F00F0613F00E0F05D07F
:103B6000032C03D0324B93F86830C3B90020FFF721
:103B7000FBFA0120FFF7F8FA0220FFF7F5FA03201D
:103B8000FFF7F2FA0420FFF7EFFA0520FFF7ECFA4F
:103B90000620FFF7E9FA0720FFF7E6FAF8BD20460E
:103BA000FFF75EFB07462046FFF756FE044616F079
:103BB000100F02D015F0100FF0D0112F1AD0BFF354
:103BC0005B8F1C4B1B78BFF35B8F002BE6D0122C56
:103BD000E4D1FFF753FFFFF717FF154B93F8B4300D
:103BE00013F0080F1FD01E20FFF75CFA2046FFF7E6
:103BF0008DFAD3E7BFF35B8F0E4B1B78BFF35B8F60
:103C000063B9FFF7F5FB1620FFF74CFA084B0022CB
:103C100083F868203846FFF779FABFE7FFF72EFFF1
:103C2000FFF7F2FEEDE71D20FFF73CFADEE700BFED
:103C3000E8010020D1020020A34BD3F8E43013F0B8
:103C4000010F00D1704730B583B0A04C022221464D
:103C50004FF49070FEF78CFF214611F8822902F094
:103C60001F04B1F8803003F01F038DF806308DF883
:103C7000073012F0100F01D1012C05D102F00F0412
:103C800003F00F028DF807209DF8072012F0100FA7
:103C900003D014F0100F00F0B88003F00F0343EAD4
:103CA00004138DF80630884BDB6A23B10DF1070150
:103CB0000DF1060098479DF80630854A1370113BB8
:103CC000772B00F25D81DFE813F07F00C200C800AF
:103CD000BA005B015B015B01B0005B015B015B0152
:103CE0005B015B015B015B015B0178007F00CE0043
:103CF0002A015B015B015B0122015B015B015B014E
:103D00005B015B015B015B015B01A200CE00A200D5
:103D100030015B015B015B013D015B015B015B010C
:103D20005B015B015B015B015B01AA00D500CE007A
:103D3000D5005B015B015B0155015B015B015B0130
:103D40005B015B015B015B015B015B015B015B0193
:103D50005B015B015B015B015B015B015B015B0183
:103D60005B015B015B015B015B015B015B015B0173
:103D70005B015B015B015B015B015B015B015B0163
:103D80005B015B015B015B015B015B015B015B0153
:103D90005B015B015B015B015B015B015B015B0143
:103DA0005B015B015B015B015B01AA001B01CE00B3
:103DB00037015B015B015B017F00FFF723FA2046BF
:103DC000FFF7ACFA8DF807003F4B1B6B23B10DF1E9
:103DD00007010DF1060098479DF8073013F0100F0A
:103DE00005D1394BB3F88430002B40F0F0800DF151
:103DF0000701354BB3F88200FFF72CF9002840F09B
:103E0000EA809DF80700FFF781F903B030BDFFF7A6
:103E1000F9F92046FFF7B6FA8DF80700D4E711202C
:103E20008DF80700FFF73EF9CEE7FFF727FEFFF713
:103E3000EBFDFFF7DDFA01238DF80730C4E7FFF74C
:103E4000E3FDFFF7D5FA01238DF80730BCE7FFF754
:103E5000CFFA01238DF80730B6E7FFF7C9FA01233F
:103E60008DF80730B0E712238DF807301120FFF7E7
:103E700019F9A9E7174D0223174A294641F61240BE
:103E800001F044FB25F8340CAC3DD5F8AC30002BE8
:103E900028DB124D0223124A294641F6134001F055
:103EA00035FB25F8360CB03DD5F8B030002B20DBC3
:103EB0002046FFF74BFD8DF80700A04284D1022079
:103EC000FFF780F980E700BFE80100206A020020C8
:103ED0000C13002094020020D80E0020980200202D
:103EE000F00E002012238DF807301D20FFF7DAF8BE
:103EF0006AE712238DF807301E20FFF7D3F863E737
:103F000012238DF807301120FFF7CCF85CE7FFF79C
:103F1000B5FDFFF779FD02238DF8073054E7FFF771
:103F200073FD02238DF807304EE714238DF8073018
:103F30001120FFF7B7F847E72046FFF781FD8DF81E
:103F4000070041E714238DF807301120FFF7AAF886
:103F5000FFF794FD244BB3F87830002B7FF434AF97
:103F6000214BB3F87A30002B3FF42EAF0320FFF73C
:103F700039F929E704238DF80730FFF77FFD23E7A0
:103F80009DF80730082B0DD09DF80630042B1BD070
:103F90009DF8073043F010038DF807301220FFF72B
:103FA00081F811E7FFF76AFD0F4BB3F878301BB9C2
:103FB0000D4BB3F87A301BB904238DF80730E3E7D3
:103FC0000320FFF70FF9F7E7FFF71EFDE0E70020FA
:103FD000FFF768F80BE7FFF779F89DF8073018430B
:103FE0008DF807000DE700BFE80100200246416898
:103FF000204B19608168C3F8DC101F4903F1040CE1
:1040000003C98CE803001D4903F10C0C03C98CE8BB
:1040100003001B4903F1140C03C98CE80300194980
:1040200003F11C0C03C98CE80300117B83F82410F6
:10403000116999625169D96291691963D1695963AA
:10404000116A9963516AD963916A1964D16A596492
:10405000116B9964516BD964916B1965D16B59657A
:10406000116C9965516CD965916C1966D26C5A6660
:10407000704700BFE8010020CC660008D466000845
:10408000DC660008E466000800B54FF00A0CA0F8F2
:1040900000C090F805C04FF0030E6EF3030C80F8DB
:1040A00005C00903C1800272A0F809309DF80430F0
:1040B000C3725DF804FB2DE9F0418D0901F03F0367
:1040C000402A43D04FF0010EA2F12001C2F120049A
:1040D0000EFA01F12EFA04F421430EFA02FE1EF14B
:1040E000FF3E41F1FF3800EBC5046468C3F12007CF
:1040F000A3F1200650F8351021FA03FC04FA07F763
:104100004CEA070C24FA06F64CEA060CDC401A448A
:10411000402A1FD9013500EBC50250F8350052681E
:10412000C3F14006C3F12005203BB24000FA05F57B
:104130002A4320FA03F31A43B04040EA0C0022431A
:104140000EEA000008EA0201BDE8F0814FF0FF3EF0
:10415000F046C8E700200246EFE72DE9F04F83B0B4
:104160000C9C0D9F8E0901F03F01402A7AD001235B
:10417000A2F1200EC2F1200503FA0EFE23FA05F586
:104180004EEA050E9340013B4EF1FF3EA1F1200C9B
:10419000C1F120050EFA01F803FA0CFC48EA0C08FC
:1041A00023FA05F548EA050803FA01F50195A1F19E
:1041B000200AC1F1200907FA01FC04FA0AFA4CEAC4
:1041C0000A0C24FA09F94CEA090C04FA01F900EB8B
:1041D000C60A50F836B089EA0B09DAF804508CEABE
:1041E000050C019D09EA05090CEA080C89EA0B098E
:1041F000DAF804508CEA050540F83690CAF8045005
:104200000A44402A2BD9C1F14002A1F12005C1F195
:104210002001D3400EFA05F52B432EFA01F10B4392
:104220002EFA02FEC2F12005A2F12001D44007FAC5
:1042300005F52C4327FA01F10C43D740013600EB7A
:10424000C60550F836106A684C4057401C4007EAD3
:104250000E0E4C4082EA0E0240F836406A6003B00F
:10426000BDE8F08F4FF0FF339E468FE7418801395C
:10427000362929D8DFE801F01C1C1F221C1F22222E
:1042800028282828282828282528282825282828B4
:1042900028282528282828282828282828282828A1
:1042A000282828281C1F221C1C1C1C1C1C1C1C0031
:1042B00003691A70704703691A80704703691A60AE
:1042C000704701690A604B607047000070B5FFF7E6
:1042D00041F9002859D086462C49CB6E03FB00FCDF
:1042E0002B4C0CEB04025379032060F3030353714E
:1042F0004FF40043D380137A022060F30603137255
:10430000D1F89C30D1F8A0001B1A9BB2496F4E889F
:104310000E3EC6F34E0613FB06F39EB2012813D9D8
:10432000137A43F08003137249880E39C1F34E01AA
:10433000314489B2002353720138144BC3F8A000F2
:1043400050810C32334613E0137A6FF3C7131372A4
:104350000021104B19700D4B83F88E10B3F8981094
:10436000E8E718010C4D285A22F8020B01339BB2E2
:104370008B42F6D38B1B9BB25B009BB2063324F8B7
:104380000C30044B032203F80E2070BDE80100201E
:10439000D4080020D40E0020A861000838B50446D7
:1043A000FFF7D8F840B301461448C26E01FB02F291
:1043B000134D53194FF00A0C22F805C05A794FF0EB
:1043C000030C6CF303025A714FF40042DA801A7A3C
:1043D000072565F306021A72D2B26FF3C7121A727A
:1043E00000225A725A819C81240CDC81054B03F80F
:1043F00001C01A7080F88E2038BD00BFE80100208F
:10440000D4080020D40E0020F8B5002401E00134C7
:10441000A4B22301464AD25A4FF6FF739A42F6D10C
:10442000444BA3F898405B6F5D880E3D25F0010575
:104430002D042D0C05EB44010139B1FBF5F53E4B84
:104440009B89012B03D93D48FFF7A8FFF8BDFFF773
:1044500081F884460028F9D0364BD86E00FB0CF06A
:10446000354E83195A79032161F303025A714FF4CF
:104470000042DA801A7A022161F306021A72B289C6
:10448000BAB99A81197A62F3C71119725A725A81AC
:104490002B490A70274981F88E20C1F89C506F1E65
:1044A000C1F8A070DC811A825A829A82DA821222C2
:1044B0008253214A9289012A04D0214B032203F816
:1044C0000C20C3E7012D19D91A7A42F080021A7222
:1044D000184A132182F88E10526F54880E3CC4F390
:1044E0004E0400225A72134FC7F89C50013DC7F882
:1044F000A0505D81012199810E3311E01A7A6FF38A
:10450000C7121A7200220E490A700A4981F88E20D9
:10451000E7E71101064D695A23F8021B013292B2F6
:10452000A242F6D363009BB208333352C5E700BF03
:10453000A8610008E8010020D4080020000001065E
:10454000D40E0020F8B50E4615461F46044600B3AB
:10455000F4B1124BD86E04FB00F0114B00EB030CCE
:104560000A22C2529CF80520032363F303028CF84D
:1045700005204FF40052ACF80620ACF809608CF826
:104580000B5080228CF80820CCF80C70054A13558B
:10459000F8BDFEF7DFFF0446DAE700BFE8010020C0
:1045A000D4080020D40E002008B533B90023044AF3
:1045B0001370044A82F88E3008BDFFF7C3FFF5E799
:1045C000D40E0020E801002008B50B46014618462D
:1045D000FBF78EFE08BD00002DE9F04782B0FEF724
:1045E000B9FF40B90023394A1370394A82F88E3036
:1045F00002B0BDE8F0870646354FFB6E03FB00F8BE
:10460000344D08EB0509D7F8A0A0D7F89C40A4EBDF
:104610000A042A7AEB7A0093B5F8093002F0100206
:1046200003214846FFF730FDE11CFB6E9A1F9142C3
:1046300019D9A3F10904D7F8A0302344C7F8A03052
:10464000E31C25F80830224DD5F89400224609F1E4
:1046500009015044FFF7B8FF95F891301BB31B4B8D
:1046600003229A55BEE71A4B002283F89120C3F823
:104670009C20C3F8A02099F8083043F0010389F882
:104680000830062C03D9E31C25F80830DBE7C4F119
:104690000702D2B25200D2B2134389F808300A237B
:1046A00028F80530CFE70B4BB5F8A820D97AB3F836
:1046B0000900FEF797FB03460028D0D00549CA7AC7
:1046C000B1F809103046FFF76FFF91E7D40E0020D4
:1046D000E8010020D40800202DE9F84F1F469DF87E
:1046E00028B0DDF82C804388093B9BB2022B40F2B6
:1046F000A08081468A461446BBF1000F02D10FB15B
:1047000000237B70002649E003F10C0155E0F01D09
:10471000EA1DD20807EBD000FBF7EAFD32E01CF0FF
:10472000080F01D0022B09D01CF0100F01D0042B70
:1047300004D01CF0200F25D0082B23D1F11DEA1D39
:10474000D20807EBD101FBF7D3FD1BE0BBF1000F53
:1047500018D1BFB10120A84001381CF0010F01D0D1
:10476000022B56D01CF0020F01D0042B51D01CF0AC
:10477000040F01D0082B4CD09040F308FA5C22EAD9
:104780000000F85404B910252E44013424B2B8F1C5
:10479000000F03D0F31DB8EBD30F4BD9274B03EB1E
:1047A0000A131B799C4245DC04EB840309EB830369
:1047B0009D8818690028A7D0014606F0070293F8E3
:1047C00006C01F4B93F8803003F00F0315F0070F5E
:1047D000BCD10AB1B61A0836002FD3D0BBF1000FF6
:1047E0009DD11CF0010F01D0022B90D01CF0020FC4
:1047F00001D0042B8BD01CF0040F01D0082B86D0E5
:10480000F01DEA1DD208002107EBD000FBF70AFEDD
:10481000B8E722B9F3084FF0000C07F803C00B7893
:10482000034003FA02F2F308D2B2F95C0A43FA54E5
:10483000A8E7044E3046BDE8F88F00BFA861000825
:10484000E80100200400010608B54388013B362B2F
:104850002DD8DFE803F01C1C20241C2024242C2C41
:104860002C2C2C2C2C2C282C2C2C282C2C2C2C2C90
:10487000282C2C2C2C2C2C2C2C2C2C2C2C2C2C2C7C
:104880002C2C1C20241C1C1C1C1C1C1C1C00036924
:104890001878002108BD036918880021FAE7036928
:1048A00018680021F6E7036918685968F2E7034BB6
:1048B000034A40F28B610348FBF7AEFCEC6600084C
:1048C00038670008F066000810B4144B03EB0010C2
:1048D000C46890F804C08C4508D301EB810334F818
:1048E00023208BB29A420ED0002000E0002000EB83
:1048F000800334F823208BB29A4206D2604504DA52
:10490000013000B2F3E708B201E09A4202D15DF84B
:10491000044B70474FF0FF30F9E700BFA861000873
:104920000146002000E001300301044AD35A8B42C3
:10493000F9D300D170474FF0FF30FBE7A8610008C2
:1049400038B51D46B0F809300B80C37A1370012BBF
:104950000FD814460888FFF7E3FF286000280ADB19
:104960002178FFF7B1FF049B1880002805DB0020A9
:1049700038BD0348FCE70348FAE70348F8E700BFFF
:104980000000010600000206110009062DE9F04FA3
:1049900087B00DF10E03009304AB0DF115020DF17C
:1049A00016017648FFF7CCFF002840F0A180FEF703
:1049B000D1FD0646002800F0A6800499704B03EB59
:1049C0000113DD68002301930093BDF90E202846F2
:1049D000FFF782FE0290182800F29E80441EE40831
:1049E000C4F10304E4B2A400E4B20730C3080293A4
:1049F000B3F5803F80F092801E33B3F5C06F00F2B4
:104A00009580EB882A6943F40043009302AB9DF83C
:104A10001510BDF81600FEF7D5F90346002840F042
:104A20008E80584F4FF0000ACDF804A0CDF800A0BA
:104A30003B46BDF90E2004992846FFF74DFE57F876
:104A40007E3C03FB06F8DFF834B108EB0B099DF858
:104A500015300093BDF81630512203214846FFF768
:104A600013FB07F859ACEA3F029A042A6FD9C9F838
:104A70000C2002F10A034449C96E881F834211D9F0
:104A8000414BC3F89C2010390291C3F8A01040227A
:104A900083F8912003F1EA02C3F894204FF4004216
:104AA000A3F8A820029A02F10A032BF8083035492E
:104AB00009F11000FBF71CFC334B93F891305BB904
:104AC000EA8842F400429DF81510BDF81600FEF782
:104AD00089F90346002848D12C4B03229A5500231C
:104AE0009DF81520BDF816103046FFF75DFD07E074
:104AF00003469DF81520BDF816100020FFF754FD61
:104B000007B0BDE8F08F00239DF81520BDF8161002
:104B10001846FFF749FDF3E7002466E79DF81520E6
:104B2000BDF816103046FFF73FFDE9E7184B9DF83A
:104B30001520BDF816103046FFF736FDE0E79DF86A
:104B40001520BDF816103046FFF72EFDD8E799F86E
:104B500008301C4344F0020489F8084007F1EA01D8
:104B600009F10C00FBF7C4FBA6E79DF81520BDF882
:104B700016103046FFF718FDC2E700BFD40800202A
:104B8000A8610008D2020020E8010020D40E002015
:104B90000400010670B586B00DF10E03009304AB5E
:104BA0000DF115020DF116016948FFF7C9FE002845
:104BB00066D1674B1C7A14F0020F6AD0C4F38104EB
:104BC000C4F1040403F10C050499624B03EB0113D7
:104BD000DE680023019301220092BDF90E203046C9
:104BE000FFF77AFD0730C308B0F5002F56D29C427C
:104BF00000F28F80F28842F4004200922A469DF82B
:104C00001510BDF81600FEF795F8034600284DD1A3
:104C100004F10A03504AD26E911F8B4257D904F116
:104C20001E03B3F5C06F49D84B4BC3F89C40103AF4
:104C3000C3F8A020502183F8911003F1EA01501825
:104C4000C3F89400BDF81600A3F8A4009DF8150061
:104C500083F8A6004FF40040A3F8A8002846FFF709
:104C6000B3FCFEF777FC044600285BD100239DF8D7
:104C70001520BDF816102046FFF796FC06B070BD53
:104C800003469DF81520BDF816100020FFF78CFC98
:104C9000F4E72F4DEC68A4B2103595E79DF8152088
:104CA000BDF816100020FFF77FFCE7E79DF8152000
:104CB000BDF816100020FFF777FCDFE7274B9DF8C3
:104CC0001520BDF816100020FFF76EFCD6E7224B2A
:104CD000002283F891200194012300932B46BDF913
:104CE0000E2004993046FFF7F7FCF28842F40042A8
:104CF0009DF81510BDF81600FEF75AF80346002877
:104D0000AFD09DF81520BDF816100020FFF74CFC21
:104D1000B4E7134B9DF81520BDF816100020FFF7DF
:104D200043FCABE70C4BDB6E094D03FB00559DF8D4
:104D300015300093BDF81630702203212846FFF786
:104D4000A3F90023EB60074B03221A558EE700BF3F
:104D5000D4080020A8610008E80100200400010632
:104D600010000706D40E00202DE9F04F85B07C4BD3
:104D7000B3F80960B5B2DF7A2846FFF7D1FD041E0B
:104D8000C0F2DE8039462046FFF79EFD0028C0F2C3
:104D9000D080744B03EB0414E46800EB800004EB58
:104DA0008004A279704B93F8803003F00F0312F067
:104DB000010F01D0022B10D012F0020F01D0042BF2
:104DC0000BD012F0040F01D0082B06D0674B3A46E7
:104DD00029460020FFF7E8FBBEE0FEF7BBFB82465A
:104DE000002800F0B380604BDB6E03FB00F9DFF8B6
:104DF00070B109EB0B080A2329F80B3098F805303D
:104E0000032262F3030388F805304FF44053A8F8F7
:104E10000630A3880393082B33D80C22102B00D91B
:104E20000422182B00D90022A8F8096088F80B701A
:104E3000412188F808100733DB080393042B30D88E
:104E400042F0430288F808202269E2B1E388009327
:104E500003AB39462846FDF7B5FF0646D0B92069B1
:104E6000A0B1039A08F10C01FFF7AEFB26B93E4B47
:104E700093F89130002B4ED03D4B032203F80A20CB
:104E800064E00822CAE704F10C02DFE7E368C8F82F
:104E90000C30EBE703463A4629465046FFF784FBC1
:104EA0005AE02269E388009303AB39462846FDF7B0
:104EB00089FF064640BB039B2B4AC2F89C30C8F8CA
:104EC0000C300A33D26E911F8B4218D9103A0392DC
:104ED000254BC3F8A020402283F891202269C3F813
:104EE0009420E288A3F8A820039A02F10A032BF881
:104EF000093008F110012069FFF766FBB6E71A4B8D
:104F0000002283F89120EFE703463A4629465046AF
:104F1000FFF74AFB20E0E28839462846FDF762FFAA
:104F200003460028A8D03A4629465046FFF73CFBE6
:104F300012E0104B3A4629460020FFF703FB05E03C
:104F40000D4B3A4629460020FFF7FCFA0023084A99
:104F50001370054A82F88E3005B0BDE8F08F00BFAF
:104F6000D4080020A8610008E80100200100010623
:104F7000D40E002011000906000002062DE9F043BE
:104F800083B07C4BB3F80970BDB2DE7A2846FFF7D8
:104F9000C7FC041EC0F2DF8031462046FFF794FCB8
:104FA0000028C0F2D180744B03EB0414E46800EBDA
:104FB000800004EB8004A37903F03F016F4A92F86C
:104FC000802002F00F0213F0080F01D0022A13D044
:104FD00013F0100F01D0042A0ED013F0200F01D0CF
:104FE000082A09D0072900F0A880654B32462946D7
:104FF0000020FFF7A7FAB4E05E4B93F8088018F0A2
:10500000020F29D0C8F38108C8F1040803F10C0984
:10501000A3880733DA08B8EBD30F2CD06388092BA9
:1050200022D0A3F10A0292B2012A24D9B3F5187F43
:1050300021D040F2612293421DD040F2622293427D
:1050400019D040F26322934215D04E4B3246294686
:105050000020FFF7A9FA8AE0464BD3F80C801FFA2C
:1050600088F803F11009D3E72069A2EB08020021B8
:105070004044FBF7D7F9E388009343464A4631465C
:105080002846FDF757FE0346002850D1B8F1040F1B
:1050900015D9384B1B880A3B434510D2374A50215B
:1050A00082F8911021691944C2F89410A2F8A470F2
:1050B00082F8A660E188A2F8A810984603E02F4B7A
:1050C000002283F89120424621694846FFF77CFA86
:1050D000FEF740FA8046C8B1284BDA6E02FB00F2B8
:1050E000244953180A2050525979032262F30301CC
:1050F00059714FF44051D980A3F80970DE726021D4
:1051000019720021D960204B03F808201B4B93F83B
:10511000913033BBE28831462846FDF749FE03460D
:10512000F8B1324629464046FFF70CFA19E03246FC
:1051300029460020FFF706FA13E0144B32462946B1
:105140000020FFF7FFF90CE0114B32462946002002
:10515000FFF7F8F905E00F4B324629460020FFF72C
:10516000F1F90023084A1370044A82F88E3003B024
:10517000BDE8F083D4080020A8610008E801002001
:105180002200000810000706D40E002002000106CD
:1051900011000906000002062DE9F04182B0FEF779
:1051A000D9F9002800F08C8006464A4BD86E4A4B4D
:1051B00000FB06301B88DC1E0A2B5BD0464D2A7A8A
:1051C00002F010020023009342F020020321FEF7B8
:1051D0005BFF22463F4BD3F8941005F10900FFF71F
:1051E000F3F92B7A13F0010F5CD03A4BB3F8A830E7
:1051F000B3F5004F23D1374BD3F89C50D3F8A030F0
:105200001C44A5423DD8334FB7F8A4804046FFF771
:1052100087FB044697F8A6703946FFF755FB024610
:10522000002C38DB002836DB2C4800EB04100195FD
:10523000012300932A4B2146C068FFF74DFA254B06
:10524000002283F89120C3F89C20C3F8A020B3F873
:10525000A82093F8A610B3F8A400FDF7A9FD034613
:1052600058B31C4991F8A620B1F8A4103046FFF7B6
:105270009BF92BE0184B1C7A6FEA540404F00704E6
:105280009CE71449174B91F8A620B1F8A410002010
:10529000FFF78AF91AE0144B3A4641460020FFF71F
:1052A00083F913E00B4BD3F894202244C3F89420E5
:1052B000D3F8A0202244C3F8A0200C4B03229A5517
:1052C00000231A4619461846FFF76EF902B0BDE8EA
:1052D000F08100BFE8010020D4080020A861000888
:1052E000D20200201000070600000206D40E0020A3
:1052F0002DE9F843444BB3F80C901FFA89F0FFF7FF
:105300000FFBB0F100087ADBFEF724F90546002810
:1053100078D03E4BDC6E00FB04F43B4EA7197B7942
:10532000032262F303037B714FF40043FB803B7A5B
:10533000042262F306033B72DBB26FF3C7133B72C6
:1053400000237B727B81A7F80C90314B03EB081391
:10535000B3F80290B9F1070F15D0B9F1080F23D0B7
:105360000023FB812A4B03EB0813DB681B7B3B7498
:1053700087F81190264800EB0810D0F808C007F114
:105380001201002327E000214046FFF79DFA204B41
:1053900003EB0813DA6800EB800002EB8000428820
:1053A000FA811B793B74E3E700214046FFF78CFA52
:1053B000174B03EB0813DB6800EB800003EB800066
:1053C0004288FA811B7B3B74D2E701F8010B013361
:1053D000DBB20CF1010C9CF8000020B10B4AD26E3C
:1053E000123A9342F1D308700C33A353094A0323B2
:1053F000535500231370054A82F88E3002E00648A8
:10540000FEF7CCFFBDE8F883D4080020E8010020B7
:10541000A8610008D40E0020000002062DE9F0412A
:10542000344B9D899E7BA8B2FFF77AFA071E5CDB9E
:1054300031463846FFF748FA041E51DB2E4800EB90
:105440000710C768FEF786F8864600284BD02B4B1E
:10545000DB6E03FB00FC27480CEB000253790321B1
:1054600061F303035371002393716FF07F01D171D6
:10547000117A4FF0060868F306011172C9B263F39E
:10548000C711117253729372D3729581967307216B
:10549000D17304EB840407EB840779881182B988FF
:1054A0005182F9889182BD6816322C7854B1134923
:1054B000C96E16398B4205D202F8014B0133DBB2BB
:1054C0000135F2E7147010332CF800300C4A032336
:1054D00002F80E3000231370084A82F88E3002E082
:1054E0000848FEF75BFFBDE8F0810748FEF756FF6E
:1054F000F9E700BFD4080020A8610008E8010020F7
:10550000D40E002011000906000002062DE9F04F1C
:1055100087B0059101929B46A0F5E053123B9BB2E8
:10552000012B00F2AE80FFF7FBF90028C0F2AD803E
:10553000574B03EB0010C36804931B699BB11B78A6
:105540000393039B002B40F092804FF000084746E6
:10555000BBF1000F40F39180059BC3F80080F81D5C
:10556000C0F3CF008EE0049B1B7B0393E9E798898F
:105570006CE09AF80C30009377E0DE6836E04FF08C
:10558000FF33059A136000207CE0FFF7C9F9051E80
:1055900041DB49462846FFF797F9002835DB3C4BAD
:1055A00003EB0513DB6800EB800003EB800008EBE6
:1055B0004803019901EB830241F82300002830D011
:1055C000334B03EB0513536008F10108976057FA5A
:1055D00086F70134E4B2009B9C4225D804EB840397
:1055E0000AEB83031A69002AC7D01668BBF1000FC3
:1055F000EDDD300CC6F30729D845C0D00028C4D152
:10560000B9F1000FC1D10020D1E74FF0FF33059A67
:105610001360002036E04FF0FF33059A136000203E
:1056200030E000235360CFE7029B0133DBB20293EB
:10563000029B039A93428BD8029B03EB8303049A49
:1056400002EB83031A69002A91D01088FFF768F9EA
:10565000051EE9DB0E4B03EB0513D3F80CA0DAF8BB
:105660001030002B85D01B7800930124B3E74FF056
:105670000008012302934746DAE70023059A1360E6
:105680006DE7002007B0BDE8F08F0020FAE700BF0B
:10569000A861000808B54F4B93F86830A3B14D4B93
:1056A00093F88E301BB94C4B1B78012B0DD0494B16
:1056B000D3F88C3003F0FF13B3F5981F18D0454B87
:1056C00093F88E30032B16D008BD444B5B7903F062
:1056D0000F03032BEBD1414B1B88072B04D93D4B08
:1056E000032283F88E20E2E70820FDF77FFFDEE744
:1056F000FEF7ECFDE3E7394BDB881B0B022B11D0E7
:10570000082B42D0082B49D0082B50D0002B57D162
:105710000520FDF76BFF00232F4A13702D4A82F8F6
:105720008E30D1E72D4B1A7A02F0E003402B0AD0DD
:1057300002F0EF01602913D0202B1DD0002BC3D124
:10574000FFF72AFDC0E7254909880A29F0D112F0A0
:10575000100F02D0FFF71AF9B6E7FFF705FBB3E722
:105760001E4909880A29E7D11A4991F89110402960
:10577000E2D1FEF731FFA7E712F0100F02D0FFF7DA
:1057800009FAA1E7FFF7FAFB9EE7144A127A02F042
:105790007F02012AB6D1FEF737FE95E70F4A127A4B
:1057A00002F07F02032AAFD1FFF7A2FD8CE70B4A7C
:1057B000127A02F07F02052AA8D1FFF72FFE83E7B5
:1057C0000649074BCA7AB1F809100020FEF7BAFE65
:1057D000A1E700BFE8010020D40E0020D40800207B
:1057E00000000106184B93F8243063BB2DE9F0410B
:1057F0004FF0000812E0C2680023FEF737FD0134C5
:10580000725BBBB29A4207D204EB84039D0070190D
:105810000369002BEFD1F2E708F101084FEA081302
:105820000A4AD25A4FF6FF739A4206D0074B03EB4F
:105830000813DE681F790024E6E7034B9B6A03B177
:105840009847BDE8F0817047E8010020A861000892
:105850002DE9F04383B010F0070F04D180460F46C6
:105860001646002410E0154B154A4FF4E061154828
:10587000FAF7D2FCFEF7E8FFCDE900012A464946D7
:105880004046FEF76AFC0134BC4214DA04EB4403E0
:1058900006EB830256F82300D2F808900028F2D0D5
:1058A0008588402DE6D9EA1DD208016908EBD900A8
:1058B000FAF71EFDE7E703B0BDE8F08308670008CC
:1058C00048670008F06600082DE9F04110F0070F66
:1058D00004D180460F46164600240FE0134B144AAD
:1058E00040F22F711348FAF797FC4046FEF7E3FBAE
:1058F00002460B462846FEF7B9FC0134BC4213DAD7
:1059000004EB440306EB830256F823509168002D04
:10591000F3D0AA88402AE8D90732D20808EBD1018F
:105920002869FAF7E5FCE8E7BDE8F08108670008B8
:1059300028670008F066000808B5FEF7F1FFB0F12F
:10594000FF3F09D0054B03EB0010C26813690BB190
:10595000187808BD107BFCE70020FAE7A861000872
:1059600030B587B001210846FCF71EFF01214FF436
:105970008040FCF727FF00248DF80C408DF80F4085
:105980000225029502A91148FCF79CFE0121204640
:10599000FCF7F2FF04958DF814400C238DF81530B8
:1059A00001248DF8164004A8FCF734FE07238DF877
:1059B00004300F238DF805308DF806308DF8074040
:1059C00001A8FCF777FC07B030BD00BF0000024023
:1059D00010B584B001214FF48040FCF7F3FE0223A0
:1059E000029300248DF80C400C238DF80D308DF8B7
:1059F0000E4002A8FCF70EFE07238DF804300F239B
:105A00008DF805308DF806308DF8074001A8FCF7B9
:105A100051FC04B010BD000030B587B0012108462C
:105A2000FCF7C2FE01214FF48040FCF7CBFE0024BE
:105A30008DF80C408DF80F40082502950DEB0501FF
:105A40001048FCF73FFE03212046FCF795FF049524
:105A50008DF814400C238DF8153001248DF8164074
:105A600004A8FCF7D7FD09238DF804300F238DF827
:105A700005308DF806308DF8074001A8FCF71AFCB8
:105A800007B030BD0000024010B584B001214FF4D2
:105A90008040FCF797FE0823029300248DF80C4009
:105AA0000C238DF80D308DF80E4002A8FCF7B2FDE6
:105AB00009238DF804300F238DF805308DF806305A
:105AC0008DF8074001A8FCF7F5FB04B010BD0000FD
:105AD00008B504210148FCF748FE08BD000002405B
